:10400000008000209160000079600000796000006D
:1040100000000000000000000000000000000000A0
:1040200000000000000000000000000079600000B7
:10403000000000000000000079600000E560000062
:10404000796000007960000079600000796000000C
:104050007960000079600000796000007D600000F8
:104060007960000029590000796000007960000043
:10407000796000007960000039590000F5580000AF
:104080007960000079600000D1580000796000007C
:104090000000000079600000796000007960000095
:1040A00079600000796000007960000079600000AC
:1040B0000000000010B5064C2378002B07D1054BFB
:1040C000002B02D0044800E000BF0123237010BD84
:1040D0002802002000000000B8030100044B10B5C6
:1040E000002B03D00349044800E000BF10BDC046C8
:1040F000000000002C020020B8030100024A537E99
:10410000DB09FCD17047C04600400042044B80B23E
:1041100018819023C046013BDBB2002BFAD17047D7
:1041200000480042014B80B21881704700480042AD
:10413000022310B5074C227B13432373FFF7DEFFE6
:10414000C046C046C046237EDB07FCD5608B00B26C
:1041500010BDC04600400042082210B5054B80B299
:1041600089B29884D98499880A439A80FFF7C6FF58
:1041700010BDC046004000421F22F0B5594D89B025
:104180002B69070093431A001C2313432B61FFF78D
:10419000B5FF0822AB8880249343AB80FFF7AEFFC6
:1041A0006620FFF7B3FF0022002300920193240151
:1041B0000795FFF7BDFF07F0E7FB02000B00009833
:1041C000019905F0AFFE013CA4B200900191002CD2
:1041D000EFD1FD2300229B0506F0CAFD802600904A
:1041E00001914148FFF792FF002400253601FFF7B7
:1041F0009FFF07F0C9FB02000B002000290005F01B
:1042000091FE013EB6B204000D00002EEFD1FD2359
:1042100000229B0506F0ACFD029003913000FFF7F1
:1042200075FF009A019B0298039907F013F800228A
:104230002E4B06F093F902000B000490059100202C
:104240002B4906F08BF903F0B7FD07F067FB04B2CA
:10425000200007F099FB02000B000020244906F023
:104260007DF90022234B06F083FD02000B0000982D
:10427000019906F0EFFF03F09FFD07F04FFB05B239
:104280002E052405240D360D20003100FFF764FFB4
:104290009A231F21184A9B00D25C079B0A401B6986
:1042A0008B431343079A1361FFF728FF012338005C
:1042B0003B70124A124B7C80BA60FB60114A124B71
:1042C000BE803A617B61009B019C3D86BB61FC61C5
:1042D000029B039C3B627C62049B059CBB62FC626C
:1042E00009B0F0BD00400042990300000098A940C9
:1042F0000000A04000987940BCF800001F85EB51F9
:10430000B81ED53FC2F5285C8FC20740024A537ED3
:10431000DB09FCD17047C04600400042002370B565
:10432000324C10262370FFF7F1FFFF20304B314A4B
:104330001B6811689A065B010340C90E520F0B43BC
:10434000120213432385A3882B4A0F251A40C0234A
:104350009B001343A380FFF7D9FF3022A388934328
:104360003343A380FFF7D2FF01227021A378AB4330
:104370001343A370A3788B431E43A670E3783139AF
:104380008B43190020230B43E370A3889343A3803E
:10439000FFF7BCFF9A231F21184A9B00D25C2369B8
:1043A0000A408B4313432361FFF7B0FF2369144A8C
:1043B0001A40C0235B0113432361FFF7A7FF7F224D
:1043C0006378AB430D3D2B43637063781340637098
:1043D000F02322691B0513432361FFF797FF23781E
:1043E0001D432570FFF792FF70BDC046004000429C
:1043F0002460800020608000FFF8FFFFBCF8000010
:10440000FFE0FFFF10B50A2002F02AF80021182073
:1044100002F05EF810BD000030B5094D094CAB68E4
:104420005B035B0F9B001C590460AB6801619BB28E
:1044300043606343A4008360C460426130BDC046F2
:104440000040004114F50000F7B580261A4D019197
:104450006F6803333E439B086E60002B2BD0174ED2
:104460002E802E7DF107FCD51E000768991BBF0822
:104470008F4219D9002E17D0FF2117788C433C4367
:104480000F4957780C403F023C439778013E39046E
:104490000C4F2740D478BFB20F43240601993C4308
:1044A00010C101910432E0E7074B2B802B7DDB0725
:1044B000FCD53300D1E7F7BD0040004144A5FFFF24
:1044C000FF00FFFFFFFF00FF04A5FFFF044B054AAD
:1044D0004908D9611A801A7DD207FCD57047C046B9
:1044E0000040004102A5FFFF70B504000D0016005A
:1044F000E36829002000B34205D2FFF7E7FFE36835
:10450000ED18F61AF4E7FFF7E1FF70BDF0B5514979
:1045100085B0514A514B0868496806F01FF802906F
:1045200003914F494D4B4C4A0868496806F016F80C
:1045300000244C4B009001911C704B4B1C704B4B5A
:10454000A0B21B78012B19D02000022B5CD007F001
:104550001BFA474A474B06F00BFC0022464B05F07E
:10456000FDFF03F081FC0022444B05F0DBFC002240
:10457000434B06F0FDFB06000F000EE007F03EFA8D
:1045800000223D4B05F0EAFF00223D4B05F0C8FA42
:1045900000260027002800D0384F009A019B100009
:1045A000190005F0BFFC32003B0006F0E1FB009A69
:1045B000019B06000F000298039906F04BFE3200A3
:1045C0003B0005F0AFFC0022002306000F0005F0C1
:1045D000A7FA00282FD0012200260027224B1A70AC
:1045E0000022284B3000390006F0C2FB03F0E4FB48
:1045F000254B6500ED1807F091F9244B0134288014
:104600009C429CD105B0F0BD07F0BEF9184A194B89
:1046100006F0AEFB0022184B05F0A0FF03F024FCCF
:1046200003F06AFC124A1A4B05F098FF0022144B63
:1046300005F078FC9FE70022104B3000390005F0B0
:1046400083FA0028CCD00122064B00261A700B4FAB
:10465000C6E7C046087100206666666666660A4060
:10466000F070002000710020017100201071002006
:10467000182D4454FB2119400088C3400000F03F2E
:104680000000E03F00F88F404402002010270000A7
:10469000FB21094000220A4B10B50A491A700A4A48
:1046A0000A4B0A604B600A490868496806F060FBDB
:1046B000084B1860596072B6FFF728FF62B610BD4C
:1046C00010710020E0700020CD3B7F669EA0F63F79
:1046D000E8700020F070002070B50022184B040034
:1046E0000D0005F01DFA002826D10022154B2000F0
:1046F000290005F029FA002801D00024114D124E9E
:104700003460756072B63068716803F055FB05F06F
:104710002FFA0E4B80B21880188880B207F034F957
:1047200000220B4B06F024FB0022094B05F016FF7C
:104730003060716062B670BD0024014DDFE7C04695
:10474000000024400088A340F8700020BA700020C8
:104750000088C34070B50022002304000D0005F05E
:10476000DFF9002801D000240025044B1C605D60A7
:1047700072B6FFF7CBFE62B670BDC046087100206E
:1047800070B50022002304000D0005F0C9F90028CF
:1047900001D000240025094B20001C605D60084BFF
:1047A00029001A685B6805F0D9FE064B186059604D
:1047B00072B6FFF7ABFE62B670BDC046F070002067
:1047C000E0700020E870002070B500220023040093
:1047D0000D0005F0A5F9002801D000240025094BA3
:1047E00009491C605D60086849682B00220006F0DA
:1047F000BFFA064B1860596072B6FFF787FE62B6C3
:1048000070BDC046E8700020E0700020F07000200D
:10481000F8B504000E0017000025002E0ED001236D
:104820001E4204D06019390005F074F80D006000D4
:10483000390005F059F976088CB2EEE72800F8BD8A
:1048400030B5174B89B01B6804A90493154B0500BC
:104850001B684B60144B1B688B60144B1B68CB6050
:1048600000236C46CA58100E18551800140C6844E2
:1048700044700433140A8470C270102BF1D10024E8
:104880006B4660001A5D28180949013407F0ACFE38
:10489000102CF5D100230135EB7709B030BDC046AF
:1048A0000CA0800040A0800044A0800048A08000B0
:1048B00064F30000F7B5012501910400104E01F0EA
:1048C0001FFC10498F6873689B0E2B408A689446C2
:1048D0007268920E2A4093420CD167450AD3002B8E
:1048E0000BD120604B68DB1B074F5F43019B3F0DE3
:1048F0001F80F7BD13006746E8E70130F1E7C046C7
:1049000000ED00E010E000E05555000073B56B4687
:104910009D1C2900040001A8FFF7CCFF1F4B204E6F
:104920001978019A1F48002904D0002119702B889A
:10493000326003801C4900880B6801330B603368C8
:10494000D21A2B880192834220D31B1A2B800B682A
:10495000DBB2A3720B681B0ADBB2E3720B681B0CA1
:10496000DBB223730B681B0E6373019BDAB2A27375
:104970001A0AD2B2E2731A0CD2B21B0E22746374FA
:104980002B88DAB21B0AA274E37473BDFA26B60050
:104990009B191B1A013A2B800192D8E74071002025
:1049A000EC6F0020E86F0020645000200122F0B579
:1049B0004A4B85B019684A4C4A4F114202D12178BE
:1049C0001A603970484E494B32889A4207D1484B99
:1049D00048481B78002B00D14748FFF797FF474D09
:1049E0002B68022B02D14448FFF790FF23783A78D6
:1049F0009A420FD0237820783B70C0B2002829D08B
:104A000000233F4A2B6013703E4A3380137001220B
:104A1000374B1A702378002B1AD0FFF789FB3A4BDB
:104A2000040018882B68394A991E80B2FFF7F0FEFF
:104A300083B200935800364BC05EFFF773FB2B68C0
:104A4000344A022B09D869460988013311802B604A
:104A500005B0F0BDFFF75AFBDCE711883288E5B2FC
:104A60000192520010001600153002902A482412BC
:104A7000101803902948CFB212181D4814368446E6
:104A80000078090AE4B2002825D01B488755029E09
:104A90008155039945548454FA20019A12490132F0
:104AA00092B20A80800082420DD162461078144C86
:104AB0000122002800D1134C22700122424060469E
:104AC000027000220A806946124A09880133118067
:104AD0000A4A1360BCE70748D8E7C0466850002080
:104AE000BC700020F66F0020FC6F0020E703000080
:104AF000000000202A6000206C500020F86F002089
:104B00004171002042710020BA700020102700007F
:104B100044020020F46F0020E4070000E5070000D5
:104B200010B5382204490548FFF776FC04490548CA
:104B300000F05AFD10BDC04600F40000A070002037
:104B40004C7100201471002030B58FB02B492C48D7
:104B500001F056F82B48FFF773FE01210D2001F0FC
:104B6000A1FD00210D2001F0E9FD72B600232648C9
:104B7000264A2749595CC154D15401330A2BF8D134
:104B8000244B254D254C26495918695CC154D154F4
:104B90000133A342F7D162B6FFF734FCFFF7BEFB47
:104BA000204B684619695A6906F0C2FF1E4C38222C
:104BB0006946200006F0BCFF2378002B08D00423B0
:104BC000E15E0223E05EFFF7C7FA0122174B1A707D
:104BD0000020FFF75FFD00201549FFF77DFD154818
:104BE0001549FFF7B7FD00201449FFF7EDFD144A02
:104BF0006421144800F038FE0FB030BD40420F0071
:104C00004C710020BD7000206C5000202A600020F4
:104C10000AF50000B40F000000F50000BE0F000010
:104C20004CF0FFFFA070002068700020B8700020DA
:104C300000406F40666666666666FA3F0000E03FC9
:104C4000AD49000043710020F0B5ABB001F058FA57
:104C5000C54A1368C31A132B25D9C44C1060200011
:104C600000F0CEFC00281ED0C14D2B78002B35D093
:104C700000210D2001F062FD72B60023BD4A2B70A9
:104C80001370BD4A137062B6BC4D280000F0D1FF0E
:104C9000BB49280000F0B4FFBA49280001F0E8F948
:104CA000200000F0E6FCB24B1B78002B14D0B14A78
:104CB0001378002B03D1B04B1B78002B0CD013784A
:104CC000AE48DBB2002B01D100F068FC0023AE49F6
:104CD0001370AE4A01F0A3F92BB0F0BD200000F034
:104CE000C8FCAB49040007F09FFCAA49002800D18A
:104CF00048E3A949200007F097FC00280ED1A74BF4
:104D0000A74C0293A74BA84A0193A84B6421009398
:104D10002000A74B07F036FC210033E3A549200013
:104D200007F082FC002800D082E1944DA24EA349F6
:104D3000280001F09DF9A249280001F099F9337883
:104D4000974C9B07DB0F9F4A009364219E4B2000EA
:104D500007F018FC2100280001F08AF99B4928007F
:104D600001F086F933699A4FDB06DB0E3A000093B7
:104D70006421984B200007F005FC2100280001F079
:104D800077F933693A00DB04DB0E00936421924B20
:104D9000200007F0F7FB2100280001F069F93369D2
:104DA0003A001B011B0F009364218C4B200007F07D
:104DB000E9FB2100280001F05BF98949280001F096
:104DC00057F973787F4ADB0900936421854B2000F3
:104DD00007F0D8FB2100280001F04AF973783A0067
:104DE0001B071B0F009364217F4B200007F0CAFBB9
:104DF0002100280001F03CF97C49280001F038F935
:104E0000B3783A005B065B0F00936421784B200077
:104E100007F0B8FB2100280001F02AF9B3783A0026
:104E20001B071B0F00936421724B200007F0AAFBA5
:104E30002100280001F01CF96F49280001F018F941
:104E4000F3786E4A9B069B0E009364216C4B200006
:104E500007F098FB2100280001F00AF969492800B1
:104E600001F006F9B3883A009B069B0F009364217A
:104E7000654B200007F086FB2100280001F0F8F8C0
:104E8000B388504A1B07DB0F009364215F4B20005F
:104E900007F078FB2100280001F0EAF8B388494ABE
:104EA0009B07DB0F00936421594B200007F06AFB3E
:104EB0002100280001F0DCF8B388424ADB07DB0F51
:104EC00000936421534B200007F05CFB2100280075
:104ED00001F0CEF8B3883A005B055B0F00936421C4
:104EE0004D4B200007F04EFB2100280001F0C0F8D8
:104EF0004A49280001F0BCF8338D404ADBB20093E8
:104F00006421474B200007F03DFB2100280001F001
:104F1000AFF8338D394A5B055B0F00936421414B39
:104F2000200007F02FFB2100280001F0A1F8F38CEE
:104F30003D4A1B051B0D6421200007F023FB2100C7
:104F4000280001F095F8B38C384A1B051B0D64212D
:104F5000200007F017FB2100280001F089F8280045
:104F6000164901F085F89EE6F06F002014710020CC
:104F7000BC70002041710020427100204C71002063
:104F800040420F00CAF700006C500020BE0F000026
:104F900034F5000038F5000047F50000BD70002032
:104FA000FE6F0020006CDC025FF500006DF5000074
:104FB0004CF5000078F50000004000427DF500004F
:104FC000A7F50000B6F50000AEF50000C1F5000041
:104FD000D4F50000CCF50000E0F50000E8F5000095
:104FE000EEF50000F7F5000000F6000008F60000FE
:104FF00011F6000019F6000024F6000037F6000054
:105000002EF6000041F6000048F6000050F60000C1
:1050100058F6000061F600006BF6000076F600001E
:105020007DF600008CF6000096F60000ABF600005E
:10503000D549200007F0F8FA00285CD1D34DD449B7
:10504000280001F015F800226426D24BD24C0293BE
:10505000D24B6421009201932000D14BD14A07F03A
:1050600091FA2100280001F003F8CF4FCF4B3A000E
:1050700001933100CE4B0096200007F083FA210007
:10508000280000F0F5FFCB4B3A000193FA239B0078
:1050900000933100C84B200007F074FA210028006B
:1050A00000F0E6FFC54B3A000193C54B3100009379
:1050B0002000C14B07F066FA2100280000F0D8FF5D
:1050C0000022C04B31000293BF4B2000009201939D
:1050D000BE4BBF4A07F056FA2100280000F0C8FF77
:1050E000BC4BBD4A0193BD4B310000932000BC4B2B
:1050F00007F048FA2FE7BB49200007F095FA00288F
:1051000015D1B94AB94BA44C069207930C230393CB
:10511000023B0293AA4B04900193FA239B00009355
:105120006423B34A1900200007F02CFAF4E5B149D2
:10513000200007F079FA002805D0AF49200007F0D9
:1051400073FA002827D1AD4AAD4B934C1B780A92D5
:10515000AC4A9B00127820000992AB4A1278089260
:10516000AA4A1168526806910792A94A11685268C2
:1051700004910592A74A1168526802910392A64AC7
:105180001168526800910192A44A64219B58A44A74
:1051900007F0F8F9C0E5A349200007F045FA002818
:1051A00005D0A149200007F03FFA002826D17A4C0B
:1051B000924B9E4A6421200007F0E4F9734E2100CF
:1051C000300000F055FF0025994F6B00FB5E642115
:1051D000984A200007F0D6F92100300000F048FF7F
:1051E000954B01359D42EFD1944B6421FB5E20002D
:1051F0008E4A07F0C7F921003000B2E6904920003E
:1052000007F012FA00280FD16E256D4429001CA862
:10521000FFF750FB2B88604C00938A4A1C9B64214B
:10522000200007F0AFF977E58749200007F0FCF987
:105230008649002800D1A5E08549200007F0F4F94F
:10524000002808D101210D3001F078FA72B601234F
:105250002B7062B627E57F49200007F0E5F90028AA
:1052600008D101210D3001F069FA72B601237A4AA2
:105270001370EDE705227949200007F0E6F90028D0
:1052800010D1601D06F00FFCFFF704FA5C4B634A77
:105290001B78414C9B009B58714A6421200007F009
:1052A00071F939E505226F49200007F0CEF9002891
:1052B00010D1601D06F0F2FBFFF70EFA364C564B8C
:1052C0001A685B686421009201932000664A07F027
:1052D00059F921E505226549200007F0B6F90028B3
:1052E00007D1601D06F0DAFBFFF734FA2A4C494B70
:1052F000E6E705225E49200007F0A7F9002807D15C
:10530000601D06F0CBFBFFF73BFA234C404BD7E781
:1053100005225849200007F098F9002807D1601DA0
:1053200006F0BCFBFFF750FA1B4C384BC8E752495C
:10533000200007F079F9002800D1B4E44F4920009B
:1053400007F072F9002804D14D4B134C1B78374AF3
:10535000A3E74C49200007F067F9002800D099E046
:10536000382249491CA806F0E3FB484C62692169D0
:105370002000FFF7B9F8216963691CAA2000FFF734
:1053800063F843490148ECE5C0F600004C71002089
:105390007DF50000E0F60000FE6F00200088C340AD
:1053A000C7F60000D0F60000EDF60000FBF60000A6
:1053B000E3F600000BF7000000F7000013F7000011
:1053C000BE0F000037F700000000244019F700006E
:1053D00027F7000059F700004AF7000038260600BA
:1053E00040F700005CF700006666666666660A4085
:1053F00063F700007BF70000AEF700001027000005
:10540000107100200171002000710020E870002060
:10541000F070002008710020F87000206CF300008C
:1054200080F70000A1F70000ACF700008FF8000043
:1054300044020020B0F700000F2700001E4E0000BD
:1054400060F70000B4F70000BEF70000C2F70000EC
:10545000D0F70000CFF7000040710020D3F7000024
:1054600069F50000D9F7000075F70000DFF70000CC
:10547000E5F70000EBF70000F1F70000F6F7000099
:10548000B8700020FDF7000068700020A0700020B8
:105490000BF800004449200007F0C6F8002865D149
:1054A000424C0CA8FEF768FE38220CA9200006F03A
:1054B0003FFBA269E369049205933D4AA069E16953
:1054C0003C4B05F055FC00223B4B05F047F80290A1
:1054D00003913A4D3A4FA268E36864210092019328
:1054E00028003A0007F04EF8364E2900300000F050
:1054F000BFFD226A636A049205932D4A206A616A9D
:105500002C4B05F035FC00222B4B05F027F80290C0
:1055100003916421226963692800009201933A0093
:1055200007F030F82900300000F0A2FD3022A35E21
:1055300064210293A26AE36A280000920193224A3E
:1055400007F020F82900300000F092FD0222A35E4F
:105550000421625E2800009264211C4A07F012F8C0
:105560002900300000F084FD194945E61949200062
:1055700007F05AF8002801D0FFF795FB0B4A0F4CB3
:105580000420115E137801910221525E20000092E6
:105590006421114A06F0F6FFFFF7BEFB0F4A1049DF
:1055A0001370104AFFF796FB03F8000068700020A4
:1055B0006666666666660A4000FEAF40FE6F0020C3
:1055C0000EF800004C71002036F8000059F8000079
:1055D00079F8000080F8000089F80000427100208E
:1055E0002A600020BE0F0000044B421D836200238E
:1055F00001600371D377821DD3777047BAF800003A
:10560000F8B504000068661D03681B699847002808
:1056100020D00023F377206803681B69984700288F
:1056200018D0206803689B699847C5B20D2D04D136
:10563000206803685B699847EDE7A71D0A2D0BD129
:10564000206803685B699847FB7FE4180023237197
:105650000133F377F07FF8BDFB7F1E2BF5D8206870
:1056600003685B699847FB7FE21801331571FB778C
:10567000D1E7421DD37F002B05D00023D377821DB5
:10568000D37704307047806AFCE70000F7B5022248
:105690000D005F4C238893432380E37BDB09FCD11F
:1056A00023885C4A13402380E37BDB09FCD12388F9
:1056B000594A13402380E37BDB09FCD12388574AF6
:1056C00013402380E37BDB09FCD12388544A134039
:1056D0002380E37BDB09FCD12388524A13402380DB
:1056E000E37BDB09FCD123884F4A13402380E37B13
:1056F000DB09FCD123889BB22380E37BDB09FCD14F
:105700004A4B9D4235D9E02380202288DB00134399
:105710002380C000E67BF609FCD104F079FB071C6E
:10572000280004F0BFFB424904F040FA011C381C79
:1057300004F03CFA011C3F4804F038FA04F048FB3E
:10574000451E208A228B80B2009592B23300310030
:1057500000F05AFCADB280B220822583E37BDB09E6
:10576000FCD12288023313432380E37BDB09FCD185
:10577000F7BD314B314AEB18934207D8C023802044
:105780002288DB00134323804000C3E72C4B2D4AC3
:10579000EB18934206D8A0232288DB001343238012
:1057A0004020B7E7284B294AEB18934206D88023BC
:1057B0002288DB00134323801020ABE7244B254ACB
:1057C000EB18934206D8C02322889B001343238002
:1057D00008209FE7204B214AEB18934206D88023EC
:1057E00022889B0013432380042093E71C4B1D4A0F
:1057F000EB18934206D8802322885B001343238052
:10580000022087E7238801209BB2238082E7C046DD
:10581000002C0042FFF8FFFFFFF9FFFFFFFAFFFF38
:10582000FFFBFFFFFFFDFFFFFFFEFFFFE093040014
:1058300000247449001B374C7FC7FEFF5F5B0300E9
:10584000DFB1FFFF5FEA0000EFD8FFFF0F27000086
:1058500077ECFFFF871300003BF6FFFFC309000052
:1058600017FCFFFFDB05000070B5134B134C1C80C9
:10587000134C6378DB09FCD10225124B1C88AC4326
:105880001C801C88A4B21C80DC7BE409FCD11D8830
:1058900020342C431C80DC7BE409FCD15C735D7BF1
:1058A00010342C435C738024074BE4021C60074BCC
:1058B0001A60FFF7EBFE70BD020C00401B400000B9
:1058C000000C0040002C004200E100E04471002088
:1058D00010B5064B9A7BD20606D51022997B0A4357
:1058E0009A73034B1B68984710BDC046002C0042BA
:1058F0004471002010B50A4CE36ADB0304D5802311
:10590000E26A5B021343E362E36ADB0706D5054BF9
:105910001B6898470123E26A1343E36210BDC04647
:10592000002000424871002010B5024800F0BEFA85
:1059300010BDC0461072002010B5024800F0B6FA43
:1059400010BDC0464C710020F7B501240326154F49
:105950001549380000F042F81449154800F03EF8A7
:105960001449154800F03AF81449154800F036F883
:105970001449154800F032F8144D1549280000F07C
:105980002DF839000096230001940022114800F000
:1059900019FA009629000194232324220E4800F0CE
:1059A00011FAF7BDD472002000080042000C00423A
:1059B000D872002000100042DC7200200014004267
:1059C000E072002000180042E4720020E87200201B
:1059D000001C0042107200204C71002001607047D2
:1059E0009446F0B59E1E721E964162460568920767
:1059F0002F6836063A4332432A60072505AC2478DF
:105A00000068A4012940214342680024022B00D0F1
:105A10005C03114321434160F0BD30B5C0250368EC
:105A2000AD031C6812052A402243C0240904A402C5
:105A300021401143196003685A6814435C6030BD0B
:105A40000123026811680B43136003681A68D207C8
:105A5000FCD4DA69D207F9D47047022302681168CE
:105A60000B4313600268D3699B07FCD4704702683C
:105A7000137E9B07FCD57047002203685A8370474A
:105A80000368187E4007C00F70470368187EC0097E
:105A90007047802302685B42117E0B431376704788
:105AA0000368588B8007C00F704702230268518B30
:105AB0000B43538370470368187EC007C00F7047BD
:105AC0000368188DC0B2704703681A7ED207FCD5F0
:105AD00089B2012019857047012203689A757047C1
:105AE000012203681A7570470368214A30B5934252
:105AF0002FD0204A93422FD01F4A93422FD01F4AC3
:105B000093422FD01E4A93422FD01E4A93421FD158
:105B10000E2319220121032599401B48C02401604E
:105B200099082B40AB40FC359D4089000918A40022
:105B30000859A843C0259D402B0003430B518023E7
:105B4000DB011A43114B5A805A7852B2002AFBDB10
:105B500030BD09231422DDE70A231522DAE70B23DF
:105B60001622D7E70C231722D4E70D231822D1E7FA
:105B700000080042000C00420010004200140042E5
:105B800000180042001C004200E100E0000C004050
:105B9000F8B504000F0016001D00FFF7A5FF200058
:105BA000FFF74EFF1C21BB000B4071072268090C58
:105BB0000B431360842322689375012F1AD110219F
:105BC000012E00D008390C4B69431868C00003F05F
:105BD0001BFE0722216802408B895203DB04DB0C89
:105BE00013438B81226803049089DB0C400B400334
:105BF00018439081F8BDC0461C000020012070476A
:105C000010B50368014A1B6A984710BD13040000D1
:105C1000C06D7047A83003684020C01A7047C36D3C
:105C2000002B03D0836DC018007D704701204042D7
:105C3000FBE710B504000069FFF702FF0023220014
:105C40006365A032A365E365A834136053602360E5
:105C500010BD020010B5A8321368002BFCD10069FA
:105C6000FFF705FF10BD0368002B02D162B6BFF33A
:105C70006F8F7047F02001403039484248417047EB
:105C8000F0231B011940802306209B0099420AD073
:105C90000133FF330130994205D0802302385B0085
:105CA000994200D0002070470F20014000200129B8
:105CB00003D00239481E8141481C70470300F0B5EB
:105CC000182685B00391AC330400187833000821FE
:105CD0004343334D1700EB18595600F05BFD23008A
:105CE000AD331878330008214343EB18595600F0C0
:105CF00051FD2300AF331B78022B0AD12300C033A0
:105D00001878FF2805D008214643AE19715600F0D7
:105D100041FD2600B0363078FF2819D0012100F06F
:105D2000C1FC1822210033781E485A43AB56B431C7
:105D3000DB01181808601C49AD185B18210001220E
:105D4000B8310B6069688A402100BC310A601A6072
:105D50000122039B11002069FFF71AFF3900200080
:105D6000FFF78EFF390005002000FFF79DFF390087
:105D700006002000FFF77EFF330000902900206915
:105D80000122FFF72DFE2300AE331A7859782069DF
:105D9000FFF743FE2069FFF760FE05B0F0BDC04687
:105DA000BCF80000184400411444004110B54022E2
:105DB0000021040005F0C5FE002320002364636475
:105DC000A36410BDF7B51D0008AB1B780400009359
:105DD00009AB1B781600019300234360FA239B0054
:105DE00083600E4B0F00083303601430FFF7DEFFB3
:105DF00020006030FFF7DAFF6A4623001278AC33E8
:105E000027619A706A4612791E70DA7022005D70FE
:105E1000FF23B032200013701374FEBD3CFD000060
:105E200037B5EFF3108300930123019372B63F243B
:105E3000019B013B5A1C0FD0826C5D1E402A09D089
:105E4000026C8154026C013222400264826C013285
:105E50008264EEE72B00EDE768460193FFF703FF4E
:105E600037BD13B5EFF3108300930123019372B68E
:105E7000019B5A1E0192002B14D0836C002B0ED074
:105E80003F22436CC45C436C013313404364836C16
:105E9000013B83646846FFF7E6FE200016BD01243F
:105EA0006442F7E76846FFF7DEFEF6E710B5040048
:105EB0000069FFF7F5FD002805D02069FFF700FE17
:105EC0002069FFF7F2FD2069FFF7DAFD002818D0FE
:105ED0002069FFF7F5FD010020001430FFF7A0FF57
:105EE0002300B0331B78FF2B0BD04023E26D9B1AAD
:105EF000092B06DC23002200B433BC321B68126875
:105F00001A602069FFF7D7FD00280CD02300A833C2
:105F10001B68002B13D020006030FFF7A2FFC1B236
:105F20002069FFF7D1FD2069FFF7AFFD002805D0FC
:105F30002069FFF7AEFD2069FFF79EFD10BD2069C7
:105F4000FFF7CEFDEFE70000F8B5040000690D0093
:105F50002600FFF7B0FDA836002802D03368002BDA
:105F600031D00F273368402B23D1EFF31083012268
:105F700013420FD1164B5B68DB05DB0DF2D0103BF3
:105F80005BB2002B0FDA3B40083B9B08114A9B0099
:105F90009B181B682069FFF78EFD0028E2D02000C7
:105FA000FFF784FFDEE79B08C0330B4A9B009B583A
:105FB000F0E7200029006030FFF732FF2069FFF78B
:105FC0008BFD0120F8BD29002069FFF77DFDF8E772
:105FD00000ED00E01CED00E000E100E010B5040081
:105FE0001430FFF73EFF2300B0331B78FF2B0AD09D
:105FF0004023E26D9B1A0A2B05DD2300BC34B83325
:106000001B6822681A6010BD10B51C00431A029864
:10601000511A001B584303F081FC001910BDF7B55D
:1060200006000D000C008B180193019B671B9C421E
:1060300007D0336821781B68300098470134002866
:10604000F3D13800FEBD70B5040008000D0006F065
:10605000F5FA2368020029005B682000984770BDAC
:1060600010B50B1E02D0FFF7EEFF0300180010BDA5
:1060700010B5FFF7F5FF10BDFEE70000034B10B5AC
:106080001B68002B00D0984710BDC046EC72002062
:1060900070B50F490F4CA14204D100F0AFF800F0E9
:1060A0008DF8FEE70C4D00238D42F6D0CA18E81893
:1060B000A24205D3094B8242EFD00949002204E0F5
:1060C000006804331060F1E704C38B42FCD3E4E7BB
:1060D0000000002024020020BC0301002802002050
:1060E0003479002010B500F066F8002801D100F0E6
:1060F00057F810BD014B18607047C046EC72002085
:10610000014B18687047C046F0720020F7B513487D
:10611000012284461249134C8E68636805689B0E01
:106120001340019288686268019F920E3A40674668
:106130003F6893420ED1BD420CD186420AD35B190F
:10614000FA254868AD00861B07486B437043000D75
:10615000C018FEBD3D0013000600E3E7F07200200A
:1061600010E000E000ED00E05555000070B5041EA1
:1061700010D0FFF7CBFF050000F01CF8FFF7C6FFBB
:10618000054B401B9842F7D9FA23013C9B00ED18C0
:10619000002CF3D170BDC046E7030000704700003B
:1061A00010B5034A13680133136000F065FB10BD9E
:1061B000F0720020704700207047704710B500F063
:1061C000CDF805F07DFCFFF7F8FF0120FFF7CEFFCB
:1061D000084C200000F0D4FC200000F097FDFEF7F2
:1061E000B3FCFEF731FD044B002BFAD000E000BFFA
:1061F000F7E7C04624730020000000001E2270B59F
:1062000046484749436893431C3A13434360082375
:106210008C6923438B61434C434B9C829C8A14437F
:106220009C82DC681442FCD00124404A147015782A
:10623000254203D055786DB2002DF8DB012494601F
:10624000547864B2002CFBDB394C5460547864B24F
:10625000002CFBDB8224E4015480547864B2002CCF
:10626000FBDB02249C840E34DD682542FCD0314CDB
:10627000DC621024DD682542FCD09D8C2E4C2C4322
:106280009C841024DD682542FCD002249D8C80264D
:106290002C439C844024DD683542FCD0DD682542D7
:1062A000F9D01024DD682542FCD000249460547895
:1062B00064B2002CFBDB214C5460547864B2002C97
:1062C000FBDB1C6A1E4D2C4080251C621C6AAC4303
:1062D0001C62032393601B4B536053785BB2002B0B
:1062E000FBDB0023FF240B72174A4B728B72CB72BD
:1062F000164B1A60164B174A1B6811689A065B0109
:10630000C90E2340520F12020B431343124A138546
:10631000802342681343436070BDC0460040004183
:10632000000400400C06000000080040000C004083
:1063300001050100B905FF7D040A00000007030004
:10634000FFFCFFFF03060100006CDC021C000020C4
:10635000246080002060800000400042FA21314B20
:1063600010B51868890003F04FFA2F4B0138984296
:1063700056D82E492E4A4860C020136A00061B02D8
:106380001B0A03431362002407238C600B608021E7
:10639000136A09061B021B0A0B431362FC22254BDE
:1063A000196A0A431A62FC22196A92010A431A62A4
:1063B000A022196AD2020A431A62E0B20021013413
:1063C00000F070F9132CF8D11B4B1C005A7852B214
:1063D000002AFBDB194A5A80194B1A00597EC90959
:1063E0000129FBD0E421C90099803F21D970537E57
:1063F000DB09012BFBD0C02300205B0113619070EF
:1064000000F034F863785BB2002BFBDB0D4B0E4AD7
:106410006380D379DB09012BFBD04123537010BD7E
:10642000FEE7C0461C000020FFFFFF0010E000E078
:1064300000ED00E000040040000C00401E400000A1
:10644000004000422140000000480042914202D03A
:1064500002D98A1AD0407047521A9040FBE70000D8
:10646000014B18607047C04620000020164A00B556
:106470001300517EC9090129FBD00138042816D820
:106480001969124A0A400F211A615A788A4303F0A7
:10649000B1F90308060B0300110001220A435A70E8
:1064A00000BD11000322F9E711000222F6E7F023F4
:1064B00011691B050B430F21136153788B4319009E
:1064C00002230B435370EBE700400042FFFFFFF055
:1064D00018234343F0B56A4A87B09B18DA68060070
:1064E0000C000092920722D51B7C5BB2002B01D0DE
:1064F000142B1AD1634B0A2219682000FFF7A6FF5C
:10650000614A1300D179C9090129FBD08005800DAA
:106510001081DA79D209012AFBD0022219780A43C4
:106520001A70DA79D209012AFBD007B0F0BD08272A
:10653000009A544D3A40019200D191E012229B5EA4
:106540002968200010220193FFF780FF019B0500BE
:106550001F126B461C79009B0421DB0600D4052129
:10656000300000F017F9494BBA00D658484BDA5DB5
:10657000002A54D10132DA5546490F3202A805F0FB
:10658000D7FA02AA7B009B5A8022D2011A43424BBF
:106590005A805A78D209012AFBD0022297421BD98D
:1065A000338893433380F37BDB09FCD1328840335B
:1065B00013433380F37BDB09FCD10C34ADB26400B0
:1065C000A553F37BDB09FCD13288023313433380BC
:1065D000F37BDB09FCD1A8E7336893432F4A336090
:1065E0001300B1681142FCD10222F16B0A43F2633D
:1065F000B2681A42FCD11034A40034196560B26844
:106600001A42FCD1264A3264B2681A42FCD10222F4
:1066100031680A433260B2681A42FCD185E7022F22
:1066200007D90C34ADB26400A553F37BDB09FCD170
:106630007BE70223727913437371184B1A00B16818
:106640001942FCD11C34A400A551B3681342FCD1FB
:10665000022331790B433371B3681342FCD164E7F1
:10666000012100F01FF829683A002000FFF7EEFE34
:1066700001997F2800DD0121300000F05FF854E728
:10668000BCF8000020000020004800420400002068
:10669000F472002070FD0000000C0040FF0F7F002E
:1066A000FFFF0000182330B51D00040045430820FB
:1066B000204A55192856013014D0032912D8080051
:1066C0006343D156D31803F095F802280E1B58687F
:1066D000CB010221184A9B181A184032117001226E
:1066E00082405A6030BD5868CB010621124A9B187F
:1066F0001A1840321170012282405A609A61F1E703
:106700005868CB0106210C4A9B181A1840321170A8
:10671000012282405A605A61E4E75868CB010221A5
:10672000054A9B181A1840321170012282409A6063
:10673000D8E7C046BCF80000004400411823F0B57B
:1067400008245843114A13181C5701341BD0012642
:1067500035005F688356BD400D4ADB019A1890688A
:1067600005420BD10C00601E8441D21940321078D2
:1067700034400336A400B04320431070044A9B18F1
:10678000002901D15D61F0BD9D61FCE7BCF800000E
:106790000044004118224243F8B52C4E0300B218C1
:1067A000127A52B2140001320ED0481C00240C2878
:1067B0000AD803F01FF80720202020202020200BDB
:1067C0000B0B0B00012464422000F8BD092905D100
:1067D0000021D8B2FFF766FF0024F5E70A2902D1AD
:1067E000D8B20839F6E700240B29EDD1D8B20A391E
:1067F000FFF758FFE8E718204343F2185568F356AF
:106800002C00134ADB016E0817389B18C9B20440EC
:106810009E19002C0DD00F24303632780901224009
:106820001143C9B25B19317040331A7810431870A4
:10683000D2E732000F27303216785B19BE4331435E
:10684000117040331A7810431870BDE7BCF800008F
:106850000044004110B50400FFF7A0FC014B1C6090
:1068600010BDC046240000200122024B52421A6093
:106870007047C04624000020164A10B51368591C02
:1068800026D0013B1360002B22D172B6124B134A63
:106890000433934213D9124A01211000147D0C4293
:1068A000FCD02021148BFF319B085B002143118316
:1068B000D3610C4B13800123027D1A42FCD0BFF33D
:1068C0004F8F094B094ADA60BFF34F8FC046FDE78F
:1068D00010BDC0462400002000400000030200005C
:1068E0000040004102A5FFFF00ED00E00400FA05B2
:1068F000704710B5040001F089F8200010BD0000B9
:10690000F0B5822919D1C3B2294D5A01AA1891694B
:10691000284C80010C40C021890521439161264902
:10692000083340187021506128685B011A5C8A4363
:10693000110030220A431A54F0BD0029FCD1C026B0
:10694000C1B21B4C4B01E3189A681A4DB6052A4098
:1069500032439A60194A800182185A600A00072758
:10696000246808325201115DB9430F0001213943F7
:1069700011559F6910493D4040182E439E61586152
:106980007020115D81430800102101431155996861
:106990000B48A21808408021490301439960996877
:1069A000890B89039960402311790B431371C3E765
:1069B000DC770020FFFFFF8F507300201075002050
:1069C000FF3F00F0EFF3108303600123436072B6D2
:1069D000704773B5836D0400002B1BD10600A836E9
:1069E00035786846FFF7EEFF019BEDB2013B02D31D
:1069F0003578EDB2FAE768460193FFF734F9002DD8
:106A000001D1002076BD2300A4331868A034236888
:106A1000C01AF7E76846FFF7D5FF22000025019B63
:106A2000F432013B02D31578EDB2FAE768460193E0
:106A3000FFF719F9002DE4D02300F0331868EC3487
:106A4000E5E7000010B5436D4468DBB25A01A218B7
:106A50009168094808330840802149030143916047
:106A600091685B01890B890391602268D3184022E9
:106A700019790A431A7110BDFF3F00F0F7B5436D55
:106A80004268DBB21900040008311068490141185E
:106A9000C979C90711D55B01D21893689B049B0C77
:106AA0000CD12000FFF7CEFF63681A68636DDBB27C
:106AB00008335B01D3187F22DA71F7BDE16D00293D
:106AC00023D12100A4310B6023000125AC33E565FF
:106AD00068465360FFF776FF260020002100019BE7
:106AE000A836013BF430F5315A1C33D035700278AA
:106AF0005F1ED2B20A700A78002A04D120000193E6
:106B0000FFF7A0FFE8E73B00EEE72100F0310B6064
:106B10000023E3652300603353606846FFF752FFAC
:106B20000125260020002100019BF436013BA830FE
:106B3000F5315A1C0ED0357002785F1ED2B20A7041
:106B40000A78002A04D120000193FFF77BFFE8E7D1
:106B50003B00EEE768460193FFF785F8A4E737B5F9
:106B60006B46DC1D00230D00237000F039FF21006F
:106B700000F0C4FE2B681818286020783EBD000085
:106B8000F7B50024514B012105001F201C70FFF7B1
:106B900089FD01211F20FFF7D1FD4D4B01211E2052
:106BA0001C70FFF77FFD01211E20FFF7C7FD20238A
:106BB000484A0F20D1690B43D361012246490B7823
:106BC00013430B70454B19788143197006211C78CB
:106BD0002143197042490C7822430A701A78024006
:106BE0001A70602219780A431A703E4B3E4A5A8046
:106BF0005F78FF09FCD13D48FFF77CFA01233C4C4C
:106C00003C4E2268300011780B431370802239000B
:106C1000520004F096FF22689378DB07FCD456629A
:106C20001F26354B1B68590B980C9B013140304097
:106C30005B0FB14200D105211F2800D10238072B7C
:106C400000D1043B31408901178D01912B4930401F
:106C50000F40019939431185118D0700B143080098
:106C600038431085118D1803254B7F260B400343B5
:106C70000C2013850823D17881430B430321D37063
:106C80002268D3788B4301390B43D3702268137881
:106C9000334013700423226816783343137022683C
:106CA000C1241389A40083431648138103591B028E
:106CB0001B0A0351802303601378134819430123EF
:106CC00011702B70002101F06BF8F7BD45730020A7
:106CD0004473002000040040584400413C440041FB
:106CE00059440041000C004006400000BD76000001
:106CF000DC770020E0770020246080003FF8FFFF71
:106D0000FF8FFFFF00E100E0F0780020007800280E
:106D100010D00121084B1B681A898A431A81082266
:106D2000198B0A431A830422198B0A431A830022FF
:106D3000024B1A607047C046DC770020D4770020F1
:106D400010B50F4A93699B0B9B0393611368022252
:106D5000FF331A729879823A02439A711A7A92072B
:106D6000FCD57F24074A2140937A0800A3431900E9
:106D7000802301439172917A5B420B43937210BD61
:106D8000DC7700200050004110B50C0000F028FE18
:106D9000210000F0E6FD002804D1034A93699B0B13
:106DA0009B03936110BDC046DC770020F8B50D0051
:106DB000832A19D1CBB23B4C5A01A21891693A48A7
:106DC000AD010840C0218905014391613749206820
:106DD0006D187021083355615B011A5C8A431100FC
:106DE00040220A431A54F8BD022A55D1304A8B007A
:106DF0009858002802D003685B699847F82000F093
:106E000001FE0400274E2B4B466003604022002108
:106E1000083004F096FE22000023A032A3646565CA
:106E2000E3642365A365E3655360D3641372136061
:106E300013654C3213725372FF222B001340590119
:106E400071188868184F08330740C0208005384300
:106E50008860306807265B01195CAD00B1430E0005
:106E60000321314319542300616D606811404901C9
:106E7000411860334B60616D63680A401B685201C2
:106E80009B180122FF33997A20000A439A72FFF778
:106E9000D9FD074B5C51A6E711002800FFF730FD34
:106EA000A1E7C046DC770020FFFFFF8F5073002072
:106EB0002873002088FD000070B505000124064BF2
:106EC000A200D258002A06D0210028000134FFF782
:106ED0006DFF0A2CF3D170BDFC7200200B4BCAB2BF
:106EE0000B488901C9185301C318596199690832BF
:106EF000890B89039961036852019A180223D3719F
:106F00005179823B0B4353717047C0465073002048
:106F1000DC770020084B8A00D05810B5002803D039
:106F200003689B68984710BDC9B2044B49015918C2
:106F300088688004800CF6E728730020DC77002046
:106F400010B50C00FFF7E6FF00280CD0064BE4B2AA
:106F50001B68083464011C19802362795B42134367
:106F600063710223E37110BDDC770020F0B51C00D3
:106F7000304B85B01B6807000D000292002B55D0E6
:106F80002D4E3178C9B2002902D11E20FFF7D6FB61
:106F900064233370294BAA00D058002808D0036816
:106FA00022005B68029998470400200005B0F0BDFC
:106FB00029003800FFF7AEFF844204D929003800C9
:106FC000FFF7A8FF04000121EBB21D4E03935B0104
:106FD0000193F21893689B0B9B039360019A3368AB
:106FE00002989B18FF335A7A0A435A72154BA9012B
:106FF000C918220004F09CFD002CD6D029003800CE
:10700000FFF788FF0028D0D14021039B3268083366
:107010005B01D3181879014319710121D971019BC2
:10702000D318FF339A7A0A439A72BEE70124644266
:10703000BBE7C046D47700204473002028730020AB
:10704000DC7700201075002013B56B46DC1D220094
:107050000123FFF78BFF012801D1207816BD012005
:107060004042FBE770B5CBB2124A13485C0189017C
:107070008918021951609168104D08330D40802124
:1070800049032943402591609168890B89039160E8
:1070900001685A018A1816793543157195796D067C
:1070A000FCD55B01C918CB79DB07FCD500198068DA
:1070B000C0B270BD10750020DC770020FF3F00F0EB
:1070C00070B50D0000211400FFF7CCFFA04200D9DD
:1070D000200000230349A34203D0CA5CEA540133D1
:1070E000F9E770BD10750020F0B51E003F4B85B06C
:1070F0001B680F000192002B3FD08023DB019E42D2
:107100003BD83B4C2178C9B2002902D11F20FFF7A0
:1071100015FB642300252370364BBA01D318029364
:10712000002E2CD0344B1B680393FF233B401C00E4
:1071300000930834039B64011C19A379DB0921D057
:107140002E4B2F49186802F05FFB2E4B1721584336
:1071500002F05AFB2C4BE279920713D4DA5D002A35
:1071600001D10138F7D20122DA55009B5A01224B96
:107170009B189A69920B92039A6101256D4228002F
:1071800005B0F0BD0022204B3400DA553F2E09D95E
:10719000009B40245A01184B9B18802299691206C3
:1071A0000A439A6122000199029804F0C1FC009BF5
:1071B000A1045A01104B890C9B18029A2D195A618F
:1071C0009A69361B920B92030A439A61009B039AB9
:1071D00008335B01D3180222DA715979823A0A43E3
:1071E0005A71019B1B1901939AE7C046D47700207E
:1071F0004573002050730020DC7700201C00002025
:1072000040420F00701101004773002070B50D005F
:107210001C000D4BAE01F61811003000220004F0E6
:1072200087FCEDB209496D014D196E61AB69084AE1
:1072300020001340AB61AB69A2049B0B920C9B0333
:107240001343AB6170BDC04650730020DC77002053
:10725000FF3F00F0F7B5104B01901B780F001500B1
:10726000002B0CD10D4B16001C78002C09D00C4EB5
:107270000C4834882018641904F05AFC3480280023
:10728000FEBD002EFBD03A19330000210198FFF714
:10729000BDFF2418361AF4E7D0760020D1770020FD
:1072A000D2770020D1760020F8B50F001600002418
:1072B000012A26D9100004F027FC0500380005F04B
:1072C000BDF9032302220130400028706B70964202
:1072D0000DD9397800290AD0531CDBB20137A954E3
:1072E0009E4203D00232EC54D2B2F0E732002900C1
:1072F0000548FFF7AFFF441EA041C4B2280004F0C8
:107300000DFC2000F8BDC04624730020F0B5002419
:10731000012685B0184B0F0069461E7005000094C9
:10732000FFF71DFC154B01A90B806A3BFF3BCB719E
:107330005A330B72009B8C7109334B800E4B4E718C
:1073400008711C703A00092F0FD00D4F09223E70B2
:107350000C4E280000943480FFF77CFF694628001B
:10736000FFF7FDFB328808493C702800FFF772FFE9
:10737000012005B0F0BDC046D07600200902000013
:10738000D1770020D2770020D176002070B5CE785A
:1073900092B005000C00022E0BD18B79C9792C48D4
:1073A00009021943FFF7B2FF411E8841C0B212B073
:1073B00070BD00F015FB210000F0B4FA002803D0E6
:1073C000C117081AC00FF2E7012E0ED1E279A37996
:1073D00012021A431F49112A13D8D2B2002A10D020
:1073E0002800FFF737FF0120E1E7032EDFD1A37864
:1073F000002B08D1E279A37912021A431649032A15
:10740000EBD90A78ECE7022B08D1E279A3791202D2
:1074100012491A432800FFF747FFC8E7012B05D19F
:10742000E279A37912021A430D49F3E7032BBED187
:107430004122010001A804F084FB00F0D1FA01A967
:1074400000F080FAE279A37912021A4301A9E1E778
:1074500024730020C0FD0000B4FD0000A4FD000066
:10746000B8FD0000CBB204495B01C9188B699B0BC6
:107470009B038B617047C046DC77002037B5050061
:1074800048780C000B2810D802F0B4F9061B0F2B1B
:107490000F404561494C5A5D097801AA002906D17F
:1074A000022311802800FFF7B1FE01203EBD00231A
:1074B0001380284B1B78012B00D11370022300216D
:1074C000F0E78A780023012A03D101AA1380224B16
:1074D000F0E7204A1370214A93699B0B9B03936149
:1074E000E3E78C78012C06D100211B4B01AA1C700C
:1074F00011702300D6E70120002CD7D1154B174A75
:10750000187093699B0B9B039361CFE789782800E0
:10751000FFF716FCC9E72800FFF738FFC6E701238D
:107520000F4ACCE70B780020DB06BFD12800FFF71D
:10753000C3FCA2780A4B0B481A6000F019FCCAE79A
:107540000123094ABBE78A78074B1A60C3E700208A
:10755000ACE7C046467300204E730020DC77002065
:10756000D4770020F0780020D87700204A4BF7B578
:107570001E780500002E00D07EE0484C23689A8BD0
:1075800012070DD5082231009A833000FFF7B8F9B1
:1075900010222368FF33997A0A439A72404B1E6087
:1075A00023689A8B52071FD504229A833D4A137889
:1075B000002B0AD01378013BDBB213701378002B39
:1075C00003D101211F20FFF7B9F8374A1378002BA8
:1075D0000AD01378013BDBB213701378002B03D170
:1075E00001211E20FFF7AAF82368FF331A7A9206BA
:1075F00003D52022597A0A435A721A7AD20623D521
:1076000069460800294AC0CAC0C0A268920B92030A
:10761000A2604022587902435A7160230A782800F8
:107620001A422AD1FFF72AFF2368FF33002827D008
:107630008022997952420A439A711A7A520603D5E6
:107640004022597A0A435A727F2601252368FF3364
:107650001E722F00236808377F01DB19DB79002BAE
:1076600007D0134BAA00D05800280DD003681B6820
:1076700098470135082DECD1F7BDFFF785FBD3E71F
:1076800020210C4A9171D8E729000B4800F046FBF5
:107690002368DF19FE71ECE7D1770020DC7700204A
:1076A000D47700204573002044730020107500201B
:1076B00028730020FF500041F078002010B50248E8
:1076C000FFF754FF10BDC0462473002080235B00E9
:1076D000038000234360073303727047830001482F
:1076E000C0187047FC720020836C402B09D03F22E9
:1076F000036CC154036C013313400364836C013386
:1077000083647047F7B505006846FFF75BF900260C
:107710004022019B013B02D32E6D961BFAE768467F
:107720000193FEF7A0FAAB6D6846002B4FD1FFF72F
:1077300049F92900019BA831013B5A1C0CD00C7857
:107740005A1EE4B2002C05D168460193FEF78BFA6D
:107750002000FEBD1300F0E7684601930024FEF709
:1077600082FA2A002900A0321368A431B4420ED054
:10777000086898420BD92800591CEB181160603337
:1077800019780830C9B2FFF7AFFF0134E9E709689B
:107790009942DDD1002313600133AB656846FFF7E2
:1077A00011F92F002A000021019BA837013BF53277
:1077B000581CC9D0397010785E1E002805D0117091
:1077C00028000193FFF73EF9EBE73300F0E7FFF7FE
:1077D000F9F82900019BF431013B5A1C06D00C78C2
:1077E0005A1EE4B2002CAFD01300F6E768460193AE
:1077F0000024FEF738FA2A002900EC321368F03131
:10780000B44202D0086898421DD8096899429FD1B5
:10781000002368461360AB65FFF7D4F82F002A00F9
:107820000021019BF437013BF532581C00D18BE756
:10783000397010785E1E002811D011702800019355
:10784000FFF700F9EAE72800591CEB181160AC3388
:1078500019780830C9B2FFF747FF0134CBE733008E
:10786000E3E710B50400FFF74DFF206D10BD10B524
:107870000400FFF747FF236D002B03D0E36CE418EF
:10788000207A10BD01204042FBE7F7B517000E003B
:107890000400FFF737FF6846FFF794F83F22002502
:1078A0009446019B013B5A1C19D0BD4215D2226D52
:1078B000002A12D00121226D4942002A0AD06046D6
:1078C000E26CA218117AE26C01320240E264226D8D
:1078D000013A226571550135E7E7013BE3E7684668
:1078E0000193FEF7C0F92800FEBD0000014B024ADB
:1078F0001A607047DC7700200050004170B50E0020
:1079000000254468002C0BD0236831005B68200000
:107910009847002802DB2D18E468F3E701256D4243
:10792000280070BD70B50D004468002C08D0236895
:1079300029009B6820009847002802D1E468F4E7FA
:10794000200070BD70B50D004468002C07D023687E
:1079500029002000DB689847E4682D18F5E72C70B3
:1079600070BD70B50D004468002C08D02368290054
:107970001B6820009847002802D1E468F4E7200043
:1079800070BDF8B542788B790D00017A9B18040020
:1079900000208B4222DC6368834219D16560002697
:1079A00023786A71EA792B719B182370AB79B34203
:1079B00013D9AB68B7006078DF19FFF78FFE3B681B
:1079C000013603606378F6B201336370EEE70B00B3
:1079D000D9680029FBD1DD60E1E70120F8BD000096
:1079E00070B50126054D064C2B68334203D12000AB
:1079F000FFF76CFE2E60200070BDC046E0780020CE
:107A0000E478002010B504F07FF810BD10B504F044
:107A100085F810BD0020704770B50F26CB1D0139C9
:107A200002003240D5B22C0000093034092A00DDB2
:107A300007341C70013B8B42F2D170BD10B50C00B5
:107A40000B4B1868FFF7E8FF21000A4B0831186854
:107A5000FFF7E2FF2100084B10311868FFF7DCFF49
:107A60002100064B18311868FFF7D6FF202010BD03
:107A70000CA0800040A0800044A0800048A08000AE
:107A800008B4024B9C46103808BC60473D7A0000A1
:107A90003F20704713B56B460268D97107335468AD
:107AA00019000122A04716BD70B50A260B7892B0C6
:107AB0006E44023305000B703C220021300004F0BC
:107AC00040F8394801AC0690384824210790062038
:107AD00020776846364AA1742281364A364BA28105
:107AE000FD3AFF3A8018C177684623390630C177DE
:107AF00068460730C17702A8C1770720F2770326CE
:107B000008316944C87703A9CE7710212B366E441B
:107B10003170092621851F3169440E700CA9053E7C
:107B20000E7033212380022369440B7006360DA9A1
:107B30000E7022493536A1863B216E44307010A864
:107B40006274E27702703D3269446A440B701370CC
:107B500040210022E37023716371A37341336B44AE
:107B6000218719705A702B7DC039A370A372637777
:107B70000133DBB2A3776A7D0B200D006844154307
:107B8000C5773120684403703A23501C6B44187049
:107B9000412302320A436B441A70210042220848F2
:107BA000FFF758FB12B070BD100104240206052433
:107BB0000904000001020000080B00000705000096
:107BC0002473002008B4024B9C46103808BC604760
:107BD000A97A000070B5027D0B790C0000259A424D
:107BE0000BD10B784E78A12B09D1212E05D107227C
:107BF0001B491C48FFF72EFB0135280070BD212BC7
:107C0000FBD1202E22D1072215491648FFF758FA3A
:107C10009622134BD200196891421DD1DB79DB0704
:107C20001AD4FA20FEF716FE00210E48FFF71AFCC0
:107C30000125232EE1D1E378A2781B0213430A4ADF
:107C4000002108481360FFF70DFCD6E7222EEFD184
:107C50008A78034BDA71DBE7FEF706FEE4E7C046FD
:107C60002C000020247300202800002008B4024BC0
:107C70009C46103808BC6047D57B000010B5417D9C
:107C8000006A0131FFF746F9034B1B6801335A1EA6
:107C90009341181810BDC0463400002010B5417D36
:107CA000006A0231FFF74CF910BD10B5417D006A42
:107CB0000231FFF713F910BD70B50D00417D0400CE
:107CC000130002312A00006AFFF70EFA002801D1E2
:107CD0000123636070BD000010B5054C23685A1C79
:107CE00004D103685B69984703002060180010BD49
:107CF00034000020074A0300106810B5411C03D06F
:107D000001235B42136010BD597D186A0131FFF7F2
:107D10009BF9F8E73400002000207047704700000E
:107D2000FA239B0010B583600F4B0022C38203002F
:107D3000283383610D4B04004260C2611800403358
:107D400023610830631D21622060DA778323A362F8
:107D5000813BE36280332363FFF742FE2100103151
:107D6000FFF70FFE200010BD03020000D4FD00004D
:107D7000022110B5094B1A68437D5B01D318FF330C
:107D80009C7A21439972437D0133DBB25B01D318A6
:107D90000122FF33997A0A439A7210BDDC770020E2
:107DA0007047000010B502490248FFF7B9FF10BD47
:107DB00024730020F0780020F8B5274A4B005B0DB3
:107DC0009A180C000700132A10DC002A36DB234B1C
:107DD00013410B423AD0802424031441002064183C
:107DE0009C430600250030002900F8BD332A0EDD33
:107DF00080230600DB000D009A42F4D102000B0044
:107E00003800210002F08EF806000D00EBE7144D5B
:107E10000600AC46012563446D42DD40AC46634636
:107E20000D000342DFD033239A1A323B93401818D7
:107E3000874200D94C1C63469843D2E7C90FCC0750
:107E40000020531CCDD1074B1C43CAE706000D0090
:107E50000028C0D1C7E7C04601FCFFFFFFFF0F00AD
:107E6000EDFBFFFF0000F03F30B5214A4B0087B02B
:107E70005B0893421EDD1F4A934205DD02000B00A2
:107E800003F0E8F907B030BD02AA00F087FA032337
:107E90001840049A059B012813D002281DD0002801
:107EA00014D00298039900F061FD80231B069C46C4
:107EB0006144E7E7002300220093002301F0D0FA99
:107EC000E0E70298039900F051FDDBE701240298F6
:107ED0000399009401F0C4FAD4E7012402980399AD
:107EE000009401F0BDFA80231B069C466144C9E75B
:107EF000FB21E93FFFFFEF7FF0B54746CE4680B557
:107F00008DB004000D0000F055F8264B0600984691
:107F10001B780F005BB2013331D022002B00200010
:107F2000290003F0DFFC8146002828D12000290029
:107F300001F048FB00221C4B01F006FE00281ED079
:107F400001230293194B1A4803934B460694079555
:107F50000A930494059501F0D7FB43461B780890DB
:107F600009915BB2022B11D002A801F0CBFB0028D3
:107F70000CD00A9B0193002B0DD1089E099F300065
:107F800039000DB00CBC90469946F0BD03F092FD4F
:107F900021230360EDE703F08DFD0A9B019303604D
:107FA000EBE7C046380000200000F03F24FE000050
:107FB00028FE0000F0B54F46D64680B5D54B4E00A2
:107FC00089B007008A46894676089E4217DDD24B63
:107FD0009C466644064328D002000B0038005146F8
:107FE00003F038F902000B0002F0B8FA03000A00AF
:107FF0001800110009B00CBC91469A46F0BDC74B61
:108000009E4229DCC64B9E4200DDF8E0C54AC64BC5
:108010003800514601F086FF0022C44B01F094FD68
:10802000002819D03B005246E2E7C14AC14B380054
:10803000514602F09DFEC04A04000D00BF4B3800BF
:10804000514602F095FE02000B002000290001F0CD
:1080500069FF03000A00CBE73800514601F0B2FA8D
:1080600002000B000020B14903F0F4F80022B44BE9
:1080700002F07EFE04000D00B24AB34B02F078FE1F
:10808000B24AB34B01F04EFF22002B0002F070FE0B
:10809000B04AB14B03F0DEF822002B0002F068FE7C
:1080A000AE4AAF4B01F03EFF22002B0002F060FE13
:1080B000AC4AAD4B03F0CEF822002B0002F058FE84
:1080C000AA4AAB4B01F02EFF22002B0002F050FE1B
:1080D000A84A02900391A84B2000290002F048FE14
:1080E000A64AA74B03F0B6F822002B0002F040FE90
:1080F000A44AA54B01F016FF22002B0002F038FE27
:10810000A24AA34B03F0A6F822002B0002F030FE97
:10811000864B002201F006FF049005912000290003
:1081200000F04CFB9B4B009001919E4200DDCFE0A4
:108130000098019902000B000F0001F0F3FE049A71
:10814000059B069007910298039902F007FA020036
:108150000B000698079902F00BFE0026029003918F
:1081600032003B003000390002F002FE02000B003A
:108170002000290003F06EF8320004000D00009882
:1081800001993B0001F0CEFE02000B002000290007
:1081900002F0E4F902000B0001F0C4FE02000B0043
:1081A0006548664903F056F802000B0002980399EF
:1081B00003F050F8320004000D003B00300039009D
:1081C00001F0B0FE02000B005948734903F042F879
:1081D00002000B002000290003F03CF802000B0015
:1081E00053486D4903F036F803000A004946002958
:1081F00000DDFDE6802109068C466244F8E60200B7
:108200000B003800514602F0B3FD04000D004D4A4A
:108210004D4B02F0ADFD4D4A4D4B01F083FE220067
:108220002B0002F0A5FD4B4A4B4B03F013F8220044
:108230002B0002F09DFD494A494B01F073FE2200DC
:108240002B0002F095FD474A474B03F003F822004C
:108250002B0002F08DFD454A454B01F063FE2200E4
:108260002B0002F085FD434A00900191424B200013
:10827000290002F07DFD414A414B02F0EBFF220054
:108280002B0002F075FD3F4A3F4B01F04BFE2200F0
:108290002B0002F06DFD3D4A3D4B02F0DBFF22005A
:1082A0002B0002F065FD0022204B01F03BFE020096
:1082B0000B000098019902F051F93A00534602F080
:1082C00057FD3A00534601F02DFE03000A008FE6E9
:1082D000049A059B0298039902F040F9009C019DC5
:1082E00022002B0002F044FD22002B0001F01AFEB8
:1082F00002000B0001F016FE0F4A104B02F0AAFF1D
:1083000002000B000A480B4902F0A4FF03000A0018
:108310006CE7C046FFFFEF3F000010C0FFFFDF3FEC
:10832000FFFF3F3E9C7500883CE4377E0000F03F35
:10833000182D4454FB21F93F075C143326A6913CC9
:108340000000E03F09F7FD0DE13D023F88B20175F5
:10835000E0EF493F3B8F68B52882A43F5544880E23
:1083600055C1C93F7D6FEB0312D6D43F55555555C6
:108370005555C53F82922EB1C5B8B33F59018D1BEB
:108380006C06E63FC88A599CE52A00404B2D8A1CA2
:10839000273A03403233EF3FFB21E93FF0B54E4629
:1083A0004546DE465746E0B5E14B4C008FB090465F
:1083B000894664089C4200DC87E0DE4B9C4222DC5C
:1083C000DD4A002900DC92E0DC4B02F043FFDB4B8E
:1083D00006000F009C4200D17EE1D94AD94B02F041
:1083E00039FF02000B00414630000A604B60390043
:1083F00002F030FFD34BD24A02F02CFF4346012556
:108400009860D9606BE0D04B9C4200DC8FE0CF4B92
:108410009C4200DD55E1CE4A231592469A445146CE
:108420000905631A19001D00040003F077FA03F030
:10843000ABFA02000B00200029000892099302F019
:1084400009FF0022C34B02F093FC0F00060003F06B
:1084500065FA03F099FA04000D0002000B003000E9
:1084600039000A940B9502F0F5FE0022B94B02F098
:108470007FFC002200230C900D9101F04BFB0028A3
:1084800000D192E1002300222000290001F042FBEC
:10849000434243410133B04A41460192022208A8B7
:1084A0000092524600F07CFB4B460500002B16DA8A
:1084B000802243461206944642465B684542634426
:1084C0005360D3686344D36009E00B000200414667
:1084D0000A604B600022002300258A60CB602800E0
:1084E0000FB03CBC90469946A246AB46F0BD934BBC
:1084F00001F018FD914B06000F009C4200D13DE1B8
:108500008F4A904B01F00EFD02000B0041463000F7
:108510000A604B60390002F09DFE894A894B01F0E8
:1085200001FD012543466D429860D960D7E701F00F
:1085300049F88A4A8A4B06000F0002F019FC002213
:10854000884B01F0EFFC03F0E9F9050003F01CFA99
:10855000794A7A4B0490059102F00AFC02000B0064
:108560003000390002F076FE754A06000F000498CC
:108570000599744B02F0FCFB029003911F2D00DC67
:10858000C7E0029A039B3000390002F063FE834685
:108590008A4653465B0024155B0DE31A102B6CDDF5
:1085A00004980599D322674B520502F0E1FB0200C3
:1085B0000B00300039000292039302F04BFE0A00D8
:1085C000010013000691079202003900300002F00A
:1085D00041FE029A039B02F03DFE06000F00049844
:1085E0000599614A614B02F0C3FB32003B0002F087
:1085F00031FE069E079F0B000200390030000292F8
:10860000039302F027FE4B005B0D83468A46E41A73
:10861000312C32DD04980599B822544B920502F0B2
:10862000A7FB03000C000200029303940B000698C2
:10863000079902F00FFE02000B0006000F000698DB
:10864000079902F007FE029A039B02F003FE484AD4
:108650000290039104980599464B02F089FB029A17
:10866000039B02F0F7FD02000B003000390002927C
:10867000039302F0EFFD83468A465A46534641462D
:1086800030000A604B60390002F0E4FD029A039B5F
:1086900002F0E0FD44460B000200A260E3604B469E
:1086A000002B00DB1BE75B46236080231B06534443
:1086B000636080231B069C466144A060E1606D42BC
:1086C0000DE70B00020002F0C5FD4346002598604F
:1086D000D9601860596002E7D3221A4B520502F0A4
:1086E000B9FD214A214B0D00040002F0B3FD020048
:1086F0000B00414620000A604B60290002F0AAFDF1
:108700001A4B194A02F0A6FD434601259860D9602C
:10871000E5E602000B003000390002F09BFD6B1E05
:10872000154A9B009B5883468A46A342A5D130E751
:10873000FB21E93F7BD9024000004054FB21F93F77
:108740003163621A61B4D03DFB213941FFFFEF7FF5
:10875000EAFBFFFF00007041ACFE000083C8C96D5A
:10876000305FE43F0000E03F7370032E8A19A33BA3
:10877000C14920259A837B392CFE0000D3220C4B63
:10878000520501F0CFFB0B4A0B4B04000D0001F02A
:10879000C9FB02000B00414620000A604B60290023
:1087A00002F058FD034A044BB9E6032373E6C046C2
:1087B00061B4D03D7370032E8A19A33BF8B54746C8
:1087C000CE46674B80B50A000F00190005003940FE
:1087D000994200D19BE004000100002F69DD3F15A4
:1087E00000D1B4E05F4B12039C468023120B5B0365
:1087F00013435B00CA0F67449B184A00F80703D570
:10880000D20F5B009B188A0079108C4600218020D3
:108810001624894680030D189D4202DC29185B1B33
:108820008144D50F5B00013C5B1952004008002CCD
:10883000F1D100208046802020250027000609E095
:108840008B425CD0D40F5B00013DE318520040081E
:10885000002D16D0C4198B42F2DD27180E00002C13
:1088600049DB5B1AA242894149425B1A121BD40FB1
:108870005B00013D80443100E31852004008002DA8
:10888000E8D113434ED143465B0837494A468846F0
:10889000494652104244C90702D5802109060B43BC
:1088A00061460F05BD18180029000CBC904699467A
:1088B000F8BD7B005B0803433900002BF5D0002F87
:1088C0003CD1E30A153A6405002BFAD0802040031E
:1088D00003423FD1002700E00F005B00791C0342F8
:1088E000FAD0250020208D40401A2900D71B2200F5
:1088F000C2401A4376E7FE43F60F8E19B1E7944261
:10890000A0D82718002CF6DB1E000023AEE70200DB
:108910003B002800390002F02BFA2A003B0001F04E
:1089200001FBC2E74346013303D0434601335B08F2
:10893000ABE7012398460023C144A6E73B000200B1
:1089400002F088FC02000B0001F008FEADE7130006
:108950000022BBE70127210020207F42C6E7C04656
:108960000000F07F01FCFFFF0000E03FF0B547464C
:10897000CE4680B587B000920193754B4F0081467B
:1089800088467F089F4263DC02F0C8FF002800D1C0
:10899000D4E04A4643464846414602F0E9F904001D
:1089A0000D006C4A6C4B02F0E3F96C4A6C4B01F021
:1089B000B9FA22002B0002F0DBF96A4A6A4B02F096
:1089C00049FC22002B0002F0D3F9684A684B01F001
:1089D000A9FA22002B0002F0CBF9664A664B02F09E
:1089E00039FC22002B0002F0C3F9644A644B01F009
:1089F00099FA22002B0002F0BBF9029003910022A9
:108A0000604B2000290002F0B3F9029A039B060094
:108A10000F002000290002F0ABF9009A019B04002E
:108A20000D004846414602F0A3F902000B00200069
:108A3000290002F00FFC02000B003000390002F0A8
:108A400009FC02000B0000204F4902F003FC70E01B
:108A500002000B0002F08CF904000D003D4A3E4B71
:108A600002F086F93D4A3E4B01F05CFA22002B00F1
:108A700002F07EF93B4A3C4B02F0ECFB22002B005B
:108A800002F076F9394A3A4B01F04CFA22002B00F9
:108A900002F06EF9374A384B02F0DCFB22002B0063
:108AA00002F066F9354A364B01F03CFA2B00220001
:108AB00002F05EF9354B029003919F429FDD344BEB
:108AC00000229F423DDC334900207B182E491600CE
:108AD0001F0002F0BFFB049005910022294B2000EB
:108AE000290002F045F932003B0002F0B3FB029A84
:108AF000039B06000F002000290002F039F9009ABC
:108B0000019B04000D004846414602F031F9020085
:108B10000B002000290002F09DFB02000B0030003A
:108B2000390002F097FB02000B000498059902F04F
:108B300091FB07B00CBC90469946F0BD002012494D
:108B4000F7E7154B002604920593144FC5E7C0467E
:108B5000FFFF3F3ED43888BEE9FAA8BDC4B1B4BD1A
:108B60009EEE213EAD529C804F7E923E9015CB19D9
:108B7000A001FA3E7751C1166CC1563F4C55555570
:108B80005555A53F0000E03F0000F03F3233D33F92
:108B90000000E93F0000E0FF0000E73F0000D23F97
:108BA000F0B5DE464E4645465746E0B5DC4CA5449A
:108BB0000D9114001900A49A0993DA4B9200D6582B
:108BC0004D1E03901821E01E0696029500F0A6FEA9
:108BD000C3430100DB1719404B1C9A009B1ADB00B2
:108BE0001B190B9105934C1B771918D4A59BA50055
:108BF0009C463F1922AE6544013707E0286802F021
:108C0000C3FE013403C60435BC4208D0002CF5DA9B
:108C100000200021013403C60435BC42F6D1069B76
:108C2000002B01DA00F0FDFB069B03990133DB000A
:108C30009A46099BDA00944600920022914672AA55
:108C40000492B94A6144934688469AAB63449B4474
:108C5000029B002B00DABCE15D4600260027039C46
:108C60004D442A686B6803CC02F082F802000B00C6
:108C70003000390001F056F9083D06000F00444568
:108C8000EFD1049B4B441E605F6008239C46E14487
:108C9000D145DDD10EA804218446494261448C4669
:108CA000069A93009C44614684460A910399083BC6
:108CB00063448C460C93009B009263449B46009A4D
:108CC0000498D10003008C46634408911E685F68D5
:108CD000002A33DD954980468C466244D30098448F
:108CE00070AB9A460EAB99460022914B300039008A
:108CF00002F03EF802F012FE02F046FE00228D4B1A
:108D000004000D0002F034F802000B0030003900BE
:108D100002F0A0FA02F002FE4B4601C39946434618
:108D200020001A685B68290001F0FCF808235B4208
:108D30009C46E04406000F00D045D5D1059B30008D
:108D40001A003900984600F0E5FCFF2300229B053D
:108D500004000D0002F00CF800F038FC0022764B05
:108D600002F006F802000B002000290002F072FA5F
:108D70000D00040002F0D2FD814602F005FE020063
:108D80000B002000290002F065FA060040460F00A3
:108D9000002800DCEEE0009B18215A1E92000EAB6A
:108DA0009B58091A1D000D41A9448D405D1B0EAB57
:108DB0009D5017231B1A1D41002D2DDD01239C46BC
:108DC000009BE144002B00DC1CE20E9C0123002CE4
:108DD00000D0B5E0009A012A09D099000EAA545893
:108DE0000133002C00D0ACE0009A9A42F5D1059BEB
:108DF000002B0EDD012B00D1A8E1022B09D1009B35
:108E00000EA95A1E92000EAB9B5807939B029B0A19
:108E10008B50022D00D1C1E0002300223000390028
:108E200000F078FE009B002800D194E2069A591EBB
:108E30008A4210DC414A0A9894460EAA634494463A
:108E400000229B0063441C68043B22438342FAD106
:108E5000002A00D0C0E0069B0EAA013B9B00D3581D
:108E6000002B00D0B3E001220C9B043B5968013277
:108E70000029FAD0009B9C466244110007921A0018
:108E800001338B4246DC0B9863468046A59C4344E5
:108E9000A046099C9B00A1464A449844D30022AABC
:108EA0009146049A99449446089BA59A6344844643
:108EB000614494469A468B00634400934346586845
:108EC00002F062FD4B4618605960029B002B24DBC8
:108ED0004D46039C0026002701E0286869680CCCF9
:108EE00001F046FF02000B003000390001F01AF8D3
:108EF000083D06000F005C45EFD153469E60DF60E1
:108F000004239C460433E0449C46009BE144E24435
:108F10009845D3D1079B0093D1E600260027ECE7C4
:108F200094FDFFFFF8FF000018FEFFFFFFFFFF1F8B
:108F30000000703E0000704100002040FFFFFF3F36
:108F4000002180225204141B0EAA54500099994209
:108F50000EDD0EA884469B000EAA8900D2586144FB
:108F60006344CF4800E01A68821A04C38B42FAD1E6
:108F700001243CE7059B002B06D1009B0EAA013B78
:108F80009B00D558ED1517E70022C64B300000F0C6
:108F9000E5FD002800D024E100253DE732003B003C
:108FA0000020C14902F056F906000F00002C00D144
:108FB00032E7059A0020BC4900F0ACFB02000B0030
:108FC0003000390002F046F906000F0024E70122C4
:108FD00050E70026002754E64B46059A079388463B
:108FE0008B000EA9CB58183A08950592002B0DD18D
:108FF0008C464146AD4B43449B006344043B586858
:109000000139183A0028F9D088460592059A0020BF
:10901000A54900F07FFB434604000D00002B00DA59
:1090200005E29E000EAB9C464346DB0066449C4630
:10903000059370AB9946049F67440097306802F02F
:10904000A3FC22002B0001F093FE0022386079601F
:10905000974B2000290001F08BFE083F04000D0013
:10906000043EB945EAD14AAB03939B4600239A4696
:10907000069B4246994643460132029204934B4670
:10908000002B00DAAAE080208A4B009D9846C0059C
:10909000894900260027002408E008239C4608355B
:1090A000E044544511DC4346186859682A686B68E7
:1090B00001F05EFE02000B003000390000F032FFCC
:1090C000013406000F00A145E7DA5B46C0C39B46AA
:1090D00001239C46009BE244083B0093029B9A4577
:1090E000CDD1049B9846A49B022B00DD8EE0002B83
:1090F00037DC1FD1059B00271D00039B00249C46E5
:109100001E006544083E2A686B683800210000F0A4
:1091100009FF083D07000C00AE42F4D1089B002B6C
:1091200003D080231B069C4664443A0023000D991B
:109130000A604B600720079B18409B239B009D44BF
:109140003CBC90469946A246AB46F0BD009B0EA99A
:109150005A1E92000EAB9B5807935B025B0A8B5022
:1091600057E64346002B00DA70E100200021DB00C7
:109170004AAAD61848AF32687368083E00F0D2FE9B
:10918000B742F8D1089B002B00D025E10B0002006C
:109190004A984B990D9C2260636002F05BF843464D
:1091A00007000C00002B13DD01254CAEB146380042
:1091B0002E0021004C4601360CCC00F0B3FEA14637
:1091C000B045F7DA089B07000C00002B00D015E132
:1091D0003A0023000D998A60CB60ABE70026002798
:1091E00073E701239C46009BE1440225002B00DD30
:1091F000EBE532003B0000202B4902F02BF8060083
:109200000F0009E60024F2E54AAB0393A49B032B6D
:1092100000D08FE74346002B00DC14E1039ADB000B
:109220009B46130091465B441E685F68234B434492
:109230000293DB00994448AB9A464B465C681B6836
:109240001800210032003B000090019100F06AFEFE
:1092500004000D0002000B000098019901F0FAFFD4
:109260003B00320000F05EFE4B469860D9601C6007
:109270005D6008235B429C46E14426002F00CA45FE
:10928000DBD14346012B00DCE3E0039A13005B448F
:109290001E685F68029BDB0099464A44904610E0D6
:1092A000FFFFFF000000E03F0000F03FFFFFFF3F37
:1092B0000000703EB8FF0000FB21F93FFFFFFF1FD9
:1092C000984643465C681B681800210032003B004A
:1092D0000090019100F026FE04000D0002000B003A
:1092E0000098019901F0B6FF32003B0000F01AFE31
:1092F0004346039A9860D9601C605D60083B260075
:109300002F009A42DCD14D46944600260024474661
:10931000083565442A686B683000210000F002FEC1
:10932000083D06000C00AF42F4D1039B4A9F5D68E4
:109330009968D868089B002B65D080221206944655
:109340000D9B6544604464441F605D609960D86013
:109350001E615C61EEE69A464B460793059B300022
:109360005A423900089500F0D5F900223A4B060020
:109370000F0000F0F3FB002824D0384B002230000F
:10938000390001F0F5FC02F0C9FA524604009500DC
:1093900002F0FAFA0022304B01F0EAFC02000B0066
:1093A0003000390001F056FF02F0B8FA0EAA505111
:1093B0000122059B524418339046059393000EAA50
:1093C000D45023E65346300039009C0002F0A6FA40
:1093D0000EAB1851D04619E680230D9A1B06CB1808
:1093E000106053600B0002004A984B9901F032FF65
:1093F000434607000C00002B00DDD5E680231B064A
:109400009C466444E4E62B003A000D9D2A606B60A4
:109410000A000300AA60EB60320023002A616B613E
:1094200088E6099BDB00009372AB049332E4A49BB3
:10943000022B00DDE8E6002B00DD92E600D079E6A5
:10944000002700246AE6002600246EE700200021A1
:1094500098E60026340068E7000070410000703E86
:10946000F0B5CE46474680B587B000920193474A93
:109470004B00814688465B08934207DC41464846DC
:1094800002F04CFA4146031E484666D04A4643461F
:109490004846414601F06CFC04000D0002000B0040
:1094A0004846414601F064FC394A3A4B06000F0039
:1094B0002000290001F05CFC374A384B01F0CAFE5D
:1094C00022002B0001F054FC354A364B00F02AFDF7
:1094D00022002B0001F04CFC334A344B01F0BAFE61
:1094E00022002B0001F044FC314B324A00F01AFDFF
:1094F0000E9B02900391002B34D00098019900221A
:109500002D4B01F035FC029A039B0490059130002D
:10951000390001F02DFC02000B000498059901F0C0
:1095200099FE22002B0001F023FC009A019B01F020
:1095300091FE224A04000D00214B3000390001F059
:1095400017FC02000B002000290000F0EBFC0200D9
:109550000B004846414601F07DFE07B00CBC90462A
:109560009946F0BD02000B002000290001F000FC2C
:10957000124A134B01F06EFE32003B0001F0F8FB83
:109580004A46434600F0CEFCE7E7C046FFFF3F3EB9
:109590007CD5CF5A3AD9E53DEB9C2B8AE6E55A3E7D
:1095A0007DFEB157E31DC73ED561C119A0012A3F19
:1095B0001111813FA6F810110000E03F49555555A3
:1095C0005555C53F49004B0819007047474AF0B54B
:1095D0004F4691464B005B0D99444646D6464A4657
:1095E000C0B505000C000E0088460700132A27DCD2
:1095F000002A4BDB3E4B13419A460B005246134068
:10960000034318D03B4A3C4B2800210000F08AFC61
:109610000022002300F098FA002847D0002C04DA3A
:1096200080234A465B03134198444646534600272D
:109630009E43380031001CBC90469946A246F0BDBE
:10964000332A08DD8023DB009945F4D102000B00AA
:1096500000F068FCEFE7294A944601226344524235
:10966000DA4092460242E6D0224A234B28002100EB
:1096700000F058FC0022002300F066FA002815D004
:10968000002C1EDB534646469F430FE0194A1A4BF7
:109690002800210000F046FC0022002300F054FACC
:1096A000002803D0002C04DB0027002638003100FE
:1096B000C1E76400640825430027002DF6D0104E52
:1096C000F4E74B46142B0BD03422D21A01239340DB
:1096D0005D19BD4208D201239C462F00E044D1E72A
:1096E000133B9C46E044CDE72F00CBE701FCFFFF96
:1096F000FFFF0F009C7500883CE4377EEDFBFFFF09
:109700000000F0BF00207047002001497047C046AC
:109710000000F87F4B0070B55B0D14000A00002BB1
:109720001AD14B005B08034315D0234B002201F0F4
:109730001FFB224B9C422DDB0A004B005B0D363B8E
:109740001F4DE318AB422ADC002B0DDD1D4C1B0521
:1097500022401A43110070BD1B4DAB42F0D10200F4
:109760000B0000F0DFFBF6E71D00353519DA174B6B
:1097700002009C4209DD0B001548164900F032F842
:10978000134A144B01F0F4FAE5E70B0012481349B1
:1097900000F028F8104A114B01F0EAFADBE702006A
:1097A000E9E7084C363322401B0513431900002219
:1097B0000B4B01F0DDFACEE700005043B03CFFFF59
:1097C000FE070000FFFF0F80FF07000050C30000EE
:1097D0009C7500883CE4377E59F3F8C21F6EA501E2
:1097E0000000903C30B54A00DB0FDB0752081A43FB
:1097F000110030BD02B4714649084900095C4900B6
:109800008E4402BC7047C046002243088B4274D38A
:1098100003098B425FD3030A8B4244D3030B8B4271
:1098200028D3030C8B420DD3FF22090212BA030C7A
:109830008B4202D31212090265D0030B8B4219D35B
:1098400000E0090AC30B8B4201D3CB03C01A52417B
:10985000830B8B4201D38B03C01A5241430B8B42C3
:1098600001D34B03C01A5241030B8B4201D30B03AC
:10987000C01A5241C30A8B4201D3CB02C01A5241D3
:10988000830A8B4201D38B02C01A5241430A8B4296
:1098900001D34B02C01A5241030A8B4201D30B027F
:1098A000C01A5241CDD2C3098B4201D3CB01C01A99
:1098B000524183098B4201D38B01C01A52414309A3
:1098C0008B4201D34B01C01A524103098B4201D391
:1098D0000B01C01A5241C3088B4201D3CB00C01AFE
:1098E000524183088B4201D38B00C01A5241430876
:1098F0008B4201D34B00C01A5241411A00D201469B
:10990000524110467047FFE701B5002000F0F0F823
:1099100002BDC0460029F7D076E7704703460B43E7
:109920007FD4002243088B4274D303098B425FD358
:10993000030A8B4244D3030B8B4228D3030C8B4284
:109940000DD3FF22090212BA030C8B4202D312126A
:10995000090265D0030B8B4219D300E0090AC30B3F
:109960008B4201D3CB03C01A5241830B8B4201D3EC
:109970008B03C01A5241430B8B4201D34B03C01AD5
:109980005241030B8B4201D30B03C01A5241C30A4D
:109990008B4201D3CB02C01A5241830A8B4201D3BE
:1099A0008B02C01A5241430A8B4201D34B02C01AA8
:1099B0005241030A8B4201D30B02C01A5241CDD24D
:1099C000C3098B4201D3CB01C01A524183098B4298
:1099D00001D38B01C01A524143098B4201D34B0181
:1099E000C01A524103098B4201D30B01C01A5241E4
:1099F000C3088B4201D3CB00C01A524183088B426B
:109A000001D38B00C01A524143088B4201D34B0053
:109A1000C01A5241411A00D20146524110467047C5
:109A20005DE0CA0F00D04942031000D340425340CA
:109A300000229C4603098B422DD3030A8B4212D38A
:109A4000FC22890112BA030A8B420CD389019211BC
:109A50008B4208D3890192118B4204D389013AD0F9
:109A6000921100E08909C3098B4201D3CB01C01ACE
:109A7000524183098B4201D38B01C01A52414309E1
:109A80008B4201D34B01C01A524103098B4201D3CF
:109A90000B01C01A5241C3088B4201D3CB00C01A3C
:109AA000524183088B4201D38B00C01A5241D9D254
:109AB00043088B4201D34B00C01A5241411A00D2D5
:109AC0000146634652415B10104601D34042002BD1
:109AD00000D54942704763465B1000D3404201B550
