:1040000000800020BD600000A5600000A5600000E9
:1040100000000000000000000000000000000000A0
:10402000000000000000000000000000A56000008B
:104030000000000000000000A56000001161000009
:10404000A5600000A5600000A5600000A56000005C
:10405000A5600000A5600000A5600000A960000048
:10406000A560000055590000A5600000A560000093
:10407000A5600000A56000006559000021590000FE
:10408000A5600000A5600000FD580000A5600000CC
:1040900000000000A5600000A5600000A560000011
:1040A000A5600000A5600000A5600000A5600000FC
:1040B0000000000010B5064C2378002B07D1054BFB
:1040C000002B02D0044800E000BF0123237010BD84
:1040D0002002002000000000B0FD0000044B10B5DD
:1040E000002B03D00349044800E000BF10BDC046C8
:1040F0000000000024020020B0FD0000024A537EB0
:10410000DB09FCD17047C04600400042044B80B23E
:1041100018819023C046013BDBB2002BFAD17047D7
:1041200000480042014B80B21881704700480042AD
:10413000022310B5074C227B13432373FFF7DEFFE6
:10414000C046C046C046237EDB07FCD5608B00B26C
:1041500010BDC04600400042082210B5054B80B299
:1041600089B29884D98499880A439A80FFF7C6FF58
:1041700010BDC046004000421F22F0B5594D89B025
:104180002B69070093431A001C2313432B61FFF78D
:10419000B5FF0822AB8880249343AB80FFF7AEFFC6
:1041A0006620FFF7B3FF0022002300920193240151
:1041B0000795FFF7BDFF07F0C9F802000B00009854
:1041C000019905F091FB013CA4B200900191002CF3
:1041D000EFD1FD2300229B0506F0ACFA802600906B
:1041E00001914148FFF792FF002400253601FFF7B7
:1041F0009FFF07F0ABF802000B002000290005F03C
:1042000073FB013EB6B204000D00002EEFD1FD237A
:1042100000229B0506F08EFA029003913000FFF712
:1042200075FF009A019B0298039906F0F5FC0022A5
:104230002E4B05F075FE02000B0004900591002046
:104240002B4905F06DFE03F013FE07F049F804B2A8
:10425000200007F07BF802000B000020244905F045
:104260005FFE0022234B06F065FA02000B00009867
:10427000019906F0D1FC03F0FBFD07F031F805B21F
:104280002E052405240D360D20003100FFF764FFB4
:104290009A231F21184A9B00D25C079B0A401B6986
:1042A0008B431343079A1361FFF728FF012338005C
:1042B0003B70124A124B7C80BA60FB60114A124B71
:1042C000BE803A617B61009B019C3D86BB61FC61C5
:1042D000029B039C3B627C62049B059CBB62FC626C
:1042E00009B0F0BD00400042990300000098A940C9
:1042F0000000A04000987940C0F200001F85EB51FB
:10430000B81ED53FC2F5285C8FC20740024A537ED3
:10431000DB09FCD17047C04600400042002370B565
:10432000324C10262370FFF7F1FFFF20304B314A4B
:104330001B6811689A065B010340C90E520F0B43BC
:10434000120213432385A3882B4A0F251A40C0234A
:104350009B001343A380FFF7D9FF3022A388934328
:104360003343A380FFF7D2FF01227021A378AB4330
:104370001343A370A3788B431E43A670E3783139AF
:104380008B43190020230B43E370A3889343A3803E
:10439000FFF7BCFF9A231F21184A9B00D25C2369B8
:1043A0000A408B4313432361FFF7B0FF2369144A8C
:1043B0001A40C0235B0113432361FFF7A7FF7F224D
:1043C0006378AB430D3D2B43637063781340637098
:1043D000F02322691B0513432361FFF797FF23781E
:1043E0001D432570FFF792FF70BDC046004000429C
:1043F0002460800020608000FFF8FFFFC0F2000012
:10440000FFE0FFFF10B50A2002F040F8002118205D
:1044100002F074F810BD000030B5094D094CAB68CE
:104420005B035B0F9B001C590460AB6801619BB28E
:1044300043606343A4008360C460426130BDC046F2
:104440000040004114EF0000F7B580261A4D01919D
:104450006F6803333E439B086E60002B2BD0174ED2
:104460002E802E7DF107FCD51E000768991BBF0822
:104470008F4219D9002E17D0FF2117788C433C4367
:104480000F4957780C403F023C439778013E39046E
:104490000C4F2740D478BFB20F43240601993C4308
:1044A00010C101910432E0E7074B2B802B7DDB0725
:1044B000FCD53300D1E7F7BD0040004144A5FFFF24
:1044C000FF00FFFFFFFF00FF04A5FFFF044B054AAD
:1044D0004908D9611A801A7DD207FCD57047C046B9
:1044E0000040004102A5FFFF70B504000D0016005A
:1044F000E36829002000B34205D2FFF7E7FFE36835
:10450000ED18F61AF4E7FFF7E1FF70BDF0B55B496F
:104510008BB05B4A5B4B0868496805F001FD0024DD
:10452000089009915849564A564B0868496805F061
:10453000F7FC564B02001C70554B009001911C700B
:10454000544B25001B7803930B0005F0CDF9069022
:10455000079105940494039BA0B2012B59D0022B20
:1045600000D16CE0200006F0F1FE4B4A4B4B06F008
:10457000E1F800224A4B05F0D3FC03F033FC0022A3
:10458000484B05F0B1F90022474B06F0D3F8020082
:104590000B000698079906F0CDF8009A019B0600DB
:1045A0000F000898099906F037FB32003B0005F030
:1045B0009BF90022002306000F0004F093FF00285F
:1045C00051D10022374B3000390004F09FFF002802
:1045D0004ED10022354B3000390006F0ABF803F025
:1045E00047FC334B6600F61806F07AFE314B013477
:1045F00030809C42AFD1049B002B02D00122244B7F
:104600001A70002D03D06A46204B127D1A700BB031
:10461000F0BD200006F09AFE0022274B06000F0096
:1046200004F060FF002807D10022244B300039003D
:1046300004F076FF002813D000201A49A7E706F0FF
:10464000BFFE0022164B05F06BFC0022164B06F055
:10465000E3FA4900490802000B0005F045F996E726
:104660000020002193E70123002604930027B0E7F0
:104670000125002605950B4FABE7C04600710020D1
:104680006666666666660A40E8700020F87000207C
:10469000F970002008710020182D4454FB211940A6
:1046A0000088C3400000F03F0000E03F00F88F406A
:1046B0003C020020102700000088A340004CBD40B1
:1046C00000220A4B10B50A491A700A4A0A4B0A60BE
:1046D0004B600A490868496806F02CF8084B1860D6
:1046E000596072B6FFF712FF62B610BD0871002064
:1046F000D8700020CD3B7F669EA0F63FE070002082
:10470000E870002070B50022184B04000D0004F082
:10471000E9FE002826D10022154B2000290004F0D4
:10472000F5FE002801D00024114D124E3460756052
:1047300072B63068716803F09BFB04F0FBFE0E4B11
:1047400080B21880188880B206F000FE00220B4B61
:1047500005F0F0FF0022094B05F0E2FB30607160CC
:1047600062B670BD0024014DDFE7C0460000244062
:104770000088A340F0700020B27000200088C34081
:1047800070B50022002304000D0004F0ABFE0028E9
:1047900001D000240025044B1C605D6072B6FFF759
:1047A000B5FE62B670BDC0460071002070B5002233
:1047B000002304000D0004F095FE002801D0002421
:1047C0000025094B20001C605D60084B29001A6819
:1047D0005B6805F0A5FB064B1860596072B6FFF7E1
:1047E00095FE62B670BDC046E8700020D87000200B
:1047F000E070002070B50022002304000D0004F0DA
:1048000071FE002801D000240025094B09491C60D5
:104810005D60086849682B00220005F08BFF064B9D
:104820001860596072B6FFF771FE62B670BDC0467F
:10483000E0700020D8700020E8700020F8B5040077
:104840000E0017000025002E0ED001231E4204D0BA
:104850006019390004F040FD0D006000390004F0DB
:1048600025FE76088CB2EEE72800F8BD30B5174B70
:1048700089B01B6804A90493154B05001B684B60A5
:10488000144B1B688B60144B1B68CB6000236C4679
:10489000CA58100E18551800140C6844447004339C
:1048A000140A8470C270102BF1D100246B46600092
:1048B0001A5D28180949013407F072FB102CF5D154
:1048C00000230135EB7709B030BDC0460CA0800055
:1048D00040A0800044A0800048A080001CED0000A3
:1048E000F7B5012501910400104E01F01FFC10499D
:1048F0008F6873689B0E2B408A6894467268920E8C
:104900002A4093420CD167450AD3002B0BD120607B
:104910004B68DB1B074F5F43019B3F0D1F80F7BDBB
:1049200013006746E8E70130F1E7C04600ED00E01C
:1049300010E000E05555000073B56B469D1C290042
:10494000040001A8FFF7CCFF1F4B204E1978019AF5
:104950001F48002904D0002119702B883260038081
:104960001C4900880B6801330B603368D21A2B880E
:104970000192834220D31B1A2B800B68DBB2A372F7
:104980000B681B0ADBB2E3720B681B0CDBB22373F0
:104990000B681B0E6373019BDAB2A2731A0AD2B2C0
:1049A000E2731A0CD2B21B0E227463742B88DAB233
:1049B0001B0AA274E37473BDFA26B6009B191B1A76
:1049C000013A2B800192D8E738710020E46F002073
:1049D000E06F00205C5000200122F0B54A4B85B00A
:1049E00019684A4C4A4F114202D121781A60397035
:1049F000484E494B32889A4207D1484B48481B7869
:104A0000002B00D14748FFF797FF474D2B68022B3B
:104A100002D14448FFF790FF23783A789A420FD0AA
:104A2000237820783B70C0B2002829D000233F4A69
:104A30002B6013703E4A338013700122374B1A707B
:104A40002378002B1AD0FFF773FB3A4B0400188829
:104A50002B68394A991E80B2FFF7F0FE83B20093AB
:104A60005800364BC05EFFF75DFB2B68344A022BC3
:104A700009D869460988013311802B6005B0F0BD63
:104A8000FFF744FBDCE711883288E5B2019252005F
:104A900010001600153002902A48241210180390B6
:104AA0002948CFB212181D48143684460078090AE6
:104AB000E4B2002825D01B488755029E81550399F2
:104AC00045548454FA20019A1249013292B20A8064
:104AD000800082420DD162461078144C01220028D9
:104AE00000D1134C22700122424060460270002225
:104AF0000A806946124A0988013311800A4A136004
:104B0000BCE70748D8E7C04660500020B4700020DA
:104B1000EE6F0020F46F0020E7030000000000208B
:104B20002260002064500020F06F002039710020C6
:104B30003A710020B2700020102700003C020020D3
:104B4000EC6F0020E4070000E507000010B53822F4
:104B500004490548FFF760FC0449054800F05AFD88
:104B600010BDC04600EE0000987000204471002087
:104B70000C71002030B58FB02B492C4801F056F84D
:104B80002B48FFF773FE01210D2001F0A1FD00214C
:104B90000D2001F0E9FD72B600232648264A274978
:104BA000595CC154D15401330A2BF8D1244B254D03
:104BB000254C26495918695CC154D1540133A3428C
:104BC000F7D162B6FFF71EFCFFF7A8FB204B684643
:104BD00019695A6906F088FC1E4C38226946200083
:104BE00006F082FC2378002B08D00423E15E022328
:104BF000E05EFFF7B1FA0122174B1A700020FFF7B1
:104C00005FFD00201549FFF77DFD15481549FFF7A9
:104C1000B7FD00201449FFF7EDFD144A6421144844
:104C200000F038FE0FB030BD40420F00447100204C
:104C3000B570002064500020226000200AEF0000C0
:104C4000B40F000000EF0000BE0F00004CF0FFFFAB
:104C50009870002060700020B070002000406F400D
:104C6000666666666666FA3F0000E03FD949000066
:104C70003B710020F0B5ABB001F058FAC54A13689B
:104C8000C31A132B25D9C44C1060200000F0CEFCB1
:104C900000281ED0C14D2B78002B35D000210D20CF
:104CA00001F062FD72B60023BD4A2B701370BD4A3D
:104CB000137062B6BC4D280000F0D1FFBB4928003C
:104CC00000F0B4FFBA49280001F0E8F9200000F034
:104CD000E6FCB24B1B78002B14D0B14A1378002BA2
:104CE00003D1B04B1B78002B0CD01378AE48DBB24D
:104CF000002B01D100F068FC0023AE491370AE4ACE
:104D000001F0A3F92BB0F0BD200000F0C8FCAB49C6
:104D1000040007F065F9AA49002800D148E3A94931
:104D2000200007F05DF900280ED1A74BA74C029395
:104D3000A74BA84A0193A84B642100932000A74BDE
:104D400007F0FCF8210033E3A549200007F048F9FB
:104D5000002800D082E1944DA24EA349280001F022
:104D60009DF9A249280001F099F93378974C9B07E7
:104D7000DB0F9F4A009364219E4B200007F0DEF872
:104D80002100280001F08AF99B49280001F086F9EA
:104D900033699A4FDB06DB0E3A0000936421984B8F
:104DA000200007F0CBF82100280001F077F93369E3
:104DB0003A00DB04DB0E00936421924B200007F0E5
:104DC000BDF82100280001F069F933693A001B01A0
:104DD0001B0F009364218C4B200007F0AFF82100DB
:104DE000280001F05BF98949280001F057F9737830
:104DF0007F4ADB0900936421854B200007F09EF871
:104E00002100280001F04AF973783A001B071B0FB4
:104E1000009364217F4B200007F090F821002800C8
:104E200001F03CF97C49280001F038F9B3783A00E8
:104E30005B065B0F00936421784B200007F07EF83F
:104E40002100280001F02AF9B3783A001B071B0F54
:104E500000936421724B200007F070F821002800B5
:104E600001F01CF96F49280001F018F9F3786E4A37
:104E70009B069B0E009364216C4B200007F05EF8AC
:104E80002100280001F00AF96949280001F006F91B
:104E9000B3883A009B069B0F00936421654B20006A
:104EA00007F04CF82100280001F0F8F8B388504AC8
:104EB0001B07DB0F009364215F4B200007F03EF8D7
:104EC0002100280001F0EAF8B388494A9B07DB0F6C
:104ED00000936421594B200007F030F8210028008E
:104EE00001F0DCF8B388424ADB07DB0F0093642152
:104EF000534B200007F022F82100280001F0CEF8E3
:104F0000B3883A005B055B0F009364214D4B200092
:104F100007F014F82100280001F0C0F84A492800E1
:104F200001F0BCF8338D404ADBB200936421474B5B
:104F3000200007F003F82100280001F0AFF8338DBE
:104F4000394A5B055B0F00936421414B200006F05A
:104F5000F5FF2100280001F0A1F8F38C3D4A1B0564
:104F60001B0D6421200006F0E9FF2100280001F05C
:104F700095F8B38C384A1B051B0D6421200006F000
:104F8000DDFF2100280001F089F82800164901F012
:104F900085F89EE6E86F00200C710020B4700020B8
:104FA000397100203A7100204471002040420F0006
:104FB000CAF1000064500020BE0F000034EF000072
:104FC00038EF000047EF0000B5700020F66F0020BA
:104FD000006CDC025FEF00006DEF00004CEF0000A2
:104FE00078EF0000004000427DEF0000A7EF0000D6
:104FF000B6EF0000AEEF0000C1EF0000D4EF0000FC
:10500000CCEF0000E0EF0000E8EF0000EEEF000062
:10501000F7EF000000F0000008F0000011F00000C1
:1050200019F0000024F0000037F000002EF000001E
:1050300041F0000048F0000050F0000058F000007F
:1050400061F000006BF0000076F000007DF00000E1
:105050008CF0000096F00000ABF00000D549200075
:1050600006F0BEFF00285CD1D34DD449280001F0E2
:1050700015F800226426D24BD24C0293D24B642105
:10508000009201932000D14BD14A06F057FF210036
:10509000280001F003F8CF4FCF4B3A0001933100C5
:1050A000CE4B0096200006F049FF2100280000F0BA
:1050B000F5FFCB4B3A000193FA239B00009331009C
:1050C000C84B200006F03AFF2100280000F0E6FF60
:1050D000C54B3A000193C54B310000932000C14BF2
:1050E00006F02CFF2100280000F0D8FF0022C04B62
:1050F00031000293BF4B200000920193BE4BBF4A88
:1051000006F01CFF2100280000F0C8FFBC4BBD4A80
:105110000193BD4B310000932000BC4B06F00EFF05
:105120002FE7BB49200006F05BFF002815D1B94AE4
:10513000B94BA44C069207930C230393023B0293B2
:10514000AA4B04900193FA239B0000936423B34A73
:105150001900200006F0F2FEF4E5B149200006F047
:105160003FFF002805D0AF49200006F039FF002896
:1051700027D1AD4AAD4B934C1B780A92AC4A9B00A9
:10518000127820000992AB4A12780892AA4A116854
:10519000526806910792A94A1168526804910592D3
:1051A000A74A1168526802910392A64A1168526890
:1051B00000910192A44A64219B58A44A06F0BEFEC5
:1051C000C0E5A349200006F00BFF002805D0A14947
:1051D000200006F005FF002826D17A4C924B9E4A0B
:1051E0006421200006F0AAFE734E2100300000F07A
:1051F00055FF0025994F6B00FB5E6421984A200003
:1052000006F09CFE2100300000F048FF954B013570
:105210009D42EFD1944B6421FB5E20008E4A06F044
:105220008DFE21003000B2E69049200006F0D8FE45
:1052300000280FD16E256D4429001CA8FFF750FBF4
:105240002B88604C00938A4A1C9B6421200006F046
:1052500075FE77E58749200006F0C2FE86490028E2
:1052600000D1A5E08549200006F0BAFE002808D14B
:1052700001210D3001F078FA72B601232B7062B66D
:1052800027E57F49200006F0ABFE002808D1012168
:105290000D3001F069FA72B601237A4A1370EDE716
:1052A00005227949200006F0ACFE002810D1601DCF
:1052B00006F0DBF8FFF704FA5C4B634A1B78414CBD
:1052C0009B009B58714A6421200006F037FE39E5A7
:1052D00005226F49200006F094FE002810D1601DC1
:1052E00006F0BEF8FFF70EFA364C564B1A685B68AC
:1052F0006421009201932000664A06F01FFE21E51A
:1053000005226549200006F07CFE002807D1601DBB
:1053100006F0A6F8FFF734FA2A4C494BE6E70522D7
:105320005E49200006F06DFE002807D1601D06F0E2
:1053300097F8FFF73BFA234C404BD7E70522584933
:10534000200006F05EFE002807D1601D06F088F8F8
:10535000FFF750FA1B4C384BC8E75249200006F0C3
:105360003FFE002800D1B4E44F49200006F038FE8B
:10537000002804D14D4B134C1B78374AA3E74C4906
:10538000200006F02DFE002800D099E0382249497F
:105390001CA806F0A9F8484C626921692000FFF7B3
:1053A000A3F8216963691CAA2000FFF74DF843495F
:1053B0000148ECE5C0F00000447100207DEF0000E2
:1053C000E0F00000F66F00200088C340C7F0000046
:1053D000D0F00000EDF00000FBF00000E3F0000072
:1053E0000BF1000000F1000013F10000BE0F0000FF
:1053F00037F100000000244019F1000027F10000FF
:1054000059F100004AF100003826060040F1000082
:105410005CF100006666666666660A4063F100003D
:105420007BF10000AEF100001027000008710020A1
:10543000F9700020F8700020E0700020E870002073
:1054400000710020F070002024ED000080F10000C9
:10545000A1F10000ACF100008FF200003C0200203E
:10546000B0F100000F2700001E4E000060F10000A8
:10547000B4F10000BEF10000C2F10000D0F1000064
:10548000CFF1000038710020D3F1000069EF000077
:10549000D9F1000075F10000DFF10000E5F1000036
:1054A000EBF10000F1F10000F6F10000B070002017
:1054B000FDF1000060700020987000200BF20000E9
:1054C0004449200006F08CFD002865D1424C0CA810
:1054D000FEF752FE38220CA9200006F005F8A2695A
:1054E000E369049205933D4AA069E1693C4B05F0EC
:1054F00021F900223B4B04F013FD029003913A4D39
:105500003A4FA268E36864210092019328003A00B0
:1055100006F014FD364E2900300000F0BFFD226A6F
:10552000636A049205932D4A206A616A2C4B05F048
:1055300001F900222B4B04F0F3FC0290039164214B
:10554000226963692800009201933A0006F0F6FC94
:105550002900300000F0A2FD3022A35E64210293F6
:10556000A26AE36A280000920193224A06F0E6FC50
:105570002900300000F092FD0222A35E0421625E49
:105580002800009264211C4A06F0D8FC2900300053
:1055900000F084FD194945E61949200006F020FD78
:1055A000002801D0FFF795FB0B4A0F4C0420115E39
:1055B000137801910221525E200000926421114A69
:1055C00006F0BCFCFFF7BEFB0F4A10491370104AEF
:1055D000FFF796FB03F200006070002066666666C7
:1055E00066660A4000FEAF40F66F00200EF2000033
:1055F0004471002036F2000059F2000079F20000F8
:1056000080F2000089F200003A7100202260002040
:10561000BE0F0000044B421D836200230160037132
:10562000D377821DD3777047BCF20000F8B5040031
:105630000068661D03681B699847002820D0002376
:10564000F377206803681B699847002818D0206802
:1056500003689B699847C5B20D2D04D12068036883
:105660005B699847EDE7A71D0A2D0BD120680368F9
:105670005B699847FB7FE418002323710133F377BC
:10568000F07FF8BDFB7F1E2BF5D8206803685B69AF
:105690009847FB7FE21801331571FB77D1E7421D74
:1056A000D37F002B05D00023D377821DD37704301E
:1056B0007047806AFCE70000F7B502220D005F4CDE
:1056C000238893432380E37BDB09FCD123885C4A56
:1056D00013402380E37BDB09FCD12388594A134024
:1056E0002380E37BDB09FCD12388574A13402380C6
:1056F000E37BDB09FCD12388544A13402380E37BFE
:10570000DB09FCD12388524A13402380E37BDB0969
:10571000FCD123884F4A13402380E37BDB09FCD173
:1057200023889BB22380E37BDB09FCD14A4B9D425B
:1057300035D9E02380202288DB0013432380C0007A
:10574000E67BF609FCD104F045F8071C280004F0BC
:105750008BF8424903F00CFF011C381C03F008FFD2
:10576000011C3F4803F004FF04F014F8451E208A92
:10577000228B80B2009592B23300310000F05AFCC7
:10578000ADB280B220822583E37BDB09FCD1228885
:10579000023313432380E37BDB09FCD1F7BD314B9C
:1057A000314AEB18934207D8C02380202288DB00BF
:1057B000134323804000C3E72C4B2D4AEB18934240
:1057C00006D8A0232288DB00134323804020B7E7BC
:1057D000284B294AEB18934206D880232288DB0005
:1057E000134323801020ABE7244B254AEB18934248
:1057F00006D8C02322889B001343238008209FE7FC
:10580000204B214AEB18934206D8802322889B0024
:1058100013432380042093E71C4B1D4AEB1893424B
:1058200006D8802322885B0013432380022087E769
:10583000238801209BB2238082E7C046002C0042CF
:10584000FFF8FFFFFFF9FFFFFFFAFFFFFFFBFFFF7E
:10585000FFFDFFFFFFFEFFFFE093040000247449FB
:10586000001B374C7FC7FEFF5F5B0300DFB1FFFF0C
:105870005FEA0000EFD8FFFF0F27000077ECFFFF83
:10588000871300003BF6FFFFC309000017FCFFFF72
:10589000DB05000070B5134B134C1C80134C637870
:1058A000DB09FCD10225124B1C88AC431C801C88F0
:1058B000A4B21C80DC7BE409FCD11D8820342C437D
:1058C0001C80DC7BE409FCD15C735D7B10342C43D1
:1058D0005C738024074BE4021C60074B1A60FFF7DF
:1058E000EBFE70BD020C00401B400000000C0040AD
:1058F000002C004200E100E03C71002010B5064B96
:105900009A7BD20606D51022997B0A439A73034BE1
:105910001B68984710BDC046002C00423C71002017
:1059200010B50A4CE36ADB0304D58023E26A5B020C
:105930001343E362E36ADB0706D5054B1B68984710
:105940000123E26A1343E36210BDC0460020004217
:105950004071002010B5024800F0BEFA10BDC046EC
:105960000872002010B5024800F0B6FA10BDC0461B
:1059700044710020F7B501240326154F154938005E
:1059800000F042F81449154800F03EF81449154853
:1059900000F03AF81449154800F036F81449154853
:1059A00000F032F8144D1549280000F02DF83900A8
:1059B0000096230001940022114800F019FA009685
:1059C00029000194232324220E4800F011FAF7BD88
:1059D000CC72002000080042000C0042D07200206F
:1059E00000100042D472002000140042D87200203F
:1059F00000180042DC720020E0720020001C00420F
:105A00000872002044710020016070479446F0B590
:105A10009E1E721E96416246056892072F683606E2
:105A20003A4332432A60072505AC24780068A40174
:105A30002940214342680024022B00D05C0311431B
:105A400021434160F0BD30B5C0250368AD031C683B
:105A500012052A402243C0240904A4022140114314
:105A6000196003685A6814435C6030BD0123026802
:105A700011680B43136003681A68D207FCD4DA6913
:105A8000D207F9D470470223026811680B431360F0
:105A90000268D3699B07FCD470470268137E9B079A
:105AA000FCD57047002203685A8370470368187E4C
:105AB0004007C00F70470368187EC00970478023F5
:105AC00002685B42117E0B43137670470368588B64
:105AD0008007C00F704702230268518B0B4353832A
:105AE00070470368187EC007C00F70470368188DA1
:105AF000C0B2704703681A7ED207FCD589B2012074
:105B000019857047012203689A757047012203685E
:105B10001A7570470368214A30B593422FD0204A46
:105B200093422FD01F4A93422FD01F4A93422FD027
:105B30001E4A93422FD01E4A93421FD10E23192290
:105B40000121032599401B48C024016099082B407E
:105B5000AB40FC359D4089000918A4000859A843B2
:105B6000C0259D402B0003430B518023DB011A43CA
:105B7000114B5A805A7852B2002AFBDB30BD092300
:105B80001422DDE70A231522DAE70B231622D7E7D2
:105B90000C231722D4E70D231822D1E70008004276
:105BA000000C0042001000420014004200180042A5
:105BB000001C004200E100E0000C0040F8B50400C9
:105BC0000F0016001D00FFF7A5FF2000FFF74EFF96
:105BD0001C21BB000B4071072268090C0B431360AA
:105BE000842322689375012F1AD11021012E00D031
:105BF00008390C4B69431868C00003F0E7FA072224
:105C0000216802408B895203DB04DB0C13438B8138
:105C1000226803049089DB0C400B400318439081F9
:105C2000F8BDC0461C0000200120704710B5036875
:105C3000014A1B6A984710BD13040000C06D7047ED
:105C4000A83003684020C01A7047C36D002B03D0F2
:105C5000836DC018007D704701204042FBE710B5FE
:105C600004000069FFF702FF002322006365A032F1
:105C7000A365E365A83413605360236010BD020080
:105C800010B5A8321368002BFCD10069FFF705FF9F
:105C900010BD0368002B02D162B6BFF36F8F70474F
:105CA000F02001403039484248417047F0231B0141
:105CB0001940802306209B0099420AD00133FF330C
:105CC0000130994205D0802302385B00994200D010
:105CD000002070470F2001400020012903D0023925
:105CE000481E8141481C70470300F0B5182685B056
:105CF0000391AC3304001878330008214343334D3B
:105D00001700EB18595600F05BFD2300AD331878EF
:105D1000330008214343EB18595600F051FD23008E
:105D2000AF331B78022B0AD12300C0331878FF2829
:105D300005D008214643AE19715600F041FD2600FA
:105D4000B0363078FF2819D0012100F0C1FC1822AC
:105D5000210033781E485A43AB56B431DB01181882
:105D600008601C49AD185B1821000122B8310B6096
:105D700069688A402100BC310A601A600122039BD5
:105D800011002069FFF71AFF39002000FFF78EFF8E
:105D9000390005002000FFF79DFF390006002000B4
:105DA000FFF77EFF33000090290020690122FFF7F2
:105DB0002DFE2300AE331A7859782069FFF743FE91
:105DC0002069FFF760FE05B0F0BDC046C0F20000DC
:105DD000184400411444004110B540220021040041
:105DE00005F08BFB0023200023646364A36410BDD3
:105DF000F7B51D0008AB1B780400009309AB1B78B6
:105E00001600019300234360FA239B0083600E4B2E
:105E10000F00083303601430FFF7DEFF200060300E
:105E2000FFF7DAFF6A4623001278AC3327619A70D5
:105E30006A4612791E70DA7022005D70FF23B0325C
:105E4000200013701374FEBD40F7000037B5EFF368
:105E5000108300930123019372B63F24019B013B01
:105E60005A1C0FD0826C5D1E402A09D0026C8154EE
:105E7000026C013222400264826C01328264EEE7DD
:105E80002B00EDE768460193FFF703FF37BD13B51D
:105E9000EFF3108300930123019372B6019B5A1E06
:105EA0000192002B14D0836C002B0ED03F22436C48
:105EB000C45C436C013313404364836C013B8364D3
:105EC0006846FFF7E6FE200016BD01246442F7E7AE
:105ED0006846FFF7DEFEF6E710B504000069FFF73D
:105EE000F5FD002805D02069FFF700FE2069FFF7C7
:105EF000F2FD2069FFF7DAFD002818D02069FFF7CE
:105F0000F5FD010020001430FFF7A0FF2300B0339F
:105F10001B78FF2B0BD04023E26D9B1A092B06DC6C
:105F200023002200B433BC321B6812681A60206957
:105F3000FFF7D7FD00280CD02300A8331B68002BE7
:105F400013D020006030FFF7A2FFC1B22069FFF735
:105F5000D1FD2069FFF7AFFD002805D02069FFF7CC
:105F6000AEFD2069FFF79EFD10BD2069FFF7CEFD55
:105F7000EFE70000F8B5040000690D002600FFF708
:105F8000B0FDA836002802D03368002B31D00F278F
:105F90003368402B23D1EFF31083012213420FD13A
:105FA000164B5B68DB05DB0DF2D0103B5BB2002BC0
:105FB0000FDA3B40083B9B08114A9B009B181B686B
:105FC0002069FFF78EFD0028E2D02000FFF784FF54
:105FD000DEE79B08C0330B4A9B009B58F0E720008C
:105FE00029006030FFF732FF2069FFF78BFD0120A9
:105FF000F8BD29002069FFF77DFDF8E700ED00E01E
:106000001CED00E000E100E010B504001430FFF7E3
:106010003EFF2300B0331B78FF2B0AD04023E26DF4
:106020009B1A0A2B05DD2300BC34B8331B68226899
:106030001A6010BD10B51C00431A0298511A001BBB
:10604000584303F04DF9001910BDF7B506000D00D7
:106050000C008B180193019B671B9C4207D033688F
:1060600021781B683000984701340028F3D13800AC
:10607000FEBD70B5040008000D0005F0BBFF2368ED
:10608000020029005B682000984770BD10B50B1E08
:1060900002D0FFF7EEFF0300180010BD10B5FFF7A8
:1060A000F5FF10BDFEE70000034B10B51B68002B89
:1060B00000D0984710BDC046E472002070B50F496B
:1060C0000F4CA14204D100F0AFF800F08DF8FEE7CC
:1060D0000C4D00238D42F6D0CA18E818A24205D311
:1060E000094B8242EFD00949002204E000680433E2
:1060F0001060F1E704C38B42FCD3E4E7000000200A
:1061000020020020B4FD0000200200202C79002095
:1061100010B500F066F8002801D100F057F810BD66
:10612000014B18607047C046E4720020014B1868AC
:106130007047C046E8720020F7B513480122844634
:106140001249134C8E68636805689B0E13400192D8
:1061500088686268019F920E3A4067463F689342A2
:106160000ED1BD420CD186420AD35B19FA2548688C
:10617000AD00861B07486B437043000DC018FEBD81
:106180003D0013000600E3E7E872002010E000E0A5
:1061900000ED00E05555000070B5041E10D0FFF76B
:1061A000CBFF050000F01CF8FFF7C6FF054B401BB6
:1061B0009842F7D9FA23013C9B00ED18002CF3D14B
:1061C00070BDC046E70300007047000010B5034AE9
:1061D00013680133136000F065FB10BDE872002006
:1061E000704700207047704710B500F0CDF805F0FB
:1061F00043F9FFF7F8FF0120FFF7CEFF084C20001E
:1062000000F0D4FC200000F097FDFEF7B3FCFEF791
:1062100031FD044B002BFAD000E000BFF7E7C04689
:106220001C730020000000001E2270B5464847493C
:10623000436893431C3A1343436008238C69234308
:106240008B61434C434B9C829C8A14439C82DC6848
:106250001442FCD00124404A14701578254203D022
:1062600055786DB2002DF8DB01249460547864B247
:10627000002CFBDB394C5460547864B2002CFBDBFF
:106280008224E4015480547864B2002CFBDB0224A5
:106290009C840E34DD682542FCD0314CDC62102435
:1062A000DD682542FCD09D8C2E4C2C439C84102410
:1062B000DD682542FCD002249D8C80262C439C84E2
:1062C0004024DD683542FCD0DD682542F9D0102439
:1062D000DD682542FCD000249460547864B2002C20
:1062E000FBDB214C5460547864B2002CFBDB1C6A4D
:1062F0001E4D2C4080251C621C6AAC431C6203238B
:1063000093601B4B536053785BB2002BFBDB002385
:10631000FF240B72174A4B728B72CB72164B1A60AA
:10632000164B174A1B6811689A065B01C90E234079
:10633000520F12020B431343124A13858023426803
:106340001343436070BDC04600400041000400405C
:106350000C06000000080040000C00400105010090
:10636000B905FF7D040A000000070300FFFCFFFFE2
:1063700003060100006CDC021C0000202460800089
:106380002060800000400042FA21314B10B51868AF
:10639000890002F01BFF2F4B0138984256D82E4936
:1063A0002E4A4860C020136A00061B021B0A0343E2
:1063B0001362002407238C600B608021136A090696
:1063C0001B021B0A0B431362FC22254B196A0A436A
:1063D0001A62FC22196A92010A431A62A022196AFF
:1063E000D2020A431A62E0B20021013400F070F9CF
:1063F000132CF8D11B4B1C005A7852B2002AFBDB3D
:10640000194A5A80194B1A00597EC9090129FBD033
:10641000E421C90099803F21D970537EDB09012B0B
:10642000FBD0C02300205B011361907000F034F8B2
:1064300063785BB2002BFBDB0D4B0E4A6380D37994
:10644000DB09012BFBD04123537010BDFEE7C04692
:106450001C000020FFFFFF0010E000E000ED00E066
:1064600000040040000C00401E40000000400042BC
:106470002140000000480042914202D002D98A1A0D
:10648000D0407047521A9040FBE70000014B186063
:106490007047C04620000020164A00B51300517E08
:1064A000C9090129FBD00138042816D81969124AF4
:1064B0000A400F211A615A788A4302F07DFE0308D0
:1064C000060B0300110001220A435A7000BD11009F
:1064D0000322F9E711000222F6E7F02311691B05F8
:1064E0000B430F21136153788B43190002230B4395
:1064F0005370EBE700400042FFFFFFF018234343D7
:10650000F0B56A4A87B09B18DA6806000C00009262
:10651000920722D51B7C5BB2002B01D0142B1AD121
:10652000634B0A2219682000FFF7A6FF614A130097
:10653000D179C9090129FBD08005800D1081DA7954
:10654000D209012AFBD0022219780A431A70DA799B
:10655000D209012AFBD007B0F0BD0827009A544D9C
:106560003A40019200D191E012229B5E29682000FE
:1065700010220193FFF780FF019B05001F126B465D
:106580001C79009B0421DB0600D40521300000F0BB
:1065900017F9494BBA00D658484BDA5D002A54D156
:1065A0000132DA5546490F3202A804F09DFF02AAD3
:1065B0007B009B5A8022D2011A43424B5A805A7860
:1065C000D209012AFBD0022297421BD93388934378
:1065D0003380F37BDB09FCD13288403313433380B3
:1065E000F37BDB09FCD10C34ADB26400A553F37B23
:1065F000DB09FCD13288023313433380F37BDB09A0
:10660000FCD1A8E7336893432F4A33601300B16885
:106610001142FCD10222F16B0A43F263B2681A42C2
:10662000FCD11034A40034196560B2681A42FCD160
:10663000264A3264B2681A42FCD1022231680A4307
:106640003260B2681A42FCD185E7022F07D90C34B8
:10665000ADB26400A553F37BDB09FCD17BE70223D9
:10666000727913437371184B1A00B1681942FCD147
:106670001C34A400A551B3681342FCD10223317924
:106680000B433371B3681342FCD164E7012100F07E
:106690001FF829683A002000FFF7EEFE01997F28D5
:1066A00000DD0121300000F05FF854E7C0F2000087
:1066B000200000200048004204000020EC7200206E
:1066C00074F70000000C0040FF0F7F00FFFF000088
:1066D000182330B51D00040045430820204A5519F1
:1066E0002856013014D0032912D808006343D1562C
:1066F000D31802F061FD02280E1B5868CB0102215D
:10670000184A9B181A1840321170012282405A60B0
:1067100030BD5868CB010621124A9B181A18403226
:106720001170012282405A609A61F1E75868CB01EA
:1067300006210C4A9B181A1840321170012282401F
:106740005A605A61E4E75868CB010221054A9B1858
:106750001A1840321170012282409A60D8E7C04670
:10676000C0F20000004400411823F0B5082458434B
:10677000114A13181C5701341BD0012635005F68DD
:106780008356BD400D4ADB019A18906805420BD133
:106790000C00601E8441D219403210783440033618
:1067A000A400B04320431070044A9B18002901D173
:1067B0005D61F0BD9D61FCE7C0F200000044004156
:1067C00018224243F8B52C4E0300B218127A52B286
:1067D000140001320ED0481C00240C280AD802F004
:1067E000EBFC0720202020202020200B0B0B0B008F
:1067F000012464422000F8BD092905D10021D8B246
:10680000FFF766FF0024F5E70A2902D1D8B208395C
:10681000F6E700240B29EDD1D8B20A39FFF758FF6B
:10682000E8E718204343F2185568F3562C00134A42
:10683000DB016E0817389B18C9B204409E19002C62
:106840000DD00F2430363278090122401143C9B2ED
:106850005B19317040331A7810431870D2E7320058
:106860000F27303216785B19BE4331431170403325
:106870001A7810431870BDE7C0F2000000440041D0
:1068800010B50400FFF7A0FC014B1C6010BDC04612
:10689000240000200122024B52421A607047C04679
:1068A00024000020164A10B51368591C26D0013B5D
:1068B0001360002B22D172B6124B134A0433934259
:1068C00013D9124A01211000147D0C42FCD0202162
:1068D000148BFF319B085B0021431183D3610C4B68
:1068E00013800123027D1A42FCD0BFF34F8F094B66
:1068F000094ADA60BFF34F8FC046FDE710BDC046BE
:10690000240000200040000003020000004000417D
:1069100002A5FFFF00ED00E00400FA05704710B586
:10692000040001F089F8200010BD0000F0B58229B4
:1069300019D1C3B2294D5A01AA189169284C800176
:106940000C40C02189052143916126490833401834
:106950007021506128685B011A5C8A431100302263
:106960000A431A54F0BD0029FCD1C026C1B21B4C09
:106970004B01E3189A681A4DB6052A4032439A60D3
:10698000194A800182185A600A00072724680832D1
:106990005201115DB9430F000121394311559F691F
:1069A00010493D4040182E439E6158617020115D92
:1069B0008143080010210143115599680B48A21822
:1069C000084080214903014399609968890B890334
:1069D0009960402311790B431371C3E7D4770020EA
:1069E000FFFFFF8F4873002008750020FF3F00F075
:1069F000EFF3108303600123436072B6704773B5F1
:106A0000836D0400002B1BD10600A836357868463C
:106A1000FFF7EEFF019BEDB2013B02D33578EDB2FB
:106A2000FAE768460193FFF734F9002D01D1002001
:106A300076BD2300A4331868A0342368C01AF7E792
:106A40006846FFF7D5FF22000025019BF432013B89
:106A500002D31578EDB2FAE768460193FFF719F90A
:106A6000002DE4D02300F0331868EC34E5E7000093
:106A700010B5436D4468DBB25A01A2189168094809
:106A800008330840802149030143916091685B010C
:106A9000890B890391602268D318402219790A432F
:106AA0001A7110BDFF3F00F0F7B5436D4268DBB2CD
:106AB000190004000831106849014118C979C90753
:106AC00011D55B01D21893689B049B0C0CD120005C
:106AD000FFF7CEFF63681A68636DDBB208335B01B2
:106AE000D3187F22DA71F7BDE16D002923D121008F
:106AF000A4310B6023000125AC33E5656846536083
:106B0000FFF776FF260020002100019BA836013BFD
:106B1000F430F5315A1C33D0357002785F1ED2B292
:106B20000A700A78002A04D120000193FFF7A0FF21
:106B3000E8E73B00EEE72100F0310B600023E3655E
:106B40002300603353606846FFF752FF012526009B
:106B500020002100019BF436013BA830F5315A1C7E
:106B60000ED0357002785F1ED2B20A700A78002A01
:106B700004D120000193FFF77BFFE8E73B00EEE73D
:106B800068460193FFF785F8A4E737B56B46DC1D2F
:106B900000230D00237000F039FF210000F0C4FE37
:106BA0002B681818286020783EBD0000F7B5002437
:106BB000514B012105001F201C70FFF789FD0121A9
:106BC0001F20FFF7D1FD4D4B01211E201C70FFF748
:106BD0007FFD01211E20FFF7C7FD2023484A0F201B
:106BE000D1690B43D361012246490B7813430B70E3
:106BF000454B19788143197006211C78214319707F
:106C000042490C7822430A701A7802401A706022B6
:106C100019780A431A703E4B3E4A5A805F78FF0942
:106C2000FCD13D48FFF77CFA01233C4C3C4E2268E6
:106C3000300011780B43137080223900520004F0A9
:106C40005CFC22689378DB07FCD456621F26354B28
:106C50001B68590B980C9B01314030405B0FB142CF
:106C600000D105211F2800D10238072B00D1043B99
:106C700031408901178D01912B4930400F40019916
:106C800039431185118D0700B14308003843108541
:106C9000118D1803254B7F260B4003430C201385D1
:106CA0000823D17881430B430321D3702268D37822
:106CB0008B4301390B43D370226813783340137030
:106CC000042322681678334313702268C124138981
:106CD000A40083431648138103591B021B0A035166
:106CE00080230360137813481943012311702B701C
:106CF000002101F06BF8F7BD3D7300203C730020CC
:106D000000040040584400413C44004159440041C3
:106D1000000C004006400000E9760000D477002017
:106D2000D8770020246080003FF8FFFFFF8FFFFF2F
:106D300000E100E0E87800200078002810D0012170
:106D4000084B1B681A898A431A810822198B0A4347
:106D50001A830422198B0A431A830022024B1A60F9
:106D60007047C046D4770020CC77002010B50F4A7A
:106D700093699B0B9B03936113680222FF331A7282
:106D80009879823A02439A711A7A9207FCD57F2445
:106D9000074A2140937A0800A34319008023014346
:106DA0009172917A5B420B43937210BDD4770020AD
:106DB0000050004110B50C0000F028FE210000F04A
:106DC000E6FD002804D1034A93699B0B9B03936162
:106DD00010BDC046D4770020F8B50D00832A19D124
:106DE000CBB23B4C5A01A21891693A48AD01084018
:106DF000C021890501439161374920686D187021D0
:106E0000083355615B011A5C8A43110040220A4332
:106E10001A54F8BD022A55D1304A8B0098580028E0
:106E200002D003685B699847F82000F001FE040077
:106E3000274E2B4B4660036040220021083004F0AF
:106E40005CFB22000023A032A3646565E364236534
:106E5000A365E3655360D3641372136013654C320A
:106E600013725372FF222B00134059017118886866
:106E7000184F08330740C0208005384388603068C9
:106E800007265B01195CAD00B1430E0003213143BD
:106E900019542300616D6068114049014118603345
:106EA0004B60616D63680A401B6852019B180122A8
:106EB000FF33997A20000A439A72FFF7D9FD074BF6
:106EC0005C51A6E711002800FFF730FDA1E7C0469E
:106ED000D4770020FFFFFF8F48730020207300202D
:106EE0008CF7000070B505000124064BA200D258B3
:106EF000002A06D0210028000134FFF76DFF0A2C7C
:106F0000F3D170BDF47200200B4BCAB20B4889015B
:106F1000C9185301C318596199690832890B89034B
:106F20009961036852019A180223D3715179823B07
:106F30000B4353717047C04648730020D47700203C
:106F4000084B8A00D05810B5002803D003689B680E
:106F5000984710BDC9B2044B49015918886880048C
:106F6000800CF6E720730020D477002010B50C00C9
:106F7000FFF7E6FF00280CD0064BE4B21B6808348C
:106F800064011C19802362795B42134363710223FD
:106F9000E37110BDD4770020F0B51C00304B85B0F4
:106FA0001B6807000D000292002B55D02D4E317842
:106FB000C9B2002902D11E20FFF7D6FB642333702B
:106FC000294BAA00D058002808D0036822005B682B
:106FD000029998470400200005B0F0BD2900380050
:106FE000FFF7AEFF844204D929003800FFF7A8FF5D
:106FF00004000121EBB21D4E03935B010193F218D3
:1070000093689B0B9B039360019A336802989B18CB
:10701000FF335A7A0A435A72154BA901C918220044
:1070200004F062FA002CD6D029003800FFF788FF60
:107030000028D0D14021039B326808335B01D3186C
:107040001879014319710121D971019BD318FF33BC
:107050009A7A0A439A72BEE701246442BBE7C046AB
:10706000CC7700203C73002020730020D4770020D0
:107070000875002013B56B46DC1D22000123FFF7C5
:107080008BFF012801D1207816BD01204042FBE78B
:1070900070B5CBB2124A13485C01890189180219F4
:1070A00051609168104D08330D40802149032943F8
:1070B000402591609168890B8903916001685A01AC
:1070C0008A1816793543157195796D06FCD55B01E3
:1070D000C918CB79DB07FCD500198068C0B270BD38
:1070E00008750020D4770020FF3F00F070B50D0038
:1070F00000211400FFF7CCFFA04200D9200000239C
:107100000349A34203D0CA5CEA540133F9E770BDD6
:1071100008750020F0B51E003F4B85B01B680F00BE
:107120000192002B3FD08023DB019E423BD83B4C99
:107130002178C9B2002902D11F20FFF715FB642373
:1071400000252370364BBA01D3180293002E2CD0A1
:10715000344B1B680393FF233B401C00009308340F
:10716000039B64011C19A379DB0921D02E4B2F4905
:10717000186802F02BF82E4B1721584302F026F81E
:107180002C4BE279920713D4DA5D002A01D1013841
:10719000F7D20122DA55009B5A01224B9B189A69BB
:1071A000920B92039A6101256D42280005B0F0BD53
:1071B0000022204B3400DA553F2E09D9009B402491
:1071C0005A01184B9B188022996912060A439A614A
:1071D00022000199029804F087F9009BA1045A014A
:1071E000104B890C9B18029A2D195A619A69361B0B
:1071F000920B92030A439A61009B039A08335B0146
:10720000D3180222DA715979823A0A435A71019BE2
:107210001B1901939AE7C046CC7700203D730020EC
:1072200048730020D47700201C00002040420F004B
:10723000701101003F73002070B50D001C000D4B54
:10724000AE01F61811003000220004F04DF9EDB245
:1072500009496D014D196E61AB69084A2000134060
:10726000AB61AB69A2049B0B920C9B031343AB6114
:1072700070BDC04648730020D4770020FF3F00F067
:10728000F7B5104B01901B780F001500002B0CD1A7
:107290000D4B16001C78002C09D00C4E0C4834887D
:1072A0002018641904F020F934802800FEBD002E57
:1072B000FBD03A19330000210198FFF7BDFF2418D5
:1072C000361AF4E7C8760020C9770020CA77002074
:1072D000C9760020F8B50F0016000024012A26D92F
:1072E000100004F0EDF80500380004F083FE0323DD
:1072F00002220130400028706B7096420DD9397817
:1073000000290AD0531CDBB20137A9549E4203D096
:107310000232EC54D2B2F0E7320029000548FFF700
:10732000AFFF441EA041C4B2280004F0D3F82000EF
:10733000F8BDC0461C730020F0B50024012685B0BE
:10734000184B0F0069461E7005000094FFF71DFCE6
:10735000154B01A90B806A3BFF3BCB715A330B7273
:10736000009B8C7109334B800E4B4E7108711C7061
:107370003A00092F0FD00D4F09223E700C4E280005
:1073800000943480FFF77CFF69462800FFF7FDFB7F
:10739000328808493C702800FFF772FF012005B0D1
:1073A000F0BDC046C876002009020000C977002061
:1073B000CA770020C976002070B5CE7892B005005B
:1073C0000C00022E0BD18B79C9792C480902194384
:1073D000FFF7B2FF411E8841C0B212B070BD00F08D
:1073E00015FB210000F0B4FA002803D0C117081AD9
:1073F000C00FF2E7012E0ED1E279A37912021A43EF
:107400001F49112A13D8D2B2002A10D02800FFF742
:1074100037FF0120E1E7032EDFD1A378002B08D14D
:10742000E279A37912021A431649032AEBD90A78A2
:10743000ECE7022B08D1E279A379120212491A4330
:107440002800FFF747FFC8E7012B05D1E279A379B0
:1074500012021A430D49F3E7032BBED1412201006A
:1074600001A804F04AF800F0D1FA01A900F080FA6E
:10747000E279A37912021A4301A9E1E71C73002003
:10748000C4F70000B8F70000A8F70000BCF7000040
:10749000CBB204495B01C9188B699B0B9B038B61C1
:1074A0007047C046D477002037B5050048780C00F7
:1074B0000B2810D801F080FE061B0F2B0F404561F2
:1074C000494C5A5D097801AA002906D1022311808E
:1074D0002800FFF7B1FE01203EBD00231380284B9A
:1074E0001B78012B00D1137002230021F0E78A786A
:1074F0000023012A03D101AA1380224BF0E7204A7E
:107500001370214A93699B0B9B039361E3E78C788B
:10751000012C06D100211B4B01AA1C701170230005
:10752000D6E70120002CD7D1154B174A1870936964
:107530009B0B9B039361CFE789782800FFF716FC2C
:10754000C9E72800FFF738FFC6E701230F4ACCE759
:107550000B780020DB06BFD12800FFF7C3FCA27820
:107560000A4B0B481A6000F019FCCAE70123094ACC
:10757000BBE78A78074B1A60C3E70020ACE7C04638
:107580003E73002046730020D4770020CC77002083
:10759000E8780020D07700204A4BF7B51E78050028
:1075A000002E00D07EE0484C23689A8B12070DD540
:1075B000082231009A833000FFF7B8F910222368BF
:1075C000FF33997A0A439A72404B1E6023689A8B64
:1075D00052071FD504229A833D4A1378002B0AD004
:1075E0001378013BDBB213701378002B03D1012118
:1075F0001F20FFF7B9F8374A1378002B0AD0137809
:10760000013BDBB213701378002B03D101211E2044
:10761000FFF7AAF82368FF331A7A920603D52022CF
:10762000597A0A435A721A7AD20623D56946080053
:10763000294AC0CAC0C0A268920B9203A26040222D
:10764000587902435A7160230A7828001A422AD1D5
:10765000FFF72AFF2368FF33002827D0802299797B
:1076600052420A439A711A7A520603D54022597A35
:107670000A435A727F2601252368FF331E722F00AA
:10768000236808377F01DB19DB79002B07D0134B08
:10769000AA00D05800280DD003681B689847013510
:1076A000082DECD1F7BDFFF785FBD3E720210C4A6D
:1076B0009171D8E729000B4800F046FB2368DF19D9
:1076C000FE71ECE7C9770020D4770020CC7700204A
:1076D0003D7300203C7300200875002020730020BB
:1076E000FF500041E878002010B50248FFF754FF32
:1076F00010BDC0461C73002080235B000380002364
:10770000436007330372704783000148C018704715
:10771000F4720020836C402B09D03F22036CC154CB
:10772000036C013313400364836C0133836470473B
:10773000F7B505006846FFF75BF900264022019B7C
:10774000013B02D32E6D961BFAE768460193FEF7C4
:10775000A0FAAB6D6846002B4FD1FFF749F929001D
:10776000019BA831013B5A1C0CD00C785A1EE4B284
:10777000002C05D168460193FEF78BFA2000FEBD70
:107780001300F0E7684601930024FEF782FA2A000E
:107790002900A0321368A431B4420ED00868984280
:1077A0000BD92800591CEB18116060331978083088
:1077B000C9B2FFF7AFFF0134E9E709689942DDD1AB
:1077C000002313600133AB656846FFF711F92F0002
:1077D0002A000021019BA837013BF532581CC9D073
:1077E000397010785E1E002805D0117028000193B2
:1077F000FFF73EF9EBE73300F0E7FFF7F9F8290070
:10780000019BF431013B5A1C06D00C785A1EE4B29D
:10781000002CAFD01300F6E7684601930024FEF772
:1078200038FA2A002900EC321368F031B44202D051
:10783000086898421DD8096899429FD1002368467C
:107840001360AB65FFF7D4F82F002A000021019BDD
:10785000F437013BF532581C00D18BE739701078B2
:107860005E1E002811D0117028000193FFF700F967
:10787000EAE72800591CEB181160AC33197808307E
:10788000C9B2FFF747FF0134CBE73300E3E710B598
:107890000400FFF74DFF206D10BD10B50400FFF789
:1078A00047FF236D002B03D0E36CE418207A10BD52
:1078B00001204042FBE7F7B517000E000400FFF778
:1078C00037FF6846FFF794F83F2200259446019B56
:1078D000013B5A1C19D0BD4215D2226D002A12D08C
:1078E0000121226D4942002A0AD06046E26CA218AA
:1078F000117AE26C01320240E264226D013A2265A3
:1079000071550135E7E7013BE3E768460193FEF770
:10791000C0F92800FEBD0000014B024A1A60704702
:10792000D47700200050004170B50E000025446857
:10793000002C0BD0236831005B682000984700289A
:1079400002DB2D18E468F3E701256D42280070BDC5
:1079500070B50D004468002C08D0236829009B688E
:1079600020009847002802D1E468F4E7200070BDA9
:1079700070B50D004468002C07D023682900200052
:10798000DB689847E4682D18F5E72C7070BD70B57A
:107990000D004468002C08D0236829001B682000D3
:1079A0009847002802D1E468F4E7200070BDF8B5DC
:1079B00042788B790D00017A9B18040000208B42DD
:1079C00022DC6368834219D16560002623786A71DE
:1079D000EA792B719B182370AB79B34213D9AB684A
:1079E000B7006078DF19FFF78FFE3B680136036050
:1079F0006378F6B201336370EEE70B00D9680029B3
:107A0000FBD1DD60E1E70120F8BD000070B5012683
:107A1000054D064C2B68334203D12000FFF76CFE66
:107A20002E60200070BDC046D8780020DC78002091
:107A300010B503F045FD10BD10B503F04BFD10BDB2
:107A40000020704770B50F26CB1D0139020032406F
:107A5000D5B22C0000093034092A00DD07341C702F
:107A6000013B8B42F2D170BD10B50C000B4B186876
:107A7000FFF7E8FF21000A4B08311868FFF7E2FF23
:107A80002100084B10311868FFF7DCFF2100064B7E
:107A900018311868FFF7D6FF202010BD0CA0800019
:107AA00040A0800044A0800048A0800008B4024BA1
:107AB0009C46103808BC6047697A00003F20704738
:107AC00013B56B460268D971073354681900012257
:107AD000A04716BD70B50A260B7892B06E440233EB
:107AE00005000B703C220021300003F006FD3948F0
:107AF00001AC06903848242107900620207768467C
:107B0000364AA1742281364A364BA281FD3AFF3AA9
:107B10008018C177684623390630C1776846073038
:107B2000C17702A8C1770720F2770326083169449C
:107B3000C87703A9CE7710212B366E443170092601
:107B400021851F3169440E700CA9053E0E7033214A
:107B50002380022369440B7006360DA90E7022495A
:107B60003536A1863B216E44307010A86274E277EE
:107B700002703D3269446A440B7013704021002248
:107B8000E37023716371A37341336B4421871970D0
:107B90005A702B7DC039A370A37263770133DBB2B7
:107BA000A3776A7D0B200D0068441543C57731200B
:107BB000684403703A23501C6B441870412302320E
:107BC0000A436B441A70210042220848FFF758FB11
:107BD00012B070BD1001042402060524090400003F
:107BE00001020000080B0000070500001C730020C4
:107BF00008B4024B9C46103808BC6047D57A000098
:107C000070B5027D0B790C0000259A420BD10B78E0
:107C10004E78A12B09D1212E05D107221B491C48E2
:107C2000FFF72EFB0135280070BD212BFBD1202E44
:107C300022D1072215491648FFF758FA9622134B0E
:107C4000D200196891421DD1DB79DB071AD4FA20E2
:107C5000FEF716FE00210E48FFF71AFC0125232E21
:107C6000E1D1E378A2781B0213430A4A00210848B5
:107C70001360FFF70DFCD6E7222EEFD18A78034B75
:107C8000DA71DBE7FEF706FEE4E7C0462C000020D1
:107C90001C7300202800002008B4024B9C461038BA
:107CA00008BC6047017C000010B5417D006A0131CD
:107CB000FFF746F9034B1B6801335A1E934118180E
:107CC00010BDC0463400002010B5417D006A02316D
:107CD000FFF74CF910BD10B5417D006A0231FFF786
:107CE00013F910BD70B50D00417D04001300023181
:107CF0002A00006AFFF70EFA002801D10123636011
:107D000070BD000010B5054C23685A1C04D10368EF
:107D10005B69984703002060180010BD3400002004
:107D2000074A0300106810B5411C03D001235B42D1
:107D3000136010BD597D186A0131FFF79BF9F8E710
:107D4000340000200020704770470000FA239B0099
:107D500010B583600F4B0022C38203002833836178
:107D60000D4B04004260C2611800403323610830AB
:107D7000631D21622060DA778323A362813BE36283
:107D800080332363FFF742FE21001031FFF70FFE1F
:107D9000200010BD03020000D8F70000022110B53A
:107DA000094B1A68437D5B01D318FF339C7A21434A
:107DB0009972437D0133DBB25B01D3180122FF339B
:107DC000997A0A439A7210BDD47700207047000058
:107DD00010B502490248FFF7B9FF10BD1C7300201F
:107DE000E878002030B5204A4B0087B05B0893420A
:107DF0001CDD1E4A934205DD02000B0002F00CFF61
:107E000007B030BD02AA00F08BF803231840049A93
:107E1000059B01280FD002281CD0002815D00298FD
:107E200003990124009401F005F8E9E700220023FA
:107E300000F086FAE4E700900298039900F0FAFF58
:107E400080231B069C466144DAE70298039900F000
:107E500077FAD5E70298039900F072FA80231B069F
:107E60009C466144CCE7C046FB21E93FFFFFEF7F22
:107E7000F8B5274A4B005B0D9A180C000700132A2F
:107E800010DC002A36DB234B13410B423AD080240E
:107E900024031441002064189C4306002500300090
:107EA0002900F8BD332A0EDD80230600DB000D001B
:107EB0009A42F4D102000B003800210001F014FDB9
:107EC00006000D00EBE7144D0600AC4601256344A7
:107ED0006D42DD40AC4663460D000342DFD03323E4
:107EE0009A1A323B93401818874200D94C1C6346BB
:107EF0009843D2E7C90FCC070020531CCDD1074BC4
:107F00001C43CAE706000D000028C0D1C7E7C046E1
:107F100001FCFFFFFFFF0F00EDFBFFFF0000F03F44
:107F2000F0B54E464546DE465746E0B5E14B4C00BF
:107F30008FB09046894664089C4200DC87E0DE4BA7
:107F40009C4222DCDD4A002900DC92E0DC4B02F09E
:107F500063FEDB4B06000F009C4200D17EE1D94A54
:107F6000D94B02F059FE02000B00414630000A6076
:107F70004B60390002F050FED34BD24A02F04CFE67
:107F8000434601259860D9606BE0D04B9C4200DCF1
:107F90008FE0CF4B9C4200DD55E1CE4A231592463F
:107FA0009A4451460905631A19001D00040003F0A4
:107FB00097F903F0CBF902000B002000290008928A
:107FC000099302F029FE0022C34B02F0B3FB0F001D
:107FD000060003F085F903F0B9F904000D00020072
:107FE0000B00300039000A940B9502F015FE0022B8
:107FF000B94B02F09FFB002200230C900D9101F081
:108000006BFA002800D192E1002300222000290011
:1080100001F062FA434243410133B04A41460192C2
:10802000022208A80092524600F0A4FA4B4605002E
:10803000002B16DA802243461206944642465B68BD
:10804000454263445360D3686344D36009E00B0046
:10805000020041460A604B600022002300258A602E
:10806000CB6028000FB03CBC90469946A246AB4678
:10807000F0BD934B01F038FC914B06000F009C4281
:1080800000D13DE18F4A904B01F02EFC02000B0025
:10809000414630000A604B60390002F0BDFD894A5C
:1080A000894B01F021FC012543466D429860D9605F
:1080B000D7E700F071FF8A4A8A4B06000F0002F0F2
:1080C00039FB0022884B01F00FFC03F009F9050091
:1080D00003F03CF9794A7A4B0490059102F02AFBAF
:1080E00002000B003000390002F096FD754A0600D0
:1080F0000F0004980599744B02F01CFB0290039149
:108100001F2D00DCC7E0029A039B3000390002F00B
:1081100083FD83468A4653465B0024155B0DE31AB4
:10812000102B6CDD04980599D322674B520502F0A1
:1081300001FB02000B00300039000292039302F0B1
:108140006BFD0A000100130006910792020039003E
:10815000300002F061FD029A039B02F05DFD060013
:108160000F0004980599614A614B02F0E3FA32006E
:108170003B0002F051FD069E079F0B0002003900F4
:1081800030000292039302F047FD4B005B0D8346E3
:108190008A46E41A312C32DD04980599B822544BF2
:1081A000920502F0C7FA03000C0002000293039448
:1081B0000B000698079902F02FFD02000B00060045
:1081C0000F000698079902F027FD029A039B02F020
:1081D00023FD484A0290039104980599464B02F00A
:1081E000A9FA029A039B02F017FD02000B0030006F
:1081F00039000292039302F00FFD83468A465A46E5
:108200005346414630000A604B60390002F004FDDD
:10821000029A039B02F000FD44460B000200A2609C
:10822000E3604B46002B00DB1BE75B4623608023AB
:108230001B065344636080231B069C466144A06078
:10824000E1606D420DE70B00020002F0E5FC4346E1
:1082500000259860D9601860596002E7D3221A4B54
:10826000520502F0D9FC214A214B0D00040002F016
:10827000D3FC02000B00414620000A604B6029003D
:1082800002F0CAFC1A4B194A02F0C6FC434601250B
:108290009860D960E5E602000B003000390002F07A
:1082A000BBFC6B1E154A9B009B5883468A46A34223
:1082B000A5D130E7FB21E93F7BD9024000004054C3
:1082C000FB21F93F3163621A61B4D03DFB21394192
:1082D000FFFFEF7FEAFBFFFF00007041A8F80000FE
:1082E00083C8C96D305FE43F0000E03F7370032E28
:1082F0008A19A33BC14920259A837B3928F80000BD
:10830000D3220C4B520501F0EFFA0B4A0B4B040041
:108310000D0001F0E9FA02000B00414620000A605E
:108320004B60290002F078FC034A044BB9E60323B2
:1083300073E6C04661B4D03D7370032E8A19A33B27
:10834000F0B54746CE4680B587B000920193754B95
:108350004F00814688467F089F4263DC02F0C0FFE1
:10836000002800D1D4E04A4643464846414602F040
:10837000E1F904000D006C4A6C4B02F0DBF96C4A29
:108380006C4B01F0B1FA22002B0002F0D3F96A4ADB
:108390006A4B02F041FC22002B0002F0CBF9684A44
:1083A000684B01F0A1FA22002B0002F0C3F9664AE3
:1083B000664B02F031FC22002B0002F0BBF9644A4C
:1083C000644B01F091FA22002B0002F0B3F9029005
:1083D00003910022604B2000290002F0ABF9029AC1
:1083E000039B06000F002000290002F0A3F9009A69
:1083F000019B04000D004846414602F09BF9020033
:108400000B002000290002F007FC02000B003000E6
:10841000390002F001FC02000B0000204F4902F07D
:10842000FBFB70E002000B0002F084F904000D0079
:108430003D4A3E4B02F07EF93D4A3E4B01F054FA74
:1084400022002B0002F076F93B4A3C4B02F0E4FBA1
:1084500022002B0002F06EF9394A3A4B01F044FA3F
:1084600022002B0002F066F9374A384B02F0D4FBA9
:1084700022002B0002F05EF9354A364B01F034FA47
:108480002B00220002F056F9354B029003919F42D7
:108490009FDD344B00229F423DDC334900207B1896
:1084A0002E4916001F0002F0B7FB04900591002230
:1084B000294B2000290002F03DF932003B0002F078
:1084C000ABFB029A039B06000F002000290002F07C
:1084D00031F9009A019B04000D004846414602F024
:1084E00029F902000B002000290002F095FB020090
:1084F0000B003000390002F08FFB02000B000498E3
:10850000059902F089FB07B00CBC90469946F0BD76
:1085100000201249F7E7154B002604920593144FEB
:10852000C5E7C046FFFF3F3ED43888BEE9FAA8BD84
:10853000C4B1B4BD9EEE213EAD529C804F7E923EB2
:108540009015CB19A001FA3E7751C1166CC1563F68
:108550004C5555555555A53F0000E03F0000F03FF4
:108560003233D33F0000E93F0000E0FF0000E73F67
:108570000000D23FF0B5DE464E4645465746E0B5D0
:10858000DC4CA5440D9114001900A49A0993DA4B10
:108590009200D6584D1E03901821E01E06960295B3
:1085A00000F09EFEC3430100DB1719404B1C9A00EC
:1085B0009B1ADB001B190B9105934C1B771918D4E0
:1085C000A59BA5009C463F1922AE6544013707E0F4
:1085D000286802F0BBFE013403C60435BC4208D053
:1085E000002CF5DA00200021013403C60435BC421A
:1085F000F6D1069B002B01DA00F0FDFB069B0399E8
:108600000133DB009A46099BDA009446009200226F
:10861000914672AA0492B94A6144934688469AAB3D
:1086200063449B44029B002B00DABCE15D460026BC
:108630000027039C4D442A686B6803CC02F07AF84B
:1086400002000B003000390001F04EF9083D060031
:108650000F004445EFD1049B4B441E605F6008232C
:108660009C46E144D145DDD10EA80421844649420F
:1086700061448C46069A93009C44614684460A9164
:108680000399083B63448C460C93009B009263441F
:108690009B46009A0498D10003008C4663440891DD
:1086A0001E685F68002A33DD954980468C46624427
:1086B000D300984470AB9A460EAB99460022914B7A
:1086C0003000390002F036F802F00AFE02F03EFEF9
:1086D00000228D4B04000D0002F02CF802000B006C
:1086E0003000390002F098FA02F0FAFD4B4601C35F
:1086F0009946434620001A685B68290001F0F4F8A7
:1087000008235B429C46E04406000F00D045D5D1CB
:10871000059B30001A003900984600F0DDFCFF236D
:1087200000229B0504000D0002F004F800F038FC64
:108730000022764B01F0FEFF02000B002000290012
:1087400002F06AFA0D00040002F0CAFD814602F050
:10875000FDFD02000B002000290002F05DFA06007A
:1087600040460F00002800DCEEE0009B18215A1E56
:1087700092000EAB9B58091A1D000D41A9448D4073
:108780005D1B0EAB9D5017231B1A1D41002D2DDDC7
:1087900001239C46009BE144002B00DC1CE20E9C64
:1087A0000123002C00D0B5E0009A012A09D09900DD
:1087B0000EAA54580133002C00D0ACE0009A9A4223
:1087C000F5D1059B002B0EDD012B00D1A8E1022B7A
:1087D00009D1009B0EA95A1E92000EAB9B5807931D
:1087E0009B029B0A8B50022D00D1C1E00023002286
:1087F0003000390000F070FE009B002800D194E2A8
:10880000069A591E8A4210DC414A0A9894460EAADA
:108810006344944600229B0063441C68043B22434B
:108820008342FAD1002A00D0C0E0069B0EAA013B89
:108830009B00D358002B00D0B3E001220C9B043BDB
:10884000596801320029FAD0009B9C46624411000D
:1088500007921A0001338B4246DC0B986346804630
:10886000A59C4344A046099C9B00A1464A449844C9
:10887000D30022AA9146049A99449446089BA59A4B
:1088800063448446614494469A468B006344009353
:108890004346586802F05AFD4B4618605960029BE7
:1088A000002B24DB4D46039C0026002701E02868AE
:1088B00069680CCC01F03EFF02000B00300039006B
:1088C00001F012F8083D06000F005C45EFD1534659
:1088D0009E60DF6004239C460433E0449C46009B7A
:1088E000E144E2449845D3D1079B0093D1E60026AA
:1088F0000027ECE794FDFFFFF0F9000018FEFFFFF2
:10890000FFFFFF1F0000703E00007041000020408C
:10891000FFFFFF3F002180225204141B0EAA545077
:10892000009999420EDD0EA884469B000EAA89008C
:10893000D25861446344CF4800E01A68821A04C3E5
:108940008B42FAD101243CE7059B002B06D1009B0A
:108950000EAA013B9B00D558ED1517E70022C64B28
:10896000300000F0DDFD002800D024E100253DE7C7
:1089700032003B000020C14902F04EF906000F0012
:10898000002C00D132E7059A0020BC4900F0A4FB7E
:1089900002000B003000390002F03EF906000F0023
:1089A00024E7012250E70026002754E64B46059AAB
:1089B000079388468B000EA9CB58183A0895059264
:1089C000002B0DD18C464146AD4B43449B00634484
:1089D000043B58680139183A0028F9D088460592B6
:1089E000059A0020A54900F077FB434604000D00DE
:1089F000002B00DA05E29E000EAB9C464346DB00EE
:108A000066449C46059370AB9946049F6744009763
:108A1000306802F09BFC22002B0001F08BFE00224C
:108A200038607960974B2000290001F083FE083FF1
:108A300004000D00043EB945EAD14AAB03939B46BE
:108A400000239A46069B42469946434601320292CB
:108A500004934B46002B00DAAAE080208A4B009D4D
:108A60009846C005894900260027002408E008230D
:108A70009C460835E044544511DC43461868596863
:108A80002A686B6801F056FE02000B0030003900C6
:108A900000F02AFF013406000F00A145E7DA5B462B
:108AA000C0C39B4601239C46009BE244083B0093C5
:108AB000029B9A45CDD1049B9846A49B022B00DDD6
:108AC0008EE0002B37DC1FD1059B00271D00039B88
:108AD00000249C461E006544083E2A686B683800E6
:108AE000210000F001FF083D07000C00AE42F4D168
:108AF000089B002B03D080231B069C4664443A004D
:108B000023000D990A604B600720079B18409B23A8
:108B10009B009D443CBC90469946A246AB46F0BDA6
:108B2000009B0EA95A1E92000EAB9B5807935B0246
:108B30005B0A8B5057E64346002B00DA70E10020B9
:108B40000021DB004AAAD61848AF32687368083E95
:108B500000F0CAFEB742F8D1089B002B00D025E1F7
:108B60000B0002004A984B990D9C2260636002F052
:108B700053F8434607000C00002B13DD01254CAED3
:108B8000B14638002E0021004C4601360CCC00F0D6
:108B9000ABFEA146B045F7DA089B07000C00002B9E
:108BA00000D015E13A0023000D998A60CB60ABE755
:108BB0000026002773E701239C46009BE144022521
:108BC000002B00DDEBE532003B0000202B4902F0DA
:108BD00023F806000F0009E60024F2E54AAB0393F0
:108BE000A49B032B00D08FE74346002B00DC14E14D
:108BF000039ADB009B46130091465B441E685F6846
:108C0000234B43440293DB00994448AB9A464B46BE
:108C10005C681B681800210032003B000090019145
:108C200000F062FE04000D0002000B0000980199A4
:108C300001F0F2FF3B00320000F056FE4B46986018
:108C4000D9601C605D6008235B429C46E1442600BD
:108C50002F00CA45DBD14346012B00DCE3E0039A39
:108C600013005B441E685F68029BDB0099464A4420
:108C7000904610E0FFFFFF000000E03F0000F03FE3
:108C8000FFFFFF3F0000703EB0F90000FB21F93FFD
:108C9000FFFFFF1F984643465C681B6818002100D1
:108CA00032003B000090019100F01EFE04000D0018
:108CB00002000B000098019901F0AEFF32003B006A
:108CC00000F012FE4346039A9860D9601C605D6014
:108CD000083B26002F009A42DCD14D4694460026E0
:108CE00000244746083565442A686B683000210037
:108CF00000F0FAFD083D06000C00AF42F4D1039BE2
:108D00004A9F5D689968D868089B002B65D08022CF
:108D1000120694460D9B6544604464441F605D6088
:108D20009960D8601E615C61EEE69A464B460793F7
:108D3000059B30005A423900089500F0CDF9002219
:108D40003A4B06000F0000F0EBFB002824D0384B14
:108D500000223000390001F0EDFC02F0C1FA524669
:108D60000400950002F0F2FA0022304B01F0E2FC20
:108D700002000B003000390001F04EFF02F0B0FAA3
:108D80000EAA50510122059B524418339046059378
:108D900093000EAAD45023E65346300039009C00BD
:108DA00002F09EFA0EAB1851D04619E680230D9AB8
:108DB0001B06CB18106053600B0002004A984B99B9
:108DC00001F02AFF434607000C00002B00DDD5E62A
:108DD00080231B069C466444E4E62B003A000D9D6C
:108DE0002A606B600A000300AA60EB603200230077
:108DF0002A616B6188E6099BDB00009372AB0493E8
:108E000032E4A49B022B00DDE8E6002B00DD92E6B5
:108E100000D079E6002700246AE6002600246EE7E9
:108E20000020002198E60026340068E70000704129
:108E30000000703EF0B5CE46474680B587B0009240
:108E40000193474A4B00814688465B08934207DC02
:108E50004146484602F044FA4146031E484666D061
:108E60004A4643464846414601F064FC04000D0072
:108E700002000B004846414601F05CFC394A3A4B7F
:108E800006000F002000290001F054FC374A384B3F
:108E900001F0C2FE22002B0001F04CFC354A364B9B
:108EA00000F022FD22002B0001F044FC334A344B39
:108EB00001F0B2FE22002B0001F03CFC314B324AA3
:108EC00000F012FD0E9B02900391002B34D000980D
:108ED000019900222D4B01F02DFC029A039B049076
:108EE00005913000390001F025FC02000B000498C8
:108EF000059901F091FE22002B0001F01BFC009A65
:108F0000019B01F089FE224A04000D00214B300034
:108F1000390001F00FFC02000B002000290000F0D6
:108F2000E3FC02000B004846414601F075FE07B025
:108F30000CBC90469946F0BD02000B0020002900B1
:108F400001F0F8FB124A134B01F066FE32003B00C1
:108F500001F0F0FB4A46434600F0C6FCE7E7C04696
:108F6000FFFF3F3E7CD5CF5A3AD9E53DEB9C2B8A9B
:108F7000E6E55A3E7DFEB157E31DC73ED561C119F6
:108F8000A0012A3F1111813FA6F810110000E03F17
:108F9000495555555555C53F49004B08190070476F
:108FA000474AF0B54F4691464B005B0D9944464603
:108FB000D6464A46C0B505000C000E00884607009C
:108FC000132A27DC002A4BDB3E4B13419A460B0049
:108FD00052461340034318D03B4A3C4B2800210023
:108FE00000F082FC0022002300F090FA002847D015
:108FF000002C04DA80234A465B031341984446461A
:10900000534600279E43380031001CBC90469946C9
:10901000A246F0BD332A08DD8023DB009945F4D158
:1090200002000B0000F060FCEFE7294A94460122A1
:1090300063445242DA4092460242E6D0224A234B2F
:109040002800210000F050FC0022002300F05EFA0E
:10905000002815D0002C1EDB534646469F430FE0E8
:10906000194A1A4B2800210000F03EFC0022002380
:1090700000F04CFA002803D0002C04DB0027002667
:1090800038003100C1E76400640825430027002D43
:10909000F6D0104EF4E74B46142B0BD03422D21AE4
:1090A000012393405D19BD4208D201239C462F0045
:1090B000E044D1E7133B9C46E044CDE72F00CBE7EB
:1090C00001FCFFFFFFFF0F009C7500883CE4377E2A
:1090D000EDFBFFFF0000F0BF4B0070B55B0D14000F
:1090E0000A00002B1AD14B005B08034315D0234B19
:1090F000002201F01FFB224B9C422DDB0A004B009B
:109100005B0D363B1F4DE318AB422ADC002B0DDD17
:109110001D4C1B0522401A43110070BD1B4DAB4274
:10912000F0D102000B0000F0DFFBF6E71D00353543
:1091300019DA174B02009C4209DD0B00154816494D
:1091400000F032F8134A144B01F0F4FAE5E70B0093
:109150001248134900F028F8104A114B01F0EAFABE
:10916000DBE70200E9E7084C363322401B051343D6
:10917000190000220B4B01F0DDFACEE7000050434E
:10918000B03CFFFFFE070000FFFF0F80FF0700005D
:1091900050C300009C7500883CE4377E59F3F8C248
:1091A0001F6EA5010000903C30B54A00DB0FDB07C5
:1091B00052081A43110030BD02B4714649084900F3
:1091C000095C49008E4402BC7047C0460022430837
:1091D0008B4274D303098B425FD3030A8B4244D37F
:1091E000030B8B4228D3030C8B420DD3FF220902C1
:1091F00012BA030C8B4202D31212090265D0030B80
:109200008B4219D300E0090AC30B8B4201D3CB0375
:10921000C01A5241830B8B4201D38B03C01A5241B7
:10922000430B8B4201D34B03C01A5241030B8B42B9
:1092300001D30B03C01A5241C30A8B4201D3CB02A4
:10924000C01A5241830A8B4201D38B02C01A524189
:10925000430A8B4201D34B02C01A5241030A8B428C
:1092600001D30B02C01A5241CDD2C3098B4201D3A4
:10927000CB01C01A524183098B4201D38B01C01A22
:10928000524143098B4201D34B01C01A5241030999
:109290008B4201D30B01C01A5241C3088B4201D348
:1092A000CB00C01A524183088B4201D38B00C01AF5
:1092B000524143088B4201D34B00C01A5241411A1C
:1092C00000D20146524110467047FFE701B5002029
:1092D00000F0F0F802BDC0460029F7D076E77047ED
:1092E00003460B437FD4002243088B4274D3030907
:1092F0008B425FD3030A8B4244D3030B8B4228D3A8
:10930000030C8B420DD3FF22090212BA030C8B42CD
:1093100002D31212090265D0030B8B4219D300E06D
:10932000090AC30B8B4201D3CB03C01A5241830BF2
:109330008B4201D38B03C01A5241430B8B4201D3A2
:109340004B03C01A5241030B8B4201D30B03C01ACB
:109350005241C30A8B4201D3CB02C01A5241830A45
:109360008B4201D38B02C01A5241430A8B4201D374
:109370004B02C01A5241030A8B4201D30B02C01A9E
:109380005241CDD2C3098B4201D3CB01C01A524105
:1093900083098B4201D38B01C01A524143098B428E
:1093A00001D34B01C01A524103098B4201D30B0177
:1093B000C01A5241C3088B4201D3CB00C01A52419C
:1093C00083088B4201D38B00C01A524143088B4261
:1093D00001D34B00C01A5241411A00D201465241FA
:1093E000104670475DE0CA0F00D04942031000D319
:1093F0004042534000229C4603098B422DD3030A6E
:109400008B4212D3FC22890112BA030A8B420CD37D
:10941000890192118B4208D3890192118B4204D3A6
:1094200089013AD0921100E08909C3098B4201D326
:10943000CB01C01A524183098B4201D38B01C01A60
:10944000524143098B4201D34B01C01A52410309D7
:109450008B4201D30B01C01A5241C3088B4201D386
:10946000CB00C01A524183088B4201D38B00C01A33
:109470005241D9D243088B4201D34B00C01A52410A
:10948000411A00D20146634652415B10104601D397
:109490004042002B00D54942704763465B1000D321
:1094A000404201B5002000F005F802BD0029F8D0C7
:1094B00016E770477047C0468446101C62468C46CB
:1094C000191C634600E0C0461FB501F0CBF8002828
:1094D00001D40021C8421FBD10B501F023F840425D
:1094E000013010BD10B501F0BDF8002801DB0020EF
:1094F00010BD012010BDC04610B501F0B3F8002822
:1095000001DD002010BD012010BDC04610B501F0E6
:1095100045F8002801DC002010BD012010BDC04628
:1095200010B501F03BF8002801DA002010BD012041
:1095300010BDC04670B500220C4B04000D00FFF7B3
:10954000EFFF002804D12000290001F0C9FE70BD02
:10955000064B00222000290001F05EFB01F0C0FE56
:1095600080231B069C466044F1E7C0460000E041B2
:10957000F8B557464E464546DE464402E0B546003D
:109580008846640A360EC70F002E63D0FF2E24D003
:109590008023E400DB041C43002399469B467F3E66
:1095A000434642465D02D20F5B006D0A1B0E904699
:1095B000924665D0FF2B55D080220021ED00D204C9
:1095C0007F3B1543F61A43464A467B400F2A00D993
:1095D0008DE06D48920082589746002C54D10823A4
:1095E0009946063BFF269B46DAE7002553460229AB
:1095F0001BD0032900D1BFE0012928D030007F30E3
:10960000002820DD6A0704D00F222A40042A00D057
:1096100004352A0103D530005C4A80301540FE280D
:1096200003DCAC01640AC2B201E0FF220024640240
:10963000D205600ADB07104318433CBC90469946AC
:10964000A246AB46F8BD0122101A1B287CDD002281
:109650000024ECE7002C1DD104239946033B00268F
:109660009B469DE7FF3E002D20D1022143464A46FE
:109670007B400A430F2AD8D8454892008258974623
:10968000002D19D10121F1E70C239946093BFF2652
:109690009B4685E7200001F0C5FE7626431F9C40CF
:1096A00000237642361A99469B4679E74A460323B9
:1096B0001A439146032186E7280001F0B3FE431FB9
:1096C00036189D40763600217DE780240023E40390
:1096D000FF22ACE700258023DB031C4228D01D427B
:1096E00026D12B435C02640A4346FF229FE76201B6
:1096F0006C01A24224D21B210025013E012710004B
:109700006D005200002801DB944201D8121B3D433A
:1097100001390029F3D11400621E944125436DE7FD
:10972000BA46594625005346022900D061E77CE736
:109730008023DB031C436402640A3B00FF2276E7BC
:10974000121B1A210125D9E79E362A00B5402C00AC
:10975000C240651EAC411443620704D00F22224070
:10976000042A00D00434620103D4A401640A002254
:109770005DE7012200245AE78024E4032C436402BD
:10978000640AFF2253E7C04600FA0000FFFFFFF71C
:1097900040FA000041024200C30F490A120E0020A5
:1097A0007E2A0DD99D2A0CD8802000040143952AD9
:1097B0000ADC9620821AD1404842002B00D10800D2
:1097C0007047034A9818FBE7963A9140F4E7C04681
:1097D000FFFFFF7F70B500283DD0C317C5185D405F
:1097E000C40F280001F01EFE9E22121A962A07DCE2
:1097F000D2B2082833DD083885406802400A23E0E9
:10980000992A0BDD052329001B1AD94003001B33BD
:109810009D402B005D1EAB4119430D00052801DD65
:10982000431F9D402B000F490B406E0709D00F26A8
:109830003540042D05D004335D0102D59F220B4035
:10984000121A9B01580AD2B24002D205400AE4071C
:109850001043204370BD002400220020F4E768027A
:10986000400AF1E7FFFFFFFB70B5041E34D001F0A2
:10987000D9FD9E22121A962A07DCD2B208282EDDC4
:10988000083884406002400A21E0992A09DD03007B
:1098900021001B3399404B1E994105231B1ADC40C4
:1098A0000C43052801DD431F9C4023000D490B405C
:1098B000650709D00F252C40042C05D004335C012A
:1098C00002D59F220B40121A9B01580AD2B24002C5
:1098D000D205400A104370BD00220020F7E7600265
:1098E000400AF4E7FFFFFFFBF0B54F464646D64679
:1098F0000C000903C0B5490A470F5E0039431F0336
:10990000DB0F9C4665007B0A570F1F436D0DE40F6C
:10991000760DA146C000B846D200AB1B64457BD093
:10992000002B5FDD002E00D0A4E03E00164300D1E6
:1099300012E15E1E002E00D09EE1871A4346B84217
:1099400080410125C91A4042091A0B0200D431E1B5
:1099500049024E0A002E00D16EE1300001F062FD96
:109960000300083B1F2B00DD61E120223900D21AE1
:109970009E40D1409F400E439D4200DD51E15D1B62
:109980006B1C1F2B00DD7CE12021C91A3D0030003B
:109990008F408840DD40791E8F41310007222843E7
:1099A000D940002507433A40002A09D00F233B4005
:1099B000042B05D03B1DBB42BF417F42C9191F008C
:1099C0000B0200D426E26A1CC64B55056D0D9A4267
:1099D00000D106E1C44AFF080A40530752023B4344
:1099E000120B8EE0002B00D0B8E06B1C5B055B0D0A
:1099F000012B00DC30E1871A4346B842B641CB1A4E
:109A000076429E1B330200D54CE13B003343A1D18B
:109A100000220024002570E0002B00DCE5E0002E91
:109A200000D183E0AF4EB54260D080263604374384
:109A3000B846382B00DC3EE1434613431F007A1E34
:109A400097413F1887428041404209180B0200D4D9
:109A5000B0E0A44B01359D4200D1C3E0A24A7B088F
:109A60000A4001210F401F435108D30707221F431B
:109A70003A4099E79B4EB54238D0802636043743AA
:109A8000B846382B00DDDCE01F2B00DC30E11E0087
:109A90004746203EF740BC46202B04D04026F31A10
:109AA00046469E403243170063467A1E97411F4345
:109AB000CCE0002B00D104E24346134300D159E12E
:109AC0004B07C00818438023C9081B03194208D05C
:109AD0004546ED081D4204D14346D00859070843C6
