:10000000285100202D0100002901000029010000D5
:1000100000000000000000000000000000000000E0
:1000200000000000000000000000000029010000A6
:10003000000000000000000029010000C53500009C
:100040002901000029010000290100002901000008
:100050002901000029010000E11C00006D350000AD
:1000600029010000290100002901000029010000E8
:100070002901000029010000A9200000352200000C
:1000800029010000290100002901000029010000C8
:10009000290100000000000000000000290100000C
:1000A00029010000391A000029010000290100007F
:1000B0000000000010B5064C2378002B07D1054B3B
:1000C000002B02D0044800E000BF0123237010BDC4
:1000D000700200200000000090D00000084B10B516
:1000E000002B03D00749084800E000BF0748036819
:1000F000002B00D110BD064B002BFBD09847F9E731
:10010000000000007402002090D0000090D0000099
:100110000000000010B5024B9847024B984710BDF5
:10012000CD0400004D520000FEE70000F8B5234A60
:10013000234B9A4209D0224B204A03E011681960F0
:10014000043304321F498B42F8D31F4B02E00022D4
:100150001A6004331D4A9342F9D31D4AFF211D4BF7
:100160008B439360FD3990235B001B4AD1501B4A9F
:10017000D3780325AB4302242343D370D3780C27D1
:10018000BB4308263343D370154B987B30229043F2
:10019000202210439873997BB943314399739A7B1A
:1001A000AA4322439A730F4A516880230B4353603A
:1001B0000D4B98470D4B9847FEE7C04690D0000086
:1001C000000000206802002070020020243100207E
:1001D00000ED00E000000000007000410050004110
:1001E0000048004100400041FD8C00007D3D0000C2
:1001F00010B5144A116A80235B020B431362124A42
:10020000124B5A8012491348134B984780214900DA
:100210008423C022D205D15010492433104ACA5039
:10022000C0221206CA502033CA5C01208243024316
:10023000D2B2CA54B4228B5C0F24A3430343DBB273
:100240008B5410BD000400401E440000000C004010
:1002500000400042E02D0020490800000044004119
:1002600000010040044A136A80210B431362034AD1
:10027000034B5A807047C0460004004019400000FC
:10028000000C004030B50F4BD622995C0125A943E4
:1002900001242143C9B29954BB20195CC73A914348
:1002A00003221143C9B21954D7215A5CAA432243ED
:1002B000D2B25A541A5CC8390A4030210A43D2B229
:1002C0001A5430BD0044004110B582B0064B984727
:1002D000002300931033054A05490648064CA04701
:1002E000064B984702B010BD650200008C0200204A
:1002F000001C0042242E00201D0F0000850200007B
:1003000010B50422C023DB055A600A490A4B8B62F0
:10031000C0231B068B624223CA5C01208243024336
:10032000D2B2CA5431228B5C0F24A3430343DBB205
:100330008B5410BD0044004104000040044A116A7F
:100340008023DB020B431362024A034B5A8070473F
:100350000004004021440000000C004010B5044B94
:10036000984704490448054B9847054B984710BDEA
:100370003D03000000480042002E0020550A000006
:100380000103000010B5054A054B5A80054A136A5F
:1003900002210B431362044B984710BD0740000035
:1003A000000C004000040040BD0B0000044A116A2C
:1003B00080235B000B431362024A034B5A80704751
:1003C000000400401A400000000C004010B5054B2E
:1003D0009847054B9847020004490548054B984744
:1003E00010BDC046AD0300002F22000000200042D7
:1003F000742E0020F50C0000F0B5C64600B5C024F0
:10040000E40580225204A2601C4B8027FF059F62F6
:100410001B49996262615820195C042290469143FD
:100420001954195C0126B14301252943C9B2195455
:100430001C38195C0B3291430622944662461143E4
:10044000C9B2195480218904A1609F620D4F9F6237
:10045000616159215C5C424694435C545A5CB243EE
:100460002A43D2B25A541A5C4A390A4060210A43DC
:10047000D2B21A5404BC9046F0BDC04600440041BC
:10048000000100C0000200C0064BDA6920210A43C7
:10049000DA615A6920310A435A61034A034B5A8090
:1004A0007047C0460004004006450000000C0040B4
:1004B00010B5034B9847034B9847034B984710BD23
:1004C0008904000001130000F9030000F8B5CE46CE
:1004D000474680B5334B9847C022D20580231B0185
:1004E00053619360304B31499962C021090699628A
:1004F0004B25585D0124A04358558020C0009060D2
:100500002B4D9D62996250614A25585D0427B8437E
:100510005855585DA04301263043C0B25855352088
:100520008446185C3B3DA946A8430525A846454698
:100530002843C0B2654658558020C00190601D4DCB
:100540009D62996250614E20195CB9431954195C3F
:10055000A1433143C9B219541738195C4D46A94318
:1005600007252943C9B2195480218902516191603C
:100570008022D2059A62104A9A6251215A5CA243A3
:100580005A540E4B98470E4B98470E4B98470E4BBC
:1005900098470E4B98470E4B98470CBC904699468F
:1005A000F8BDC046D50500000044004100080040E9
:1005B0000004004000400040020000C0F1010000C3
:1005C000C90200005D03000085030000CD030000A8
:1005D000B104000010B5584C63686360574B9847EE
:1005E00062681E239A431C3B13436360544A936919
:1005F00008210B439361534B534A9A829A8A0221F2
:100600000A439A824F4BDB689B07FBD501224F4B75
:100610001A704E4B1B78DB0704D54C4B5B785BB2F2
:10062000002BF6DB0122494B9A60484B5B78DB09D3
:10063000FBD1474A454B5A60444B5B78DB09FBD101
:100640008222D201414B5A80404B5B78DB09FBD1BF
:1006500002223C4B9A843B4BDB68DB06FBD53D4AD0
:10066000384BDA62374BDB68DB06FBD5354A938CB7
:1006700039490B439384334BDB68DB06FBD5314AA6
:10068000938C02210B439BB293842E4BDB681B0699
:10069000FBD52C4BDB685B06F7D52A4BDB68DB060A
:1006A000FBD580225200294B9A60284B5B78DB09EE
:1006B000FBD12A4A254B5A60244B5B78DB09FBD1DE
:1006C000204B196A264A0A401A62196A802291430D
:1006D0001962822252001D4B9A601C4B5B78DB0929
:1006E000FBD1204A194B5A60184B5B78DB09FBD1D0
:1006F0000622FF32154B9A60144B5B78DB09FBD165
:10070000194A124B5A60114B5B78DB09FBD10C4B39
:1007100000221A725A729A72DA721449144A1160DB
:100720005A6920210A435A61DA6910390A43DA61A9
:10073000104B984710BDC04600400041811D00008D
:1007400000040040000800400C060000000C0040BF
:1007500001050100B905FF7D040A00000007030040
:10076000FFFCFFFF0407010005070100006CDC022D
:1007700000000020311B000010B5040002C0202240
:100780000021044B984700232422A3540132A35490
:1007900010BDC046578D000010B582B00400002285
:1007A0002423C25401226B46D91D2068174B984759
:1007B000012818D16B4607331B780D2BF2D00A2B7A
:1007C00009D02522A25C1E2A11D8A1180B71013272
:1007D0002523E254E6E71B33E35CE31800221A7199
:1007E00001322423E2542423E05C02B010BDA2189D
:1007F0000023137101222433E25401226B46D91DD8
:100800002068024B98470128F7D0ECE7010C000064
:100810002423C35C002B06D00023242283540132FE
:100820008354043070470020FCE710B580684369AA
:10083000002B00D0984710BD10B580688369002B4D
:1008400000D0984710BD000070B504000D000028CE
:1008500010D000290CD001203D221249124B98479C
:1008600029002000114B9847051E05D0280070BDB7
:100870000020F1E70020EFE720000D4B9847010032
:1008800000200C4B984720001C3000210A4B984751
:10089000E3699C60E369094A1A60E369084A5A609F
:1008A000E4E7C0466CC500005D1600007119000049
:1008B000CD1900002D1C0000CD1C00002B080000ED
:1008C0003908000010B50400431E9841C0B25422FC
:1008D0000349044B98472000034B9847002010BD64
:1008E0006CC500005D160000A919000070B5040079
:1008F0000D00431E9841C0B260220449044B984742
:1009000029002000034B9847002070BD6CC50000F3
:100910005D160000BF19000070B506000D00140040
:10092000431E9841C0B279220A490B4B9847002DCB
:1009300004D0012D0CD00D20404208E07461621EED
:100940009441E2B229000020044B9847002070BD7A
:10095000B461F4E76CC500005D160000D91B00000F
:10096000F0B583B007000E000192002826D00029C0
:1009700026D0002A26D10020134D92222900134CA4
:10098000A0473800124B98470100019F3800114BD7
:10099000984748424841C0B295222900A0473100FB
:1009A00000200D4B9847390000200C4B9847002140
:1009B00000200B4B9847002003B0F0BD0020DBE780
:1009C0000020D9E70120D7E76CC500005D160000C4
:1009D000D3190000B56C00001D1C00003D1C000078
:1009E000911C0000EFF31083036072B6BFF35F8FBA
:1009F0007047BFF35F8F036883F31088704710B5AB
:100A000008384368002B00D0984710BD70B505002A
:100A1000083DCB1CDB00EB189B68002B0CD0013B86
:100A2000CA1CD200AC18A360002B06D1083803689A
:100A3000002B01D02800984770BD23006268941CE9
:100A40005C6053880A001900014B9847F4E7C046E0
:100A5000F71A000070B504000D00002817D0002917
:100A600013D0012038220F490F4B9847200008303F
:100A700029000E4B9847002806D10D4BA3600D4B63
:100A8000E3600023002B04D070BD0020EAE70020C3
:100A9000E8E7DA1CD200A21800215160916001330E
:100AA000DBB2EFE788C500005D1600007D1A00008C
:100AB0000D0A0000FF09000070B504000D000028B9
:100AC0000DD000290DD000205D220749074B984723
:100AD000200008302900064B9847002070BD0020F8
:100AE000F2E70120F0E7C04688C500005D1600006F
:100AF000D11A000070B505000E001400431E984185
:100B0000C0B276220B490C4B9847002E04D0012E20
:100B10000DD00D20404209E02C60621E9441E2B2EB
:100B2000280008303100054B9847002070BD6C60EC
:100B3000F3E7C04688C500005D160000031B0000F7
:100B4000F0B5C64600B504000D0017009846002811
:100B500007D0002907D1002A21D0002B21D1002065
:100B600002E0002000E000208F221049104B98473F
:100B700026000836290030000E4B9847002812D076
:100B8000EB1CDB00E41867604346A36039882A0049
:100B90003000094B9847002004BC9046F0BD00206F
:100BA000E2E70120E0E70D204042F5E788C50000BC
:100BB0005D160000E51A0000F71A000010B5014BA1
:100BC000984710BD3D1D000070B504000D001600D3
:100BD00000280ED000290AD0012034220649074BF4
:100BE00098472368320029002000984770BD0020F4
:100BF000F3E70020F1E7C046A4C500005D16000041
:100C000070B504000D00160000280ED000290AD08F
:100C100001203D220649074B9847636832002900AE
:100C20002000984770BD0020F3E70020F1E7C046A0
:100C3000A4C500005D160000F8B50668002E02D0BD
:100C4000330000250CE0104B984718E09F68BC4625
:100C50006444A41A01348F68BC420BD21D001B6887
:100C6000002B07D05C689442F0D8A41A9F68BC4659
:100C70006444F0E7B34203D02800044B9847F8BD22
:100C8000014B9847FBE7C0467D160000A9160000FF
:100C9000F8B50500446903695E1C0661037EDB0745
:100CA00002D4037E9B070AD52B7E02221343DBB2BC
:100CB0002B76F8BD6F69E368200098473C00002C54
:100CC000F7D06368F31AA2689342F2D32F00143767
:100CD0003800064B9847237C012BEBD1666032002D
:100CE00021003800024B9847E4E7C046F1160000A7
:100CF000390C000070B504000D00002812D0002946
:100D00000ED001203B220849084B984729002000BB
:100D1000074B984700232361064B2360002070BDDA
:100D20000020EFE70020EDE7B8C500005D160000E9
:100D300019210000910C000010B50400431E9841D9
:100D4000C0B253220749084B98472000074B9847E9
:100D5000002804D12000064B9847002010BD112028
:100D60004042FBE7B8C500005D1600001D220000F0
:100D7000F921000010B50400431E9841C0B2612261
:100D80000749084B98472000074B9847002804D094
:100D90002000064B9847002010BD11204042FBE781
:100DA000B8C500005D1600001D2200000B220000E7
:100DB00010B5083800230363436A002B00D098471E
:100DC00010BD10B5083800230363C36A002B00D0A0
:100DD000984710BD10B504002C30044B9847236A87
:100DE000083C002B01D02000984710BD9D17000043
:100DF00070B504000E00150000281DD000291DD07C
:100E0000002A1DD100203C22FF321049104B984788
:100E10004423E25A0833E35A9A4213D1A6644C237E
:100E2000E5520022083BE252433B23632000083096
:100E3000084B9847280070BD0020E4E70020E2E757
:100E40000120E0E71C204042F5E7C046D0C5000085
:100E50005D1600002120000070B504000200083A71
:100E60004423D35A4C21525A93420DD00200016CB4
:100E7000083A5D1C44201552C95C2000044B984779
:100E80002000044B984770BD034B9847FBE7C046D2
:100E90000F2000002120000029200000F0B585B0BF
:100EA00004000D001600002817D0002917D0002AD2
:100EB00017D10020AC2252001249134B984703A8C7
:100EC000124B9847343420000194114B9847070087
:100ED00003A8104B984700240BE00020EAE700200D
:100EE000E8E70120E6E70134A4B2691801980A4B4B
:100EF00098472100A74201D9B442F4D3200005B09D
:100F0000F0BDC046D0C500005D160000E509000038
:100F1000DD170000F309000051170000F8B50400C8
:100F20000D0016001F00002826D0002926D0002A18
:100F300026D0002B26D100203A221549154B984780
:100F4000200034303A003100134B984700281BD161
:100F5000200008302900114B984700280BD1104B76
:100F60006360104B2360104BA360104BE360104B89
:100F70002361104B6361F8BD0020DDE70020DBE753
:100F80000020D9E70120D7E70D204042F3E7C04613
:100F9000D0C500005D16000005170000711F00009D
:100FA0009D0E0000F10D0000590E0000D50D00004F
:100FB000B10D0000C30D000010B50400431E9841A0
:100FC000C0B261220449054B984720000830044B09
:100FD0009847002010BDC046D0C500005D16000037
:100FE000FD1F000070B504000D0000280BD0002983
:100FF00007D0012077220549054B98472C60002037
:1010000070BD0020F6E70020F4E7C046D0C5000020
:101010005D16000070B505000E001400431E9841D7
:10102000C0B283221649174B9847012E11D0002ECB
:1010300004D0022E18D00D20404209E0AC62621E9E
:101040009441E2B22800083001210F4B984700205C
:1010500070BD6C62621E9441E2B228000830022129
:10106000094B98470020F3E7EC62621E9441E2B21C
:10107000280008300321044B98470020E8E7C046C9
:10108000D0C500005D1600003120000010B504003E
:10109000431E9841C0B2F8220349044B98472000F0
:1010A0000830034B984710BDD0C500005D16000006
:1010B0001720000010B50100002001E0013040B20F
:1010C00003280FDC4201094B9B185A788A420BD047
:1010D0004301064C1B5D002BF0D10F330B409342B4
:1010E000ECD101E00120404210BDC0469C0200202E
:1010F0000020704770B504000D00084B984742016E
:10110000074B9B189B78032B01D0002070BD044B2C
:1011100098188369290020009847F7E7B510000068
:101120009C020020F0B587B005000F0001924A4BE9
:10113000984704004601494A9619002F51D11300DF
:1011400042010020F070D35C002B0ED06201434BB3
:101150009B1801229A706401404B1C19E369E178E5
:10116000019A2800984707B0F0BDB3780C24345793
:10117000032B08D032000C3270780021F3699847B5
:101180000223B370EFE7707832000C320121F3696B
:101190009847002810D00523B370033BF370002C50
:1011A00008DB7378802040421843C0B201212C4BE9
:1011B0009847D8E77078F9E70423B3707178002274
:1011C00003920492002C09DB843B0B43DAB203A8A0
:1011D000027201234372234B9847C4E70F220A404F
:1011E000F5E7012F0AD0022F1DD0032F2CD042018A
:1011F0001A4B9B1806229A70DA70ACE7174B420123
:1012000099180220C870D35C002B05D06201134BE3
:101210009B1805229A709EE702228A7000212800FE
:101220000F4B984797E70D4B420199180420C8705F
:10123000D35C002B05D06201084B9B1801229A70E9
:1012400089E702238B708EE74201044B9B18002232
:101250009A700532DA707EE7B51000009C0200201B
:101260007131000041330000F0B5C64600B50500FD
:101270001F4B98470600430108331E4CE418043402
:10128000210028001C4B9847C0B208280CD001212F
:1012900028001A4CA047802040422843C0B20121B8
:1012A000A04704BC9046F0BD00212800134B98468F
:1012B000984780277F422F43FFB200213800C04764
:1012C00072010C4B9B1801229A705B692100280067
:1012D00098470028E5D17601064B9E190523B37087
:1012E00001212800054CA04701213800A047D8E77C
:1012F000B51000009C020020C932000071310000CE
:1013000010B5124B984700281EDB802200211048A0
:10131000104B984700220AE051010D4B5B18FF214A
:1013200059700D4959619961D9610132D2B2032ACC
:10133000F2D90A4900200A4CA0470A490120A047D7
:1013400009490220A047002010BDC046492B0000DB
:101350009C020020578D0000F1100000691200006F
:101360003D350000F51000002511000010B5014BBF
:10137000984710BD1935000010B5014B984710BDB6
:10138000ED2B000010B5014B984710BD3D2C00001F
:1013900010B5014B984710BD4D2C0000F8B5050065
:1013A0000E0017000F4B9847002814DAFF200D4B52
:1013B0009847041E12DB3A00310028000A4B984778
:1013C000002807DB094A640113195D7003231E40DE
:1013D000A6540020F8BD14204042FBE715204042EF
:1013E000F8E7C046B5100000612C00009C02002008
:1013F00010B582B200210020014B984710BDC046B5
:101400009D13000070B50500064B9847041E07DBCE
:101410002800054B98476401044B1C19FF23637097
:1014200070BDC046B5100000AD2D00009C0200202C
:1014300070B505000F4B9847041E17DB43010E4A99
:101440009B5C002B0AD1022162010B4B9B18997007
:1014500028000A4B9847002802DB70BD0121F3E702
:101460006401054B1C190023A370F6E712204042CB
:10147000F3E7C046B51000009C020020712E00006A
:10148000F0B5D6464F464646C0B586B00500067A4A
:1014900030003F4B98470700F6096B7A5A1E93417C
:1014A000DCB26B68984600286BDB04A8394B984780
:1014B0007A01394B9B189A7817236B441A701B7862
:1014C000012B0ED004A8354B984717236B441B788B
:1014D000DBB2052B2BD0062B56D0002B29D00120B8
:1014E0001FE02D4B99467B019A464B4653440322FD
:1014F0009A7004A8294B98474B465246D35C002B60
:101500001AD0297A2B68019343460293002E35D0D6
:10151000802252420A43D2B201A802724472204B86
:10152000984706B01CBC90469946A246F0BD0220E2
:10153000F7E713204042F4E77B01174AD218937C67
:10154000D47C24021B199BB2002B06D10423937078
:101550000023984601240126D3E77F010E4AD719BC
:101560000C22BA56D60F984500D99846002A01DBBE
:101570000024C6E798459B415C42C2E70F220A401F
:10158000CAE712204042CCE710204042C9E7C046DB
:10159000B5100000E50900009C020020F3090000DE
:1015A0004133000070B50400002905D0012924D082
:1015B0000221134B984770BD124B9847051E19DB4B
:1015C000022120000E4B98470028F4D00021200073
:1015D0000B4B98470028EEDB6D010B4B5D19012387
:1015E000AB700233EB70EB690022032120009847B7
:1015F0000020E0E712204042DDE7014B9847DAE7A0
:1016000071310000B51000009C02002070B50D0083
:1016100014000F4B98470300002C08D0002B05DB6B
:10162000012D0BD0002D04D0022D0CD070BD094C23
:10163000F4E74001084B18184461F7E74001064BF6
:1016400018188461F2E74001034B1818C461EDE7F4
:10165000B5100000F11000009C020020002800D10D
:1016600000BE70470368002B03D08B4203D01B6879
:10167000F9E7002070470120FCE7000070B5040086
:101680000D00064B984701235840C0B23922044947
:10169000044B984723682B60256070BD65160000D9
:1016A000F0C500005D16000003680B600160704724
:1016B00070B505000E0004680A4B98470123584096
:1016C000C0B24F220849094B98472B68002B03D121
:1016D0002E60336005E01C002368002BFBD12660E0
:1016E000336070BD65160000F0C500005D16000097
:1016F0000368002B03D01A680260180070470020AE
:10170000FCE7000070B504000E001500002812D0A0
:10171000002912D0002A12D1002028220A490B4B9E
:1017200098476B1E2B420CD163600023A360E360DB
:101730002660002070BD0020EFE70020EDE70120CB
:10174000EBE70D204042F5E710C600005D160000F3
:1017500070B504000D00002816D0002912D0012019
:1017600040220C490C4B9847A368E2689A420DD07E
:10177000626813402268D35C2B70A3680133A360B6
:10178000002070BD0020EBE70020E9E70A2040427E
:10179000F7E7C04610C600005D16000070B50400F3
:1017A0000D00431E9841C0B251220A490A4B984786
:1017B0006368E26813402268D554E368A2689A1A05
:1017C00061688A4201D9591AA1600133E36000209F
:1017D00070BDC04610C600005D16000010B50400C4
:1017E000431E9841C0B267220349044B9847E06802
:1017F000A368C01A10BDC04610C600005D160000E8
:101800000300064A1268002A04D0044A1068C3186C
:10181000136070470249014A1160F6E71C0300207B
:10182000285100200020704710B50B4B984702004C
:101830000020002806D07F2208490020084B984746
:10184000002010BDC3001B1A9900064BCB5C9A42C6
:10185000F7D00130C0B2ECE72518000050C60000F8
:101860005D16000034C6000070B504000D003A4B50
:10187000C01843425841C0B294223849384B984767
:10188000384B1A68D2081202E023DB001A403649AE
:101890000B6849684901DB0E0B43FF210B401A43DB
:1018A000637EDB09FCD123789B0704D500232370DA
:1018B000637EDB09FCD101232370637EDB09FCD14D
:1018C0002285EA00521B9100284B5B189A786270BF
:1018D000DA78A2701A79E2701A7C2275DA8AA28408
:1018E0001A8BE284997E2A22A154DB88A380637E2E
:1018F000DB09FCD1EB005B1B9A001C4B9B18DB68DF
:101900002361637EDB09FCD1EB005B1B9A00174B64
:101910009B181B7A2372637EDB09FCD1EB005B1BF7
:101920009A00124B9B185B8AA383637EDB09FCD170
:10193000EB005B1B9A000D4B9B189B8A2384637EF4
:10194000DB09FCD1EB005D1BAA00084B9B185B7800
:101950002370002070BDC04600C0FFBD50C600000F
:101960005D160000246080002060800034C6000006
:1019700070B505000C00431E9841C0B2E82206492C
:10198000064B98472C612000054B9847010020002A
:10199000044B984770BDC04650C600005D1600005D
:1019A00029180000691800000269137802218B438E
:1019B0001370137801210B43DBB213707047026977
:1019C000137802210B43DBB21370704700691A30A1
:1019D00070470269537EDB09FCD1928812090333F8
:1019E0001340032B01D0022070470120FCE7C3798C
:1019F000DB09FCD1C379DB09FCD103789B0707D550
:101A000000230370C379DB09FCD1C379DB09FCD166
:101A100001230370C379DB09FCD1C379DB09FCD155
:101A2000013383704033437000230370C379DB09B3
:101A3000FCD100207047000010B50F4B18680369F7
:101A40009A79D20707D501229A714368002B01D0F9
:101A50000021984710BD9A79920707D502229A7102
:101A60000368002BF6D000219847F3E79A795207D4
:101A7000F0D504229A71EDE72003002070B5040030
:101A80000D00431E9841C0B28E220C490C4B984762
:101A900028000C4B984700280FD125610A4B1C6089
:101AA0000A4B8022920480215A50BFF34F8FBFF31C
:101AB0006F8F0131FF315A501A6070BD68C6000047
:101AC0005D160000EF1900002003002000E100E097
:101AD0000269137802210B43DBB21370D379DB095F
:101AE000FCD170470269D379DB09FCD113785B081C
:101AF00001201840704702699181D379DB09FCD13C
:101B000070470369002907D1002A02D102321A71F5
:101B100004E002225A7101E0012900D07047002A36
:101B200002D001225A71F9E701321A71F6E700007A
:101B300010B5234B1A8802218A431A801A88023171
:101B40008A431A803C315A5C01200243D2B25A5473
:101B5000F02212011A805A7B3F398A435A73194A7C
:101B60005A61194A5A63194A9A63002312E01448C9
:101B70003F2283545900C9188C00154A1219516824
:101B800041641089104A1901885252180021D1600D
:101B90000133DBB20B2BEAD90E4B402280215A5085
:101BA000BFF34F8FBFF36F8F0131FF315A501A606F
:101BB000034A138802210B439BB21380002010BDFF
:101BC0000048004100010203902E0020502F002009
:101BD00080C6000000E100E010B53F230E4CE05449
:101BE00000290AD1002A03D102310D33E15406E065
:101BF00002214D23084AD15401E0012900D010BD33
:101C0000002A04D001214D23034AD154F7E74C2385
:101C1000014AD154F3E7C04600480041030102489D
:101C2000C018816000207047902E002003010248F8
:101C3000C018416000207047902E002070B5134AF4
:101C4000040113199E68A35A1B0A03252B40A25AAC
:101C5000120506D50C009C40A41905010B4A521927
:101C600094600A4A040115196D68A45A620506D5E4
:101C70000A009A4052190401044B1B195A6089B298
:101C80000001024B18184180002070BD902E0020EA
:101C900070B50C4A3F23D0540B4C05012B5B012639
:101CA00033439BB22B534024135D02252B43DBB2FD
:101CB0001355002904D00123834011690B4313619C
:101CC000002070BD00480041902E00204B005918A4
:101CD0008A00024B9B1803600020704724030020F9
:101CE00070B5144A118C0F230B403F24155DEDB2E3
:101CF0005900C91888001049081813554E21515C25
:101D0000C9B21555CA0702D48A0707D470BD3E3C34
:101D10004E2208498C5443689847F7E702244E2224
:101D200004498C545A00D3189A00034BD35898474F
:101D3000ECE7C0460048004124030020002306E0F1
:101D400059000D4A895A0D4A11810133DBB21C2B0F
:101D5000F6D9002307E09900074A5218D16B074AC9
:101D600051600133DBB20B2BF5D9044B00225A61D1
:101D7000013A1A610020704710C7000000040042B9
:101D8000064B1A7AD2B21A725A7AD2B25A729A7A26
:101D9000D2B29A72DA7AD2B2DA7270470004004094
:101DA000024B9C466044800AC0B2704700F8FFBDF9
:101DB00010B58469237EDB0702D5A37DDB070FD432
:101DC000237E9B0702D5A37D9B070ED4237E5B0752
:101DD00015D5628B37231A420CD00833638310BDAC
:101DE0000123237503689847F9E702232375836865
:101DF0009847F4E74368218DC9B29847EFE7237EFF
:101E0000DB09ECD080232376C3689847638B9BB2B1
:101E10006383E4E7034B984200D07047024B19609C
:101E2000FBE7C046001C0042B403002010B5024B83
:101E300098470930C0B210BDA11D000010B50B4B72
:101E4000984702000020002806D0094A09490020CE
:101E5000094B9847002010BD83001B189900074BC1
:101E6000CB5C9A42F7D00130C0B2ECE7A11D000074
:101E70005E020000CCC700005D1600007CC70000B9
:101E800070B50400384B9847E369DB071DD4830025
:101E90001B189A00354B9B185A681C231A40E3699B
:101EA0009B07FCD123689B0709D5236802218B433C
:101EB0002360E3699B07FCD1E3699B07FCD4012302
:101EC00013432360E3699B07FCD1E369DB07FCD480
:101ED00083001B189A00254B9B185B682360E369FD
:101EE0009B07FCD183001B189A00204B9B189B6812
:101EF0006360E3695B07FCD183001B189A001B4BEE
:101F00009B185B689A040BD4C022D201134207D1FC
:101F100083001B189A00154B9B189B89A38115E021
:101F200083001B189A00114989188A89A389D20451
:101F3000D20C5B0B5B031343A3818B7B07221A40FC
:101F4000A3895203DB04DB0C1343A381074A8300FC
:101F50001D18A9000D005118C97BA1735219127CDC
:101F60003023E254002070BD3D1E00007CC70000FD
:101F700070B506000C00431E9841C0B2C422194936
:101F8000194B98472000194B9847051E01D028008F
:101F900070BDB46131002000154B98472000154BEF
:101FA000984743B2002B0ADB1F21014001228A40DF
:101FB0008021114C6250BFF34F8FBFF36F8F002B06
:101FC00007DB1F21014001228A40C02149000A4C41
:101FD0006250002BDBDB1F2318401E3B8340064A68
:101FE0001360D4E7CCC700005D160000811E00001E
:101FF000151E00002D1E000000E100E0826913683C
:1020000002210B431360D3699B07FCD1704783699E
:1020100089B2198570478369187E0123184070477B
:10202000836901229A757047836902229A75704705
:1020300070B504000D001600431E9841C0B2174A47
:102040001749184B9847002D0BD0022D09D0012DB0
:1020500018D0032D0FD1A369002E1CD080229A75B1
:1020600009E0A369002E07D101221A75A369002E89
:1020700005D102221A7570BD01229A75F6E7022277
:102080009A75F8E7A369002E02D104221A75F2E7C7
:1020900004229A75EFE780221A75ECE71E02000011
:1020A000CCC700005D16000010B5024B1868024B4B
:1020B000984710BDB4030020B11D0000034B9842A7
:1020C00000D07047024B1960FBE7C0460020004279
:1020D000B803002010B5C368DA6AD20700D410BD77
:1020E0000122DA6203689847F9E7000010B500237F
:1020F000002B01D0002010BD9A00D218D100054A53
:102100008A58824202D00133DBB2F1E7014840181D
:10211000F1E7C0460400002070B506000C0008007E
:10212000324B9847051E5BD0F460A368DB0714D4DC
:10213000A3689B07FCD123689B0709D5236802226B
:1021400093432360A3689B07FCD1A3689B07FCD43F
:1021500001232360A3689B07FCD1A368DB07FCD4A1
:10216000AB682360A3689B07FCD12B7B63716B7BFF
:10217000A3772B6923626B6A2364A3681B06FCD4D4
:102180000123A36231002000194B98470423EB562A
:10219000002B0BDB1F2213401E3A9A4013008022B3
:1021A00014498B50BFF34F8FBFF36F8F0423EB564F
:1021B000002B08DB1F2213401E3A9A401300C02256
:1021C00052000C498B500423EB56002B0BDB1F22D3
:1021D00013401E3A9A401300064A1360002070BD57
:1021E0000A204042FBE70020F9E7C046ED2000004E
:1021F000BD20000000E100E0C268136802210B432B
:10220000136093689B07FCD17047C2681368022172
:102210008B43136093689B07FCD17047C268936837
:102220009B07FCD113685B08012018407047002011
:102230007047000010B5024B1868024B984710BD5C
:10224000B8030020D520000000207047124B1A6808
:10225000530B1F210B40900C0140D00D0722024070
:102260001F2B12D01F2912D0072A12D09B010B431B
:1022700012031343094A1385D37803210B43D37008
:10228000D3780C210B43D37070471A3BEAE702392D
:10229000EAE7023AEAE7C0462460800000500041C5
:1022A00070B5837C0F221340C17C083A0A40012A92
:1022B0000DD01A000832520119498C46624410218F
:1022C000D1715B01174A94466344197070BD4A0688
:1022D0000CD5C27C40218A43C2741A0008325201D4
:1022E0000F4CA4466244802414715171C27C0821B1
:1022F0008A43C2740C495A018C180025A572A57630
:1023000008335B01064CA44663446F24DC71054B23
:102310009C46624414708B6E807C9847D6E7C0461A
:102320000050004108510041BC03002010B5827CE0
:102330000F23134020228A40D2B25B0105498C460C
:1023400063441A70044B1B6F8268807C012198479C
:1023500010BDC04608510041BC03002010B5837C6D
:10236000FF2B02D0C27C520600D410BDC27C402498
:10237000A243C274024A146F82681800A047F4E7AF
:10238000BC030020F0B583B0847C0F232340184D9C
:102390002E8801AD2E80FF2C1ED0C47C64061BD578
:1023A00000291BD01C0008346401124DAC46644463
:1023B0008025257101AD6E5C1C00083464010D4F51
:1023C000BC466444E671695C5B010B4CA446634403
:1023D00019701100094B984703B0F0BD1C00083478
:1023E0006401044DAC46644440256571E2E7C04693
:1023F000E8C7000000500041085100415D23000083
:10240000F0B583B0837C0F2213403C4A948801AA24
:1024100014805A013A4CA418002933D01A0008320B
:102420005201384D525D120907251540C27C07261E
:1024300016400A01A218947AE4B2022D2AD0A40709
:1024400044D5947A0225AC43947201AC655C1A00C1
:10245000083252012B4FBC466244D571625C5B016D
:10246000294CA44663441A70012E45D1C37C5B06F7
:1024700042D5C37CDB0999423ED000221900234B90
:10248000984739E01A00083252011E4D555D072267
:102490001540CBE7E507D2D5947A0125AC43947279
:1024A00001AC655C1A0008325201164EB446624413
:1024B000D571625C5B01144CA44663441A704B1ED8
:1024C0009941C9B20422114B984715E05A0052189D
:1024D00012010B4882180020907201A8445C1A0077
:1024E00008325201074DAC466244D471425C5B0134
:1024F00005498C4663441A7003B0F0BDE8C700007C
:10250000BC03002000500041085100418523000019
:1025100070B5002518E0104C6034AE0073199800B7
:1025200010302018043003210C4B98477219930087
:10253000E3182633FF221A707619B300E418273403
:10254000002323700135EDB2082DE4D9602200216B
:102550000148034B984770BDBC0300205D23000079
:10256000578D0000F0B5C64600B505000E00837C0F
:102570000F241C406201564B9B18002958D0596902
:102580008904890C2B8A534A934253D0013B1BB2D6
:102590000B40EA7C07271740002E07D022000832A4
:1025A00052014D48844662440220D071AA68944684
:1025B0006144A9606A6891424ED292B28BB2D21A3B
:1025C00092B2EB7C9B0637D52B8A98469A4200D86C
:1025D00090462B689C4661444246E8683F4B9847CA
:1025E000E96862013A4B9B1819616301384AD218B5
:1025F000516943469B049B0C890B89030B43536130
:102600005169374B0B405361002E07D1012F5DD02C
:102610004A22630133498C4663441A7008346401CA
:102620002D4B9C4664448023637104BC9046F0BDEE
:102630000021A7E71BB2ABE780239B019A4207D892
:1026400090462B6859186201214B9B181961CCE701
:1026500080239B019846F4E7EA7CD2060FD5EB7CF9
:1026600010229343EB746201194B9B185A69920B29
:102670009103596159691A4A0A405A61C4E7012F06
:102680000DD06401184A944664444A2222702A8A72
:1026900093420BD000212800144B9847C5E76401F2
:1026A000114A944664444B222270F0E7EB7C4022AE
:1026B0009343EB74064BDB6EA87CA968984700280F
:1026C000B3D1EB7C40221343EB74E3E74E22A0E747
:1026D000BC030020FF03000000500041458D0000B6
:1026E000FF3F00F009510041085100415D23000007
:1026F000F8B5DE4657464E464546E0B504000F00A5
:10270000837C0F251D40002959D06A01714B9B180D
:102710005B681B019B0C9A46002F53D06A016D4BDE
:102720009B185B689B049B0C9846268A6A4B9E42CA
:1027300001D0013EB6B2434633409B46E37C0722BC
:102740001A409146002F07D02B0008335B01634AE3
:10275000944663440122DA71E37C9B0611D56268DA
:10276000002A0ED092B22389D21A92B22368A168AD
:102770008C4663441800E168934500D25A46584B92
:1027800098476368002B20D1E27CD2061DD5E37CFC
:102790001022934320221343E3744E496A01E368F5
:1027A0005350238A8A1851689B041B094D480140E5
:1027B0000B43536053689B0B9903516047E0002320
:1027C0009A46A9E700239846AFE7002F1DD0228A3A
:1027D00093451AD2E37C10229343E374A3684344E5
:1027E000A3604B46012B66D06B013F4A944663447D
:1027F00025221A70002D03D16D01364BE268EA5094
:1028000000212000394B984733E0A2685244A2606F
:102810009342E6D99BB291B25B1A9BB2E17C8906E6
:102820002DD5218A8B4200D81900E0686B01294A16
:1028300098506B012748C01842688B041B0929492E
:102840000A401343436043689B0B9A034260002F86
:1028500008D14B46012B35D025226B0124498C46EB
:1028600063441A7008356D011C4B9C466544402337
:102870002B713CBC90469946A246AB46F8BD218AD6
:102880008B420BD9802189018B420FD8B3431900A9
:1028900023689A186B010F481A50CAE78B4208D276
:1028A000E17C20200143E1741900F1E780218901D6
:1028B000EEE71900ECE76B010B4A944663442D22C6
:1028C0001A7097E76A01034B9B1800229A762D3203
:1028D000C3E7C046BC030020FF03000000500041D6
:1028E000458D0000FF3F00F0085100415D230000CE
:1028F0000951004170B5894B1D8CADB2002D01D03E
:102900000024BFE0998B1B8B0B405A070DD49A050E
:1029100015D41A0637D470221A423ED11A0757D45A
:10292000DB0700D568E0002306E004227B4B9A8396
:102930007B4B1B6E98470123002BE1D070BD774B7A
:10294000784A9A839A82923AFF3A1A830023012B9B
:1029500012D85801724A121812891207120F032A4C
:1029600002D00133DBB2F2E76D4B1B181989490421
:10297000490D00221A8100E00021694B5B6E0320A3
:1029800098470123D8E78022644B9A83644B5B6E9F
:102990000021052098470123CEE7604B9A839A8255
:1029A000604A1A83604B9B8C9B060CD45E4BDA68A2
:1029B000D0231340D02BF9D1594B5B6E002102205C
:1029C00098470123B8E7584BDB68DB06FBD5F3E7F4
:1029D000524B0021802252009954F83A9A8368326F
:1029E0009A82504A1A83514B98474D4B5B6E002197
:1029F0000120984701239FE7484B4A4A9A839A82CD
:102A0000923AFF3A1A83464B5B6E002104209847A6
:102A1000012391E7DA0607D45A0608D49B062FD57E
:102A20000021434B98472BE0424B984728E0012177
:102A30003F4B984724E05A060FD41A0711D49A073F
:102A400013D4C17C07220A40012A19D15A0710D495
:102A5000DB0615D5374B984712E00121344B9847D8
:102A60000EE00121344B98470AE00121334B98478F
:102A700006E00021304B984702E000212C4B98479C
:102A80000134E4B2082C00D958E7254B6033A2008A
:102A90001119880001001030181804305B18263313
:102AA0001B78FF2BECD0827C0F23134001229A402D
:102AB0002A42E5D01A000832520118498C46624475
:102AC000D2795B011E498C4663441B781340D7D0F2
:102AD000C27C4721114001299CD052B2002AAADBB6
:102AE0009A06CAD45A070DD4DA070FD4C17C07223C
:102AF0000A40012AC4D11A070CD4DB06C0D50D4BFD
:102B00009847BDE700210C4B9847B9E701210D4BD1
:102B10009847B5E70121084B9847B1E700500041BD
:102B2000BC03002001020000000800401125000045
:102B30002D230000A12200000124000065250000D3
:102B400009510041F126000000B583B0002201AB1D
:102B50005A70214B9B78DB071BD41F4B9B789B073C
:102B6000FBD11D4B1B789B070CD51B4A1378022108
:102B70008B431370184B9B789B07FBD1164B9B78AC
:102B80009B07FBD40122144B1A70134B9B789B07B5
:102B9000FBD1114B9B78DB07FBD4104B104A1A6614
:102BA0005A669A66DA661A670E4B98470E4B984734
:102BB0000422094B1A70084B9B789B07FBD1064AED
:102BC000064B536201AB5B7801210B43DBB21381EF
:102BD000002003B000BDC04600500041BC030020EF
:102BE00049220000112500004D220000104B9B7867
:102BF0009B0719D10E4B9B789B07FBD10C4B1B7885
:102C0000DBB29A0708D402221343DBB2084A1370DE
:102C1000074B9B789B07FBD18022064B1A60064A24
:102C2000034B1A830020704711204042FBE7C04647
:102C30000050004100E100E08D020000024A1389CB
:102C400001218B43138170470050004180235B4278
:102C50001843C0B2014B98727047C0460050004103
:102C6000F0B5C64600B50F23034044B2A446002B7E
:102C700005D0002C01DB1C0002E09C1C00E01C00C5
:102C80002600032529401F00022B00D97AE0A50069
:102C90002D19AC00A046434C6034444426342478BB
:102CA000FF2C00D071E0002918D1002B04D064461D
:102CB000002C01DB0233DBB29C00E3189D00394B92
:102CC00060335B1926331B78FF2B61D17B00DB1946
:102CD0009C00354B1B199B68002B5CD06346002B76
:102CE00037DB7B00DB199C002F4B1B199B685C1E9C
:102CF000A341DBB2002B0AD06346002B33DB7B0001
:102D0000DB199C00284B1B191B8A934246DB634648
:102D1000002B2FDB7B00DF19BC00234B1B199B68AA
:102D20009C46204BB500AF19BC001C198034674687
:102D300027606033AF19BC0027001C19A284013141
:102D400027342170DB1926331870002004BC90460C
:102D5000F0BD7B00DB199C00134B1B19DB685C1E6C
:102D6000A341DBB2C6E77B00DB199C000E4B1B19AD
:102D70005B8ACAE77B00DF19BC000B4B1B19DB68C1
:102D80009C46CEE712204042E0E714204042DDE7B7
:102D900014204042DAE713204042D7E71320404294
:102DA000D4E7C046BC030020E8C70000F8B5040023
:102DB0000F25054047B2FB0F9C46002D05D0002F84
:102DC00001DB2A0002E0AA1C00E02A0016009300A2
:102DD0009B18990010312348603040180430022DB0
:102DE00030D893009A1891001E4B60335B1826333D
:102DF0001B78FF2B26D0032261461B4B9847B2005D
:102E000092199100174B5B188033DA79072313402E
:102E1000012B18D0002F1CDB144A08346401A35C7A
:102E200007218B43A3540F4B6033B10088198200F4
:102E30009A182732002010708E19B2009B18263382
:102E4000FF221A70F8BD083464010022074BE254D7
:102E5000E9E7064A08356D01AB5C70218B43AB5442
:102E6000E1E7C046BC03002085230000005000417C
:102E7000F0B50F23034040B2002B05D0002801DB42
:102E80001E0002E09E1C00E01E0034001A00083202
:102E90005201B249555CEDB2022B00D94FE1B100AD
:102EA00089198E00AE4A6032921926321278FF2AB2
:102EB00000D147E1AA4A5E019619A10009198F00C5
:102EC000D2198032D17907220A40012A37D000284E
:102ED00000DACBE06A0700D03DE1A14AA000071963
:102EE000B90051188031C9794907490F0D431900BC
:102EF00008314901994FCD5560320419A10052188B
:102F0000908C820397490A4080218900884200D929
:102F1000F8E00139FF39884200D906E1802800D95C
:102F200005E1402800D904E1202800D903E1102858
:102F300000D902E1F839814289414942E3E0763221
:102F40002A4200D001E11A000832520111208349BF
:102F50005054834A6032D219928C910381480140C7
:102F600080208000824210D80138FF38824227D862
:102F7000802A27D8402A27D8202A27D8102A27D8BD
:102F8000F83890428041404200E0072000070143AA
:102F900071609104890C8020800082421AD8013827
:102FA000FF38824258D8802A58D8402A58D8202A38
:102FB00058D8102A58D8F8389042924152420AE024
:102FC0000620E3E70520E1E70420DFE70320DDE753
:102FD0000220DBE7072212070A4372611A00083257
:102FE00052015E498C46624440205071802111712B
:102FF0005B4A5B01D31800219972997616006036FE
:10300000A1000D19AB00F31826331B780F252B40B8
:103010000F19BD00551980352F685D01AF500C198F
:10302000A1007618B18C52195468890409094E4ED2
:103030003440214351605168890B8C03546008333C
:103040005B016344B0221A715871484B9C46654439
:1030500010232B70002067E00622BCE70522BAE7A8
:103060000422B8E70322B6E70222B4E770222A421C
:1030700000D06DE03A49A0000719BA008A188032E2
:10308000D2795207520E15431A0008325201334FBB
:10309000D55560310419A2008918898C8A04920CD4
:1030A00080208000814210D80138FF3881421FD82B
:1030B00080291FD840291FD820291FD810291FD8A0
:1030C000F83888428941494200E0072109070A434C
:1030D00072611A000832520120498C4662448021F4
:1030E00011715A011E4B9B1800229A7600201BE09A
:1030F0000621EBE70521E9E70421E7E70321E5E7FE
:103100000221E3E7072109070A4372601A00083227
:10311000520112498C466244402151715B01104AB0
:10312000D31800229A720020F0BD0621EBE705219A
:10313000E9E70421E7E70321E5E70221E3E71220BD
:103140004042F1E712204042EEE714204042EBE714
:1031500014204042E8E714204042E5E700500041D7
:10316000BC03002000C0FF0FFF3F00F009510041E9
:10317000F0B50F22024040B2C40F002A05D000284B
:1031800001DB130002E0931C00E013001D00980017
:10319000C018830010331800474B60331B180433EA
:1031A000022A00D984E0012918D000293DD0AA00C4
:1031B00052199100404B60335B1826331A780F2365
:1031C000134008335B013D4A9446634498791023C9
:1031D000A3401840431E9841C0B2F0BD36480300DA
:1031E0006033AA005619B1005B1826331B780F21F3
:1031F0000B401026A640F6B21900083149012F4FA6
:10320000BC4661444E712021A140CCB259012C4BE7
:103210009C4661440C7052199300C3188033DA79CC
:1032200008210A43DA710020D7E79A7C0F310A405F
:1032300011000831490121488446614488791021F0
:10324000A140084224D0C9B21000083040016044B7
:1032500001712021A140CEB255011A4FBC466544F0
:103260002E70C07908420AD0110008314901134874
:1032700084466144CE710120A040C0B20871D87C60
:1032800007210140012905D0DA7C08218A43DA743C
:103290000020A2E70832520108498C466244917925
:1032A00030221142F4D1020008218A43DA74EFE798
:1032B0001220404291E7C046BC030020005000416C
:1032C000095100410851004170B50E000F2404401F
:1032D0006201184B9B1819685D68AD04AD0C022C97
:1032E0001FD8002E20D0230008335B01124A9B5CBC
:1032F000112B1CD1230008335B0194466344DB7916
:10330000DB0601D4002070BD082230000B4B98472B
:1033100008346401084B9C4664441023E371280080
:10332000F1E712204042EEE712204042EBE7132083
:103330004042E8E7BC03002000500041458D0000FA
:10334000F0B5DE4657464E464546E0B585B0804668
:10335000057A0F222A406DB2EB0F9946002A05D05C
:10336000002D01DB100002E0901C00E010000600C0
:10337000614B603381000F18BC0010341C190434F9
:10338000B8001B189B8C5D498B4244D05F1EBFB2B6
:10339000414649680F40022A00D9A3E0424612681C
:1033A000574882420CD988180190564884460198A3
:1033B000604505D8920703D1002D2EDB99422FD20C
:1033C000B200921991004C4B5B1880331B68002BA4
:1033D00000D18AE001230193002D0BDB002F09D0DF
:1033E000B20092199100444B5B1880331B68002B8C
:1033F00000D17DE0B200921991003F4B5B18803301
:10340000DB791B070FD5022005B03CBC90469946DE
:10341000A246AB46F0BD1F00BAE700230193DBE7ED
:1034200000230193D8E703A8374B9847B2009219BD
:103430009100314B5B188033DB795B0630D4B300ED
:103440009B199A002C4B9B46934480235B449A46DD
:10345000DB79402213435246D37103A82B4B984784
:103460005B46424612685A67424652689A67002392
:103470005A46D3674B46DB015246D2797F21114031
:10348000019A52010B4320218B431A435346DA71B0
:1034900043465B7A002B08D0002F1BD0002205E0AA
:1034A00003A81A4B98470120AEE70022B3009E19EB
:1034B000B100114B5B1880331101DA79102082437F
:1034C0000A43DA71002D07DB00212000104B9847DA
:1034D000002099E70122E9E7002120000D4B9847E1
:1034E000002091E7122040428EE7132040428BE7F4
:1034F0001220404288E7C046BC030020FF030000C2
:10350000FFFFFF1FFF7F0020E5090000F309000017
:10351000F126000065250000002906D0012806D00C
:10352000002801D1034B196670470349F6E7014BA8
:103530005966F9E7BC03002049220000002908D0A1
:10354000002808D0012809D0022806D1054B1967A8
:1035500003E00549F4E7034B99667047014BD966D0
:10356000FBE7C046BC0300204922000010B5014B18
:10357000984710BDF52800000122014B1A707047D2
:10358000A40500200122014B5A707047A4050020B9
:1035900070B5094B9B78002B00D170BDC024E405A9
:1035A00080252D01A561054B1B88034A04320021AB
:1035B000034EB0476561F0E7A40500201C310020F0
:1035C000410B0000024A536D013353657047C046FA
:1035D000240D0020F0B51B4B9D681B4B5F688023BA
:1035E000DB041F407B1E9F41FFB2184B5E6D02E063
:1035F00016001F002500134B9C68134B5B6880224C
:10360000D20413405A1E9341DBB2104A526D9F42BE
:10361000EED1964203D016001F002500EBE71600FE
:10362000A54202D21F002500E5E70260002F01D06D
:1036300001320260034B5B685B1B054D5D432D0D42
:103640000D80F0BD10E000E000ED00E0240D002052
:103650005555000010B50100054C2000054B98475A
:103660002000054B984701002000044B984710BDEF
:103670003C30002005970000159700001549000018
:1036800010B50248024B984710BDC04650C8000014
:103690005536000010B50248024B984710BDC04691
:1036A00060C800005536000010B503000A00002075
:1036B00005490870054908681900054B9847024BF1
:1036C0001B78002BFBD010BDA4050020A0300020EB
:1036D000C90B000010B504000022074B1A70074BFD
:1036E000984782B2064B18682100064B9847024B58
:1036F0001B78002BFBD010BDA405002015970000FF
:10370000A0300020C90B000030B583B06B469C1C74
:10371000210001A8074B98472388074C5834019A89
:1037200006492000064DA8472000064B984703B0E5
:1037300030BDC046D5350000240D002070C8000003
:10374000AD960000D536000070B588B00500184B66
:103750001B680093174B1B680193174B1B68029360
:10376000164B1B68039300200EE083006A469958AD
:103770000C0E04AAD4545C1C0E0C16559C1C0E0A8C
:1037800016550333D15401300328EEDD002407E041
:10379000600004AB1A5D281809490A4B98470134A8
:1037A0000F2CF5DD00222023EA5408B070BDC0467E
:1037B0000CA0800040A0800044A0800048A08000B1
:1037C0007CC80000AD96000010B5144B984702006D
:1037D0000B0000201249134CA047134B9847134B82
:1037E000984780B2031C132800D814231A1CFA210E
:1037F00089009BB28B4201D90D4B1A8890B20D4BB8
:103800001A800D4B984702000B0000200449054C1C
:10381000A0470A4B1860596010BDC046D98C000003
:103820000088D340C9760000E55200003D6D0000DD
:1038300014C800001C310020058B0000A8300020B7
:1038400070B50E4B984704000D00002200230C4E6B
:10385000B04700280BD00B4A0B4B20002900084E24
:10386000B047002806D1094B1C605D6070BD002484
:103870000025F0E7034C044DF5E7C046D98C000065
:10388000156D00006666666666660A40B030002008
:1038900070B50E4B984704000D00002200230C4E1B
:1038A000B04700280BD00B4A0B4B20002900084ED4
:1038B000B047002806D1094B1C605D6070BD002434
:1038C0000025F0E7034C044DF5E7C046D98C000015
:1038D000156D00006666666666660A401030002058
:1038E000F0B5D6464F464646C0B588B081466B4BCC
:1038F000186859686A4C6B4A6B4BA0470690079151
:103900006A4B18685968674A674BA0470090019155
:103910000127CA4669E0664B994620009847002275
:10392000644B654DA847049005912000634B984770
:1039300005000E000298624B984702000B000498A5
:103940000599604CA0472A0033005F4CA047040053
:103950000D005E4B18880138C84702000B0020009C
:1039600029004F4CA0475A4B984702900391009A68
:10397000019B06980799534CA04704900591554D1B
:103980000098019902000B00A84702000B00029862
:103990000399494CA04702000B0004980599A847D9
:1039A00004000D00002200234B4EB047002867D0D2
:1039B00000224A4B20002900474EB047002801D082
:1039C0000024464D464BFB185B009846D04400222D
:1039D000444B20002900384CA0473D4B9847424BB0
:1039E00098474346188001373FB2384B1C88631C08
:1039F0009F4248DA210038003C4B984708003C4B76
:103A00009847029068233B4AD35C012B00D182E7A0
:103A1000022B1CD02A4B9847274D374A374BA847D3
:103A2000029003912000224B984702000B0002985D
:103A300003991B4CA047324B98470022274B254C3B
:103A4000A04700222F4BA847029003918FE7200048
:103A5000274B9847011C02982B4B9847184B9847C7
:103A60000022284B174CA04705004C0064080200B8
:103A7000230028002100174CA0470290039176E70D
:103A80000024002594E7002169231A4AD15408B084
:103A90001CBC90469946A246F0BDC046B0300020FE
:103AA000C97600006666666666660A4010300020C9
:103AB000058B00000000FC3F317F0000898B000077
:103AC000F98B000031840000915300001C3100206C
:103AD000E5520000A9700000156D00000000F03FE5
:103AE000FFFFFF7F00F88F403D6D0000B56C0000C8
:103AF00009700000240D0020182D4454FB211940AA
:103B0000595200000000E03F796D000030B583B0ED
:103B100004006B469D1C290001A8154B9847154BC6
:103B20001869154B198840180230144B98478AB20F
:103B3000134BD86E0130D866D86EA072D86E000ACA
:103B4000E072D86E000C2073DB6E1B0E6373019B5A
:103B5000A373180AE073180C20741B0E63742B886F
:103B6000A3741B0AE3742175120A627503B030BD99
:103B7000D5350000742E00201C310020E16A0000C1
:103B8000240D002010B51A4B9B78002B19D0194B2F
:103B90001B78002B1BD0184BDB6E002B12D1164963
:103BA0000C0070348631FA22D2001448144B984726
:103BB0002000144B98470F4A137801214B40DBB289
:103BC000137010BD002101200F4B9847E7E700213B
:103BD00002200D4B98470D490C0030344631FA2233
:103BE000D2000648064B98472000064B9847E2E76C
:103BF000A40500202C000020240D0020E02D002032
:103C0000610900000D3B0000911C0000241D0020F4
:103C100070B50C4C0C4A002120000C4B9847002139
:103C200020000B4B98470B4D0B4A002128000B4CF2
:103C3000A0470B4A01212800A0470A480A4B984791
:103C400070BDC046002E002091350000F50A00002E
:103C5000B90A0000E02D0020853B00001909000092
:103C600081360000742E0020390D0000F8B5174D84
:103C70002800174B984700272F61164B1B88164EBC
:103C8000321D00211548164CA047164C2000164B3B
:103C9000984716492000164B98471649463102228C
:103CA0002000154B984700212000144B9847144BD7
:103CB000DF660123134A137080210901C022D20557
:103CC0005161B3702800104B9847F8BD742E002046
:103CD000750D00001C310020A4050020002E0020DE
:103CE000410B0000E02D0020C5080000004000420C
:103CF00049080000241D002061090000ED080000B3
:103D0000240D00202C000020390D000010B50849BA
:103D100030310120074B9847074B196A28310120A1
:103D2000064B9847FC2109010120054B984710BD1F
:103D3000241D00202D1C0000242E00201D1C00002E
:103D40003D1C000010B5084970310220074B984710
:103D5000074B196A28310220064B9847FC210901BC
:103D60000220054B984710BD240D00202D1C00009B
:103D7000242E00201D1C00003D1C0000F0B5CE4686
:103D8000474680B599B0DA4BC32189005A581202D0
:103D9000120A5A50C624A4001A59D648104080224C
:103DA000D20102431A51043C1A591202120A80200D
:103DB000C00502431A515A58CF48104080221204BD
:103DC00002435A50CD490B6A1B021B0AC02212063D
:103DD00013430B62CA4B9847CA48CB4B9847CB4E0C
:103DE000CB4C31002000CB4B9847CB4A012120001F
:103DF000CA4DA847CA4A00212000A847C94A022143
:103E00002000A8472000C84B984731680EA8C74B30
:103E10009847C748C74B02003032190030C930C23A
:103E20000C881480C44D2A0070321C00C0CCC0C263
:103E300009881180C14A944660440C331C000A2250
:103E40001900BF4EB047BF4BE8180A222100B04707
:103E5000BD4B1868FA218900BC4B98470138BC4B10
:103E6000586000229A6007321A60BA48BA4B9847E5
:103E7000BA48BB4B9847BB48BB4B9847BB4804303C
:103E8000BB4B9847BB4B9847BB4B9847BB4B98479E
:103E90006C6D00254FE080229202C023DB055A6141
:103EA00057E00EA8B64B98470600B649B64B984760
:103EB00000283DD0B5493000B34B9847002800D1C9
:103EC00087E0B3493000B04B9847002800D191E01B
:103ED000B0493000AC4B9847002806D0AE493000BE
:103EE000A94B9847002800D0A7E0AC4B1868596848
:103EF000AB4EAC4B1B88059368238F4AD25C920073
:103F00008C4B9B189B690493A74B1A685B680292C1
:103F10000393A64B1A685B680092019302000B00A2
:103F2000A3493000A34FB8473000A34B984702E0A5
:103F3000A248A14B9847804B5B6D1B1BF92B0BD9FB
:103F40007D4B5C6D002DA6D080229202C023DB0544
:103F50009A6101235D40EDB2844B5B78002BEAD07F
:103F60000022824B5A700EA8954B98470028E2D049
:103F70007E4B9B78002B94D000237C4A93700CAA34
:103F800000261380013300218E488F4FB8478022CE
:103F90001201C023DB055A610DA88C4B98478C4B4E
:103FA0003F215E5440229E54012058549E540130BB
:103FB00058549E540DA8874B98475548864B9847B0
:103FC0000028FAD085487C4B98470EA86C4B984740
:103FD000B1E7734E4B4B0293814B0193814B00939E
:103FE000814B824A64213000814FB8473000724BC8
:103FF0009847A0E76A4EFA239B000B9314230A9379
:104000007C4A7D4B08920993002306930C33059359
:10401000023B0493FC231B010393FA23DB0002936E
:104020000022764B00920193754A64213000704B58
:1040300098473000604B98477DE772493000524BFB
:104040009847002805D0704930004F4B984700280A
:104050001AD1544B9846022118006C4EB0470121EA
:1040600035486930B0474346188801383F4F043718
:10407000400038180221B0474346198801394900E9
:1040800089B23800B04756E7614930003E4B984747
:10409000002806D05F4930003B4B9847002800D0ED
:1040A000DEE06923244AD35C3E4A914612883C4FA5
:1040B000594938003F4EB04738003F4B98474B4670
:1040C0001E88013EB6B20DE07200284B9B189A88FC
:1040D000334F52493800374B98473800364B984792
:1040E0000136B6B22F4B1B889E42EDD30026A5E0C9
:1040F00000E100E0FF00FFFFFFFF00FF00ED00E038
:10410000150100001830002049370000A0300020C1
:10411000242E0020E50F0000793500001510000066
:104120008535000095360000B90F000079070000C2
:10413000241D002018C80000240D0020E60F0000F8
:10414000458D00002610000000000020D569000009
:1041500010E000E084C80000C93700008CC80000EF
:104160004138000090C8000091380000A4050020EC
:10417000E13800000D3D0000453D0000113C00000D
:10418000110800009CC80000F1960000B0C80000B3
:10419000F0C8000018C9000064C90000A830002061
:1041A000B83000201C31002010300020B03000203A
:1041B00020C90000AD960000D5360000A0C8000060
:1041C00099070000002E0020410B0000E5090000C7
:1041D00000480041F30900008D10000094C8000061
:1041E000006CDC02E4C80000B8C80000D4C80000BD
:1041F000499600006666666666660A4000004940A9
:10420000F8C8000038C9000040C90000A936000005
:1042100044C9000050C9000054C900005CC9000036
:104220007200CB4B9B189A88CA4FCB493800CB4BB6
:1042300098473800CA4B98470136B6B2C94B1B881D
:10424000023B9E42ECDB5B00C14AD3189A88C14E08
:10425000C5493000C14B98473000C14B98476AE6CA
:10426000C2493000C24B9847002809D0C1493000EC
:10427000BF4B9847002806D1BF48B94B98475AE62C
:10428000BE4B984757E6BE493000B94B98470028C7
:104290002DD0BC493000B64B984700282AD00422C4
:1042A000B9493000B94B984700282BD00522B849AE
:1042B0003000B64B9847002837D00422B54930006B
:1042C000B24B9847002843D1301DB34B9847A048C4
:1042D0000430B24B9847B24B1A685B689D4EB149A7
:1042E00030009E4FB84730009D4B984723E6AE4BB9
:1042F000984720E60023AD4A5365AD4A9360AA4B28
:10430000984718E6301DAB4B984791480430A34BB3
:104310009847A94B1A685B688E4EA24930008F4FB0
:10432000B84730008E4B984705E6701DA14B984763
:10433000012169239D4AD1549F4B1A685B68854EC1
:1043400098493000854FB8473000854B9847F2E5D3
:1043500005229A4930008D4B9847002812D1701DD4
:104360008D4B984701216923904AD1548C4B1A6890
:104370005B68784E8B493000784FB8473000784BF7
:104380009847D8E504228E493000804B9847002892
:1043900012D1301D8B4B98476D4804307F4B9847A6
:1043A000894B1A685B686B4E7E4930006B4FB8478B
:1043B00030006B4B9847BEE5052284493000734BB3
:1043C0009847002812D1701D7E4B98470121692320
:1043D000764AD1547C4B1A685B685E4E7149300056
:1043E0005E4FB84730005E4B9847A4E504227849F9
:1043F0003000664B984700281ED1301D754B9847FA
:10440000C0B2031C022800D90223682267498B54DA
:104410004F480430614B98476823644AD25C92004D
:104420006D4B9B189A694B4E6C4930004B4B98472B
:1044300030004B4B98477EE5052269493000534BCD
:10444000984700281BD1701D624B9847C0B2021CD0
:10445000022800D90222D3B2544968200A5467388E
:10446000692288549A005C4B9B189A69394E5B49C3
:1044700030003A4B98473000394B98475BE5594933
:1044800030003B4B9847002805D057493000384B47
:104490009847002807D12E480430404B984753488E
:1044A0002F4B984747E552493000314B9847002839
:1044B00015D13E4F68260023BB5525480430374BA5
:1044C0009847BA5D9200444B9B189A69214E434924
:1044D0003000224B98473000214B98472BE5454947
:1044E0003000234B9847002815D1304F6826012310
:1044F000BB5517480430294B9847BA5D9200364B9C
:104500009B189A69134E35493000144B9847300078
:10451000134B98470FE538493000154B9847002852
:1045200000D008E5214F68260223BB550848043017
:104530001A4B9847BA5D9200274B9B189A69054E13
:1045400026493000054B98473000054B9847F2E468
:10455000A4050020B83000205CC90000AD96000022
:10456000D53600001C31002014C9000060C90000CD
:10457000F196000068C900006CC90000093700000E
:104580007CC9000080C9000084C900002397000096
:1045900094C900009CC9000041380000E1380000C7
:1045A000B03000208CC900006D3C0000240D0020BC
:1045B00010E000E0C9370000A8300020A4C90000C6
:1045C000ACC900009138000010300020B4C90000D0
:1045D000BCC90000E38C000018C80000C4C900007A
:1045E000C8C90000D0C9000060CA0000DCC90000D2
:1045F000E0C90000E4C90000E8C9000010B58B79EB
:10460000CC7924021C43012A0AD04B78212B09D1F2
:10461000072C0AD1002322000549064CA04710BDF3
:104620000020FCE70D204042F9E701204042F6E778
:10463000142D0020B14B0000F0B583B005000F0031
:1046400014008E79CB791B021E43234B98477B784D
:10465000202B05D0222B26D00D20404203B0F0BDE8
:10466000072E31D1002C17D00722010068461B4BC2
:1046700098471B4B9B68002B03D06846984700283F
:1046800025D0174B009A1A606A4692889A806A462B
:1046900092799A710020E1E700233200010028009E
:1046A000104CA047DAE700230022002100200D4C27
:1046B000A0470B4BDB68002B0BD0BA78F8780002D0
:1046C000104398470020C9E701204042C6E7002078
:1046D000C4E70020C2E7C0463D510000458D000000
:1046E000142D0020B14B000070B50C786509032330
:1046F0002B40012B14D10D794B791B022B430B4D11
:104700002D7CAB4203D0094D6D7CAB420BD164B222
:10471000002C02DB064B984770BD064B9847FBE721
:104720000A204042F8E70A204042F5E7142D002015
:1047300039460000FD450000F8B5CE46474680B535
:104740000E0087680868002398464346012B45D829
:1047500000284BD083784279022A01D00A2A48D116
:10476000C1464246BA5C934246D0FF2A47D14246F0
:10477000BB5405227168254B984704000CE04B465A
:10478000FB189D702800224B984734602078201831
:104790007168204B98470400002C13D0A578E1786D
:1047A000227963791B02D21892B228001A4B9847DB
:1047B000002827D16BB2002BE1DB3D712800144BA0
:1047C0009847E2E730680378C018042271680F4BFD
:1047D000984743460133DBB29846B6E701220F4BB8
:1047E0005A7500200CBC90469946F8BD0A204042FC
:1047F000F8E70A204042F5E712204042F2E71C2089
:104800004042EFE714204042ECE7C0465951000017
:1048100031140000775100009D130000142D00207A
:1048200070B5856800291AD00B685B79022B18D007
:104830000A2B24D1002401E00134E4B2012C12D867
:104840002B5DFF2BF8D0FF232B552B199878FF28D1
:10485000F2D00C4B98472E19FF22B270ECE70024DF
:10486000ECE70024EAE72879FF2803D0054B9847B6
:10487000FF232B710022044B5A75002070BD0A20C3
:104880004042FBE705140000142D002010B501295B
:104890000AD0002904D002290AD11B20404210BDB1
:1048A0001100054B9847FAE71100044B9847F6E7CB
:1048B0000D204042F3E7C046394700002148000080
:1048C00010B50B4B984701280ED80A480A4BC36114
:1048D0000300103303621830084B98470849012041
:1048E000084B9847002010BD11204042FBE7C0460E
:1048F00049510000142D00208D480000E1500000B7
:104900003000002049500000014B587D7047C046E0
:10491000142D002070B504000D00074B98470028A7
:1049200007D0064BD87C01232A002100044CA04765
:1049300070BD11204042FBE709490000142D002002
:10494000B14B000010B5064B1C6905E000220121A7
:104950002000636898472468002CF7D110BDC0463A
:10496000382D002010B5064B5C6800E02468002C50
:1049700004D06368002BF9D09847F7E710BDC04614
:10498000382D002070B506000D00074BDC6800E0F4
:104990002468002C06D06368002BF9D02900300071
:1049A0009847F5E770BDC046382D0020F8B50700E0
:1049B0000E0015000B4B9C6800E02468002C0DD005
:1049C0006368002BF9D02A0031003800984700288E
:1049D00006D00A30F1D00120404200E00020F8BDAE
:1049E0000120FCE7382D002010B5014B984710BD81
:1049F0006549000010B5010001220020014B9847D5
:104A0000002010BDAD49000010B5014B984710BD06
:104A10009113000010B504000378002B12D14378E5
:104A2000052B12D0092B0DD18278104BDA768278C3
:104A3000C3781B02134306D103210C4B9976012046
:104A40000B4B984710BD0421F7E78078094B984736
:104A5000A278E3781B02134306D00321034B997617
:104A60000120034B9847EDE70221F7E7382D00209E
:104A700085490000094A000010B5002903D001292A
:104A800006D0002003E01000034B9847002010BD23
:104A90001000024B9847FAE7154A0000F54900005C
:104AA00030B583B0021E14D01E4B1B6818685968BD
:104AB0001D4B9847002832D08178C3781B02C91853
:104AC00089B2411801910422184B98470090FF24A5
:104AD0000DE0174B984701201FE02C000098037849
:104AE000C018009004220199104B98470090009B39
:104AF000002B11D09D78AC42F0D00A4B1C69002CE1
:104B0000EBD06A460021200063689847002801D056
:104B10002468F4E72C00E1E7012003B030BD002059
:104B2000FBE7C046382D00209D5100005951000080
:104B30004549000010B50D4B98470D4C0223A37654
:104B40000023E376637700200A4B9847207F0A4BC7
:104B500098470A4A00210020094CA047094A02212F
:104B60000020A0470020084B984710BD4549000091
:104B7000382D002005140000F1130000FD4F000047
:104B80000D160000794A00003114000010B500280D
:104B900002D0012804D010BD0020034B9847FAE74B
:104BA000024B9847F7E7C04685490000354B0000A7
:104BB00010B584B001AC01910292207263722000A2
:104BC000014B984704B010BD8114000010B50400DB
:104BD0000A781F231340022B12D18A79CB791B024A
:104BE000134301D000200CE008790021054B9847C1
:104BF0000123002200212000034CA047012000E0F7
:104C0000002010BDA5150000B14B000010B5040038
:104C10000A781F231340022B12D18A79CB791B0209
:104C2000134301D000200CE008790121054B98477F
:104C30000123002200212000034CA047012000E0B6
:104C4000002010BDA5150000B14B000070B582B06A
:104C500005000C002A4B1A6810685168DA7E294B4F
:104C60009847002845D000908178C3781B02C91866
:104C700089B2411801910422234B984700280BD197
:104C8000002039E000980378C018009004220199B0
:104C90001D4B984700282ED08378A342F2D1C378C9
:104CA000AB42EFD10090164B1E69002E1FD06A4612
:104CB0000121300073689847002801D03668F4E776
:104CC00073686A46002130009847002816D1002DED
:104CD00005D00122A2400A494B7F13434B770023A2
:104CE000002200210020094CA047012004E0002000
:104CF00002E0002000E0002002B070BD0020FBE7D1
:104D0000382D00209D51000059510000B14B00008A
:104D100010B504004B780B2B2DD89B00174AD358A5
:104D20009F46012300220021154CA04743425841D1
:104D3000C0B210BD8878134B98470028F9D00123E2
:104D40000022002120000E4CA04743425841C0B22F
:104D5000EFE70D4B9847ECE70C4B9847E9E70A79EA
:104D60004B791B0213438A78C8780002104319005C
:104D7000074B9847DDE70020DBE7C0461CCA000070
:104D8000B14B0000A14A0000CD4B00000D4C0000CB
:104D90004D4C000070B505008B79CC7924021C4382
:104DA000122C00D912240B4B1B6818685968012279
:104DB000094B984700280BD000232200010028004F
:104DC000064CA047002801D1012070BD0020FCE75F
:104DD0000020FAE7382D002059510000B14B0000A7
:104DE00070B505008B79CE7936021E438A78134B55
:104DF0001C7F013C344061424C41E4B21B6818689E
:104E000059680132D2B20E4B9847002813D08278ED
:104E1000C3781B02D21892B2964201D83200002405
:104E2000230001002800074CA047002801D10120E1
:104E300070BD0020FCE70020FAE7C046382D0020B6
:104E40009D510000B14B000070B505008B79CE7903
:104E500036021E438A78104B1C7F013C344061426D
:104E60004C41E4B21B68186859680C4B98470028FD
:104E70000FD00278964201D83200002423000100AE
:104E80002800074CA047002801D1012070BD002058
:104E9000FCE70020FAE7C046382D0020E151000071
:104EA000B14B000010B5CB78022B08D0032B09D0F2
:104EB000012B01D0002001E0044B984710BD044BAA
:104EC0009847FBE7034B9847F8E7C046954D00002D
:104ED000E14D0000494E000030B583B004000A786F
:104EE0001F231340DAB2012A03D9022B12D000206B
:104EF0000EE0002301930D4D022201A968690C4BBD
:104F0000984769690023022220000A4CA04701202B
:104F100003B030BD08790221074B9847002803DB16
:104F2000012318400190E6E70020F1E7382D00202A
:104F3000458D0000B14B0000A515000070B50500BF
:104F4000164B1C695A7F017943791B020B431A41A6
:104F5000D3070AD5002C1FD02A0002212000636845
:104F6000984700280DDA2468F4E70C4B00225969B1
:104F70000A705969002301320020094CA047012022
:104F80000BE0064B5A69107059690023012200207A
:104F9000034CA047012000E0002070BD382D002008
:104FA000B14B000010B54B78062B0DD007D9082B5C
:104FB0000DD00A2B16D108000B4B984706E0002BAA
:104FC00010D10A4B984701E0094B984710BD094B97
:104FD000DA7E59690A70596900230122064CA047FC
:104FE0000120F3E70020F1E73D4F0000D94E00001B
:104FF000A54E0000382D0020B14B000070B5050013
:105000000C0000220D4B9847431C14D0012813D0EC
:1050100023781F22934304D0DBB2802B06D00020DC
:105020000AE021002800064B984705E021002800EF
:10503000044B984700E0002070BDC046AD49000019
:10504000114D0000A54F000010B5012809D000281F
:1050500002D002280AD010BD07480430074B9847F9
:10506000F9E705480830054B9847F4E702480C304B
:10507000024B9847EFE7C046382D0020B1160000DC
:1050800070B50400431E9841C0B20C4A0C490D4B48
:1050900098470D4B984700280EDB0C4D202200212D
:1050A00028000B4B98476C610A4900200A4CA04726
:1050B0000A490120A047002070BDC04655030000EA
:1050C0004CCA00005D16000001130000382D0020BE
:1050D000578D0000E94900006D1300008D4B000062
:1050E00010B5010002481030024B984710BDC04671
:1050F000382D0020B116000010B50B4B9B7E002B05
:105100000CD100280DD0084B18600268D2791A77AC
:1051100001229A76054B9847002010BD042040429A
:10512000FBE709204042F8E7382D00207913000002
:1051300010B5014B984710BD85130000014B58690D
:105140007047C046382D0020024B987EC30600D51C
:1051500010207047382D002010B5884207D2037800
:10516000012B06D94478944202D0C018F5E70020FC
:1051700010BD0020FCE7884209D20378012B08D932
:105180004278042A07D0052A02D0C018F3E700208D
:1051900070470020FCE70020FAE7000070B50C0023
:1051A000150002220D4B9847002812D0A0420FD2C2
:1051B0000378012B0ED94378022B0DD14379AB42F2
:1051C00007D08378C27812029B189BB2C018EDE713
:1051D000002070BD0020FCE70020FAE759510000D4
:1051E00070B50D0016000024A8420ED2032229003B
:1051F000084B9847002809D00378012B07D9B442FF
:1052000004D00134E4B2C018EEE7002070BD0020E5
:10521000FCE7C0465951000010B506484030064B27
:105220009847064B98470648064B9847064B9847C1
:1052300010BDC046582D002081500000C14800001C
:1052400038000020F95000003151000010B5014B2A
:10525000984710BD1952000030B5204A4B0087B066
:105260005B0893421CDD1E4A934205DD02000B00E1
:1052700003F0DEF807B030BD02AA00F03FFA0323C6
:105280001840049A059B012818D002280DD0002848
:105290001ED0029803990124009401F0DDF9E9E79A
:1052A0000022002300F042FCE4E70298039900F09A
:1052B0003DFC80231B069C466144DBE7009002987E
:1052C000039901F0C9F980231B069C466144D1E78C
:1052D0000298039900F02AFCCCE7C046FB21E93F85
:1052E000FFFFEF7FF8B5264A4B005B0D9A180700C9
:1052F0000C00132A10DC002A39DB224B13410B422D
:1053000030D0802424031441002064189C430600FC
:10531000250030002900F8BD332A0CDD802306006B
:10532000DB000D009A42F4D102000B0001F0BCFE3C
:1053300006000D00EDE7144D0600AC460125634460
:105340006D42DD40AC4663460D000342E1D033239D
:105350009A1A323B93401818874200D94C1C634676
:105360009843D4E706000D000028CAD1D1E7C90F41
:10537000CC070020531CCAD1044B1C43C7E7C046CE
:1053800001FCFFFFFFFF0F00EDFBFFFF0000F03F00
:10539000F0B54746CE4680B58DB01D0006000F0023
:1053A000140000F061F82E4B009001911B785BB265
:1053B0009846013334D022002B002000290003F04E
:1053C0004DFB00282CD132003B003000390003F0A7
:1053D00045FB8146002823D100220023200029001C
:1053E00001F07EFC00281BD0012302931D4B049684
:1053F000059703934B460A93434606940795002B63
:1054000015D10896099702A801F072FA002819D060
:105410000A9B0093002B1DD1089B099C00930194CB
:10542000009801990DB00CBC90469946F0BD002340
:1054300000221900100002F047F943460890099134
:10544000022BE0D103F054FC212303600A9B00935C
:10545000002BE1D003F04CFC0A9B00930360DBE7D8
:105460009500002064CA0000F0B55746DE464E465F
:10547000454699465B005B08E0B51D0083B0834656
:1054800004009246170015432DD04E00914D76082A
:105490000196AE4227DC554215438F4EED0F1D435A
:1054A000B54220D8CD0F019EED07AC469E4207DCE9
:1054B000050088469E421FDB90421DD300D16FE05D
:1054C000864D019EAE4220DC002E00D0B9E05D4644
:1054D000002D00DCF8E0824D5E467600013DB346CB
:1054E000002EF9DC16E04B4602F022FD02000B0014
:1054F00002F0EAF8050088462800414603B03CBCAB
:1055000090469946A246AB46F0BD764E019DB04608
:105510002D154544714EB34212DC002B00D0A7E09C
:105520005646002E00DCD1E06D4EB0460126764294
:10553000B34656467600D844B246002EF6DC04E068
:105540001E15B046674EB246D044674EB5426ADB80
:1055500080260903090B76030E436349884554DB13
:105560004B4680201B031B0B400318434346ED1A98
:10557000002D1ED0BC429B41311A5B42C91A09D48E
:105580000B00E41B23430BD0E60F49008E19640087
:10559000013DEDE77100E60F8E196400013DE7E77C
:1055A0006346DA0F514BD2009B181D685B68984622
:1055B000A2E7BC429B41301A5B42C01A72D4E41B82
:1055C00003002343ECD0454B1A00984209DCE30F5B
:1055D0004000C01801235B4299466400C8449042D1
:1055E000F5DD414B984551DA42469B1A142B5BDCA2
:1055F000202221000400D21AD940944018410C43C3
:10560000614601432500884676E74046091A1F296E
:1056100028DC20201700401AC7408B4038008A4001
:1056200018431700A2E7741B1F2C15DC202106006D
:10563000091BCE403100019EA040A64004000E434D
:105640008BE7019DED02A846274D46467600013DB9
:10565000B046002EF9DC5DE725490024491B88404F
:1056600006007AE7224B00271B1A9A4010007DE7BC
:10567000DE02B2461C4EB04601267642B34656467E
:105680007600D844B246002EF6DC5EE7194B1A4984
:105690009946634641444844184309050843250098
:1056A000804629E730008BE71F2B06DC2022DC40F8
:1056B000D31A984004436046A2E742460C4B9B1A1B
:1056C0001841040060469BE7054D23E7044EB046B1
:1056D0003BE7C046FFFFEF7F0000F07FFFFF0F00BA
:1056E000EDFBFFFF01FCFFFF02FCFFFF70CA0000A3
:1056F000E2FBFFFF0000F0FFFF030000F0B54E46A5
:105700004546DE465746E0B5D44B4C008FB0904638
:10571000894664089C4200DC87E0D14B9C4222DC35
:10572000D04A002900DCBFE1CF4B02F081FECE4B16
:1057300006000F009C4200D194E0CC4ACC4B02F012
:1057400077FE02000B00414630000A604B603900D2
:1057500002F06EFEC64BC54A02F06AFE43460125C2
:105760009860D9606BE0C34B9C4200DC97E0C24B71
:105770009C426CDCC14A231592469A445146090565
:10578000631A19001D00040003F088F903F0BAF948
:1057900002000B00200029000892099302F048FE45
:1057A0000022B74B02F0C4FB0F00060003F076F9AD
:1057B00003F0A8F904000D0002000B0030003900CE
:1057C0000A940B9502F034FE0022AD4B02F0B0FBC0
:1057D000002200230C900D9101F082FA002800D1E4
:1057E00081E1002300222000290001F079FA4342E0
:1057F00043410133A34A41460192022208A8009284
:10580000524600F0ADFA4B460500002B17DA802215
:1058100043461206944642465B68454263445360E1
:10582000D36842466344D36009E00B00020041465E
:105830000A604B600022002300258A60CB602800AC
:105840000FB03CBC90469946A246AB46F0BD0B005B
:10585000020002F0EDFD434600259860D960186013
:105860005960ECE7D322824B520502F0E1FD864AF3
:10587000864B0D00040002F0DBFD02000B004146E8
:1058800020000A604B60290002F0D2FD7F4B7E4A67
:1058900002F0CEFD434601259860D960CFE700F0C5
:1058A0008BFF7B4A7B4B06000F0002F041FB00227E
:1058B000794B01F0F9FB03F0F1F8050003F022F950
:1058C000684A694B0490059102F032FB02000B001C
:1058D0003000390002F0ACFD644A06000F00049865
:1058E0000599634B02F024FB029003911F2D33DCDA
:1058F0006B1E6A4A9B009B589C422DD002000B00F5
:105900003000390002F094FD0B008A460200414647
:1059100083460A604B605A4653463000390002F015
:1059200087FD029A039B02F083FD44460B000200B0
:10593000A260E3604B46002B00DB80E75B46236000
:1059400080231B065344636080231B069C466144EE
:10595000A060E1606D4272E7029A039B300039005B
:1059600002F066FD0B008A46020041460A604B6069
:1059700053465B0024155B0D8346E31A102BCADDEA
:1059800004980599D3223A4B520502F0D1FA0290BD
:10599000039102000B003000390002F049FD06902F
:1059A000079102000B003000390002F041FD029A1D
:1059B000039B02F03DFD06000F0004980599324A52
:1059C000324B02F0B5FA32003B0002F031FD069E88
:1059D000079F02000B00300039000292039302F08F
:1059E00027FD0B008A46020041460A604B60534681
:1059F0005B005B0D8346E41A06960797312C8ADD1F
:105A000004980599B822214B920502F091FA0300FF
:105A10000C0002000293039430000B00390002F0E6
:105A200007FD02000B0006000F000698079902F020
:105A3000FFFC029A039B02F0FBFC194A02900391BF
:105A400004980599174B02F073FA029A039B02F02F
:105A5000EFFC02000B000292039351E7FB21E93FA8
:105A60007BD9024000004054FB21F93F3163621AA8
:105A700061B4D03DFB213941FFFFEF7FEAFBFFFF1F
:105A80000000704100CB00007370032E8A19A33B05
:105A900083C8C96D305FE43F0000E03F80CA00006A
:105AA000C14920259A837B391B4B01F0FDFA1A4B23
:105AB00006000F009C4218D0184A194B01F0F4FA66
:105AC00002000B00414630000A604B60390002F0D2
:105AD000AFFC124A124B01F0E7FA012543466D4232
