:10000000984D002025010000210100002101000081
:1000100000000000000000000000000000000000E0
:1000200000000000000000000000000021010000AE
:10003000000000000000000021010000811B000002
:100040002101000021010000210100002101000028
:100050002101000021010000C9150000210100005C
:100060002101000021010000210100002101000008
:10007000210100002101000095190000211B000052
:1000800021010000210100002101000021010000E8
:10009000210100000000000000000000210100001C
:1000A00021010000211300002101000021010000B6
:1000B0000000000010B5064C2378002B07D1054B3B
:1000C000002B02D0044800E000BF0123237010BDC4
:1000D0000002002000000000D8A80000084B10B566
:1000E000002B03D00749084800E000BF0748036819
:1000F000002B00D110BD064B002BFBD09847F9E731
:100100000000000004020020D8A80000D8A80000C9
:100110000000000010B5014B984710BDF10300002E
:10012000FEE70000F8B5234A234B9A4209D0224B40
:10013000204A03E011681960043304321F498B42DE
:10014000F8D31F4B02E000221A6004331D4A934289
:10015000F9D31D4AFF211D4B8B439360FD3990233A
:100160005B001B4AD1501B4AD3780325AB430224C2
:100170002343D370D3780C27BB4308263343D37073
:10018000154B987B30229043202210439873997B23
:10019000B943314399739A7BAA4322439A730F4A16
:1001A000516880230B4353600D4B98470D4B984784
:1001B000FEE7C046D8A80000000000200002002092
:1001C00000020020942D002000ED00E0000000005F
:1001D00000700041005000410048004100400041D3
:1001E000E96500001D23000010B5144A116A802340
:1001F0005B020B431362124A124B5A801249134896
:10020000134B9847802149008423C022D205D15046
:1002100010492433104ACA50C0221206CA50203353
:10022000CA5C012082430243D2B2CA54B4228B5C1E
:100230000F24A3430343DBB28B5410BD00040040E2
:100240001E440000000C004000400042502A0020E4
:10025000190700000044004100010040044A136AED
:1002600080210B431362034A034B5A807047C046F8
:100270000004004019400000000C004030B50F4B56
:10028000D622995C0125A94301242143C9B299547E
:10029000BB20195CC73A914303221143C9B21954D8
:1002A000D7215A5CAA432243D2B25A541A5CC839A5
:1002B0000A4030210A43D2B21A5430BD00440041F2
:1002C00010B582B0064B9847002300931033054ABF
:1002D00005490648064CA047064B984702B010BD9A
:1002E0005D0200001C020020001C0042942A002035
:1002F000ED0D00007D02000010B50422C023DB05D7
:100300005A600A490A4B8B62C0231B068B62422348
:10031000CA5C012082430243D2B2CA5431228B5CB0
:100320000F24A3430343DBB28B5410BD00440041B0
:1003300004000040044A116A8023DB020B4313626D
:10034000024A034B5A8070470004004021440000D9
:10035000000C004010B5044B984704490448054B75
:100360009847054B984710BD3503000000480042F0
:10037000702A002025090000F902000010B5054A86
:10038000054B5A80054A136A02210B431362044B42
:10039000984710BD07400000000C004000040040DA
:1003A0008D0A0000044A116A80235B000B4313622C
:1003B000024A034B5A807047000400401A40000074
:1003C000000C004010B5054B9847054B98470200BC
:1003D00004490548054B984710BDC046A5030000D9
:1003E0001B1B000000200042E42A0020C50B000077
:1003F00070B5224B9847C021C90580231B014B6172
:100400008B601F4B1F4A9A62C020000698624B25E2
:100410005A5D0124A2435A558022D2018A601A4DA6
:100420009D6298624A614E201A5C0425AA431A54C0
:100430001A5CA24301252A43D2B21A5417381A5C17
:100440000F25AA4307252A43D2B21A5480229202CA
:100450004A618A608022D2059A620C4A9A625121CE
:100460005A5CA2435A540A4B98470A4B98470A4B86
:1004700098470A4B98470A4B984770BDA50400005F
:10048000004400410008004000400040020000C05D
:10049000E9010000C1020000550300007D030000D7
:1004A000C503000010B5584C63686360574B98470C
:1004B00062681E239A431C3B13436360544A93694A
:1004C00008210B439361534B534A9A829A8A022123
:1004D0000A439A824F4BDB689B07FBD501224F4BA7
:1004E0001A704E4B1B78DB0704D54C4B5B785BB224
:1004F000002BF6DB0122494B9A60484B5B78DB0905
:10050000FBD1474A454B5A60444B5B78DB09FBD132
:100510008222D201414B5A80404B5B78DB09FBD1F0
:1005200002223C4B9A843B4BDB68DB06FBD53D4A01
:10053000384BDA62374BDB68DB06FBD5354A938CE8
:1005400039490B439384334BDB68DB06FBD5314AD7
:10055000938C02210B439BB293842E4BDB681B06CA
:10056000FBD52C4BDB685B06F7D52A4BDB68DB063B
:10057000FBD580225200294B9A60284B5B78DB091F
:10058000FBD12A4A254B5A60244B5B78DB09FBD10F
:10059000204B196A264A0A401A62196A802291433E
:1005A0001962822252001D4B9A601C4B5B78DB095A
:1005B000FBD1204A194B5A60184B5B78DB09FBD101
:1005C0000622FF32154B9A60144B5B78DB09FBD196
:1005D000194A124B5A60114B5B78DB09FBD10C4B6B
:1005E00000221A725A729A72DA721449144A11600D
:1005F0005A6920210A435A61DA6910390A43DA61DB
:10060000104B984710BDC046004000416D160000D9
:1006100000040040000800400C060000000C0040F0
:1006200001050100B905FF7D040A00000007030071
:10063000FFFCFFFF0407010005070100006CDC025E
:10064000000000201914000010B5040002C0202290
:100650000021044B984700232422A3540132A354C1
:1006600010BDC0464366000010B582B004000022F1
:100670002423C25401226B46D91D2068174B98478A
:10068000012818D16B4607331B780D2BF2D00A2BAB
:1006900009D02522A25C1E2A11D8A1180B710132A3
:1006A0002523E254E6E71B33E35CE31800221A71CA
:1006B00001322423E2542423E05C02B010BDA218CE
:1006C0000023137101222433E25401226B46D91D09
:1006D0002068024B98470128F7D0ECE7D10A0000C8
:1006E0002423C35C002B06D0002324228354013230
:1006F0008354043070470020FCE710B580684369DC
:10070000002B00D0984710BD10B580688369002B7E
:1007100000D0984710BD000070B504000D000028FF
:1007200010D000290CD001203D221249124B9847CD
:1007300029002000114B9847051E05D0280070BDE8
:100740000020F1E70020EFE720000D4B9847010063
:1007500000200C4B984720001C3000210A4B984782
:10076000E3699C60E369094A1A60E369084A5A60D0
:10077000E4E7C046489E0000850F000059120000C3
:10078000B512000015150000B5150000FB060000AD
:100790000907000010B50400431E9841C0B254225E
:1007A0000349044B98472000034B9847002010BD95
:1007B000489E0000850F00009112000070B50400F3
:1007C0000D00431E9841C0B260220449044B984773
:1007D00029002000034B9847002070BD489E000070
:1007E000850F0000A712000070B506000D00140070
:1007F000431E9841C0B279220A490B4B9847002DFD
:1008000004D0012D0CD00D20404208E07461621E1E
:100810009441E2B229000020044B9847002070BDAB
:10082000B461F4E7489E0000850F0000C114000089
:10083000F0B583B007000E000192002826D00029F1
:1008400026D0002A26D10020134D92222900134CD5
:10085000A0473800124B98470100019F3800114B08
:10086000984748424841C0B295222900A04731002C
:1008700000200D4B9847390000200C4B9847002171
:1008800000200B4B9847002003B0F0BD0020DBE7B1
:100890000020D9E70120D7E7489E0000850F00001F
:1008A000BB120000A1450000051500002515000041
:1008B00079150000EFF31083036072B6BFF35F8F0A
:1008C0007047BFF35F8F036883F31088704710B5DC
:1008D00008384368002B00D0984710BD70B505005C
:1008E000083DCB1CDB00EB189B68002B0CD0013BB8
:1008F000CA1CD200AC18A360002B06D108380368CC
:10090000002B01D02800984770BD23006268941C1A
:100910005C6053880A001900014B9847F4E7C04611
:10092000DF13000070B504000D00002817D0002967
:1009300013D0012038220F490F4B98472000083070
:1009400029000E4B9847002806D10D4BA3600D4B94
:10095000E3600023002B04D070BD0020EAE70020F4
:10096000E8E7DA1CD200A21800215160916001333F
:10097000DBB2EFE7649E0000850F00006513000006
:10098000DD080000CF08000070B504000D0000284D
:100990000DD000290DD000205D220749074B984754
:1009A000200008302900064B9847002070BD002029
:1009B000F2E70120F0E7C046649E0000850F0000CA
:1009C000B913000070B505000E001400431E9841D5
:1009D000C0B276220B490C4B9847002E04D0012E52
:1009E0000DD00D20404209E02C60621E9441E2B21D
:1009F000280008303100054B9847002070BD6C601E
:100A0000F3E7C046649E0000850F0000EB13000072
:100A1000F0B5C64600B504000D0017009846002842
:100A200007D0002907D1002A21D0002B21D1002096
:100A300002E0002000E000208F221049104B984770
:100A400026000836290030000E4B9847002812D0A7
:100A5000EB1CDB00E41867604346A36039882A007A
:100A60003000094B9847002004BC9046F0BD0020A0
:100A7000E2E70120E0E70D204042F5E7649E000038
:100A8000850F0000CD130000DF13000010B5014BEF
:100A9000984710BD2916000070B504000D0016001F
:100AA00000280ED000290AD0012034220649074B25
:100AB00098472368320029002000984770BD002025
:100AC000F3E70020F1E7C046809E0000850F00009C
:100AD00070B504000D00160000280ED000290AD0C1
:100AE00001203D220649074B9847636832002900E0
:100AF0002000984770BD0020F3E70020F1E7C046D2
:100B0000809E0000850F0000F8B50668002E02D018
:100B1000330000250CE0104B984718E09F68BC4656
:100B20006444A41A01348F68BC420BD21D001B68B8
:100B3000002B07D05C689442F0D8A41A9F68BC468A
:100B40006444F0E7B34203D02800044B9847F8BD53
:100B5000014B9847FBE7C046A50F0000D10F0000EE
:100B6000F8B50500446903695E1C0661037EDB0776
:100B700002D4037E9B070AD52B7E02221343DBB2ED
:100B80002B76F8BD6F69E368200098473C00002C85
:100B9000F7D06368F31AA2689342F2D32F00143798
:100BA0003800064B9847237C012BEBD1666032005E
:100BB00021003800024B9847E4E7C046D90F0000F7
:100BC000090B000070B504000D00002812D00029A8
:100BD0000ED001203B220849084B984729002000ED
:100BE000074B984700232361064B2360002070BD0C
:100BF0000020EFE70020EDE7949E0000850F000045
:100C0000051A0000610B000010B50400431E984156
:100C1000C0B253220749084B98472000074B98471A
:100C2000002804D12000064B9847002010BD112059
:100C30004042FBE7949E0000850F0000091B000066
:100C4000E51A000010B50400431E9841C0B26122AD
:100C50000749084B98472000074B9847002804D0C5
:100C60002000064B9847002010BD11204042FBE7B2
:100C7000949E0000850F0000091B0000F71A000079
:100C800010B5083800230363436A002B00D098474F
:100C900010BD10B5083800230363C36A002B00D0D1
:100CA000984710BD10B504002C30044B9847236AB8
:100CB000083C002B01D02000984710BD8510000093
:100CC00070B504000E00150000281DD000291DD0AD
:100CD000002A1DD100203C22FF321049104B9847BA
:100CE0004423E25A0833E35A9A4213D1A6644C23B0
:100CF000E5520022083BE252433B236320000830C8
:100D0000084B9847280070BD0020E4E70020E2E788
:100D10000120E0E71C204042F5E7C046AC9E000001
:100D2000850F00000D19000070B504000200083A9C
:100D30004423D35A4C21525A93420DD00200016CE5
:100D4000083A5D1C44201552C95C2000044B9847AA
:100D50002000044B984770BD034B9847FBE7C04603
:100D6000FB1800000D19000015190000F0B585B042
:100D700004000D001600002817D0002917D0002A03
:100D800017D10020AC2252001249134B984703A8F8
:100D9000124B9847343420000194114B98470700B8
:100DA00003A8104B984700240BE00020EAE700203E
:100DB000E8E70120E6E70134A4B2691801980A4B7C
:100DC00098472100A74201D9B442F4D3200005B0CE
:100DD000F0BDC046AC9E0000850F0000B5080000C5
:100DE000C5100000C308000039100000F8B5040069
:100DF0000D0016001F00002826D0002926D0002A4A
:100E000026D0002B26D100203A221549154B9847B1
:100E1000200034303A003100134B984700281BD192
:100E2000200008302900114B984700280BD1104BA7
:100E30006360104B2360104BA360104BE360104BBA
:100E40002361104B6361F8BD0020DDE70020DBE784
:100E50000020D9E70120D7E70D204042F3E7C04644
:100E6000AC9E0000850F0000ED0F00005D18000033
:100E70006D0D0000C10C0000290D0000A50C000044
:100E8000810C0000930C000010B50400431E984133
:100E9000C0B261220449054B984720000830044B3A
:100EA0009847002010BDC046AC9E0000850F000092
:100EB000E918000070B504000D0000280BD00029CF
:100EC00007D0012077220549054B98472C60002068
:100ED00070BD0020F6E70020F4E7C046AC9E00009D
:100EE000850F000070B505000E001400431E9841E8
:100EF000C0B283221649174B9847012E11D0002EFD
:100F000004D0022E18D00D20404209E0AC62621ECF
:100F10009441E2B22800083001210F4B984700208D
:100F200070BD6C62621E9441E2B22800083002215A
:100F3000094B98470020F3E7EC62621E9441E2B24D
:100F4000280008300321044B98470020E8E7C046FA
:100F5000AC9E0000850F00001D19000010B50400B4
:100F6000431E9841C0B2F8220349044B9847200021
:100F70000830034B984710BDAC9E0000850F000061
:100F800003190000002800D100BE70470368002B41
:100F900003D08B4203D01B68F9E700207047012083
:100FA000FCE7000070B504000D00064B98470123D4
:100FB0005840C0B239220449044B984723682B603B
:100FC000256070BD8D0F0000CC9E0000850F0000D5
:100FD00003680B60016070470368002B03D01A6838
:100FE0000260180070470020FCE7000070B50400A4
:100FF0000E001500002812D0002912D0002A12D1AC
:10100000002028220A490B4B98476B1E2B420CD11B
:1010100063600023A360E3602660002070BD0020B1
:10102000EFE70020EDE70120EBE70D204042F5E778
:10103000EC9E0000850F000070B504000D00002834
:1010400016D0002912D0012040220C490C4B9847A1
:10105000A368E2689A420DD0626813402268D35CAC
:101060002B70A3680133A360002070BD0020EBE764
:101070000020E9E70A204042F7E7C046EC9E000066
:10108000850F000070B504000D00431E9841C0B2EA
:1010900051220A490A4B98476368E2681340226864
:1010A000D554E368A2689A1A61688A4201D9591A2C
:1010B000A1600133E360002070BDC046EC9E0000DB
:1010C000850F000010B50400431E9841C0B267228E
:1010D0000349044B9847E068A368C01A10BDC04696
:1010E000EC9E0000850F00000300064A1268002AEB
:1010F00004D0044A1068C318136070470249014ABB
:101100001160F6E72C020020984D00200020704767
:1011100010B50B4B984702000020002806D07F2214
:1011200008490020084B9847002010BDC3001B1A37
:101130009900064BCB5C9A42F7D00130C0B2ECE785
:101140000D1100002C9F0000850F0000109F000073
:1011500070B504000D003A4BC01843425841C0B26C
:1011600094223849384B9847384B1A68D2081202F3
:10117000E023DB001A4036490B6849684901DB0E61
:101180000B43FF210B401A43637EDB09FCD123781C
:101190009B0704D500232370637EDB09FCD1012368
:1011A0002370637EDB09FCD12285EA00521B91008B
:1011B000284B5B189A786270DA78A2701A79E2701C
:1011C0001A7C2275DA8AA2841A8BE284997E2A22FA
:1011D000A154DB88A380637EDB09FCD1EB005B1BA1
:1011E0009A001C4B9B18DB682361637EDB09FCD1F2
:1011F000EB005B1B9A00174B9B181B7A2372637ED4
:10120000DB09FCD1EB005B1B9A00124B9B185B8A3D
:10121000A383637EDB09FCD1EB005B1B9A000D4BC3
:101220009B189B8A2384637EDB09FCD1EB005D1B4A
:10123000AA00084B9B185B782370002070BDC04645
:1012400000C0FFBD2C9F0000850F000024608000BF
:1012500020608000109F000070B505000C00431E48
:101260009841C0B2E8220649064B98472C612000FD
:10127000054B984701002000044B984770BDC046BD
:101280002C9F0000850F000011110000511100007B
:101290000269137802218B431370137801210B43E9
:1012A000DBB2137070470269137802210B43DBB283
:1012B0001370704700691A3070470269537EDB096A
:1012C000FCD19288120903331340032B01D0022072
:1012D00070470120FCE7C379DB09FCD1C379DB0946
:1012E000FCD103789B0707D500230370C379DB0982
:1012F000FCD1C379DB09FCD101230370C379DB097D
:10130000FCD1C379DB09FCD10133837040334370D6
:1013100000230370C379DB09FCD100207047000073
:1013200010B50F4B186803699A79D20707D50122C7
:101330009A714368002B01D00021984710BD9A791B
:10134000920707D502229A710368002BF6D000217C
:101350009847F3E79A795207F0D504229A71EDE79E
:101360003002002070B504000D00431E9841C0B249
:101370008E220C490C4B984728000C4B98470028AC
:101380000FD125610A4B1C600A4B802292048021F8
:101390005A50BFF34F8FBFF36F8F0131FF315A5057
:1013A0001A6070BD449F0000850F0000D712000036
:1013B0003002002000E100E00269137802210B43B3
:1013C000DBB21370D379DB09FCD170470269D379A2
:1013D000DB09FCD113785B080120184070470269D3
:1013E0009181D379DB09FCD170470369002907D1CA
:1013F000002A02D102321A7104E002225A7101E07D
:10140000012900D07047002A02D001225A71F9E761
:1014100001321A71F6E7000010B5234B1A88022139
:101420008A431A801A8802318A431A803C315A5CF6
:1014300001200243D2B25A54F02212011A805A7B80
:101440003F398A435A73194A5A61194A5A63194AE9
:101450009A63002312E014483F2283545900C918AC
:101460008C00154A1219516841641089104A1901FB
:10147000885252180021D1600133DBB20B2BEAD91C
:101480000E4B402280215A50BFF34F8FBFF36F8F16
:101490000131FF315A501A60034A138802210B436D
:1014A0009BB21380002010BD0048004100010203E0
:1014B000002B0020C02B00205C9F000000E100E01A
:1014C00010B53F230E4CE05400290AD1002A03D165
:1014D00002310D33E15406E002214D23084AD15474
:1014E00001E0012900D010BD002A04D001214D23C4
:1014F000034AD154F7E74C23014AD154F3E7C046DD
:101500000048004103010248C01881600020704774
:10151000002B002003010248C018416000207047E2
:10152000002B002070B5134A040113199E68A35ABA
:101530001B0A03252B40A25A120506D50C009C401D
:10154000A41905010B4A521994600A4A040115199D
:101550006D68A45A620506D50A009A405219040122
:10156000044B1B195A6089B20001024B18184180C4
:10157000002070BD002B002070B50C4A3F23D054D2
:101580000B4C05012B5B012633439BB22B534024AC
:10159000135D02252B43DBB21355002904D0012330
:1015A000834011690B431361002070BD0048004166
:1015B000002B00204B0059188A00024B9B18036037
:1015C000002070473402002070B5154A118C0F239B
:1015D0000B403F25545DE4B25900C91888001149F9
:1015E000081853554E21525CD2B2D10705D4920748
:1015F0000AD43F230A4AD45470BD3E3D4E220849C6
:101600008D5443689847F4E702254E2204498D54CF
:101610005A00D3189A00034BD3589847E9E7C046BD
:101620000048004134020020002306E059000D4A22
:10163000895A0D4A11810133DBB21C2BF6D90023E4
:1016400007E09900074A5218D16B074A51600133ED
:10165000DBB20B2BF5D9044B00225A61013A1A6117
:1016600000207047EC9F000000040042064B1A7AED
:10167000D2B21A725A7AD2B25A729A7AD2B29A7292
:10168000DA7AD2B2DA72704700040040024B9C460C
:101690006044800AC0B2704700F8FFBD10B584698D
:1016A000237EDB0702D5A37DDB070FD4237E9B07B8
:1016B00002D5A37D9B070ED4237E5B0715D5628BD5
:1016C00037231A420CD00833638310BD01232375DE
:1016D00003689847F9E70223237583689847F4E77E
:1016E0004368218DC9B29847EFE7237EDB09ECD030
:1016F00080232376C3689847638B9BB26383E4E7B8
:10170000034B984200D07047024B1960FBE7C0467C
:10171000001C0042C402002010B5024B984709305B
:10172000C0B210BD8D16000010B50B4B98470200DB
:101730000020002806D0094A09490020094B984793
:10174000002010BD83001B189900074BCB5C9A4208
:10175000F7D00130C0B2ECE78D1600005E02000049
:10176000A8A00000850F000058A0000070B504007C
:10177000384B9847E369DB071DD483001B189A0098
:10178000354B9B185A681C231A40E3699B07FCD110
:1017900023689B0709D5236802218B432360E369F3
:1017A0009B07FCD1E3699B07FCD40123134323600F
:1017B000E3699B07FCD1E369DB07FCD483001B18BA
:1017C0009A00254B9B185B682360E3699B07FCD15B
:1017D00083001B189A00204B9B189B686360E36989
:1017E0005B07FCD183001B189A001B4B9B185B689E
:1017F0009A040BD4C022D201134207D183001B18D4
:101800009A00154B9B189B89A38115E083001B1838
:101810009A00114989188A89A389D204D20C5B0BDA
:101820005B031343A3818B7B07221A40A3895203D6
:10183000DB04DB0C1343A381074A83001D18A900B6
:101840000D005118C97BA1735219127C3023E25448
:10185000002070BD2917000058A0000070B50600D8
:101860000C00431E9841C0B2C4221949194B984735
:101870002000194B9847051E01D0280070BDB461A7
:1018800031002000154B98472000154B984743B274
:10189000002B0ADB1F21014001228A408021114CCC
:1018A0006250BFF34F8FBFF36F8F002B07DB1F21F9
:1018B000014001228A40C02149000A4C6250002B9D
:1018C000DBDB1F2318401E3B8340064A1360D4E72E
:1018D000A8A00000850F00006D1700000117000090
:1018E0001917000000E100E08269136802210B4330
:1018F0001360D3699B07FCD17047836989B219854E
:1019000070478369187E012318407047836901225C
:101910009A757047836902229A75704770B5040002
:101920000D001600431E9841C0B2174A1749184BC4
:101930009847002D0BD0022D09D0012D18D0032D72
:101940000FD1A369002E1CD080229A7509E0A369EB
:10195000002E07D101221A75A369002E05D102229B
:101960001A7570BD01229A75F6E702229A75F8E79A
:10197000A369002E02D104221A75F2E704229A7597
:10198000EFE780221A75ECE71E020000A8A0000015
:10199000850F000010B5024B1868024B984710BD28
:1019A000C40200209D160000034B984200D07047EF
:1019B000024B1960FBE7C04600200042C80200202D
:1019C00010B5C368DA6AD20700D410BD0122DA620A
:1019D00003689847F9E7000010B50023002B01D0F9
:1019E000002010BD9A00D218D100054A8A588242C0
:1019F00002D00133DBB2F1E701484018F1E7C046FD
:101A00000400002070B506000C000800324B984717
:101A1000051E5BD0F460A368DB0714D4A3689B07A2
:101A2000FCD123689B0709D52368022293432360D6
:101A3000A3689B07FCD1A3689B07FCD40123236008
:101A4000A3689B07FCD1A368DB07FCD4AB682360C9
:101A5000A3689B07FCD12B7B63716B7BA3772B69FE
:101A600023626B6A2364A3681B06FCD40123A36270
:101A700031002000194B98470423EB56002B0BDB59
:101A80001F2213401E3A9A401300802214498B50A3
:101A9000BFF34F8FBFF36F8F0423EB56002B08DB90
:101AA0001F2213401E3A9A401300C02252000C49D4
:101AB0008B500423EB56002B0BDB1F2213401E3AE6
:101AC0009A401300064A1360002070BD0A2040426D
:101AD000FBE70020F9E7C046D9190000A91900006A
:101AE00000E100E0C268136802210B4313609368B1
:101AF0009B07FCD17047C268136802218B431360B7
:101B000093689B07FCD17047C26893689B07FCD120
:101B100013685B08012018407047002070470000E0
:101B200010B5024B1868024B984710BDC802002040
:101B3000C11900000122014B1A707047CC0200202D
:101B40000122014B5A707047CC02002070B5094B3E
:101B50009B78002B00D170BDC024E40580252D01A9
:101B6000A561054B1B88034A04320021034EB04790
:101B70006561F0E7CC0200208C2D0020110A0000E6
:101B8000024A536D013353657047C0464C0A00202A
:101B9000F0B51B4B9D681B4B5F688023DB041F4027
:101BA0007B1E9F41FFB2184B5E6D02E016001F00C6
:101BB0002500134B9C68134B5B688022D2041340B2
:101BC0005A1E9341DBB2104A526D9F42EED19642AB
:101BD00003D016001F002500EBE71600A54202D235
:101BE0001F002500E5E70260002F01D001320260EE
:101BF000034B5B685B1B054D5D432D0D0D80F0BDF8
:101C000010E000E000ED00E04C0A00205555000017
:101C100070B582B004006B46991C01A82A4B984706
:101C20002A4B18692A4B198840180130294B9847CC
:101C300088B25823284AD35C002B09D01300002512
:101C400058229D54019ADA656A46558860229D5251
:101C5000214D6B6E01336B66019BEA6D9A1A0192FE
:101C60006B4602331B886026AD5BAB4227D25B1B01
:101C7000FA25AD00AC4663446D466B80013A019293
:101C8000154B5A6EA2725A6E120AE2725A6E120CFA
:101C900022735B6E1B0E6373019BA3731A0AE273BC
:101CA0001A0C22741B0E63746B4602331B88A374D8
:101CB0001B0AE3742175000A607502B070BD5B1BDE
:101CC0006A465380DCE7C046911B0000E42A0020EE
:101CD0008C2D0020CD4300004C0A002010B51A4B7B
:101CE0009B78002B19D0194B1B78002B1BD0184B5D
:101CF0005B6E002B12D116490C0068347E31FA223B
:101D0000D2001448144B98472000144B98470F4AB0
:101D1000137801214B40DBB2137010BD002101206C
:101D20000F4B9847E7E7002102200D4B98470D49DC
:101D30000C0028343E31FA22D2000648064B984760
:101D40002000064B9847E2E7CC0200202C00002040
:101D50004C0A0020502A002031080000111C00000D
:101D6000791500004C1A002010B503000A0000206D
:101D700005490870054908681900054B9847024B4A
:101D80001B78002BFBD010BDCC020020102D0020B2
:101D9000990A000010B504000022074B1A70074B87
:101DA000984782B2064B18682100064B9847024BB1
:101DB0001B78002BFBD010BDCC020020F16F00007F
:101DC000102D0020990A000030B583B06B469C1C92
:101DD000210001A8074B98472388074C6834019AD3
:101DE00006492000064DA8472000064B984703B03F
:101DF00030BDC046911B0000CC29002000A100008E
:101E0000996F0000951D000070B588B00500184B53
:101E10001B680093174B1B680193174B1B680293B9
:101E2000164B1B68039300200EE083006A46995806
:101E30000C0E04AAD4545C1C0E0C16559C1C0E0AE5
:101E400016550333D15401300328EEDD002407E09A
:101E5000600004AB1A5D281809490A4B9847013401
:101E60000F2CF5DD00222023EA5408B070BDC046D7
:101E70000CA0800040A0800044A0800048A080000A
:101E80000CA10000996F000010B5144B9847020098
:101E90000B0000201249134CA047134B9847134BDB
:101EA000984780B2031C132800D814231A1CFA2167
:101EB00089009BB28B4201D90D4B1A8890B20D4B11
:101EC0001A800D4B984702000B0000200449054C76
:101ED000A0470A4B1860596010BDC046C565000098
:101EE0000088D340B54F0000D12B000029460000E8
:101EF000C4A000008C2D0020F1630000182D0020EC
:101F000070B50E4B984704000D00002200230C4EC4
:101F1000B04700280BD00B4A0B4B20002900084E7D
:101F2000B047002806D1094B1C605D6070BD0024DD
:101F30000025F0E7034C044DF5E7C046C5650000F9
:101F4000014600006666666666660A40202D00202F
:101F500070B50E4B984704000D00002200230C4E74
:101F6000B04700280BD00B4A0B4B20002900084E2D
:101F7000B047002806D1094B1C605D6070BD00248D
:101F80000025F0E7034C044DF5E7C046C5650000A9
:101F9000014600006666666666660A40802C002080
:101FA000F0B5D6464F464646C0B588B08146694B27
:101FB00018685968684C694A694BA04706900791B0
:101FC000684B18685968654A654BA04700900191B5
:101FD0000027CA4667E0644B9946200098470022D4
:101FE000624B634DA847049005912000614B9847D0
:101FF00005000E000298604B984702000B00049801
:1020000005995E4CA0472A0033005D4CA0470400B0
:102010000D005C4B18880138C84702000B002000F7
:1020200029004D4CA047584B984702900391009AC5
:10203000019B06980799514CA04704900591534D78
:102040000098019902000B00A84702000B000298BB
:102050000399474CA04702000B0004980599A84734
:1020600004000D0000220023494EB047002864D030
:102070000022484B20002900454EB047002801D0DF
:102080000024444D7B009846D0440022424B20005F
:102090002900374CA0473C4B9847404B9847434654
:1020A000188001373FB2374B1C88A74248DA21001D
:1020B00038003B4B984708003A4B984702907823EA
:1020C000394AD35C012B00D185E7022B1CD02A4B67
:1020D0009847274D354A364BA84702900391200078
:1020E000214B984702000B00029803991A4CA04715
:1020F000304B98470022274B244CA04700222E4B00
:10210000A8470290039192E72000264B9847011CB4
:1021100002982A4B9847184B98470022264B174C99
:10212000A04705004C00640802002300280021009D
:10213000164CA0470290039179E70024002597E709
:1021400000217923184AD15408B01CBC9046994606
:10215000A246F0BD202D0020B54F000066666666E1
:1021600066660A40802C0020F16300000000FC3FFE
:102170001D58000075640000E56400001D5D00004E
:102180007D2C00008C2D0020D12B000095490000F3
:10219000014600000000F03F00F88F402946000093
:1021A000A1450000F5480000CC290020182D44541A
:1021B000FB211940452B00000000E03F6546000070
:1021C00010B5094C094A00212000094B984700210D
:1021D0002000084B9847084A00210848084B9847B8
:1021E0000848094B984710BD702A00204D1B00007D
:1021F000C509000089090000DD1C0000502A0020EC
:10220000E9070000E42A0020090C0000F8B5174D8A
:102210002800174B984700272F61164B1B88164E36
:10222000321D00211548164CA047164C2000164BB5
:10223000984716492000164B984716493E3102220E
:102240002000154B984700212000144B9847144B51
:102250005F660123134A137080210901C022D20551
:102260005161B3702800104B9847F8BDE42A002054
:10227000450C00008C2D0020CC020020702A00208C
:10228000110A0000502A002095070000004000427B
:10229000190700004C1A002031080000BD0700009B
:1022A0004C0A00202C000020090C000010B5084941
:1022B00028310120074B9847074B196A2831012024
:1022C000064B9847FC2109010120054B984710BD9A
:1022D0004C1A002015150000942A00200515000056
:1022E0002515000010B5084968310220074B9847B2
:1022F000074B196A28310220064B9847FC21090137
:102300000220054B984710BD4C0A0020151500000F
:10231000942A00200515000025150000F0B599B09D
:10232000E04BC32189005A581202120A5A50C6249F
:10233000A4001A59DC4810408022D20102431A51ED
:10234000043C1A591202120A8020C00502431A5195
:102350005A58D64810408022120402435A50D44999
:102360000B6A1B021B0AC022120613430B62D14BDD
:102370009847D148D14B9847D14DD24C29002000E5
:10238000D14B9847D14A01212000D14EB047D14AC4
:1023900000212000B0472000CF4B984729680EA8A5
:1023A000CE4B9847CE48CF4B02002832190030C997
:1023B00030C20C881480CC4D2A0068321C00C0CC7E
:1023C000C0C209881180C94A944660440C331C007D
:1023D0000A221900C64EB047C64BE8180A2221004F
:1023E000B047C54B1868FA218900C44B984701389B
:1023F000C34B586000229A6007321A60C148C24B32
:102400009847C248C24B9847C248C34B9847C348F5
:102410000430C34B9847C34B9847C34B9847C34BB3
:1024200098476C6D00254FE080229202C023DB05A7
:102430005A6157E00EA8BE4B98470600BD49BE4BF7
:10244000984700283DD0BD493000BB4B9847002835
:1024500000D187E0BA493000B74B9847002800D137
:1024600091E0B8493000B44B9847002806D0B649EF
:102470003000B14B9847002800D0A7E0B34B186854
:102480005968B34EB34B1B8805937823B24AD25C8C
:102490009200944B9B189B690493B04B1A685B683D
:1024A00002920393AE4B1A685B680092019302009C
:1024B0000B00AC493000AC4FB8473000AB4B9847ED
:1024C00002E0AB48A94B9847874B5B6D1B1BF92B70
:1024D0000BD9854B5C6D002DA6D080229202C023C3
:1024E000DB059A6101235D40EDB28C4B5B78002BDC
:1024F000EAD00022894B5A700EA89E4B98470028BC
:10250000E2D0864B9B78002B94D00023834A9370B3
:102510000CAA00261380013300219748974FB84733
:1025200080221201C023DB055A610DA8944B984705
:10253000944B3F215E5440229E54012058549E5497
:10254000013058549E540DA88F4B98475D488F4BCF
:1025500098470028FAD08E48844B98470EA8744BB1
:102560009847B1E77A4E544B02938A4B01938A4BBA
:1025700000938A4B8A4A642130008A4FB847300062
:102580007A4B9847A0E7724EFA239B000B931423D3
:102590000A93854A854B08920993002306930C33CE
:1025A0000593023B0493FC231B010393FA23DB00F6
:1025B000029300227E4B009201937E4A64213000F8
:1025C000784B98473000694B98477DE77A4930004F
:1025D000594B9847002805D078493000564B98470A
:1025E00000280FD15B4F02213800754EB047012102
:1025F00059487930B0473988490089B24748043092
:10260000B04761E76F4930004B4B9847002805D031
:102610006D493000484B984700282ED179234E4A07
:10262000D35C4C4A12884A4E684930004E4FB84736
:1026300030004E4B984700260DE07200374B9B1838
:102640009A88434F62493800474B98473800474BB8
:1026500098470136B6B23F4B1B88013B9E42ECDBEC
:102660005B002E4AD3189A88394E5A4930003E4BA7
:10267000984730003D4B984726E7574930002E4B8E
:10268000984700280AD0554930002B4B984700281E
:1026900000D0A9E05248354B984715E7514B984771
:1026A00012E7C04600E100E0FF00FFFFFFFF00FF70
:1026B00000ED00E015010000882C0020091E00003C
:1026C000102D0020942A0020B50E0000351B0000BC
:1026D000E50E0000411B0000890E000049060000C5
:1026E0004C1A0020C8A000004C0A0020DE0F000099
:1026F000316600001E10000000000020C1420000F2
:1027000010E000E014A10000891E00001CA10000E0
:10271000011F000020A10000511F0000CC0200207A
:10272000A11F0000AD220000E5220000C121000031
:10273000E106000030A10000DD6F000044A10000B0
:1027400084A10000ACA10000B4A10000182D00205D
:10275000282D00208C2D0020CC290020802C00204A
:10276000202D0020B8A10000996F0000951D0000E9
:1027700034A1000069060000702A0020110A000040
:10278000B508000000480041C30800005D0F0000CC
:1027900028A10000006CDC0278A100004CA1000020
:1027A00068A10000356F00006666666666660A40CE
:1027B000000049408CA10000D0A10000D8A1000079
:1027C000691D0000DCA10000E8A10000ECA10000F0
:1027D000F4A10000A8A1000088A10000F8A1000059
:1027E000FCA10000C91D0000B2493000B24B98475F
:1027F00000282DD0B1493000AF4B984700282AD08F
:102800000422AF493000AF4B984700282CD0052256
:10281000AD493000AB4B9847002838D00422AB4973
:102820003000A84B9847002844D1301DA84B98474A
:10283000A8480430A84B9847A84B1A685B68A84E74
:10284000A8493000A84FB8473000A84B98473BE64E
:10285000A74B984738E672B601215823A54AD154B0
:1028600062B6A34B98472FE6301DA34B9847994873
:102870000430994B9847A14B1A685B68984E994968
:102880003000994FB8473000984B98471CE6701DB0
:10289000994B984701217923994AD154974B1A684B
:1028A0005B688F4E8F4930008F4FB84730008F4B99
:1028B000984709E6052293493000824B9847002843
:1028C00012D1701D824B9847012179238C4AD15433
:1028D000824B1A685B68824E82493000824FB8474B
:1028E0003000824B9847EFE5042287493000754B52
:1028F0009847002812D1301D844B98477548043002
:10290000754B9847824B1A685B68754E7549300065
:10291000754FB8473000754B9847D5E505227D497E
:102920003000684B9847002812D1701D774B9847AC
:1029300001217923724AD154754B1A685B68684E3D
:1029400068493000684FB8473000684B9847BBE58E
:102950000422714930005B4B984700281ED1301D7E
:102960006E4B9847C0B2031C022800D9022378227C
:1029700063498B5457480430574B98477823604A33
:10298000D25C9200664B9B189A69554E654930009F
:10299000554B98473000554B984795E505226249BD
:1029A0003000484B984700281BD1701D5B4B98475F
:1029B000C0B2021C022800D90222D3B250497820AA
:1029C0000A547738792288549A00554B9B189A6993
:1029D000434E54493000444B98473000434B98478E
:1029E00072E552493000344B9847002805D05049D1
:1029F0003000314B9847002807D136480430364B19
:102A000098474C48394B98475EE54B4930002A4B74
:102A10009847002815D13A4F78260023BB552D48FA
:102A200004302D4B9847BA5D92003D4B9B189A6934
:102A30002B4E3C4930002C4B984730002B4B98478D
:102A400042E53E4930001C4B9847002815D12C4FD9
:102A500078260123BB551F4804301F4B9847BA5DA9
:102A600092002F4B9B189A691D4E2E4930001E4B29
:102A7000984730001D4B984726E5314930000E4BF2
:102A80009847002800D01FE51D4F78260223BB552C
:102A900010480430104B9847BA5D9200204B9B18A9
:102AA0009A690F4E1F4930000F4B984730000F4B6B
:102AB000984709E50CA20000DD6F000010A200009D
:102AC00014A20000FF6F000024A200002CA200004E
:102AD000011F0000CC020020A11F0000202D0020BB
:102AE000282D00201CA20000996F0000951D0000F9
:102AF0000D2200004C0A0020891E0000182D002025
:102B0000CC29002034A200003CA20000511F00008C
:102B1000802C002044A200004CA20000CF650000E1
:102B2000C8A0000054A2000058A2000060A200004B
:102B3000E89E00006CA2000070A2000074A20000D9
:102B400078A2000030B5204A4B0087B05B08934262
:102B50001CDD1E4A934205DD02000B0003F0DEF887
:102B600007B030BD02AA00F03FFA03231840049AD0
:102B7000059B012818D002280DD000281ED00298ED
:102B800003990124009401F0DDF9E9E70022002314
:102B900000F042FCE4E70298039900F03DFC80233A
:102BA0001B069C466144DBE700900298039901F004
:102BB000C9F980231B069C466144D1E7029803991A
:102BC00000F02AFCCCE7C046FB21E93FFFFFEF7F86
:102BD000F8B5264A4B005B0D9A1807000C00132A23
:102BE00010DC002A39DB224B13410B4230D0802409
:102BF00024031441002064189C4306002500300083
:102C00002900F8BD332A0CDD80230600DB000D000F
:102C10009A42F4D102000B0001F0BCFE06000D0048
:102C2000EDE7144D0600AC46012563446D42DD40DE
:102C3000AC4663460D000342E1D033239A1A323B7F
:102C400093401818874200D94C1C63469843D4E738
:102C500006000D000028CAD1D1E7C90FCC0700201B
:102C6000531CCAD1044B1C43C7E7C04601FCFFFFFD
:102C7000FFFF0F00EDFBFFFF0000F03FF0B5474600
:102C8000CE4680B58DB01D0006000F00140000F088
:102C900061F82E4B009001911B785BB2984601338E
:102CA00034D022002B002000290003F04DFB002827
:102CB0002CD132003B003000390003F045FB814647
:102CC000002823D1002200232000290001F07EFCEF
:102CD00000281BD0012302931D4B049605970393F4
:102CE0004B460A93434606940795002B15D1089648
:102CF000099702A801F072FA002819D00A9B0093E4
:102D0000002B1DD1089B099C009301940098019908
:102D10000DB00CBC90469946F0BD0023002219006E
:102D2000100002F047F9434608900991022BE0D1C8
:102D300003F054FC212303600A9B0093002BE1D095
:102D400003F04CFC0A9B00930360DBE72D0000209E
:102D5000ACA20000F0B55746DE464E4645469946C1
:102D60005B005B08E0B51D0083B08346040092461B
:102D7000170015432DD04E00914D76080196AE42B6
:102D800027DC554215438F4EED0F1D43B54220D829
:102D9000CD0F019EED07AC469E4207DC050088463C
:102DA0009E421FDB90421DD300D16FE0864D019EF5
:102DB000AE4220DC002E00D0B9E05D46002D00DCE4
:102DC000F8E0824D5E467600013DB346002EF9DC08
:102DD00016E04B4602F022FD02000B0002F0EAF87A
:102DE000050088462800414603B03CBC9046994601
:102DF000A246AB46F0BD764E019DB0462D1545442A
:102E0000714EB34212DC002B00D0A7E05646002ED4
:102E100000DCD1E06D4EB04601267642B346564600
:102E20007600D844B246002EF6DC04E01E15B0460B
:102E3000674EB246D044674EB5426ADB802609032E
:102E4000090B76030E436349884554DB4B468020CB
:102E50001B031B0B400318434346ED1A002D1ED0E5
:102E6000BC429B41311A5B42C91A09D40B00E41BD6
:102E700023430BD0E60F49008E196400013DEDE7B6
:102E80007100E60F8E196400013DE7E76346DA0F33
:102E9000514BD2009B181D685B689846A2E7BC4264
:102EA0009B41301A5B42C01A72D4E41B03002343D7
:102EB000ECD0454B1A00984209DCE30F4000C018E3
:102EC00001235B4299466400C8449042F5DD414BC2
:102ED000984551DA42469B1A142B5BDC20222100D4
:102EE0000400D21AD940944018410C436146014372
:102EF0002500884676E74046091A1F2928DC20204D
:102F00001700401AC7408B4038008A40184317000A
:102F1000A2E7741B1F2C15DC20210600091BCE40E4
:102F20003100019EA040A64004000E438BE7019DA6
:102F3000ED02A846274D46467600013DB046002EDC
:102F4000F9DC5DE725490024491B884006007AE743
:102F5000224B00271B1A9A4010007DE7DE02B24682
:102F60001C4EB04601267642B34656467600D844FB
:102F7000B246002EF6DC5EE7194B1A4999466346C5
:102F8000414448441843090508432500804629E781
:102F900030008BE71F2B06DC2022DC40D31A984040
:102FA00004436046A2E742460C4B9B1A18410400BA
:102FB00060469BE7054D23E7044EB0463BE7C0461D
:102FC000FFFFEF7F0000F07FFFFF0F00EDFBFFFF33
:102FD00001FCFFFF02FCFFFFB8A20000E2FBFFFFC5
:102FE0000000F0FFFF030000F0B54E464546DE4608
:102FF0005746E0B5D44B4C008FB0904689466408E4
:103000009C4200DC87E0D14B9C4222DCD04A002964
:1030100000DCBFE1CF4B02F081FECE4B06000F007B
:103020009C4200D194E0CC4ACC4B02F077FE0200E7
:103030000B00414630000A604B60390002F06EFE22
:10304000C64BC54A02F06AFE434601259860D96026
:103050006BE0C34B9C4200DC97E0C24B9C426CDCB3
:10306000C14A231592469A4451460905631A19002C
:103070001D00040003F088F903F0BAF902000B0008
:10308000200029000892099302F048FE0022B74B65
:1030900002F0C4FB0F00060003F076F903F0A8F974
:1030A00004000D0002000B00300039000A940B955B
:1030B00002F034FE0022AD4B02F0B0FB00220023F0
:1030C0000C900D9101F082FA002800D181E10023DB
:1030D00000222000290001F079FA434243410133E4
:1030E000A34A41460192022208A80092524600F0EB
:1030F000ADFA4B460500002B17DA80224346120634
:10310000944642465B68454263445360D3684246F6
:103110006344D36009E00B00020041460A604B6043
:103120000022002300258A60CB6028000FB03CBC41
:1031300090469946A246AB46F0BD0B00020002F055
:10314000EDFD434600259860D96018605960ECE7B2
:10315000D322824B520502F0E1FD864A864B0D00D8
:10316000040002F0DBFD02000B00414620000A6073
:103170004B60290002F0D2FD7F4B7E4A02F0CEFD6B
:10318000434601259860D960CFE700F08BFF7B4A6A
:103190007B4B06000F0002F041FB0022794B01F04F
:1031A000F9FB03F0F1F8050003F022F9684A694BD6
:1031B0000490059102F032FB02000B003000390050
:1031C00002F0ACFD644A06000F0004980599634BB9
:1031D00002F024FB029003911F2D33DC6B1E6A4A20
:1031E0009B009B589C422DD002000B003000390000
:1031F00002F094FD0B008A460200414683460A60B5
:103200004B605A4653463000390002F087FD029A5F
:10321000039B02F083FD44460B000200A260E360C2
:103220004B46002B00DB80E75B46236080231B06B8
:103230005344636080231B069C466144A060E160A8
:103240006D4272E7029A039B3000390002F066FD7E
:103250000B008A46020041460A604B6053465B0001
:1032600024155B0D8346E31A102BCADD04980599DB
:10327000D3223A4B520502F0D1FA02900391020098
:103280000B003000390002F049FD06900791020062
:103290000B003000390002F041FD029A039B02F05E
:1032A0003DFD06000F0004980599324A324B02F0AA
:1032B000B5FA32003B0002F031FD069E079F020086
:1032C0000B00300039000292039302F027FD0B003F
:1032D0008A46020041460A604B6053465B005B0D24
:1032E0008346E41A06960797312C8ADD04980599DF
:1032F000B822214B920502F091FA03000C00020063
:103300000293039430000B00390002F007FD020025
:103310000B0006000F000698079902F0FFFC029AC6
:10332000039B02F0FBFC194A029003910498059953
:10333000174B02F073FA029A039B02F0EFFC0200B3
:103340000B000292039351E7FB21E93F7BD9024036
:1033500000004054FB21F93F3163621A61B4D03D53
:10336000FB213941FFFFEF7FEAFBFFFF00007041C7
:1033700048A300007370032E8A19A33B83C8C96D4C
:10338000305FE43F0000E03FC8A20000C1492025B3
:103390009A837B391B4B01F0FDFA1A4B06000F0094
:1033A0009C4218D0184A194B01F0F4FA02000B00A5
:1033B000414630000A604B60390002F0AFFC124A0F
:1033C000124B01F0E7FA012543466D429860D9603F
:1033D000ABE6032384E6D3220C4B520501F0DAFA64
:1033E0000B4A0C4B04000D0001F0D4FA02000B0054
:1033F000414620000A604B60290002F08FFC044A1D
:10340000044BDEE7FB21F93F3163621A61B4D03D22
:103410007370032E8A19A33BF0B54746CE4680B59C
:1034200087B000920193754B4F00814688467F0814
:103430009F4263DC02F0A8FF002800D1DAE04A4690
:1034400043464846414602F0E9F904000D006C4A43
:103450006C4B02F0E3F96C4A6C4B01F09BFA2200D2
:103460002B0002F0DBF96A4A6A4B02F057FC22009B
:103470002B0002F0D3F9684A684B01F08BFA220066
:103480002B0002F0CBF9664A664B02F047FC2200A3
:103490002B0002F0C3F9644A644B01F07BFA22006E
:1034A0002B0002F0BBF9029003910022604B200038
:1034B000290002F0B3F9029A039B06000F002000D6
:1034C000290002F0ABF9009A019B04000D00484668
:1034D000414602F0A3F902000B002000290002F08F
:1034E0001DFC02000B003000390002F017FC020046
:1034F0000B0000204F4902F011FC70E002000B00AD
:1035000002F08CF904000D003D4A3E4B02F086F9B2
:103510003D4A3E4B01F03EFA22002B0002F07EF9BC
:103520003B4A3C4B02F0FAFB22002B0002F076F9FA
:10353000394A3A4B01F02EFA22002B0002F06EF9C4
:10354000374A384B02F0EAFB22002B0002F066F902
:10355000354A364B01F01EFA2B00220002F05EF9CC
:10356000354B029003919F429FDD344B00229F42D6
:103570003ADC334900207B182E4916001F0002F068
:10358000CDFB049005910022294B2000290002F078
:1035900045F932003B0002F0C1FB029A039B060092
:1035A0000F002000290002F039F9009A019B040065
:1035B0000D004846414602F031F902000B002000A0
:1035C000290002F0ABFB02000B003000390002F0D2
:1035D000A5FB02000B000498059902F09FFB07B0C1
:1035E0000CBC90469946F0BD164B002604920593FC
:1035F000154FC8E700200F49F1E7C046FFFF3F3EE7
:10360000D43888BEE9FAA8BDC4B1B4BD9EEE213E4F
:10361000AD529C804F7E923E9015CB19A001FA3E90
:103620007751C1166CC1563F4C5555555555A53F60
:103630000000E03F0000F03F3233D33F0000E93F9D
:103640000000E0FF0000E73F0000D23FF0B5DE469B
:103650004E4645465746E0B5A34CA5440791190090
:103660001400A49A0993A14B9200D2580B00039026
:10367000013BE01E18211D0016000692029300F087
:10368000A9FEC3430200DB171A40130011000133E7
:103690000B929A009B1ADB001B1904934C1B7619A2
:1036A00018D4A59BA5009C46361922AF6544013667
:1036B00007E0286802F09CFE013403C70435B442D9
:1036C00008D0002CF5DA00200021013403C70435AE
:1036D000B442F6D1069B002B01DA00F001FC72AB7C
:1036E00019008B4622AA9146069A08930132D2000D
:1036F0009344039A9A469046029BDB009944083310
:103700009844029B002B00DA8DE24C4600260027ED
:10371000039D2268636803CD02F080F802000B006D
:103720003000390001F036F9083C06000F0045452D
:10373000EFD15346C0C39A4608239C46E144DA457C
:10374000DFD1069A6A4913008C4663449B000EA899
:103750001900844661440D910399043B8B466344F0
:103760000C93099B0092DB009B44009A0898D300BD
:1037700019000A938C46030063441E685F68002AA0
:1037800034DD0EAB994613005A4A80469446634492
:10379000DB00984470AB9A460022574B300039004A
:1037A00002F03CF802F0F0FD02F022FE0022534B42
:1037B00004000D0002F032F802000B003000390066
:1037C00002F0ACFA02F0E0FD4B4601C399464346D5
:1037D00020001A685B68290001F0DCF808235B42CE
:1037E0009C46E04406000F00D045D5D1049B300034
:1037F0001A003900994600F0F3FCFF2300229B05D4
:1038000004000D0002F00AF800F050FC00223C4BCE
:1038100002F004F802000B002000290002F07EFAFA
:103820000D00040002F0B0FD804602F0E1FD020050
:103830000B002000290002F071FA0F004946060033
:10384000002900DC10E1009B18205A1E92000EABEC
:103850009B58401A1D000541A84485405D1B0EABD6
:103860009D501722521A1541002D00DC7DE00123E6
:103870009C46009BE044002B48DD0E9C002C00D1B0
:103880004BE301220023002180204004041B0EA8EA
:1038900044500099914218DD92000EA989580EAC4F
:1038A0000591059817490233081AA050009A9A42C8
:1038B0000BDD0EAA9446009A9B009000634460447E
:1038C0001A688A1A04C38342FAD1049B0124002B8C
:1038D00021DC022D49D132003B0000200A4902F0D0
:1038E0001DFA06000F0032E094FDFFFF90A40000D7
:1038F000FFFFFF3FFFFFFF1F0000703E0000704111
:1039000000002040FFFFFF000000F03F049B002468
:10391000002B00DC92E2049B012B00D17BE2022B06
:1039200009D1009B0EA95A1E92000EAB9B5805931D
:103930009B029B0A8B50022D17D132003B000020C6
:10394000BF4902F0EBF906000F00002C0DD0049ADD
:103950000020BB4900F044FC02000B00300039009D
:1039600002F0DCF9022506000F00002300223000DF
:10397000390000F02BFE009B002800D162E206997E
:103980005A1E914210DCAF490D988C460EA9634433
:103990008C4600219B0063441C68043B2143834206
:1039A000FAD1002900D084E0069B0EAA013B9B00BF
:1039B000D358002B00D07CE201220C9B043B5968B9
:1039C00001320029FAD000990B008C460133624481
:1039D0000592934242DC0B9A9446A59A6344924620
:1039E000099A9B00944622AA90469A44009B089A02
:1039F0006344DB0098440A9B94469946059BE14446
:103A0000DB00634400935346186802F0F1FC434620
:103A100018605960029B002B23DB444600260027D8
:103A2000039D2268636803CD01F0F8FE02000B00DD
:103A30003000390000F0AEFF083C06000F005D4585
:103A4000EFD14B469E60DF6004239C460433E24482
:103A50009C46009BE144E0449945D4D1059B0093EA
:103A600083E600260027ECE7049B002B06D1009B91
:103A70000EAA013B9B00D558ED15F5E60022724BCE
:103A80003000390000F0C6FD0025002800D16CE7A9
:103A900001239C46009BE0440225002B00DDECE660
:103AA00032003B000020664902F038F906000F00A2
:103AB0005BE743460993049B0EA8183B1900049347
:103AC0009300C35803950292002B0FD15D48130059
:103AD00084460EA8634484469B006344043B5868B4
:103AE000013A18390028F9D002920491049A002072
:103AF000534900F075FB029B04000D00002B00DA17
:103B0000D9E10EAA94469E00DB0066449C46089AC2
:103B1000B046624416000493009270AF43461868A2
:103B200002F066FC22002B0001F078FE474B30606B
:103B3000716000222000290001F070FE04235B4226
:103B40009C46083E04000D00E044BE42E6D100233E
:103B50009A464AAB9946069B05969B465B460026CD
:103B60000027002B21DB8020394B009D9846C005A3
:103B7000384900260027002408E008239C46083521
:103B8000E044544511DC4346186859682A686B685C
:103B900001F044FE02000B003000390000F0FAFE94
:103BA000013406000F00A345E7DA5346DB004B441F
:103BB0001E605F6001239C46009B059A083BE2441F
:103BC00000939A42CAD1A49B022B00DD7AE0002B1D
:103BD00042DC1CD1049B00274B441E00002448AD4E
:103BE000326873683800210000F0D4FE083E0700F8
:103BF0000C00B542F4D1039B002B03D080231B069D
:103C00009C4664443A00230007990A604B600720F1
:103C1000099B18409B239B009D443CBC90469946C1
:103C2000A246AB46F0BD534600260027C0C39A46C5
:103C300008239C46E144DA4500D062E581E5C046B0
:103C40000000F03FFFFFFF3F0000E03F0000703E3C
:103C500050A40000FB21F93F049B00204B441E00B0
:103C6000002148AF32687368083E00F093FEBE4200
:103C7000F8D1039B002B00D1B8E08023079A1B06E4
:103C8000CB18106053600B0002004A984B9902F069
:103C900045F8029B002B0BDD01264CAF0CCF00F04A
:103CA00079FE029B0136B342F8DA039B002B03D066
:103CB00080231B069C4661440B00020007998A6022
:103CC000CB60A4E7A49B032BA1D1029B002B00DCBB
:103CD00020E1994A049B94464B441E685F68029B0E
:103CE00063449B46DB004B44984648AB9A464346A8
:103CF0005C681B681800210032003B0000900191B5
:103D000000F048FE04000D0002000B00009801992D
:103D100002F004F83B00320000F03CFE434698609D
:103D2000D9601C605D6008235B429C46E04426002D
:103D30002F00C245DBD1029B012B00DCEAE0049B93
:103D4000C8464B441E685F685B46DB009B46D84410
:103D500043465C681B681800210032003B0000905D
:103D6000019100F017FE04000D0002000B00009806
:103D7000019901F0D3FF3B00320000F00BFE4346F7
:103D80009860D9601C605D6008235B429C46E044FB
:103D900026002F00C145DBD15D46002700240835F1
:103DA0004D444CAE2A686B683800210000F0F2FDEB
:103DB000083D07000C00AE42F4D1039B002B00D15C
:103DC00091E08021079A4A9B090613604B468C4676
:103DD0005B686444634453604B469B68176193601F
:103DE0004B46DB6854616344D36010E702000B006C
:103DF000079C226063600B0002004A984B9901F017
:103E00008DFF029B002B00DD46E70B0002000799A7
:103E10008A60CB60FBE6009B0EA95A1E92000EAB97
:103E20009B5805935B025B0A8B5084E5009A013333
:103E30009A4276D1049B002B00DD6CE5022D00D068
:103E400093E52DE6994643460993049B30005A4278
:103E50003900039500F0C4F90022384B04000D002E
:103E600000F0D8FB002830D0354B0022200029007C
:103E700001F0D4FC02F088FA4A460600970002F0EE
:103E8000B7FA00222D4B01F0C9FC02000B00200004
:103E9000290001F043FF02F077FA0EAAD0514A46FA
:103EA000049B013218330292049393000EAAD65059
:103EB0001CE6012287E5A49B022B25DC002B38DCC5
:103EC00000D0A4E60027002495E64B4620002900F8
:103ED0009E0002F059FA0EAB98514B46029305E64C
:103EE00072AB08932DE407994A9A4B9B0A604B608A
:103EF0004B469A68DB68009201938A60CB603A0077
:103F000023000A614B6182E64AAB9946A49B032BCE
:103F100000D07CE6002700244FE7009A0123012A05
:103F200088DD99000EAA5458002C00D17EE75A1C57
:103F3000AAE4002000219CE6FFFFFF1F0000704163
:103F40000000703EF0B5CE46474680B587B000927F
:103F50000193464A4B00814688465B08934205DC44
:103F600002F012FA4146031E484666D04A464346CE
:103F70004846414601F052FC04000D0002000B00CF
:103F80004846414601F04AFC394A3A4B06000F00C8
:103F90002000290001F042FC374A384B01F0BEFEF8
:103FA00022002B0001F03AFC354A364B00F0F2FCBF
:103FB00022002B0001F032FC334A344B01F0AEFEFC
:103FC00022002B0001F02AFC314B324A00F0E2FCC7
:103FD0000E9B02900391002B34D00098019900228F
:103FE0002D4B01F01BFC029A039B049005913000BD
:103FF000390001F013FC02000B000498059901F050
:104000008DFE22002B0001F009FC009A019B01F0BB
:1040100085FE224A04000D00214B3000390001F0DA
:10402000FDFB02000B002000290000F0B3FC0200A1
:104030000B004846414601F071FE07B00CBC9046AB
:104040009946F0BD02000B002000290001F0E6FBBC
:10405000124A134B01F062FE32003B0001F0DEFB1E
:104060004A46434600F096FCE7E7C046FFFF3F3E66
:104070007CD5CF5A3AD9E53DEB9C2B8AE6E55A3EF2
:104080007DFEB157E31DC73ED561C119A0012A3F8E
:104090001111813FA6F810110000E03F4955555518
:1040A0005555C53F49004B0819007047454AF8B5BA
:1040B000574692464B005B0D9A444E464546DE46B7
:1040C0005246E0B50C0005000E0089460700132A91
:1040D00022DC002A47DB52463B4B134198460B003B
:1040E00042461340034311D0384A394B00F052FC8A
:1040F0000022002300F084FA002805D0002C41DBC8
:104100004E46434600279E43380031003CBC904653
:104110009946A246AB46F8BD5246332A08DD8023B5
:10412000DB009A45F2D102000B0000F033FCEDE712
:10413000284A9446012263445242DA40934602429E
:10414000E4D0224A224B00F025FC0022002300F09C
:1041500057FA0028D8D0002C1ADB5B464E469F4306
:1041600038003100D2E7194A194B00F013FC002245
:10417000002300F045FA0028C6D0002C16DB0027EB
:104180000026C1E7802352465B0313419944B7E7F9
:104190005346142B12D03423524601279B1A9F40BA
:1041A0007F19AF429B415B429944D6E764006408A3
:1041B00025430027002DA7D0074EA5E7133B9C46BB
:1041C000E144CAE701FCFFFFFFFF0F009C75008878
:1041D0003CE4377EEDFBFFFF0000F0BF002070479E
:1041E0004B0070B55B0D14000A00002B1AD14B0078
:1041F0005B08034315D00022224B01F00FFB224B3A
:104200000A009C4222DB4B005B0D363B1F4DE3183E
:10421000AB4220DC002B0DDD1D4C1B0522401A4358
:10422000110070BD1B4DAB42F0D102000B0000F03D
:10423000B1FBF6E71D00353518DA174B02009C423A
:104240000ADC0B001548164900F032F8134A144BEB
:1042500001F0E4FAE5E702000B001248124900F011
:1042600027F8104A104B01F0D9FADAE7084C363338
:1042700022401B051343190000220C4B01F0CEFA1B
:10428000CFE7C04600005043B03CFFFFFE070000F0
:10429000FFFF0F80FF07000050C3000059F3F8C272
:1042A0001F6EA5019C7500883CE4377E0000903CA1
:1042B00030B54A00DB0FDB0752081A43110030BD4E
:1042C000002243088B4274D303098B425FD3030A55
:1042D0008B4244D3030B8B4228D3030C8B420DD368
:1042E000FF22090212BA030C8B4202D312120902F6
:1042F00065D0030B8B4219D300E0090AC30B8B4234
:1043000001D3CB03C01A5241830B8B4201D38B03E1
:10431000C01A5241430B8B4201D34B03C01A524186
:10432000030B8B4201D30B03C01A5241C30A8B42C9
:1043300001D3CB02C01A5241830A8B4201D38B02B4
:10434000C01A5241430A8B4201D34B02C01A524158
:10435000030A8B4201D30B02C01A5241CDD2C309CA
:104360008B4201D3CB01C01A524183098B4201D346
:104370008B01C01A524143098B4201D34B01C01A31
:10438000524103098B4201D30B01C01A5241C308A9
:104390008B4201D3CB00C01A524183088B4201D318
:1043A0008B00C01A524143088B4201D34B00C01A04
:1043B0005241411A00D20146524110467047FFE770
:1043C00001B5002000F0F0F802BDC0460029F7D08A
:1043D00076E7704703460B437FD4002243088B42A5
:1043E00074D303098B425FD3030A8B4244D3030B7C
:1043F0008B4228D3030C8B420DD3FF22090212BA41
:10440000030C8B4202D31212090265D0030B8B42BC
:1044100019D300E0090AC30B8B4201D3CB03C01AA6
:104420005241830B8B4201D38B03C01A5241430B81
:104430008B4201D34B03C01A5241030B8B4201D371
:104440000B03C01A5241C30A8B4201D3CB02C01ADC
:104450005241830A8B4201D38B02C01A5241430A54
:104460008B4201D34B02C01A5241030A8B4201D343
:104470000B02C01A5241CDD2C3098B4201D3CB01EA
:10448000C01A524183098B4201D38B01C01A524199
:1044900043098B4201D34B01C01A524103098B429D
:1044A00001D30B01C01A5241C3088B4201D3CB0088
:1044B000C01A524183088B4201D38B00C01A52416B
:1044C00043088B4201D34B00C01A5241411A00D21B
:1044D00001465241104670475DE0CA0F00D0494284
:1044E000031000D34042534000229C4603098B42F4
:1044F0002DD3030A8B4212D3FC22890112BA030A7C
:104500008B420CD3890192118B4208D389019211FD
:104510008B4204D389013AD0921100E08909C30982
:104520008B4201D3CB01C01A524183098B4201D384
:104530008B01C01A524143098B4201D34B01C01A6F
:10454000524103098B4201D30B01C01A5241C308E7
:104550008B4201D3CB00C01A524183088B4201D356
:104560008B00C01A5241D9D243088B4201D34B0071
:10457000C01A5241411A00D20146634652415B10B3
:10458000104601D34042002B00D549427047634694
:104590005B1000D3404201B5002000F005F802BDD9
:1045A0000029F8D016E770477047C0468446101CB3
:1045B00062468C46191C634600E0C0461FB501F0F8
:1045C000CBF8002801D40021C8421FBD10B501F06E
:1045D00025F84042013010BD10B501F0BDF80028AB
:1045E00001DB002010BD012010BDC04610B501F058
:1045F000B3F8002801DD002010BD012010BDC04629
:1046000010B501F045F8002801DC002010BD0120A4
:1046100010BDC04610B501F03BF8002801DA0020BB
:1046200010BD012010BDC04670B500220C4B040027
:104630000D00FFF7EFFF002804D12000290001F052
:10464000A3FE70BD064B00222000290001F066FB8E
:1046500001F09AFE80231B069C466044F1E7C046A9
:104660000000E041F0B557464E46DE464546E0B50F
:1046700044024300C60F83B00F1C640A1B0EB246EF
:1046800053D0FF2B27D08022E400D20414437F2292
:10469000524290469844002399469B467D027800FA
:1046A000FB0F6D0A000E009324D0FF2846D0802314
:1046B0000021ED00DB041D437F384746381A4F4682
:1046C0000F43BF00B9463300009A874F53404A4614
:1046D000BA5801939746002C4ED108239946F733D8
:1046E0009846FD3B9B467D027800FB0F6D0A000E4D
:1046F0000093DAD1002D26D1002001213300009A49
:104700007A4F53404246101A4A460A439200BA581A
:104710001D009746009B2C009A468B465B46022B59
:1047200031D15346FF21002438E0002C17D1042357
:1047300099460023984601339B46AFE7FF20002DA2
:104740000BD10221DAE7280001F01EFF431F9D4034
:1047500076235B42181A0021AFE70321ADE7200062
:1047600001F012FF431F9C4076235B421B1A9846C0
:10477000002399469B4691E70C239946F3339846CC
:10478000FC3B9B468AE7032B00D1A5E05546012B55
:1047900000D081E00123002100242B406402C905E0
:1047A000600ADB070843184303B03CBC90469946B7
:1047B000A246AB46F0BD80240023E403FF21EDE7D1
:1047C000FF210024EAE70123591A1B2966DD019A1B
:1047D000134000210024E1E78023DB031C4238D092
:1047E0001D4251D01C436402640A3300FF21D5E707
:1047F00063016C01A3423BD21B2600210138012535
:104800001F0049005B00002F01DB9C4201D81B1BED
:104810002943013E002EF3D11C00631E9C410C4332
:1048200001007F310029CEDD630704D00F23234030
:10483000042B00D00434230103D501002C4B80311C
:104840001C40FE290DDD0123019AFF2113400024A5
:10485000A4E78023DB031C436402640A3300FF21C6
:104860009CE70123019AA401640AC9B2134095E7A9
:104870001B1B1A260121C2E7009B8B469A46002487
:104880004CE76302E5D500258024E4032C43640251
:10489000640A009BFF2181E70195C1E723002020E6
:1048A000CB40411A8C40611E8C411C43630704D0ED
:1048B0000F232340042B00D00434630105D50123CA
:1048C000019A01211340002468E70123019AA40101
:1048D000640A1340002161E78023DB031C43640268
:1048E000640A5346FF2159E7A0A40000E0A4000099
:1048F000FFFFFFF770B5002830D0C317C4185C4025
:10490000C50F200001F040FE9E231B1A962B0DDCE4
:104910009622D21A94402A006402640ADBB264022E
:10492000DB05600AD2071843104370BD992B19DCD0
:104930009922D21A002A29DD94402200144C1440F6
:10494000510704D00F210A40042A00D00434620128
:1049500013D4A401640ADBB22A00E0E7002200239A
:104960000024DCE705222100121AD140B922D21A14
:104970009440621E94410C43DAE7054B2A001C4028
:104980009F23A4011B1A640ADBB2C8E72200D5E703
:10499000FFFFFFFBF8B54546DE4657464E460C0383
:1049A000E0B54E00C90F88460D00610A440F0C4364
:1049B000C70019035800DB0F9B464B0A510F0B43EE
:1049C000760D400D1900D200D84500D1AEE0351A61
:1049D000002D00DCF6E000280FD1134300D1DBE00E
:1049E0006B1E002B00D037E1BA1A9742BF41641A00
:1049F0007F42E41B0126170024E0C64B9E424DD0A7
:104A000080231B041943382D00DD07E11F2D00DD35
:104A100038E12020431B9A460B00504683409946BC
:104A200013004846EB401843030050468240501E96
:104A30008241E9401A43BA1A611A9742A441170009
:104A400064420C1B230262D56402650A002D00D16A
:104A5000DFE0280001F098FD0300083B1F2B00DD7C
:104A6000D2E020223C00D21A9D40D4409F402543F2
:104A70009E4200DDC4E09E1B731C1F2B00DDF1E095
:104A8000202238002900D21AD840914097402C00AB
:104A90000143781E8741DC4000260F437B0709D085
:104AA0000F233B40042B05D03B1DBB42BF417F423F
:104AB000E4191F0023022CD5964B01369E4200D1EB
:104AC0009AE04546944BFF081C4060077605640257
:104AD0000743240B760D00212403230B0C0D8F4A72
:104AE00024051C431440330523435B00ED075B089A
:104AF0002B43380019003CBC90469946A246AB4671
:104B0000F8BD6446044300D111E2040067467B0708
:104B1000C6D145466007FF080743E4087D4B9E4227
:104B200030D024037605240B760DD4E7331A9A4649
:104B3000002B78DD002831D076488642AED0802028
:104B4000000401435346382B00DCE9E00A43511EC0
:104B50008A410021D219BA42BF4109197C4217008B
:104B60000C192302D3D56B4B01369E4200D13AE19A
:104B70000120694B1C407B0807401F43E0070743A7
:104B800064088BE723003B4300D1CBE18022120372
:104B900014432403240B9EE72E007FE708001043F4
:104BA00000D1B4E0581E002800D0DEE0BA18BA42A6
:104BB0009B4164185B42E418170001262302A6D526
:104BC0000226D5E7002D6ED1701C4005400D01284E
:104BD00000DCF9E0B81A844687428041E51A404279
:104BE0002D1A280200D489E0D71BBA4292411C1B1F
:104BF0005242A51AD84629E74546002400276AE70D
:104C0000454CF61A2C4049E73D00283885400027DE
:104C10002EE7380001F0B8FC20301DE70A43511E92
:104C20008A41002107E7002B00D0F3E0701C430508
:104C30005B0D012B00DCADE0364B984200D1D1E09A
:104C4000BA18BA42BF4164187F42E419E707520814
:104C500017436408060021E72E48854200D193E0FF
:104C60001D00D0E629001F3EF140202B00D18DE031
:104C70004022D31A9D402F437D1EAF4100240F4395
:104C8000002644E72B000800203BD8400300202DDD
:104C900000D17DE04020451BA9400A43511E8A41B6
:104CA00000211A43C7E6002E50D01A4EB04257D00A
:104CB00080266B429946360434434B46382B00DD40
:104CC000D6E01F2B00DD35E12026F51A2600AE4088
:104CD000B2463E00DE40AC46350056462E436546A1
:104CE000AF407D1EAF41DC403743D71BBA429241F3
:104CF0000C1B5242A41A0600D846A3E66446674637
:104D00002C4300D0A2E600250026002706E71E005F
:104D1000C4E6C046FF070000FFFF7FFFFFFF0F80D4
:104D20001F2B63DC2020C31A080098409C46834652
:104D300053461000D84003005846184363469A4033
:104D4000531E9A4153460243D94003E726003E438F
:104D500006D0EB439946002BC7D0944EB042ACD15D
:104D60000C0017000600D84698E6904B9A450BD0E9
:104D70008246E7E6002800D09EE01800104300D1EC
:104D8000E9E01C001700D846884E87E6002572E748
:104D9000002182E723003B43002E00D0ABE0002B34
:104DA00000D1E7E00B00134300D177E6BA18BA420E
:104DB000BF4164187F42E419230200D4F2E07C4B27
:104DC00017001C40060069E620003843002ED1D1B0
:104DD00000285BD11C00144300D1A8E01C00170080
:104DE000D8465BE606000024002797E650460B00F5
:104DF0002038C34099465346202B00D195E04023EC
:104E000050461B1A99400A43511E8A414B460021C5
:104E10001A439FE6002E30D126003E4367D0DB4385
:104E20009A46002B1CD0614EB04260D05346382BBE
:104E300000DD96E01F2B00DD9FE02026F31A260000
:104E40009E409C46B34653463E00DE4033005E46DD
:104E50001E4363469F407B1E9F415346DC403743C1
:104E6000BF189742924164185242A418060078E68F
:104E700027437C1EA741002437E74C4EB04236D072
:104E800080265B4236049A463443CFE7180010432D
:104E900000D103E6B81A84466745AD41E01A6D4279
:104EA000401B050200D42CE6D71BBA4292411C1BC2
:104EB0005242A41AD846F1E51800104300D163E726
:104EC000F808670707438020E4080003044208D07D
:104ED000DD08054205D1D208590711430F002C0007
:104EE000D8467B0FE4001C43FF00304ED6E50C0093
:104EF00017000600D2E5002B38D00B00134300D179
:104F000042E7F808670707438020E40800030442EB
:104F1000E7D0CB080342E4D1D208490711430F0080
:104F20001C00DEE700270024D5E500216BE7002503
:104F30000027F3E54E462500203EF5404B462E0067
:104F4000202B2DD04025ED1AAC4027437C1EA741D5
:104F500000243743C9E6802400252403134E00278C
:104F6000DCE527437C1EA741002479E70C001700ED
:104F70000E4E93E50C00170090E556462300203EA8
:104F8000F34099465346202B0ED0402356469B1B98
:104F90009C4027437C1EA7414B4600241F435FE7EC
:104FA0000024D2E71700B2E50024F2E7FF07000073
:104FB000FFFF7FFFF0B557464546DE464E46E0B55B
:104FC0004C000E0387B0834692461D008046360B88
:104FD000640DCF0F002C4FD06F4B9C4235D08023F7
:104FE000420F1B04F600134333439946C30098460F
:104FF0006A4B00269C460023644403932B031B0B3F
:105000009B466B00ED0F50465B0D01955ED0624AEA
:10501000934253D05A46D1008022400F12040243DB
:105020000A4393465246D1005C4A944600226344A8
:105030003800684084460290E41A16430F2E00D9C7
:10504000B4E0574BB6009B599F4603003343994643
:105050006CD100239846023308260393CEE7CB4653
:105060004146039A0197022A65D1019B4A4C9C460E
:105070000023002298466BE00300334399464ED04C
:10508000002E00D1BCE1300001F07EFA03000B3BA2
:105090001C2B00DDACE11D22D31A5A460100DA4078
:1050A00008398E401300334399465B468B4098463F
:1050B00000233C4C0026241A03939FE751465A468E
:1050C000114329D1002293460232B1E759460143E8
:1050D0001ED05B46002B00D19EE1584601F054FAE9
:1050E00003000B3B1C2B00DD8FE102005946083A00
:1050F00091408B461D21CB1A5146D9400B00594691
:105100000B4351469B469140264B00221B1A8FE7CA
:10511000002301229B468BE75146032288E70023A8
:105120009846013304260024039367E70323B1461E
:1051300003930C2662E7032A00D15CE2019B012A5B
:1051400000D0E4E113409C4600230024002298464E
:1051500000211203130B0A0D12051A432305124CEA
:1051600040462240134362465B00D2075B0813436C
:10517000190007B03CBC90469946A246AB46F0BD2C
:10518000002380229C4612039846034CE0E700234C
:10519000014C00229846DBE7FF07000001FCFFFFFF
:1051A00020A500000DFCFFFFFFFF0F80D94500D9AF
:1051B00039E100D134E1002346464D469A46013C90
:1051C0005B460A0E1B021A430B02170C03931304CF
:1051D0001B0C3900280090460193FFF771F802007C
:1051E000019B83465A43280039009146FFF7EEF8A9
:1051F000350C09040D43A9450DD95B464544013BD7
:10520000A84500D93AE1A94500D837E102235B421D
:105210009C464544E3444B46EB1A3900180004937E
:10522000FFF74EF8019B0500434339000498994667
:10523000FFF7CCF8330409041B0C0B43994509D93B
:1052400043446A1E984500D91AE1994500D817E1F0
:10525000023D43444A469B1A5A4612042A43039984
:105260009346100C0A0C914609045A46090C4E4606
:105270000D001204120C45430591514372437043D3
:1052800052190E0CB218954203D980256D02AC4616
:105290006044150C09041204090C281852188342A2
:1052A00000D2CEE000D1C8E01D1A53469E1AB24586
:1052B00092415242AB1A9A46984500D117E1390003
:1052C0001800FEF7FDFF019B0500434339005046DF
:1052D0000493FFF77BF804980B04310C19438842C0
:1052E00009D941446B1E884500D907E1884200D89E
:1052F00004E1023D4144049BCB1A18003900049399
:10530000FEF7DEFF019B8246434339000498019378
:10531000FFF75CF801980B043104090C194388422B
:105320000DD953464144013B884500D9E8E0884205
:1053300000D8E5E002235B429C464144E244019BE5
:105340002D04CE1A51462943059D4F462A000B04D1
:10535000080C1B0C5A4345437B4378435B19170CDD
:10536000FB189D4203D980256D02AC4660441D0C9C
:1053700012041B04120C28189B18864200D293E0DA
:1053800000D18EE001231943A04BE318002B00DC71
:1053900099E04A0700D09EE05A46D20106D55A4607
:1053A0009B4B1A4080239346DB00E318994A9342B3
:1053B00068DD0123029A984C1A40002394469846CF
:1053C0000022C5E680224B46120313420AD05B46F8
:1053D000134206D11A431203120BAC4688468E4C78
:1053E000B6E64B461A431203120BBC468A4CAFE694
:1053F00003005A46283B9A4000239146984657E6B8
:10540000584601F0C1F8203040E603005246283BE0
:105410009A400021934677E601F0B6F820305FE627
:10542000884500D2C7E64B46DE075D0843465B0869
:105430001E434346DB079A46C2E60025924500D349
:1054400033E7039E5946B446E244B245AD416D424E
:105450004544EB180139984507D2984200D97FE0BE
:1054600000D1BCE01D1A8B461FE79845FAD1039D79
:105470005545F2D943468B461D1A16E79B46CAE6A8
:105480001500E7E65A46C90852070A435B059046ED
:105490005C0D5A460123029952021940120B8C46A8
:1054A00056E6002B00D16FE746444A1EB04529D985
:1054B0001100864200D065E7039A934200D061E76D
:1054C00062E7012149420120C21A382A21DD029BEC
:1054D00003409C4638E60F220A40042A00D15BE7CD
:1054E0000A00111D914292415242934454E7474BA6
:1054F000E318002BE5DD01225242F2E71D00FAE637
:105500009A461CE7B04239D86ED011003AE70293B0
:105510003AE71F2A3CDC20239B1A0C00584699408E
:1055200098404B1E99415B46D440D34020430843EA
:105530001A00430709D00F230340042B05D00100B4
:10554000081D88429B415B42D21813023AD50123C1
:10555000029A01241A400023944698460022F7E557
:10556000022149428C46039DE344AC46E244AA45ED
:10557000AD416D424544ED182D1A96E68A1E0399F9
:105580004D008D42894149424144761803958FE789
:105590001F204042C31A5846D8400300202A28D072
:1055A00040205D46821A954029434A1E9141194385
:1055B000072300220B4009D00F2300220B400800D4
:1055C000042BBDD1010053075202120BC908194325
:1055D000012388460299002419408C46B8E55245BB
:1055E000BED88B46002560E6039D9D42C6D31100C0
:1055F00062E70025D8E780225B4612031A43019B2D
:105600001203120B9C468846034CA1E5FF030000E1
:10561000FFFFFFFEFE070000FF070000F0B54F464A
:105620004646D6465C00C0B51F03DB0F9A46174BB3
:105630000E034D0084468046360B6D0DC90F914612
:105640003F0B640D01209D4208D09C4201D0A54231
:105650000BD01CBC90469946A246F0BD634633432E
:10566000F7D1AC42F5D13A43F3D10120BE42F0D19B
:10567000C845EED1514507D0002DEAD163461E43FF
:105680003000461EB041E4E70020E2E7FF070000DB
:10569000F0B54546DE4657464E46E0B51F033D0B86
:1056A0002C4F0E034C00AB465D008446360B640D58
:1056B000C90F90466D0DDB0FBC422AD0254FBD426D
:1056C0002DD0002C0FD1304307008146784278411D
:1056D000C0B2002D17D15F463A4314D14B4600208B
:1056E000002B0AD006E0002D02D15846024301D01B
:1056F000994218D04842012108433CBC9046994643
:10570000A246AB46F0BD0028F2D00120013B184371
:10571000F3E737000743D1D002204042EDE75F4670
:105720001743CED0F8E7AC42E4DC03DA481E01218F
:105730000843E2E75E45DDD806D000205E45DCD2B6
:105740000123481E1843D8E7C445D3D80020C445D8
:10575000F6D3D2E7FF070000F0B54E464546DE46D9
:1057600057465C00E0B51F03DB0F99462A4B0E033A
:105770004D00C90F8446360B6D0D8B4690463F0B8E
:10578000640D9D4220D0244B9C4222D0002D12D18A
:10579000304343424341DBB2002C1FD0002B0CD0DE
:1057A0004B460120013B034318003CBC9046994600
:1057B000A246AB46F0BD002C16D0CB4517D05B46B9
:1057C000594201230B43EFE7310002230143EBD1A0
:1057D000D9E7390002231143E6D1D7E73A43DDD1B7
:1057E00000230028E0D0EAE73A43E6D1E7E7A54204
:1057F000E5DC05DBBE42E2D807D00023BE42D3D2AF
:105800005946012301390B43CEE7C445D7D80023BD
:10581000C445F5D3C8E7C046FF070000F0B55746BA
:105820004546DE464E46E0B50C0398464E00230B37
:1058300087B0070092469B46760DCD0F002E6BD0A9
:105840006D4B9E4235D080245B46420F2404DB0022
:1058500014431C43C3009946684BA3469C4600234F
:1058600000276644029343461C035A00DB0F504650
:10587000240B520D984600D176E05F4B9A426DD0D2
:105880008023410F1B040B435C49E4008C461C43FE
:10589000C300002062444146B6186940721C019161
:1058A000944607430F2F00D9B0E0554ABF00D259A4
:1058B00097465B460343994600D087E000239B460A
:1058C000023308270293CEE742460192022867D0AE
:1058D000032800D10EE2012800D062E10023002459
:1058E0000022994601990140CDB2002112030B0D0F
:1058F000120B1B051343434A240513401C43640049
:10590000ED0764082C434846210007B03CBC904694
:105910009946A246AB46F0BD034399464FD05B463D
:10592000002B00D189E1584600F02EFE03000B3B0E
:105930001C2B00DD7AE11D22D31A3A0001005C46DF
:10594000DA4008398C4013008F4023439B46B94608
:1059500000232D4E0027361A029384E75346234333
:105960002AD10024022096E75346234320D0002C5E
:1059700000D157E1200000F007FE03000B3B1C2B79
:1059800000DD49E11D21CB1A51460200D9405346A2
:10599000083A944093400C431B4A121A00207AE7BD
:1059A0000125019B144C1D400023002299469CE7D1
:1059B0000024002201206EE7534603206BE70023FA
:1059C0009B4601330427002602934CE703238146BC
:1059D0000C27029347E780220023002512039946F3
:1059E000054C82E75C464B4602986FE75C464B46A7
:1059F000019502986AE7C046FF07000001FCFFFF1F
:105A000060A50000FFFF0F800DFCFFFF4A464946DE
:105A1000170C1A0C1B041B0C08041900000C414342
:105A20001500884619007D4379430395894629006E
:105A3000150045434D44029545462D0CAA46029D4E
:105A40005544A94506D98A46802149028946CA4457
:105A500051460391290C0491414609042D04090C77
:105A600088462900250C24044144240C059121007A
:105A700041438846210079438A4668434146504461
:105A80008146080C48446F43824503D9802149026E
:105A900089464F44010C89463900494402914146E8
:105AA0000F0404993F0C88460004C0198044414605
:105AB000049159460F0C0904090C884659438A463B
:105AC00039005143894641464A435146090C8B46A9
:105AD0007B43D2185A44934203D980235B029B46EE
