:1040000000800020696300005163000051630000DC
:1040100000000000000000000000000000000000A0
:1040200000000000000000000000000051630000DC
:10403000000000000000000051630000BD630000AC
:1040400051630000516300005163000051630000A0
:10405000516300005163000051630000556300008C
:1040600051630000B159000051630000516300002A
:104070005163000051630000C15900007D590000E8
:104080005163000051630000595900005163000062
:104090000000000051630000516300005163000004
:1040A0005163000051630000516300005163000040
:1040B0000000000010B5064C2378002B07D1054BFB
:1040C000002B02D0044800E000BF0123237010BD84
:1040D0002002002000000000F0E90000044B10B5B1
:1040E000002B03D00349044800E000BF10BDC046C8
:1040F0000000000024020020F0E9000000207047CA
:1041000070470000024A537EDB09FCD17047C0466D
:104110000040004213B56B460268D97107335468FA
:1041200019000122A04716BD70B51F240500806844
:10413000241A944200D91400002C07D00C302818FF
:10414000220007F027FBAB681B19AB60200070BD95
:1041500013B50A684B6804008968009102F0F2F810
:10416000200016BD70B505000E0000240023F35694
:10417000A34206DD71782800013401F0C1FF64B26A
:10418000F4E7280070BD0000F0B50E684F680C0021
:104190008B68002191B003930F4B0500202208A8E3
:1041A00006910791059307F0FEFA039B32000093F6
:1041B00005A83B0002F0C6F8237C04A9181A637C0A
:1041C000087028004B70FFF7CDFF040008A901F02C
:1041D00093FF200011B0F0BDB4DC00000122134BAE
:1041E00010B51A70002817DA0020114BC0B21870F1
:1041F000104B012814D0022815D00F480F49186021
:1042000059600F491A685B680868496806F0E8FB5E
:104210000C4B1860596010BD0228E6DD0220E4E76F
:1042200000200949EBE709480949E8E70E1A002090
:10423000681A0020381A0020CD3B7F669EA0F63F0A
:10424000401A0020481A00200000F03FAA4C58E80D
:104250007AB6FB3F020001200B00124910B508702E
:104260000020114905F0B2FF03F058FF05F0B8FA3D
:1042700080B2142800DA1420FA22031C9200904223
:1042800000D9131C094A98B2138007F0B5F90B0046
:1042900002000549002005F099FF054B18605960A0
:1042A00010BDC0460E1A00200088C340100A00202E
:1042B000501A00200122084B70B51A70002200230A
:1042C00004000D0005F064FA002801D00024002548
:1042D000024B1C605D6070BD0E1A0020601A002049
:1042E00001220D4B70B51A700022002304000D004E
:1042F00005F04EFA002801D000240025074B2900C4
:104300001C605D60064B20001A685B6805F05EFF6C
:10431000044B1860596070BD0E1A0020481A002026
:10432000381A0020401A002001220D4B70B51A7077
:104330000022002304000D0005F02AFA002801D015
:1043400000240025074B08491C605D600868496827
:104350002B00220006F044FB044B1860596070BD2E
:104360000E1A0020401A0020381A0020481A002097
:10437000F0B568498BB00390674A684B0868496894
:1043800005F024FF089009916549634A634B08686A
:10439000496805F01BFF00900191FA210022039B60
:1043A000C9005818111C1A8002339842FBD15D4B8A
:1043B00019705D4B1A705D4B1B78049300230793B3
:1043C0000693059302935A4B1E88029BB34200DB6F
:1043D0008EE0180007F010F9040030000D0007F01F
:1043E0000BF9049B06000F00012B4FD0022B63D06A
:1043F000504A514B2000290006F0F2FA32003B00EF
:1044000005F0E4FE03F044FE00224C4B05F0C2FB35
:1044100000224B4B06F0E4FA04000D00009A019BC9
:104420001000190005F0B6FB22002B0006F0D8FAA8
:10443000009A019B04000D000898099906F042FDBE
:1044400022002B0005F0A6FB0022002304000D0033
:1044500005F09EF9002840D10022384B20002900A9
:1044600005F0AAF900283ED10022364B2000290091
:1044700006F0B6FA03F052FE029B5C0005F0B0F9BC
:10448000039BE052029B01331BB29BE7294A2A4B54
:104490002000290006F0A4FA32003B0005F096FE49
:1044A00003F0F6FD0022002305F072F90024002538
:1044B0000028B3D1214DB1E702000B0020002900F4
:1044C00005F084FE00221E4B06F0FCFC4900490862
:1044D00002000B0005F05EFB9EE70123002407931A
:1044E00006930025C0E7012300240593134DBBE785
:1044F000059B002B02D001220A4B1A70079B002B50
:1045000003D06A46084B127E1A7000220E4B1A70B6
:104510000BB0F0BD601A00206666666666660A40EB
:10452000481A0020581A0020591A0020681A002042
:10453000100A0020182D4454FB2119400000F03FC0
:104540000000E03F00F88F400E1A002030B5174BF6
:1045500089B01B6804A90493154B05001B684B60C8
:10456000144B1B688B60144B1B68CB6000236C469C
:10457000CA58100E18551800140C684444700433BF
:10458000140A8470C270102BF1D100246B466000B5
:104590001A5D28180949013407F0C8F9102CF5D123
:1045A00000230135EB7709B030BDC0460CA0800078
:1045B00040A0800044A0800048A08000C4DC00002F
:1045C000F7B5012501910400104E01F005FF1049D7
:1045D0008F6873689B0E2B408A6894467268920EAF
:1045E0002A4093420CD167450AD3002B0BD120609F
:1045F0004B68DB1B074F5F43019B3F0D1F80F7BDDF
:1046000013006746E8E70130F1E7C04600ED00E03F
:1046100010E000E055550000F7B56B469D1C040006
:104620000E0001A82900FFF7CBFF234B2348197880
:10463000019A002905D0002119702988204B0260B9
:10464000198020490B6801330B6003681C48D21A9B
:1046500000882B880192834226D31B1A2B800B687B
:10466000DBB2A3720B681B0ADBB2E3720B681B0C94
:10467000DBB223730B681B0E6373019BDAB2A27368
:104680001A0AD2B2E2731A0CD2B21B0E22746374ED
:104690002B88DAB21B0AA274E3743388DBB2237569
:1046A00033881B0A6375F7BDFA27BF00DB191B1A95
:1046B000013A2B800192D2E7981A0020001A0020BC
:1046C000FC190020140A0020F7B50121544A554C6A
:1046D0001068554B084202D120781160187022787A
:1046E000197891420CD0227821781A70C9B2002929
:1046F00030D0002201214D4B1A700D2002F08AF9B2
:104700002378002B25D0494E494C3578002D24D1F3
:104710000122484B1D70484B1D70484B25801A7074
:10472000474B1D802B002288002A23D1454A46484A
:104730001168464A127852B2D20112189161228849
:1047400043495200515A434A1181032D1FD8013564
:104750003570F7BD3F4B1981CFE70023032DE2D918
:104760003D4F02333A7B13433B73FFF7CBFC7B8B0C
:104770001BB2D8E72288012AE1D1324A32481168B7
:10478000324A127852B2D20112185161D7E7042D81
:104790000AD10523210031483370FFF73DFF2388FC
:1047A00001339BB22380D4E7254DDFB22A881B1248
:1047B00051000800214EDBB20193337816301731D7
:1047C000002B26D0254B1F546846007901325854DF
:1047D00093B2FA222B80920093420FD132780123B8
:1047E000002A18D02100134A1D481370FFF714FF48
:1047F000012332785340337000232B802388194AD9
:1048000001339BB22380238812889A42A1D10023CE
:10481000C8E7134BD7E7084A210013700F48E5E7B4
:10482000180A00200F1A0020081A0020091A002078
:104830000A1A0020991A00209A1A0020000000206D
:104840000C1A00200C0A002000440041120A00202B
:104850003C02002000480042004000421C0A0020A8
:104860000C120020100A002037B50C000500086863
:1048700007F086F8237901A9181A637908702800CF
:104880004B70FFF76FFC216801F036FC28003EBD3D
:1048900010B504000B884A689BB2190001F081FC36
:1048A000200010BD902210B5074B5200995C074ABA
:1048B000FC3311709A6A01239340054A0549064862
:1048C000136000F0D5FE10BD0CDF0000120A0020BE
:1048D0000C0A0020A41A00206C1A0020F8B55A49CE
:1048E0005A4801F0D1F95A48FFF730FE01210D2056
:1048F00002F044F800210D2002F08CF801210C2078
:1049000002F03CF800210C2002F084F872B600237B
:104910005048514A5149595CC154D15401330A2B72
:10492000F8D1FE244E4B4F4DE4004F495918695CB5
:10493000C154D1540133A342F7D162B600254B4C88
:104940000A2001F0F9FE0021182001F02DFF25704A
:10495000FFF7D8FBFF20464B464A1B6811689A06B2
:104960005B010340C90E520F0B4312021343238510
:10497000A388414A0F271A40C0239B001343A380FA
:10498000FFF7C0FB3022A388022693431A001023AE
:104990001343A380FFF7B6FB7022A378BB433343D6
:1049A000A370A37893431A00202313433F22A370DC
:1049B000E37893433B43E370A3883E3A9343A38059
:1049C000FFF7A0FB9A231F212C4A9B00D25C23698E
:1049D0000A408B4313432361FFF794FB2369284A62
:1049E0001A40C0235B0113432361FFF78BFB7F2237
:1049F0006378BB4333436370637813406370F02381
:104A000022691B0513432361FFF77CFB23781E43B8
:104A10002670FFF777FB2800FFF7E0FB002019491D
:104A2000FFF718FC18481949FFF744FC1849002003
:104A3000FFF77AFC1748FFF79BFC174A64211748D9
:104A400000F056FFF8BDC04640420F00A41A0020F7
:104A5000101A00201C0A00200C120020E6DC0000C6
:104A6000E6070000DCDC00001AF8FFFF004000420F
:104A70002460800020608000FFF8FFFF0CDF000052
:104A8000FFE0FFFF00406F40666666666666FA3FBD
:104A90000000E03F3C020020C94600009B1A0020B5
:104AA000F0B5E1B001F098FC3B4A1368C31A132B30
:104AB00021D93A4C1060200000F0E6FD00281AD001
:104AC000374E3378002B32D072B60023354A33701C
:104AD0001370354A137062B6344D280001F0EDF8BA
:104AE0003349280001F0D0F83249280001F004FBD6
:104AF000200000F002FE2A4B1B78002B15D0294A1B
:104B00001378002B03D1284B1B78002B0DD0137882
:104B10002648DBB2002B01D100F06FFD002313709B
:104B2000FE222549D20001F0BEFA61B0F0BD20009E
:104B300000F0E3FD2149050006F018FF002808D128
:104B40001A4C1F49200001F0D7FA200001F0DEFACC
:104B5000D1E71C49280006F009FF00283CD1134C7E
:104B60001949200001F0C8FA0921200001F0C8FA13
:104B70001649200001F0C0FA0921200001F0C0FA16
:104B8000134B0A221968200001F00FFB09212000B5
:104B900001F0B6FA0F49D5E7041A00206C1A00207C
:104BA0000F1A0020991A00209A1A0020A41A002037
:104BB00040420F00B8DE00001C0A0020F0DC0000BC
:104BC000F4DC000002DD000007DD00001ADD00005B
:104BD0001C000020101A0020F549280006F0C6FE2F
:104BE000002800D026E2F34B02A90B80F248FFF721
:104BF000B9FA040001F08AFAF0492000F04D01F002
:104C00007BFA200001F082FAEE4B04A98D8020008F
:104C10000493FFF729FE0600EB4CEC4901F06CFA17
:104C2000237806AA9B07DB0F1370117830000A2245
:104C3000C9B201F0C6FA300001F068FAE449300068
:104C400001F05AFA300001F061FAE24B08A98D80B8
:104C500030000893FFF708FE0700DF4E310001F037
:104C60004BFA23691022DB06DB0E0A930A993800FF
:104C700001F09BFA380001F049FAD84B0CA98D805D
:104C800038000C93FFF7F0FD0700310001F034FA13
:104C900023691022DB04DB0E0E930E99380001F01D
:104CA00084FA380001F032FACD4B10A98D8038001B
:104CB0001093FFF7D9FD0700310001F01DFA2369B9
:104CC00010221B011B0F12931299380001F06DFA8C
:104CD000380001F01BFAC349380001F00DFA380022
:104CE00001F014FAC04B14A98D8038001493FFF71B
:104CF000BBFD0700B54901F0FFF9637816AADB098F
:104D00001370117838000A22C9B201F05AFA38003B
:104D100001F0FCF9B54B18A98D8038001893FFF706
:104D2000A3FD0700310001F0E7F963781AAA1B0719
:104D30001B0F1370117838001022C9B201F041FA2C
:104D4000380001F0E3F9AA49380001F0D5F938003C
:104D500001F0DCF9A74B1CA98D8038001C93FFF7EC
:104D600083FD0700310001F0C7F9A3781EAA5B0696
:104D70005B0F1370117838001022C9B201F021FACC
:104D8000380001F0C3F99C4B20A98D803800209396
:104D9000FFF76AFD0700310001F0AEF9A37822AAFF
:104DA0001B071B0F1370117838001022C9B201F0D5
:104DB00008FA380001F0AAF99049380001F09CF98E
:104DC000380001F0A3F98E4B24A98D80380024937C
:104DD000FFF74AFD07008B4901F08EF9E37826AA18
:104DE0009B069B0E1370117838000A22C9B201F09D
:104DF000E8F9380001F08AF98349380001F07CF9BC
:104E0000380001F083F9814B28A98D803800289360
:104E1000FFF72AFD3100070001F06EF91022A38888
:104E20002AA99B069B0F38004A600B80FFF730FDD4
:104E3000070001F06BF9764B2CA92C9338008D807C
:104E4000FFF712FD6149070001F056F9A3882EA96A
:104E50001B07DB0F0B800A2338004B60FFF718FDA0
:104E6000070001F053F96B4B30A9309338008D8067
:104E7000FFF7FAFC5549070001F03EF9A38832A973
:104E80009B07DB0F0B800A2338004B60FFF700FD08
:104E9000070001F03BF9604B34A9349338008D8052
:104EA000FFF7E2FC4949070001F026F9A38836A97B
:104EB000DB07DB0F0B800A2338004B60FFF7E8FCB1
:104EC000070001F023F9554B38A9389338008D803D
:104ED000FFF7CAFC3100070001F00EF91022A38889
:104EE0003AA95B055B0F38004A600B80FFF7D0FCE6
:104EF000060001F00BF94A49300001F0FDF83000DE
:104F000001F004F9474B3CA93C9330008D80FFF73A
:104F1000ABFC06000A273B4901F0EEF8238D42A9BD
:104F2000DBB230000B804F60FFF7B2FC060001F0EF
:104F3000EDF83D4B48A9489330008D80FFF794FC75
:104F40000500304901F0D8F8238D4EA95B055B0FB1
:104F500028000B804F60FFF79BFC050001F0D6F89E
:104F60003249280001F0C8F8E38C54A91B051B0D39
:104F700028000B804F60FFF78BFC050001F0C6F89E
:104F80002B49280001F0B8F8A38C5AA91B051B0D6A
:104F900028000B804F60FFF77BFC040001F0B6F89F
:104FA00003A9044B20000B80FFF7DCF8CEE5C046D8
:104FB00025DD0000282D0000A41A00202ADD0000B5
:104FC0000F20000030DD00000040004238DD00000E
:104FD0003CDD000046DD00004EDD000053DD00003A
:104FE0005BDD000061DD000069DD000072DD0000B6
:104FF0007ADD000082DD00008ADD000095DD000022
:105000009EDD00001BDE0000A7DD0000ADDD00001E
:10501000B5DD0000BDDD0000C6DD0000D0DD000014
:10502000DBDD0000E1DD0000F0DD0000FADD000066
:105030000CDE0000D649280006F098FC041E00D0C3
:10504000B7E0D44B2CA90B80D348FFF78BF80500B1
:10505000D24E01F05BF8D24B30A9309328008E80FD
:10506000FFF702FCCF4D0700290001F045F80022B0
:10507000CD4B3CA93C923D93CC4B3E9438000B82E7
:10508000FFF782F80700CA4901F036F8380001F04E
:105090003DF8C84B32A9329338008E80FFF7E4FB0D
:1050A0002900070001F028F80022C34B42A94292D0
:1050B0004393BE4B449438000B82FFF765F807001A
:1050C000BE4901F019F8380001F020F8BC4A34A9B3
:1050D000349238008E80FFF7C7FB2900070001F0EB
:1050E0000BF80022B74B48A948924993AF4B4A941A
:1050F00038000B82FFF748F80700B34900F0FCFFC7
:10510000380001F003F8AE4A36A9369238008E8096
:10511000FFF7AAFB2900070000F0EEFF0022AB4BCF
:105120004EA94E924F93A14B509438000B82FFF73B
:105130002BF80700A64900F0DFFF380000F0E6FF7B
:10514000A44B38A9389338008E80FFF78DFB2900D7
:10515000070000F0D1FF00229F4B54A954925593B1
:1051600002235693914B38000B82FFF70DF807008E
:105170009A4900F0C1FF380000F0C8FF984B3AA9E7
:105180003A9338008E80FFF76FFB2900060000F08D
:10519000B3FF0022934B5AA95A925B93834B5C94C2
:1051A00030000B82FEF7F0FF040000F0AFFF2EA9E5
:1051B000F7E68D49280006F0D9FB071E53D1764C3F
:1051C0000A226421200000F0ECFF0921200000F0F9
:1051D00097FFFA210A228900200000F0E2FF09214E
:1051E000200000F08DFFFE210A22C900200000F0FF
:1051F000ECFF0921200000F083FF0A2220001100AB
:1052000000F0CFFF0921200000F07AFF0A220C21D4
:10521000200000F0C6FF0921200000F071FF0A22E3
:105220003900200000F0BDFF0921200000F068FFD8
:1052300002236E4A009320006D4B01F083F8092190
:10524000200000F05DFF0A221421200000F0A9FFD9
:105250000921200000F054FFFA210A2289002000D1
:1052600000F09FFF71E46349280006F07FFB0028EF
:1052700005D06149280006F079FB002860D15F481D
:10528000FFF776F85E4B5F4A1B78434D9B009958B9
:10529000280000F031FF0921280000F031FF5A4BAF
:1052A00048A95C681B6848934994032428004A94E1
:1052B000FEF74EFF0500092100F022FF534B4EA9D7
:1052C00028001A685B6850944E924F93FEF740FF97
:1052D0000500092100F014FF4D4B54A928001A685D
:1052E0005B68569454925593FEF732FF05000921EE
:1052F00000F006FF474B5AA928001A685B685C94C7
:105300005A925B93FEF724FF0400092100F0F8FE97
:10531000414B0A221978200000F043FF09212000A8
:1053200000F0EEFE3D4B0A221978200000F039FF14
:105330000921200000F0E4FE394B19880A228EE78B
:105340003849280006F012FB002805D0364928000D
:1053500006F00CFB00286DD10F4C314D02222900C4
:10536000200000F0A0FE01223049200000F09BFE4A
:105370002A8822495200200000F095FE2C49200086
:1053800000F0BAFE200000F0A8FCFFF7B4FBC04616
:105390001EDE0000282D0000A41A00200F200000AF
:1053A00025DE00002EDE00000088C340062000003D
:1053B00032DE000037DE00000000594041DE000010
:1053C00048DE000000408F4053DE000000C09F40D8
:1053D0005DDE000065DE00000000244073DE00009A
:1053E0007EDE000000CE084187DE0000666666664D
:1053F00066660A408EDE0000A8DE00003C02002047
:10540000681A0020CCDC0000501A0020601A00202E
:10541000481A0020401A0020581A0020591A00206B
:10542000100A002093DE000098DE00000E1A002013
:105430001CDE00007449280006F098FA002805D008
:105440007249280006F092FA002829D1704C714E5A
:105450000A223188200000F0A4FE0921200000F07B
:105460004FFE6D4B0A221978200000F09AFE2000B2
:1054700000F04CFE00253388684A013B9D420CDA5F
:105480006B00D15A20000A2200F08BFE0135092161
:10549000200000F035FEADB2EDE75B00D15A4DE7DC
:1054A0005F49280006F062FA041E2AD154AE31008A
:1054B0005AA8FFF785F8564D0A225A99280000F09D
:1054C00074FE5849280000F017FE36880A2730007D
:1054D000390004F05BF801340300E4B280B2002B21
:1054E000F6D103334EA91C1B28002D334B700C70D2
:1054F000FEF738FE0A22310000F053FE2800FFF7C5
:1055000025FB4949280006F031FA002805D1474912
:105510003F4800F0F1FDFFF7EEFA4549280006F09C
:1055200025FA002805D172B60123337062B6FFF761
:10553000E2FA4049280006F019FA002804D172B6B0
:1055400001233D4A1370F0E705223C49280006F08C
:105550001EFA00280CD1681D06F0DDF8FEF73EFEAD
:10556000374B384A1B782A4C9B009958FFF7EAFAC8
:1055700005223549280006F00AFA002811D1681DD5
:1055800006F0C4F8FEF766FE304B5C681B685A9361
:105590005B9404235AA91E485C93FEF7D9FDFFF7DC
:1055A000D5FA05222A49280006F0F1F9002806D18B
:1055B000681D06F0ABF8FEF77DFE264BE5E70522F9
:1055C0002549280006F0E3F9002806D1681D06F0F9
:1055D0009DF8FEF785FE214BD7E7052220492800DC
:1055E00006F0D5F9002801D0FFF785FA681D06F00E
:1055F0008DF8FEF799FE1B4BC7E71B4A1B4913703A
:10560000FE22D200FFF78FFA9BDE0000A6DE00002C
:10561000A41A0020100A00200E1A00203C020020CC
:105620008BDE0000AADE0000ACDE0000B0DE000071
:10563000BEDE0000BDDE0000981A0020C1DE0000C2
:10564000681A0020CCDC0000C7DE0000501A0020E1
:10565000CDDE0000601A0020D3DE0000481A0020D2
:10566000D9DE0000401A00209A1A00200C120020F7
:10567000044B421D8362002301600371D377821DB6
:10568000D377704708DF0000F8B504000068661D96
:1056900003681B699847002820D00023F37720680F
:1056A00003681B699847002818D0206803689B6925
:1056B0009847C5B20D2D04D1206803685B699847EF
:1056C000EDE7A71D0A2D0BD1206803685B69984799
:1056D000FB7FE418002323710133F377F07FF8BDDB
:1056E000FB7F1E2BF5D8206803685B699847FB7F1A
:1056F000E21801331571FB77D1E7421DD37F002BF0
:1057000005D00023D377821DD37704307047806A99
:10571000FCE70000F7B502220D005F4C238893439D
:105720002380E37BDB09FCD123885C4A1340238080
:10573000E37BDB09FCD12388594A13402380E37BB8
:10574000DB09FCD12388574A13402380E37BDB0924
:10575000FCD12388544A13402380E37BDB09FCD12E
:105760002388524A13402380E37BDB09FCD1238842
:105770004F4A13402380E37BDB09FCD123889BB293
:105780002380E37BDB09FCD14A4B9D4235D9E023E2
:1057900080202288DB0013432380C000E67BF609CB
:1057A000FCD104F06DF9071C280004F0B3F942495C
:1057B00004F034F8011C381C04F030F8011C3F4898
:1057C00004F02CF804F03CF9451E208A228B80B2AC
:1057D000009592B23300310000F05AFCADB280B2B5
:1057E00020822583E37BDB09FCD12288023313432B
:1057F0002380E37BDB09FCD1F7BD314B314AEB1849
:10580000934207D8C02380202288DB0013432380E3
:105810004000C3E72C4B2D4AEB18934206D8A02337
:105820002288DB00134323804020B7E7284B294A16
:10583000EB18934206D880232288DB001343238091
:105840001020ABE7244B254AEB18934206D8C0231F
:1058500022889B001343238008209FE7204B214A86
:10586000EB18934206D8802322889B0013432380A1
:10587000042093E71C4B1D4AEB18934206D8802363
:1058800022885B0013432380022087E723880120BE
:105890009BB2238082E7C046002C0042FFF8FFFF46
:1058A000FFF9FFFFFFFAFFFFFFFBFFFFFFFDFFFF19
:1058B000FFFEFFFFE093040000247449001B374CF7
:1058C0007FC7FEFF5F5B0300DFB1FFFF5FEA000001
:1058D000EFD8FFFF0F27000077ECFFFF87130000D2
:1058E0003BF6FFFFC309000017FCFFFFDB050000CC
:1058F00070B5134B134C1C80134C6378DB09FCD13F
:105900000225124B1C88AC431C801C88A4B21C804E
:10591000DC7BE409FCD11D8820342C431C80DC7B1B
:10592000E409FCD15C735D7B10342C435C738024F0
:10593000074BE4021C60074B1A60FFF7EBFE70BDDB
:10594000020C00401B400000000C0040002C0042F4
:1059500000E100E09C1A002010B5064B9A7BD206AD
:1059600006D51022997B0A439A73034B1B6898470C
:1059700010BDC046002C00429C1A002010B50A4CF5
:10598000E36ADB0304D58023E26A5B021343E3622C
:10599000E36ADB0706D5054B1B6898470123E26ADB
:1059A0001343E36210BDC04600200042A01A00204D
:1059B00010B5024800F0BEFA10BDC046681B0020BA
:1059C00010B5024800F0B6FA10BDC046A41A002077
:1059D000F7B501240326154F1549380000F042F8A9
:1059E0001449154800F03EF81449154800F03AF8FB
:1059F0001449154800F036F81449154800F032F8FB
:105A0000144D1549280000F02DF8390000962300A8
:105A100001940022114800F019FA0096290001941F
:105A2000232324220E4800F011FAF7BD2C1C00207D
:105A300000080042000C0042301C00200010004210
:105A4000341C002000140042381C002000180042C2
:105A50003C1C0020401C0020001C0042681B002051
:105A6000A41A0020016070479446F0B59E1E721E75
:105A700096416246056892072F6836063A433243DC
:105A80002A60072505AC24780068A4012940214339
:105A900042680024022B00D05C0311432143416083
:105AA000F0BD30B5C0250368AD031C6812052A405F
:105AB0002243C0240904A402214011431960036851
:105AC0005A6814435C6030BD0123026811680B43BF
:105AD000136003681A68D207FCD4DA69D207F9D4D4
:105AE00070470223026811680B4313600268D36990
:105AF0009B07FCD470470268137E9B07FCD5704758
:105B0000002203685A8370470368187E4007C00F5D
:105B100070470368187EC0097047802302685B42A3
:105B2000117E0B43137670470368588B8007C00FB4
:105B3000704702230268518B0B43538370470368FD
:105B4000187EC007C00F70470368188DC0B2704739
:105B500003681A7ED207FCD589B2012019857047E7
:105B6000012203689A757047012203681A7570470D
:105B70000368214A30B593422FD0204A93422FD058
:105B80001F4A93422FD01F4A93422FD01E4A93425E
:105B90002FD01E4A93421FD10E2319220121032523
:105BA00099401B48C024016099082B40AB40FC354C
:105BB0009D4089000918A4000859A843C0259D40AC
:105BC0002B0003430B518023DB011A43114B5A80F6
:105BD0005A7852B2002AFBDB30BD09231422DDE7DC
:105BE0000A231522DAE70B231622D7E70C23172204
:105BF000D4E70D231822D1E700080042000C004230
:105C0000001000420014004200180042001C004234
:105C100000E100E0000C0040F8B504000F001600A1
:105C20001D00FFF7A5FF2000FFF74EFF1C21BB0062
:105C30000B4071072268090C0B4313608423226810
:105C40009375012F1AD11021012E00D008390C4B69
:105C500069431868C00003F00FFC07222168024066
:105C60008B895203DB04DB0C13438B812268030412
:105C70009089DB0C400B400318439081F8BDC0466F
:105C80001C0000200120704710B50368014A1B6A00
:105C9000984710BD13040000C06D7047A83003681A
:105CA0004020C01A7047C36D002B03D0836DC0180D
:105CB000007D704701204042FBE710B504000069F9
:105CC000FFF702FF002322006365A032A365E365AE
:105CD000A83413605360236010BD020010B5A832D1
:105CE0001368002BFCD10069FFF705FF10BD0368A6
:105CF000002B02D162B6BFF36F8F7047F0200140D6
:105D00003039484248417047F0231B011940802335
:105D100006209B0099420AD00133FF33013099429B
:105D200005D0802302385B00994200D000207047E4
:105D30000F2001400020012903D00239481E814173
:105D4000481C70470300F0B5182685B00391AC33AA
:105D500004001878330008214343334D1700EB1833
:105D6000595600F083FE2300AD3318783300082124
:105D70004343EB18595600F079FE2300AF331B78EC
:105D8000022B0AD12300C0331878FF2805D0082140
:105D90004643AE19715600F069FE2600B0363078E1
:105DA000FF2819D0012100F0E9FD182221003378E5
:105DB0001E485A43AB56B431DB01181808601C4921
:105DC000AD185B1821000122B8310B6069688A4068
:105DD0002100BC310A601A600122039B1100206976
:105DE000FFF71AFF39002000FFF78EFF390005008A
:105DF0002000FFF79DFF390006002000FFF77EFF1F
:105E000033000090290020690122FFF72DFE2300B6
:105E1000AE331A7859782069FFF743FE2069FFF7FF
:105E200060FE05B0F0BDC0460CDF00001844004124
:105E30001444004110B540220021040005F0B3FCD9
:105E40000023200023646364A36410BDF7B51D0024
:105E500008AB1B780400009309AB1B781600019374
:105E600000234360FA239B0083600E4B0F0008332E
:105E700003601430FFF7DEFF20006030FFF7DAFF29
:105E80006A4623001278AC3327619A706A46127909
:105E90001E70DA7022005D70FF23B0322000137094
:105EA0001374FEBD8CE3000037B5EFF3108300934D
:105EB0000123019372B63F24019B013B5A1C0FD072
:105EC000826C5D1E402A09D0026C8154026C013242
:105ED00022400264826C01328264EEE72B00EDE71F
:105EE00068460193FFF703FF37BD13B5EFF3108347
:105EF00000930123019372B6019B5A1E0192002B5D
:105F000014D0836C002B0ED03F22436CC45C436CD6
:105F1000013313404364836C013B83646846FFF79D
:105F2000E6FE200016BD01246442F7E76846FFF74D
:105F3000DEFEF6E710B504000069FFF7F5FD002866
:105F400005D02069FFF700FE2069FFF7F2FD206908
:105F5000FFF7DAFD002818D02069FFF7F5FD0100F2
:105F600020001430FFF7A0FF2300B0331B78FF2B75
:105F70000BD04023E26D9B1A092B06DC2300220084
:105F8000B433BC321B6812681A602069FFF7D7FD72
:105F900000280CD02300A8331B68002B13D020004E
:105FA0006030FFF7A2FFC1B22069FFF7D1FD206981
:105FB000FFF7AFFD002805D02069FFF7AEFD20698F
:105FC000FFF79EFD10BD2069FFF7CEFDEFE7000053
:105FD000F8B5040000690D002600FFF7B0FDA836F3
:105FE000002802D03368002B31D00F273368402BB4
:105FF00023D1EFF31083012213420FD1164B5B68BC
:10600000DB05DB0DF2D0103B5BB2002B0FDA3B401F
:10601000083B9B08114A9B009B181B682069FFF7EF
:106020008EFD0028E2D02000FFF784FFDEE79B080A
:10603000C0330B4A9B009B58F0E7200029006030DA
:10604000FFF732FF2069FFF78BFD0120F8BD290023
:106050002069FFF77DFDF8E700ED00E01CED00E0B2
:1060600000E100E010B504001430FFF73EFF23000C
:10607000B0331B78FF2B0AD04023E26D9B1A0A2B0A
:1060800005DD2300BC34B8331B6822681A6010BDDC
:1060900010B51C00431A0298511A001B584303F014
:1060A00075FA001910BDF7B506000D000C008B182D
:1060B0000193019B671B9C4207D0336821781B68C2
:1060C0003000984701340028F3D13800FEBD70B588
:1060D000040008000D0005F053FC236802002900AD
:1060E0005B682000984770BD10B50B1E02D0FFF70B
:1060F000EEFF0300180010BD10B5FFF7F5FF10BD4F
:1061000010B503681B68984710BD000010B5024920
:10611000FFF7DDFF10BDC046CCE30000F0B58BB04B
:106120006B461500002205330600DA770800012DC2
:1061300000D80A2509AC290003F024FACAB21300DA
:1061400037330700DBB2092902D813003033DBB242
:10615000013C2370002FEED121003000FFF7C4FF77
:106160000BB0F0BDF8B506000C00151E04D1036895
:10617000C9B21B689847F8BD0A2A0CD100290BDA6E
:106180002D21FFF7BDFF614207002A003000FFF715
:10619000C5FF3818EFE7D2B221003000FFF7BEFF8D
:1061A000E9E710B5FFF7DEFF10BD10B5002A04D1F6
:1061B0000368C9B21B68984710BDD2B2FFF7AEFFA3
:1061C000FAE710B5FFF7F1FF10BD10B5FFF7EDFFCF
:1061D00010BD0000F7B51E00089B05001700002B3E
:1061E00001DA0223089331003A003300380005F049
:1061F000B1F94B49002814D10122740064085242BD
:10620000484B3800210005F0A5F900280FD10122E4
:10621000444B52423800210003F0C4FA002806D152
:1062200041492800FFF753FF04002000FEBDE02293
:106230003E4B12063800310003F0BEFA002801D0B0
:106240003B49EEE7E0223B4B12063800310003F0F9
:106250009FFA0028F4D1002200233800310003F017
:1062600097FA002814D02D212800FFF749FF80233A
:106270001B060090F618002400202F49089B9C4222
:1062800008DA00222D4B013403F0A0FFE4B2F5E759
:106290000090F0E70B0002003100380003F07AFCB8
:1062A0000F00060003F09CFA0A220190010028006A
:1062B000FFF734FF009B1C18089B002BB5D00198FA
:1062C00005F0D4F902000B003000390004F0FAFDAB
:1062D00006000F0028001A49FFF7F9FE2418089B52
:1062E0005A1E0892A1D3154B00223000390004F049
:1062F00077FB0F00060003F073FA0A2201000090FA
:106300002800FFF70BFF2418009805F0AFF90200F2
:106310000B003000390004F0D5FD06000F00DEE769
:10632000C0E30000FFFFEF7FC4E30000FFFFEF4189
:10633000C8E30000FFFFEFC10000E03F0000244081
:10634000AADE000007B504990091FFF743FF0EBDD8
:10635000FEE70000034B10B51B68002B00D09847E8
:1063600010BDC046441C002070B50F490F4CA1421F
:1063700004D100F0AFF800F08DF8FEE70C4D0023DB
:106380008D42F6D0CA18E818A24205D3094B8242C2
:10639000EFD00949002204E0006804331060F1E7FF
:1063A00004C38B42FCD3E4E700000020200200205D
:1063B000F4E90000200200208C22002010B500F03B
:1063C00066F8002801D100F057F810BD014B1860A5
:1063D0007047C046441C0020014B18687047C046F7
:1063E000481C0020F7B51348012284461249134C7B
:1063F0008E68636805689B0E134001928868626826
:10640000019F920E3A4067463F6893420ED1BD42CB
:106410000CD186420AD35B19FA254868AD00861B69
:1064200007486B437043000DC018FEBD3D001300CC
:106430000600E3E7481C002010E000E000ED00E06B
:106440005555000070B5041E10D0FFF7CBFF0500B6
:1064500000F01CF8FFF7C6FF054B401B9842F7D928
:10646000FA23013C9B00ED18002CF3D170BDC0460F
:10647000E70300007047000010B5034A13680133BA
:10648000136000F065FB10BD481C00207047002021
:106490007047704710B500F0CDF805F043F9FFF7ED
:1064A000F8FF0120FFF7CEFF084C200000F0D4FCDD
:1064B000200000F097FDFEF711FAFEF7F1FA044B09
:1064C000002BFAD000E000BFF7E7C0467C1C00209C
:1064D000000000001E2270B54648474943689343B8
:1064E0001C3A1343436008238C6923438B61434C5C
:1064F000434B9C829C8A14439C82DC681442FCD0EF
:106500000124404A14701578254203D055786DB2A5
:10651000002DF8DB01249460547864B2002CFBDB7E
:10652000394C5460547864B2002CFBDB8224E401C3
:106530005480547864B2002CFBDB02249C840E341B
:10654000DD682542FCD0314CDC621024DD68254238
:10655000FCD09D8C2E4C2C439C841024DD6825425D
:10656000FCD002249D8C80262C439C844024DD6832
:106570003542FCD0DD682542F9D01024DD68254283
:10658000FCD000249460547864B2002CFBDB214CD6
:106590005460547864B2002CFBDB1C6A1E4D2C4006
:1065A00080251C621C6AAC431C62032393601B4B56
:1065B000536053785BB2002BFBDB0023FF240B728C
:1065C000174A4B728B72CB72164B1A60164B174AD6
:1065D0001B6811689A065B01C90E2340520F120214
:1065E0000B431343124A13858023426813434360CD
:1065F00070BDC04600400041000400400C06000091
:1066000000080040000C004001050100B905FF7DB5
:10661000040A000000070300FFFCFFFF030601005F
:10662000006CDC021C0000202460800020608000E0
:1066300000400042FA21314B10B51868890002F081
:106640001BFF2F4B0138984256D82E492E4A4860DE
:10665000C020136A00061B021B0A034313620024B6
:1066600007238C600B608021136A09061B021B0A3A
:106670000B431362FC22254B196A0A431A62FC225F
:10668000196A92010A431A62A022196AD2020A43C5
:106690001A62E0B20021013400F070F9132CF8D135
:1066A0001B4B1C005A7852B2002AFBDB194A5A8055
:1066B000194B1A00597EC9090129FBD0E421C900F0
:1066C00099803F21D970537EDB09012BFBD0C02379
:1066D00000205B011361907000F034F863785BB2C6
:1066E000002BFBDB0D4B0E4A6380D379DB09012BBA
:1066F000FBD04123537010BDFEE7C0461C000020B4
:10670000FFFFFF0010E000E000ED00E000040040AB
:10671000000C00401E4000000040004221400000EC
:1067200000480042914202D002D98A1AD0407047F4
:10673000521A9040FBE70000014B18607047C046BA
:1067400020000020164A00B51300517EC909012916
:10675000FBD00138042816D81969124A0A400F21C3
:106760001A615A788A4302F07DFE0308060B030083
:10677000110001220A435A7000BD11000322F9E7FB
:1067800011000222F6E7F02311691B050B430F21CC
:10679000136153788B43190002230B435370EBE7CB
:1067A00000400042FFFFFFF018234343F0B56A4A60
:1067B00087B09B18DA6806000C000092920722D579
:1067C0001B7C5BB2002B01D0142B1AD1634B0A2225
:1067D00019682000FFF7A6FF614A1300D179C909A3
:1067E0000129FBD08005800D1081DA79D209012AB8
:1067F000FBD0022219780A431A70DA79D209012AE9
:10680000FBD007B0F0BD0827009A544D3A400192E2
:1068100000D191E012229B5E296820001022019392
:10682000FFF780FF019B05001F126B461C79009B40
:106830000421DB0600D40521300000F017F9494B94
:10684000BA00D658484BDA5D002A54D10132DA55E5
:1068500046490F3202A804F09DFF02AA7B009B5A12
:106860008022D2011A43424B5A805A78D209012A17
:10687000FBD0022297421BD9338893433380F37BAA
:10688000DB09FCD13288403313433380F37BDB09CF
:10689000FCD10C34ADB26400A553F37BDB09FCD111
:1068A0003288023313433380F37BDB09FCD1A8E742
:1068B000336893432F4A33601300B1681142FCD10F
:1068C0000222F16B0A43F263B2681A42FCD110341F
:1068D000A40034196560B2681A42FCD1264A3264B9
:1068E000B2681A42FCD1022231680A433260B268AF
:1068F0001A42FCD185E7022F07D90C34ADB26400EF
:10690000A553F37BDB09FCD17BE7022372791343A8
:106910007371184B1A00B1681942FCD11C34A400E1
:10692000A551B3681342FCD1022331790B43337173
:10693000B3681342FCD164E7012100F01FF8296815
:106940003A002000FFF7EEFE01997F2800DD0121CB
:10695000300000F05FF854E70CDF0000200000205A
:1069600000480042040000204C1C0020D0E300003E
:10697000000C0040FF0F7F00FFFF0000182330B520
:106980001D00040045430820204A551928560130AF
:1069900014D0032912D808006343D156D31802F04B
:1069A00061FD02280E1B5868CB010221184A9B1872
:1069B0001A1840321170012282405A6030BD586866
:1069C000CB010621124A9B181A184032117001227D
:1069D00082405A609A61F1E75868CB0106210C4A5F
:1069E0009B181A1840321170012282405A605A6175
:1069F000E4E75868CB010221054A9B181A18403277
:106A00001170012282409A60D8E7C0460CDF000076
:106A1000004400411823F0B508245843114A1318C4
:106A20001C5701341BD0012635005F688356BD40DA
:106A30000D4ADB019A18906805420BD10C00601ECC
:106A40008441D2194032107834400336A400B04358
:106A500020431070044A9B18002901D15D61F0BDEC
:106A60009D61FCE70CDF0000004400411822424316
:106A7000F8B52C4E0300B218127A52B2140001324B
:106A80000ED0481C00240C280AD802F0EBFC07208A
:106A9000202020202020200B0B0B0B00012464421F
:106AA0002000F8BD092905D10021D8B2FFF766FF03
:106AB0000024F5E70A2902D1D8B20839F6E7002404
:106AC0000B29EDD1D8B20A39FFF758FFE8E71820B3
:106AD0004343F2185568F3562C00134ADB016E0845
:106AE00017389B18C9B204409E19002C0DD00F24F2
:106AF00030363278090122401143C9B25B19317036
:106B000040331A7810431870D2E732000F27303222
:106B100016785B19BE433143117040331A78104325
:106B20001870BDE70CDF00000044004110B5040000
:106B3000FFF7A0FC014B1C6010BDC04624000020E4
:106B40000122024B52421A607047C04624000020C6
:106B5000164A10B51368591C26D0013B1360002B50
:106B600022D172B6124B134A0433934213D9124AFC
:106B700001211000147D0C42FCD02021148BFF3128
:106B80009B085B0021431183D3610C4B13800123CD
:106B9000027D1A42FCD0BFF34F8F094B094ADA60DD
:106BA000BFF34F8FC046FDE710BDC0462400002054
:106BB00000400000030200000040004102A5FFFF6A
:106BC00000ED00E00400FA05704710B5040001F084
:106BD00089F8200010BD0000F0B5822919D1C3B298
:106BE000294D5A01AA189169284C80010C40C021F6
:106BF000890521439161264908334018702150616D
:106C000028685B011A5C8A43110030220A431A5437
:106C1000F0BD0029FCD1C026C1B21B4C4B01E318CA
:106C20009A681A4DB6052A4032439A60194A800183
:106C300082185A600A000727246808325201115D41
:106C4000B9430F000121394311559F6910493D4057
:106C500040182E439E6158617020115D81430800E9
:106C600010210143115599680B48A2180840802152
:106C70004903014399609968890B8903996040230E
:106C800011790B431371C3E734210020FFFFFF8FFD
:106C9000A81C0020681E0020FF3F00F0EFF31083C7
:106CA00003600123436072B6704773B5836D0400BF
:106CB000002B1BD10600A83635786846FFF7EEFF9B
:106CC000019BEDB2013B02D33578EDB2FAE768469D
:106CD0000193FFF70CF8002D01D1002076BD2300B1
:106CE000A4331868A0342368C01AF7E76846FFF792
:106CF000D5FF22000025019BF432013B02D3157819
:106D0000EDB2FAE768460193FEF7F1FF002DE4D0FB
:106D10002300F0331868EC34E5E7000010B5436D4C
:106D20004468DBB25A01A218916809480833084048
:106D3000802149030143916091685B01890B8903BC
:106D400091602268D318402219790A431A7110BD44
:106D5000FF3F00F0F7B5436D4268DBB21900040055
:106D60000831106849014118C979C90711D55B017B
:106D7000D21893689B049B0C0CD12000FFF7CEFF28
:106D800063681A68636DDBB208335B01D3187F2236
:106D9000DA71F7BDE16D002923D12100A4310B6028
:106DA00023000125AC33E56568465360FFF776FFA5
:106DB000260020002100019BA836013BF430F5316C
:106DC0005A1C33D0357002785F1ED2B20A700A782E
:106DD000002A04D120000193FFF7A0FFE8E73B0061
:106DE000EEE72100F0310B600023E3652300603300
:106DF00053606846FFF752FF01252600200021005E
:106E0000019BF436013BA830F5315A1C0ED0357089
:106E100002785F1ED2B20A700A78002A04D12000DC
:106E20000193FFF77BFFE8E73B00EEE7684601933D
:106E3000FEF75DFFA4E737B56B46DC1D00230D00B0
:106E4000237000F039FF210000F0C4FE2B681818F1
:106E5000286020783EBD0000F7B50024514B012189
:106E600005001F201C70FFF789FD01211F20FFF77F
:106E7000D1FD4D4B01211E201C70FFF77FFD01212C
:106E80001E20FFF7C7FD2023484A0F20D1690B437E
:106E9000D361012246490B7813430B70454B197897
:106EA0008143197006211C782143197042490C78DE
:106EB00022430A701A7802401A70602219780A4335
:106EC0001A703E4B3E4A5A805F78FF09FCD13D481C
:106ED000FFF77CFA01233C4C3C4E226830001178CD
:106EE0000B43137080223900520004F05CFC2268CE
:106EF0009378DB07FCD456621F26354B1B68590B71
:106F0000980C9B01314030405B0FB14200D105210C
:106F10001F2800D10238072B00D1043B31408901E2
:106F2000178D01912B4930400F400199394311854C
:106F3000118D0700B143080038431085118D1803E7
:106F4000254B7F260B4003430C2013850823D17863
:106F500081430B430321D3702268D3788B430139DB
:106F60000B43D370226813783340137004232268D4
:106F70001678334313702268C1241389A400834315
:106F80001648138103591B021B0A03518023036017
:106F9000137813481943012311702B70002101F05D
:106FA0006BF8F7BD9D1C00209C1C002000040040D5
:106FB000584400413C44004159440041000C004009
:106FC000064000009579000034210020382100207F
:106FD000246080003FF8FFFFFF8FFFFF00E100E02B
:106FE000482200200078002810D00121084B1B689F
:106FF0001A898A431A810822198B0A431A830422A8
:10700000198B0A431A830022024B1A607047C0464C
:10701000342100202C21002010B50F4A93699B0BCE
:107020009B03936113680222FF331A729879823AA4
:1070300002439A711A7A9207FCD57F24074A2140AD
:10704000937A0800A3431900802301439172917A37
:107050005B420B43937210BD34210020005000416D
:1070600010B50C0000F028FE210000F0E6FD00281D
:1070700004D1034A93699B0B9B03936110BDC046E7
:1070800034210020F8B50D00832A19D1CBB23B4C36
:107090005A01A21891693A48AD010840C0218905FA
:1070A00001439161374920686D187021083355619B
:1070B0005B011A5C8A43110040220A431A54F8BD4E
:1070C000022A55D1304A8B009858002802D0036814
:1070D0005B699847F82000F001FE0400274E2B4B17
:1070E0004660036040220021083004F05CFB22006F
:1070F0000023A032A3646565E3642365A365E365AB
:107100005360D3641372136013654C32137253725D
:10711000FF222B001340590171188868184F08335B
:107120000740C020800538438860306807265B012F
:10713000195CAD00B1430E00032131431954230003
:10714000616D606811404901411860334B60616DA9
:1071500063680A401B6852019B180122FF33997A29
:1071600020000A439A72FFF7D9FD074B5C51A6E74E
:1071700011002800FFF730FDA1E7C04634210020B0
:10718000FFFFFF8FA81C0020801C0020E8E3000008
:1071900070B505000124064BA200D258002A06D083
:1071A000210028000134FFF76DFF0A2CF3D170BDD8
:1071B000541C00200B4BCAB20B488901C91853015B
:1071C000C318596199690832890B89039961036869
:1071D00052019A180223D3715179823B0B435371A8
:1071E0007047C046A81C002034210020084B8A00AC
:1071F000D05810B5002803D003689B68984710BD8D
:10720000C9B2044B4901591888688004800CF6E71C
:10721000801C00203421002010B50C00FFF7E6FF91
:1072200000280CD0064BE4B21B68083464011C191A
:10723000802362795B42134363710223E37110BDC3
:1072400034210020F0B51C00304B85B01B680700CE
:107250000D000292002B55D02D4E3178C9B2002975
:1072600002D11E20FFF7D6FB64233370294BAA00FE
:10727000D058002808D0036822005B68029998471C
:107280000400200005B0F0BD29003800FFF7AEFF74
:10729000844204D929003800FFF7A8FF0400012127
:1072A000EBB21D4E03935B010193F21893689B0BA5
:1072B0009B039360019A336802989B18FF335A7AB4
:1072C0000A435A72154BA901C918220004F062FA48
:1072D000002CD6D029003800FFF788FF0028D0D135
:1072E0004021039B326808335B01D31818790143AE
:1072F00019710121D971019BD318FF339A7A0A437E
:107300009A72BEE701246442BBE7C0462C210020EC
:107310009C1C0020801C002034210020681E0020BE
:1073200013B56B46DC1D22000123FFF78BFF0128FC
:1073300001D1207816BD01204042FBE770B5CBB2E9
:10734000124A13485C018901891802195160916839
:10735000104D08330D408021490329434025916099
:107360009168890B8903916001685A018A1816791E
:107370003543157195796D06FCD55B01C918CB793C
:10738000DB07FCD500198068C0B270BD681E002004
:1073900034210020FF3F00F070B50D0000211400E3
:1073A000FFF7CCFFA04200D9200000230349A342ED
:1073B00003D0CA5CEA540133F9E770BD681E0020AF
:1073C000F0B51E003F4B85B01B680F000192002BEB
:1073D0003FD08023DB019E423BD83B4C2178C9B291
:1073E000002902D11F20FFF715FB6423002523701D
:1073F000364BBA01D3180293002E2CD0344B1B68A5
:107400000393FF233B401C0000930834039B64015B
:107410001C19A379DB0921D02E4B2F49186802F0E3
:107420002BF82E4B1721584302F026F82C4BE2790B
:10743000920713D4DA5D002A01D10138F7D2012274
:10744000DA55009B5A01224B9B189A69920B9203C2
:107450009A6101256D42280005B0F0BD0022204B45
:107460003400DA553F2E09D9009B40245A01184BAD
:107470009B188022996912060A439A612200019999
:10748000029804F087F9009BA1045A01104B890C63
:107490009B18029A2D195A619A69361B920B920316
:1074A0000A439A61009B039A08335B01D3180222B6
:1074B000DA715979823A0A435A71019B1B19019377
:1074C0009AE7C0462C2100209D1C0020A81C00200B
:1074D000342100201C00002040420F0070110100E8
:1074E0009F1C002070B50D001C000D4BAE01F6185E
:1074F00011003000220004F04DF9EDB209496D0190
:107500004D196E61AB69084A20001340AB61AB694D
:10751000A2049B0B920C9B031343AB6170BDC0464E
:10752000A81C002034210020FF3F00F0F7B5104BCD
:1075300001901B780F001500002B0CD10D4B16008D
:107540001C78002C09D00C4E0C4834882018641983
:1075500004F020F934802800FEBD002EFBD03A193B
:10756000330000210198FFF7BDFF2418361AF4E715
:1075700028200020292100202A2100202920002065
:10758000F8B50F0016000024012A26D9100004F0D7
:10759000EDF80500380004F0F3F90323022201306E
:1075A000400028706B7096420DD9397800290AD0B6
:1075B000531CDBB20137A9549E4203D00232EC5473
:1075C000D2B2F0E7320029000548FFF7AFFF441EB2
:1075D000A041C4B2280004F0D3F82000F8BDC04692
:1075E0007C1C0020F0B50024012685B0184B0F004C
:1075F00069461E7005000094FFF71DFC154B01A99C
:107600000B806A3BFF3BCB715A330B72009B8C7132
:1076100009334B800E4B4E7108711C703A00092FD4
:107620000FD00D4F09223E700C4E2800009434807C
:10763000FFF77CFF69462800FFF7FDFB3288084909
:107640003C702800FFF772FF012005B0F0BDC04676
:107650002820002009020000292100202A210020E2
:107660002920002070B5CE7892B005000C00022EC3
:107670000BD18B79C9792C4809021943FFF7B2FF66
:10768000411E8841C0B212B070BD00F015FB210050
:1076900000F0B4FA002803D0C117081AC00FF2E7AF
:1076A000012E0ED1E279A37912021A431F49112A41
:1076B00013D8D2B2002A10D02800FFF737FF0120DC
:1076C000E1E7032EDFD1A378002B08D1E279A3797B
:1076D00012021A431649032AEBD90A78ECE7022B67
:1076E00008D1E279A379120212491A432800FFF760
:1076F00047FFC8E7012B05D1E279A37912021A43AB
:107700000D49F3E7032BBED14122010001A804F08B
:107710004AF800F0D1FA01A900F080FAE279A379E1
:1077200012021A4301A9E1E77C1C002020E40000BA
:1077300014E4000004E4000018E40000CBB20449A3
:107740005B01C9188B699B0B9B038B617047C0461B
:107750003421002037B5050048780C000B2810D8DC
:1077600001F080FE061B0F2B0F404561494C5A5D0E
:10777000097801AA002906D1022311802800FFF709
:10778000B1FE01203EBD00231380284B1B78012B46
:1077900000D1137002230021F0E78A780023012A28
:1077A00003D101AA1380224BF0E7204A1370214A2B
:1077B00093699B0B9B039361E3E78C78012C06D1C3
:1077C00000211B4B01AA1C7011702300D6E7012079
:1077D000002CD7D1154B174A187093699B0B9B034C
:1077E0009361CFE789782800FFF716FCC9E72800E6
:1077F000FFF738FFC6E701230F4ACCE70B780020DC
:10780000DB06BFD12800FFF7C3FCA2780A4B0B4868
:107810001A6000F019FCCAE70123094ABBE78A781D
:10782000074B1A60C3E70020ACE7C0469E1C00204F
:10783000A61C0020342100202C21002048220020FA
:10784000302100204A4BF7B51E780500002E00D0ED
:107850007EE0484C23689A8B12070DD50822310030
:107860009A833000FFF7B8F910222368FF33997A22
:107870000A439A72404B1E6023689A8B52071FD5A9
:1078800004229A833D4A1378002B0AD01378013BD7
:10789000DBB213701378002B03D101211F20FFF7F7
:1078A000B9F8374A1378002B0AD01378013BDBB2C2
:1078B00013701378002B03D101211E20FFF7AAF8C3
:1078C0002368FF331A7A920603D52022597A0A4395
:1078D0005A721A7AD20623D569460800294AC0CAC4
:1078E000C0C0A268920B9203A26040225879024362
:1078F0005A7160230A7828001A422AD1FFF72AFF1A
:107900002368FF33002827D08022997952420A4306
:107910009A711A7A520603D54022597A0A435A724A
:107920007F2601252368FF331E722F002368083746
:107930007F01DB19DB79002B07D0134BAA00D0584D
:1079400000280DD003681B6898470135082DECD13D
:10795000F7BDFFF785FBD3E720210C4A9171D8E7EB
:1079600029000B4800F046FB2368DF19FE71ECE7A5
:1079700029210020342100202C2100209D1C0020E2
:107980009C1C0020681E0020801C0020FF5000412D
:107990004822002010B50248FFF754FF10BDC04632
:1079A0007C1C002080235B0003800023436007339E
:1079B0000372704783000148C0187047541C0020B0
:1079C000836C402B09D03F22036CC154036C0133FC
:1079D00013400364836C013383647047F7B505007B
:1079E0006846FFF75BF900264022019B013B02D36A
:1079F0002E6D961BFAE768460193FEF778F9AB6D9A
:107A00006846002B4FD1FFF749F92900019BA831A7
:107A1000013B5A1C0CD00C785A1EE4B2002C05D144
:107A200068460193FEF763F92000FEBD1300F0E7FE
:107A3000684601930024FEF75AF92A002900A03273
:107A40001368A431B4420ED0086898420BD92800BC
:107A5000591CEB181160603319780830C9B2FFF770
:107A6000AFFF0134E9E709689942DDD100231360D3
:107A70000133AB656846FFF711F92F002A0000219A
:107A8000019BA837013BF532581CC9D039701078DA
:107A90005E1E002805D0117028000193FFF73EF903
:107AA000EBE73300F0E7FFF7F9F82900019BF43129
:107AB000013B5A1C06D00C785A1EE4B2002CAFD001
:107AC0001300F6E7684601930024FEF710F92A0038
:107AD0002900EC321368F031B44202D008689842B1
:107AE0001DD8096899429FD1002368461360AB6591
:107AF000FFF7D4F82F002A000021019BF437013B47
:107B0000F532581C00D18BE7397010785E1E0028C2
:107B100011D0117028000193FFF700F9EAE728005F
:107B2000591CEB181160AC3319780830C9B2FFF753
:107B300047FF0134CBE73300E3E710B50400FFF75C
:107B40004DFF206D10BD10B50400FFF747FF236DFA
:107B5000002B03D0E36CE418207A10BD01204042D2
:107B6000FBE7F7B517000E000400FFF737FF684684
:107B7000FFF794F83F2200259446019B013B5A1CD5
:107B800019D0BD4215D2226D002A12D00121226DDA
:107B90004942002A0AD06046E26CA218117AE26CCF
:107BA00001320240E264226D013A226571550135CD
:107BB000E7E7013BE3E768460193FEF798F8280002
:107BC000FEBD0000014B024A1A60704734210020BC
:107BD0000050004170B50E0000254468002C0BD009
:107BE000236831005B6820009847002802DB2D18CD
:107BF000E468F3E701256D42280070BD70B50D0003
:107C00004468002C08D0236829009B68200098470E
:107C1000002802D1E468F4E7200070BD70B50D00C3
:107C20004468002C07D0236829002000DB689847AF
:107C3000E4682D18F5E72C7070BD70B50D00446830
:107C4000002C08D0236829001B68200098470028D2
:107C500002D1E468F4E7200070BDF8B542788B7972
:107C60000D00017A9B18040000208B4222DC63681F
:107C7000834219D16560002623786A71EA792B71F5
:107C80009B182370AB79B34213D9AB68B700607807
:107C9000DF19FFF78FFE3B68013603606378F6B2A9
:107CA00001336370EEE70B00D9680029FBD1DD607A
:107CB000E1E70120F8BD000070B50126054D064C36
:107CC0002B68334203D12000FFF76CFE2E602000AA
:107CD00070BDC046382200203C22002010B503F0C1
:107CE00045FD10BD10B503F04BFD10BD00207047E1
:107CF00070B50F26CB1D013902003240D5B22C00E1
:107D000000093034092A00DD07341C70013B8B4226
:107D1000F2D170BD10B50C000B4B1868FFF7E8FFEF
:107D200021000A4B08311868FFF7E2FF2100084BD9
:107D300010311868FFF7DCFF2100064B1831186876
:107D4000FFF7D6FF202010BD0CA0800040A08000CF
:107D500044A0800048A0800008B4024B9C46103824
:107D600008BC6047157D00003F20704713B56B4687
:107D70000268D9710733546819000122A04716BD63
:107D800070B50A260B7892B06E44023305000B7072
:107D90003C220021300003F006FD394801AC06907A
:107DA000384824210790062020776846364AA17477
:107DB0002281364A364BA281FD3AFF3A8018C177BC
:107DC000684623390630C17768460730C17702A874
:107DD000C1770720F277032608316944C87703A9E1
:107DE000CE7710212B366E443170092621851F3144
:107DF00069440E700CA9053E0E70332123800223C6
:107E000069440B7006360DA90E7022493536A186DD
:107E10003B216E44307010A86274E27702703D32EC
:107E200069446A440B70137040210022E37023718F
:107E30006371A37341336B44218719705A702B7D92
:107E4000C039A370A37263770133DBB2A3776A7D75
:107E50000B200D0068441543C5773120684403703A
:107E60003A23501C6B441870412302320A436B447E
:107E70001A70210042220848FFF758FB12B070BD6B
:107E80001001042402060524090400000102000078
:107E9000080B0000070500007C1C002008B4024B02
:107EA0009C46103808BC6047817D000070B5027D9B
:107EB0000B790C0000259A420BD10B784E78A12B40
:107EC00009D1212E05D107221B491C48FFF72EFBA3
:107ED0000135280070BD212BFBD1202E22D1072295
:107EE00015491648FFF758FA9622134BD200196825
:107EF00091421DD1DB79DB071AD4FA20FEF716FE7A
:107F000000210E48FFF71AFC0125232EE1D1E3786A
:107F1000A2781B0213430A4A002108481360FFF7A6
:107F20000DFCD6E7222EEFD18A78034BDA71DBE71E
:107F3000FEF706FEE4E7C0462C0000207C1C002073
:107F40002800002008B4024B9C46103808BC60474B
:107F5000AD7E000010B5417D006A0131FFF746F9A2
:107F6000034B1B6801335A1E9341181810BDC046BD
:107F70003400002010B5417D006A0231FFF74CF952
:107F800010BD10B5417D006A0231FFF713F910BD35
:107F900070B50D00417D0400130002312A00006A13
:107FA000FFF70EFA002801D10123636070BD0000C5
:107FB00010B5054C23685A1C04D103685B699847C7
:107FC00003002060180010BD34000020074A0300A1
:107FD000106810B5411C03D001235B42136010BD33
:107FE000597D186A0131FFF79BF9F8E7340000204A
:107FF0000020704770470000FA239B0010B5836093
:108000000F4B0022C3820300283383610D4B040011
:108010004260C2611800403323610830631D216251
:108020002060DA778323A362813BE362803323639A
:10803000FFF742FE21001031FFF70FFE200010BDB8
:108040000302000034E40000022110B5094B1A6855
:10805000437D5B01D318FF339C7A21439972437DA2
:108060000133DBB25B01D3180122FF33997A0A4353
:108070009A7210BD342100207047000010B50249EB
:108080000248FFF7B9FF10BD7C1C002048220020E9
:1080900030B5204A4B0087B05B0893421CDD1E4A76
:1080A000934205DD02000B0002F00CFF07B030BD6B
:1080B00002AA00F08BF803231840049A059B0128BC
:1080C0000FD002281CD0002815D002980399012453
:1080D000009401F005F8E9E70022002300F086FA99
:1080E000E4E700900298039900F0FAFF80231B0652
:1080F0009C466144DAE70298039900F077FAD5E7E5
:108100000298039900F072FA80231B069C46614492
:10811000CCE7C046FB21E93FFFFFEF7FF8B5274AD8
:108120004B005B0D9A180C000700132A10DC002A84
:1081300036DB234B13410B423AD0802424031441F5
:10814000002064189C430600250030002900F8BD7B
:10815000332A0EDD80230600DB000D009A42F4D1A5
:1081600002000B003800210001F014FD06000D0094
:10817000EBE7144D0600AC46012563446D42DD403B
:10818000AC4663460D000342DFD033239A1A323BDC
:1081900093401818874200D94C1C63469843D2E795
:1081A000C90FCC070020531CCDD1074B1C43CAE795
:1081B00006000D000028C0D1C7E7C04601FCFFFF44
:1081C000FFFF0F00EDFBFFFF0000F03FF0B54E4654
:1081D0004546DE465746E0B5E14B4C008FB0904631
:1081E000894664089C4200DC87E0DE4B9C4222DC2E
:1081F000DD4A002900DC92E0DC4B02F063FEDB4B41
:1082000006000F009C4200D17EE1D94AD94B02F012
:1082100059FE02000B00414630000A604B603900F5
:1082200002F050FED34BD24A02F04CFE43460125E9
:108230009860D9606BE0D04B9C4200DC8FE0CF4B64
:108240009C4200DD55E1CE4A231592469A445146A0
:108250000905631A19001D00040003F097F903F0E3
:10826000CBF902000B00200029000892099302F0CC
:1082700029FE0022C34B02F0B3FB0F00060003F0FF
:1082800085F903F0B9F904000D0002000B0030007D
:1082900039000A940B9502F015FE0022B94B02F04A
:1082A0009FFB002200230C900D9101F06BFA002837
:1082B00000D192E1002300222000290001F062FA9F
:1082C000434243410133B04A41460192022208A889
:1082D0000092524600F0A4FA4B460500002B16DA35
:1082E000802243461206944642465B6845426344F8
:1082F0005360D3686344D36009E00B000200414639
:108300000A604B600022002300258A60CB602800B1
:108310000FB03CBC90469946A246AB46F0BD934B8D
:1083200001F038FC914B06000F009C4200D13DE16A
:108330008F4A904B01F02EFC02000B0041463000AA
:108340000A604B60390002F0BDFD894A894B01F09B
:1083500021FC012543466D429860D960D7E700F0C3
:1083600071FF8A4A8A4B06000F0002F039FB002297
:10837000884B01F00FFC03F009F9050003F03CF90C
:10838000794A7A4B0490059102F02AFB02000B0017
:108390003000390002F096FD754A06000F0004987F
:1083A0000599744B02F01CFB029003911F2D00DC19
:1083B000C7E0029A039B3000390002F083FD834638
:1083C0008A4653465B0024155B0DE31A102B6CDDC7
:1083D00004980599D322674B520502F001FB020075
:1083E0000B00300039000292039302F06BFD0A008B
:1083F000010013000691079202003900300002F0DC
:1084000061FD029A039B02F05DFD06000F000498D7
:108410000599614A614B02F0E3FA32003B0002F039
:1084200051FD069E079F0B000200390030000292AA
:10843000039302F047FD4B005B0D83468A46E41A26
:10844000312C32DD04980599B822544B920502F084
:10845000C7FA03000C000200029303940B00069875
:10846000079902F02FFD02000B0006000F0006988E
:10847000079902F027FD029A039B02F023FD484A68
:108480000290039104980599464B02F0A9FA029ACA
:10849000039B02F017FD02000B003000390002922E
:1084A000039302F00FFD83468A465A4653464146DF
:1084B00030000A604B60390002F004FD029A039B11
:1084C00002F000FD44460B000200A260E3604B4650
:1084D000002B00DB1BE75B46236080231B06534415
:1084E000636080231B069C466144A060E1606D428E
:1084F0000DE70B00020002F0E5FC43460025986002
:10850000D9601860596002E7D3221A4B520502F075
:10851000D9FC214A214B0D00040002F0D3FC0200DB
:108520000B00414620000A604B60290002F0CAFCA3
:108530001A4B194A02F0C6FC434601259860D960DF
:10854000E5E602000B003000390002F0BBFC6B1EB8
:10855000154A9B009B5883468A46A342A5D130E723
:10856000FB21E93F7BD9024000004054FB21F93F49
:108570003163621A61B4D03DFB213941FFFFEF7FC7
:10858000EAFBFFFF0000704104E5000083C8C96DED
:10859000305FE43F0000E03F7370032E8A19A33B75
:1085A000C14920259A837B3984E40000D3220C4BF7
:1085B000520501F0EFFA0B4A0B4B04000D0001F0DD
:1085C000E9FA02000B00414620000A604B602900D6
:1085D00002F078FC034A044BB9E6032373E6C04675
:1085E00061B4D03D7370032E8A19A33BF0B54746A2
:1085F000CE4680B587B000920193754B4F008146FF
:1086000088467F089F4263DC02F0C0FF002800D14B
:10861000D4E04A4643464846414602F0E1F90400A8
:108620000D006C4A6C4B02F0DBF96C4A6C4B01F0AC
:10863000B1FA22002B0002F0D3F96A4A6A4B02F029
:1086400041FC22002B0002F0CBF9684A684B01F094
:10865000A1FA22002B0002F0C3F9664A664B02F031
:1086600031FC22002B0002F0BBF9644A644B01F09C
:1086700091FA22002B0002F0B3F90290039100223C
:10868000604B2000290002F0ABF9029A039B060020
:108690000F002000290002F0A3F9009A019B0400BA
:1086A0000D004846414602F09BF902000B002000F5
:1086B000290002F007FC02000B003000390002F034
:1086C00001FC02000B0000204F4902F0FBFB70E0B0
:1086D00002000B0002F084F904000D003D4A3E4BFD
:1086E00002F07EF93D4A3E4B01F054FA22002B0085
:1086F00002F076F93B4A3C4B02F0E4FB22002B00EF
:1087000002F06EF9394A3A4B01F044FA22002B008C
:1087100002F066F9374A384B02F0D4FB22002B00F6
:1087200002F05EF9354A364B01F034FA2B00220094
:1087300002F056F9354B029003919F429FDD344B76
:1087400000229F423DDC334900207B182E49160051
:108750001F0002F0B7FB049005910022294B200076
:10876000290002F03DF932003B0002F0ABFB029A17
:10877000039B06000F002000290002F031F9009A47
:10878000019B04000D004846414602F029F9020011
:108790000B002000290002F095FB02000B003000C6
:1087A000390002F08FFB02000B000498059902F0DB
:1087B00089FB07B00CBC90469946F0BD00201249D9
:1087C000F7E7154B002604920593144FC5E7C04602
:1087D000FFFF3F3ED43888BEE9FAA8BDC4B1B4BD9E
:1087E0009EEE213EAD529C804F7E923E9015CB195D
:1087F000A001FA3E7751C1166CC1563F4C555555F4
:108800005555A53F0000E03F0000F03F3233D33F15
:108810000000E93F0000E0FF0000E73F0000D23F1A
:10882000F0B5DE464E4645465746E0B5DC4CA5441D
:108830000D9114001900A49A0993DA4B9200D658AE
:108840004D1E03901821E01E0696029500F09EFE34
:10885000C3430100DB1719404B1C9A009B1ADB0035
:108860001B190B9105934C1B771918D4A59BA500D8
:108870009C463F1922AE6544013707E0286802F0A4
:10888000BBFE013403C60435BC4208D0002CF5DA27
:1088900000200021013403C60435BC42F6D1069BFA
:1088A000002B01DA00F0FDFB069B03990133DB008E
:1088B0009A46099BDA00944600920022914672AAD9
:1088C0000492B94A6144934688469AAB63449B44F8
:1088D000029B002B00DABCE15D4600260027039CCA
:1088E0004D442A686B6803CC02F07AF802000B0052
:1088F0003000390001F04EF9083D06000F004445F4
:10890000EFD1049B4B441E605F6008239C46E1440A
:10891000D145DDD10EA804218446494261448C46EC
:10892000069A93009C44614684460A910399083B49
:1089300063448C460C93009B009263449B46009AD0
:108940000498D10003008C46634408911E685F6858
:10895000002A33DD954980468C466244D300984412
:1089600070AB9A460EAB99460022914B300039000D
:1089700002F036F802F00AFE02F03EFE00228D4BB5
:1089800004000D0002F02CF802000B00300039004A
:1089900002F098FA02F0FAFD4B4601C399464346AD
:1089A00020001A685B68290001F0F4F808235B4294
:1089B0009C46E04406000F00D045D5D1059B300011
:1089C0001A003900984600F0DDFCFF2300229B05C9
:1089D00004000D0002F004F800F038FC0022764B91
:1089E00001F0FEFF02000B002000290002F06AFAED
:1089F0000D00040002F0CAFD814602F0FDFD0200F8
:108A00000B002000290002F05DFA060040460F002E
:108A1000002800DCEEE0009B18215A1E92000EABED
:108A20009B58091A1D000D41A9448D405D1B0EABDA
:108A30009D5017231B1A1D41002D2DDD01239C463F
:108A4000009BE144002B00DC1CE20E9C0123002C67
:108A500000D0B5E0009A012A09D099000EAA545816
:108A60000133002C00D0ACE0009A9A42F5D1059B6E
:108A7000002B0EDD012B00D1A8E1022B09D1009BB8
:108A80000EA95A1E92000EAB9B5807939B029B0A9D
:108A90008B50022D00D1C1E00023002230003900AC
:108AA00000F070FE009B002800D194E2069A591E47
:108AB0008A4210DC414A0A9894460EAA63449446BE
:108AC00000229B0063441C68043B22438342FAD18A
:108AD000002A00D0C0E0069B0EAA013B9B00D358A1
:108AE000002B00D0B3E001220C9B043B59680132FB
:108AF0000029FAD0009B9C466244110007921A009C
:108B000001338B4246DC0B9863468046A59C434468
:108B1000A046099C9B00A1464A449844D30022AA3F
:108B20009146049A99449446089BA59A63448446C6
:108B3000614494469A468B006344009343465868C8
:108B400002F05AFD4B4618605960029B002B24DB53
:108B50004D46039C0026002701E0286869680CCC7C
:108B600001F03EFF02000B003000390001F012F866
:108B7000083D06000F005C45EFD153469E60DF6064
:108B800004239C460433E0449C46009BE144E244B9
:108B90009845D3D1079B0093D1E600260027ECE748
:108BA00094FDFFFF50E6000018FEFFFFFFFFFF1FD0
:108BB0000000703E0000704100002040FFFFFF3FBA
:108BC000002180225204141B0EAA5450009999428D
:108BD0000EDD0EA884469B000EAA8900D25861447F
:108BE0006344CF4800E01A68821A04C38B42FAD16A
:108BF00001243CE7059B002B06D1009B0EAA013BFC
:108C00009B00D558ED1517E70022C64B300000F049
:108C1000DDFD002800D024E100253DE732003B00C7
:108C20000020C14902F04EF906000F00002C00D1CF
:108C300032E7059A0020BC4900F0A4FB02000B00BB
:108C40003000390002F03EF906000F0024E701224F
:108C500050E70026002754E64B46059A07938846BE
:108C60008B000EA9CB58183A08950592002B0DD110
:108C70008C464146AD4B43449B006344043B5868DB
:108C80000139183A0028F9D088460592059A002043
:108C9000A54900F077FB434604000D00002B00DAE5
:108CA00005E29E000EAB9C464346DB0066449C46B4
:108CB000059370AB9946049F67440097306802F0B3
:108CC0009BFC22002B0001F08BFE002238607960B3
:108CD000974B2000290001F083FE083F04000D009F
:108CE000043EB945EAD14AAB03939B4600239A461A
:108CF000069B4246994643460132029204934B46F4
:108D0000002B00DAAAE080208A4B009D9846C0051F
:108D1000894900260027002408E008239C460835DE
:108D2000E044544511DC4346186859682A686B686A
:108D300001F056FE02000B003000390000F02AFF5F
:108D4000013406000F00A145E7DA5B46C0C39B462D
:108D500001239C46009BE244083B0093029B9A45FA
:108D6000CDD1049B9846A49B022B00DD8EE0002B06
:108D700037DC1FD1059B00271D00039B00249C4668
:108D80001E006544083E2A686B683800210000F028
:108D900001FF083D07000C00AE42F4D1089B002BF8
:108DA00003D080231B069C4664443A0023000D999F
:108DB0000A604B600720079B18409B239B009D4443
:108DC0003CBC90469946A246AB46F0BD009B0EA91E
:108DD0005A1E92000EAB9B5807935B025B0A8B50A6
:108DE00057E64346002B00DA70E100200021DB004B
:108DF0004AAAD61848AF32687368083E00F0CAFE27
:108E0000B742F8D1089B002B00D025E10B000200EF
:108E10004A984B990D9C2260636002F053F84346D8
:108E200007000C00002B13DD01254CAEB1463800C5
:108E30002E0021004C4601360CCC00F0ABFEA146C2
:108E4000B045F7DA089B07000C00002B00D015E1B5
:108E50003A0023000D998A60CB60ABE7002600271B
:108E600073E701239C46009BE1440225002B00DDB3
:108E7000EBE532003B0000202B4902F023F806000E
:108E80000F0009E60024F2E54AAB0393A49B032BF1
:108E900000D08FE74346002B00DC14E1039ADB008F
:108EA0009B46130091465B441E685F68234B434416
:108EB0000293DB00994448AB9A464B465C681B68BA
:108EC0001800210032003B000090019100F062FE8A
:108ED00004000D0002000B000098019901F0F2FF60
:108EE0003B00320000F056FE4B469860D9601C6093
:108EF0005D6008235B429C46E14426002F00CA4582
:108F0000DBD14346012B00DCE3E0039A13005B4412
:108F10001E685F68029BDB0099464A44904610E059
:108F2000FFFFFF000000E03F0000F03FFFFFFF3FBA
:108F30000000703E10E60000FB21F93FFFFFFF1F1D
:108F4000984643465C681B681800210032003B00CD
:108F50000090019100F01EFE04000D0002000B00C5
:108F60000098019901F0AEFF32003B0000F012FEC4
:108F70004346039A9860D9601C605D60083B2600F8
:108F80002F009A42DCD14D469446002600244746E5
:108F9000083565442A686B683000210000F0FAFD4E
:108FA000083D06000C00AF42F4D1039B4A9F5D6868
:108FB0009968D868089B002B65D0802212069446D9
:108FC0000D9B6544604464441F605D609960D86097
:108FD0001E615C61EEE69A464B460793059B3000A6
:108FE0005A423900089500F0CDF900223A4B0600AC
:108FF0000F0000F0EBFB002824D0384B002230009B
:10900000390001F0EDFC02F0C1FA5246040095006F
:1090100002F0F2FA0022304B01F0E2FC02000B00F9
:109020003000390001F04EFF02F0B0FA0EAA5051A4
:109030000122059B524418339046059393000EAAD3
:10904000D45023E65346300039009C0002F09EFACB
:109050000EAB1851D04619E680230D9A1B06CB188B
:10906000106053600B0002004A984B9901F02AFFF0
:10907000434607000C00002B00DDD5E680231B06CD
:109080009C466444E4E62B003A000D9D2A606B6028
:109090000A000300AA60EB60320023002A616B61C2
:1090A00088E6099BDB00009372AB049332E4A49B37
:1090B000022B00DDE8E6002B00DD92E600D079E629
:1090C000002700246AE6002600246EE70020002125
:1090D00098E60026340068E7000070410000703E0A
:1090E000F0B5CE46474680B587B000920193474A17
:1090F0004B00814688465B08934207DC4146484660
:1091000002F044FA4146031E484666D04A464346AA
:109110004846414601F064FC04000D0002000B00CB
:109120004846414601F05CFC394A3A4B06000F00C4
:109130002000290001F054FC374A384B01F0C2FEF0
:1091400022002B0001F04CFC354A364B00F022FD8A
:1091500022002B0001F044FC334A344B01F0B2FEF4
:1091600022002B0001F03CFC314B324A00F012FD92
:109170000E9B02900391002B34D00098019900229D
:109180002D4B01F02DFC029A039B049005913000B9
:10919000390001F025FC02000B000498059901F04C
:1091A00091FE22002B0001F01BFC009A019B01F0B4
:1091B00089FE224A04000D00214B3000390001F0E5
:1091C0000FFC02000B002000290000F0E3FC02006D
:1091D0000B004846414601F075FE07B00CBC9046B6
:1091E0009946F0BD02000B002000290001F0F8FBB9
:1091F000124A134B01F066FE32003B0001F0F0FB17
:109200004A46434600F0C6FCE7E7C046FFFF3F3E44
:109210007CD5CF5A3AD9E53DEB9C2B8AE6E55A3E00
:109220007DFEB157E31DC73ED561C119A0012A3F9C
:109230001111813FA6F810110000E03F4955555526
:109240005555C53F49004B0819007047474AF0B5CE
:109250004F4691464B005B0D99444646D6464A46DA
:10926000C0B505000C000E0088460700132A27DC55
:10927000002A4BDB3E4B13419A460B0052461340EB
:10928000034318D03B4A3C4B2800210000F082FCED
:109290000022002300F090FA002847D0002C04DAC6
:1092A00080234A465B0313419844464653460027B1
:1092B0009E43380031001CBC90469946A246F0BD42
:1092C000332A08DD8023DB009945F4D102000B002E
:1092D00000F060FCEFE7294A9446012263445242C1
:1092E000DA4092460242E6D0224A234B280021006F
:1092F00000F050FC0022002300F05EFA002815D098
:10930000002C1EDB534646469F430FE0194A1A4B7A
:109310002800210000F03EFC0022002300F04CFA5F
:10932000002803D0002C04DB002700263800310081
:10933000C1E76400640825430027002DF6D0104ED5
:10934000F4E74B46142B0BD03422D21A012393405E
:109350005D19BD4208D201239C462F00E044D1E7AD
:10936000133B9C46E044CDE72F00CBE701FCFFFF19
:10937000FFFF0F009C7500883CE4377EEDFBFFFF8C
:109380000000F0BF4B0070B55B0D14000A00002B0D
:109390001AD14B005B08034315D0234B002201F088
:1093A0001FFB224B9C422DDB0A004B005B0D363B22
:1093B0001F4DE318AB422ADC002B0DDD1D4C1B05B5
:1093C00022401A43110070BD1B4DAB42F0D1020088
:1093D0000B0000F0DFFBF6E71D00353519DA174BFF
:1093E00002009C4209DD0B001548164900F032F8D6
:1093F000134A144B01F0F4FAE5E70B001248134945
:1094000000F028F8104A114B01F0EAFADBE70200FD
:10941000E9E7084C363322401B05134319000022AC
:109420000B4B01F0DDFACEE700005043B03CFFFFEC
:10943000FE070000FFFF0F80FF07000050C3000081
:109440009C7500883CE4377E59F3F8C21F6EA50175
:109450000000903C30B54A00DB0FDB0752081A438E
:10946000110030BD02B4714649084900095C490049
:109470008E4402BC7047C046002243088B4274D31E
:1094800003098B425FD3030A8B4244D3030B8B4205
:1094900028D3030C8B420DD3FF22090212BA030C0E
:1094A0008B4202D31212090265D0030B8B4219D3EF
:1094B00000E0090AC30B8B4201D3CB03C01A52410F
:1094C000830B8B4201D38B03C01A5241430B8B4257
:1094D00001D34B03C01A5241030B8B4201D30B0340
:1094E000C01A5241C30A8B4201D3CB02C01A524167
:1094F000830A8B4201D38B02C01A5241430A8B422A
:1095000001D34B02C01A5241030A8B4201D30B0212
:10951000C01A5241CDD2C3098B4201D3CB01C01A2C
:10952000524183098B4201D38B01C01A5241430936
:109530008B4201D34B01C01A524103098B4201D324
:109540000B01C01A5241C3088B4201D3CB00C01A91
:10955000524183088B4201D38B00C01A5241430809
:109560008B4201D34B00C01A5241411A00D201462E
:10957000524110467047FFE701B5002000F0F0F8B7
:1095800002BDC0460029F7D076E7704703460B437B
:109590007FD4002243088B4274D303098B425FD3EC
:1095A000030A8B4244D3030B8B4228D3030C8B4218
:1095B0000DD3FF22090212BA030C8B4202D31212FE
:1095C000090265D0030B8B4219D300E0090AC30BD3
:1095D0008B4201D3CB03C01A5241830B8B4201D380
:1095E0008B03C01A5241430B8B4201D34B03C01A69
:1095F0005241030B8B4201D30B03C01A5241C30AE1
:109600008B4201D3CB02C01A5241830A8B4201D351
:109610008B02C01A5241430A8B4201D34B02C01A3B
:109620005241030A8B4201D30B02C01A5241CDD2E0
:10963000C3098B4201D3CB01C01A524183098B422B
:1096400001D38B01C01A524143098B4201D34B0114
:10965000C01A524103098B4201D30B01C01A524177
:10966000C3088B4201D3CB00C01A524183088B42FE
:1096700001D38B00C01A524143088B4201D34B00E7
:10968000C01A5241411A00D2014652411046704759
:109690005DE0CA0F00D04942031000D3404253405E
:1096A00000229C4603098B422DD3030A8B4212D31E
:1096B000FC22890112BA030A8B420CD38901921150
:1096C0008B4208D3890192118B4204D389013AD08D
:1096D000921100E08909C3098B4201D3CB01C01A62
:1096E000524183098B4201D38B01C01A5241430975
:1096F0008B4201D34B01C01A524103098B4201D363
:109700000B01C01A5241C3088B4201D3CB00C01ACF
:10971000524183088B4201D38B00C01A5241D9D2E7
:1097200043088B4201D34B00C01A5241411A00D268
:109730000146634652415B10104601D34042002B64
:1097400000D54942704763465B1000D3404201B5E3
:10975000002000F005F802BD0029F8D016E7704798
:109760007047C0468446101C62468C46191C6346EE
:1097700000E0C0461FB501F0CBF8002801D400215D
:10978000C8421FBD10B501F023F84042013010BDA2
:1097900010B501F0BDF8002801DB002010BD01204C
:1097A00010BDC04610B501F0B3F8002801DD00205F
:1097B00010BD012010BDC04610B501F045F80028CD
:1097C00001DC002010BD012010BDC04610B501F025
:1097D0003BF8002801DA002010BD012010BDC04672
:1097E00070B500220C4B04000D00FFF7EFFF0028BE
:1097F00004D12000290001F0C9FE70BD064B0022F3
:109800002000290001F05EFB01F0C0FE80231B0652
:109810009C466044F1E7C0460000E041F8B5574679
:109820004E464546DE464402E0B546008846640A98
:10983000360EC70F002E63D0FF2E24D08023E40005
:10984000DB041C43002399469B467F3E4346424629
:109850005D02D20F5B006D0A1B0E9046924665D0EA
:10986000FF2B55D080220021ED00D2047F3B154311
:10987000F61A43464A467B400F2A00D98DE06D48D0
:10988000920082589746002C54D108239946063BF3
:10989000FF269B46DAE70025534602291BD0032901
:1098A00000D1BFE0012928D030007F30002820DD22
:1098B0006A0704D00F222A40042A00D004352A0166
:1098C00003D530005C4A80301540FE2803DCAC0133
:1098D000640AC2B201E0FF2200246402D205600AD9
:1098E000DB07104318433CBC90469946A246AB4662
:1098F000F8BD0122101A1B287CDD00220024ECE7B1
:10990000002C1DD104239946033B00269B469DE76E
:10991000FF3E002D20D1022143464A467B400A43A8
:109920000F2AD8D84548920082589746002D19D161
:109930000121F1E70C239946093BFF269B4685E769
:10994000200001F0C5FE7626431F9C40002376428E
:10995000361A99469B4679E74A4603231A439146AD
:10996000032186E7280001F0B3FE431F36189D400F
:10997000763600217DE780240023E403FF22ACE754
:1099800000258023DB031C4228D01D4226D12B4317
:109990005C02640A4346FF229FE762016C01A24217
:1099A00024D21B210025013E012710006D0052002A
:1099B000002801DB944201D8121B3D4301390029E4
:1099C000F3D11400621E944125436DE7BA4659460F
:1099D00025005346022900D061E77CE78023DB03A2
:1099E0001C436402640A3B00FF2276E7121B1A2123
:1099F0000125D9E79E362A00B5402C00C240651EDD
:109A0000AC411443620704D00F222240042A00D044
:109A10000434620103D4A401640A00225DE7012238
:109A200000245AE78024E4032C436402640AFF22E2
:109A300053E7C04660E60000FFFFFFF7A0E6000026
:109A400041024200C30F490A120E00207E2A0DD99E
:109A50009D2A0CD8802000040143952A0ADC962018
:109A6000821AD1404842002B00D108007047034AB7
:109A70009818FBE7963A9140F4E7C046FFFFFF7F56
:109A800070B500283DD0C317C5185D40C40F28002D
:109A900001F01EFE9E22121A962A07DCD2B2082876
:109AA00033DD083885406802400A23E0992A0BDD3F
:109AB000052329001B1AD94003001B339D402B00AE
:109AC0005D1EAB4119430D00052801DD431F9D407C
:109AD0002B000F490B406E0709D00F263540042D8F
