:10000000002C0020F5280000F1280000F128000055
:1000100000000000000000000000000000000000E0
:10002000000000000000000000000000F1280000B7
:100030000000000000000000F1280000F12800008E
:10004000F1280000F1280000F12800006D0E0000EA
:10005000F1280000F1280000F1280000451F0000F1
:10006000F1280000F1280000F1280000F12800002C
:10007000F1280000F1280000F1280000F12800001C
:10008000F1280000F1280000F1280000F12800000C
:10009000F1280000F1280000F1280000F1280000FC
:1000A000F1280000F1280000F1280000F1280000EC
:1000B00010B5064C2378002B07D1054B002B02D03E
:1000C000044800E000BF0123237010BD2001002080
:1000D000000000006432000008B5084B002B03D07C
:1000E0000748084900E000BF07480368002B03D019
:1000F000064B002B00D0984708BDC046000000000A
:10010000643200002401002064320000000000007E
:10011000EFF3108072B6BFF35F8F034B00221A70AB
:10012000434258417047C04618010020024B1A78DC
:10013000013AD2B21A707047D0030020044B1A78EB
:10014000013AD2B21A701B78024B00221A70704723
:1001500046010020D6030020002070470020704791
:1001600010B50F4B0F4C0020207018800E4BA122B1
:100170001A7020225A7002220C4958809880DA8026
:100180001881E1235B020B600823087148718B71B1
:10019000074B9847237801200133DBB2237010BD51
:1001A0006A060020D0030020DC0300203C01002070
:1001B0002D30000008B500200149024B984708BDCA
:1001C0003C0100202D300000002805D0034B012207
:1001D0001A70BFF35F8F62B67047C04618010020E7
:1001E000124B60211A7850B20A40002809DA002028
:1001F000202A1AD15A78212A17D1DA88072A14D14D
:100200000FE00020202A10D15A78202A04D0101C98
:1002100022384242504108E0DA88072A05D10449D1
:10022000196104499A819960012070477009002082
:10023000B50100003C010020F7B5364B1A78002AC2
:1002400066D1354CA047354D2C8800280FD0344B53
:10025000984784425CD0334B9847334A334B1478E9
:10026000071CE4B26100C95A002919D101E0304BE2
:10027000EEE7304E28493388013333808847002821
:1002800006D13388632B03D8381C2B4B98473FE0AB
:10029000214A9047002803D03288284B9A42F3D94C
:1002A000244B00221A80264B1B78934205D16342CF
:1002B00063411D49DBB20B7002E063425C41E4B272
:1002C000144A01231370381C1B4B9847174B6700C7
:1002D000DE5B413EFF3E731E9E41F6B2002E09D00A
:1002E0000D498847002801D00D4B00E0104B98477E
:1002F000288000E02E800D49A20124021419CB5B56
:10030000104A1149121900918120311C0F4CA0474D
:10031000F7BDC046D8030020C5140000D403002058
:10032000D9140000110100004701002048010020FD
:10033000C914000044010020C90100001F0300008F
:10034000690600204C0100205D03000055170000E5
:1003500008B5014B984708BD3902000008B50028D0
:100360000CD1074B1A7853425A41064B5200D052D7
:10037000054B1870054B1870054B984708BDC046D3
:10038000470100204801002069060020D803002012
:100390003902000010B5074B9847074A074B1B88E6
:1003A0001178074A49008C5AE41A064B9847201CDA
:1003B00010BDC04611010000D7030020D203002069
:1003C000CC030020C901000008B5034B9847431E29
:1003D0009841C0B208BDC04695030000F0B5194B66
:1003E00085B098471849194A0C781578E4B2EDB2EF
:1003F000002D08D1164E670033880393154BFB5A26
:10040000039FBB4203D9144B9847002018E0358066
:1004100066426641F6B20E700F4F01261670B8475D
:100420000E4B281C9847A2010D4B240214190D4AAB
:100430000093A02312190220311CB3400A4CA0479C
:1004400005B0F0BD11010000D703002068060020B0
:10045000D2030020CC030020C9010000C903000022
:10046000F1040000E80300205517000038B5134BD5
:10047000134D00242C701C70124B1C70124B1C70FE
:10048000124B1C805C80124B1C80124B9847124B05
:100490001C70124B1C70124B1C80124B1C80124B98
:1004A0009847A04209D02B780133DBB22B702B7810
:1004B000DBB2012B01D10D4A137038BDD8030020E7
:1004C0004601002069060020470100204801002065
:1004D000D40300203902000068060020D703002062
:1004E000CC030020D2030020DD030000D60300204F
:1004F00013B500281CD10F4B1B785C426341DBB263
:1005000000290ED199011B02CB180B49101CCB18E6
:100510000A491A1C0091A02301218B40084CA047D6
:1005200006E0084A5B009952074B1870074B984742
:1005300013BDC046D7030020E8030020F1040000EB
:1005400055170000CC03002068060020DD030000E2
:1005500008B50020014B984708BDC046C9030000FC
:10056000F7B5194B00269B79093B5A425341DBB240
:100570000193164B9847164B164F3C881D78164B27
:100580009847EDB2154B6A00D35AA4B2A34205D8DE
:10059000134B1878C0B20028EBD113E0AB012D0249
:1005A0005D19104B2D19EB5C01341E43A4B20E4BA8
:1005B0003C809847019B002B03D000233602019317
:1005C000D7E7301CFEBDC0463C01002011010000F1
:1005D000D7030020D2030020C9010000CC03002073
:1005E000D6030020E8030020DD03000038B5114BDE
:1005F0009847114A114B1178C9B24C00E45AA02314
:100600005B009C420FD10E4B1B78002B0BD10D4D84
:100610002B78DBB2002B06D101242C704C426141B7
:10062000C9B211701C1C084B9847A0204000001B49
:1006300038BDC046110100004701002048010020DC
:10064000D803002069060020C901000008B5034B4B
:100650009847431E9841C0B208BDC046ED05000052
:1006600008B50020014B984708BDC0464D06000064
:10067000F8B5154B0C1C9D79093D6B425D41EDB2FF
:100680000020124B9847002805D1114B1878C0B2B2
:100690000028F5D117E00F4B98470F4B0F491B78F7
:1006A000DBB25E00725A571C775299011B02CB18BD
:1006B0000B499A180B4B54549847002D02D0241222
:1006C0000025DDE70120F8BD3C0100204D060000BB
:1006D000D60300201101000047010020480100203E
:1006E0004C010020C901000008B5011C014B00208D
:1006F000984708BD7106000008B5034B58887F2352
:100700001840024B984708BD70090020D51800001A
:1007100030B5144B1A7800239A4221D0124B1B6833
:100720001B681A79824201D8002319E00F4A13602E
:10073000DC789D7824022C431C199C420ED95D78EC
:10074000042D08D19D78854205D1DD788D4202D1F6
:100750001360012304E01D785B19EEE71360E3E703
:10076000181C30BD750600206C060020780600209D
:10077000094B1B681B68DA78997812020A439B18A8
:1007800002788018834205D94278042A02D0052ACB
:10079000F6D100E0002070476C06002038B5104B01
:1007A000051C9847002801D1002018E00D4B1C685B
:1007B000201C0D4B9847041E0AD06279237912023F
:1007C0001A438078E178094B98470028F0D1EBE78D
:1007D000074BAD001B685B68EB581B68984738BD3A
:1007E0001107000078060020710700003D15000089
:1007F0006C060020F8B500210F4F051CB847041EF9
:1008000018D00E4BAA001B685B68D658F36898474F
:10081000011C281CB847041E0CD0094B1D68281C5D
:10082000084B9847051E03D08078074B9847F6E79A
:1008300073689847201CF8BD110700006C06002063
:100840007806002071070000E914000008B5014B8C
:10085000984708BDA119000038B50C4B00241A7840
:100860001D1CA24205D100232B70094B01221A80C6
:1008700038BD084B1B681B681B79A342F3D9201CA9
:10088000054B01349847E4B2F3E7C04675060020F3
:10089000720600206C060020F507000008B5024B28
:1008A0009847024B984708BD051A000059080000F8
:1008B00010B50B4B00241B78A3420FD0094B1B68CB
:1008C00019680A79A24209D95B68A200D3581B694A
:1008D000002B00D098470134E4B2EFE710BDC046CA
:1008E000750600206C060020F8B5A44C0023A381F7
:1008F00023616361237858B2002803DAE288002A72
:1009000000D1B2E16021194000D065E11F2200282A
:1009100000DBA9E0E588002D00D15DE1134067D13F
:100920006378062B09D0082B5DD0002B00D053E153
:10093000022D00D050E1924892E06088050A022D15
:100940000CD006D8012D00D046E18E4B18680178F6
:1009500040E0032D1FD00F2D13D03DE1894BC0B2D5
:1009600019684A7C824200D836E15B68C000C058F2
:10097000C178837809021943834B9847A268557060
:100980002AE0804B9868002800D125E1C17883785F
:10099000090219431EE0C0B2032800D91CE102F08D
:1009A00051FB070004000A0061011D21774A04E0A1
:1009B000774804210EE0774A0E21002376485D0037
:1009C000D65C451901336E80DDB28D42F6D3490005
:1009D000023101706C4B9847E388A2899A4200D893
:1009E000CAE0A381C8E0012D00D0F5E06B4837E0F4
:1009F000012B25D163780A2B00D0EDE0012D00D02A
:100A0000EAE0664B1B78002B00D1E5E0644B2679C9
:100A10001F683A681379B34200D8DDE0301C614B9F
:100A20009847051E00D1D7E07B68B600F358DB6815
:100A300098475D4B01211870181C534B984799E05B
:100A4000022B00D0C8E06378002B00D0C4E0022D58
:100A500000D0C1E0554B20799847554B1880181CA1
:100A6000291C494B984787E013404DD160780138E5
:100A7000082800D9B0E002F0DBFA0CAFAFAF05AF49
:100A8000AFAF1A00E388002B00D0A5E0494B2361EB
:100A900072E0E388002B00D09EE06388012B00D039
:100AA0009AE0374B02211A888A431A8064E0E5886D
:100AB000002D00D090E0404B9847002800D18BE0FB
:100AC000304EA27831684B7C9A4200DD84E03B4B8B
:100AD0009847A378314A1370002B4DD03849304ADB
:100AE0005B187168DB00CB181360161C33681B6839
:100AF0001B79AB4240D9281C0021324B9847002873
:100B00006AD00135EDB2F1E7012B15D163780B2BDB
:100B100062D1E388002B5FD1204B1B78002B5BD088
:100B20002579294B281C66889847002854D0F1B2B3
:100B3000281C244B98471CE0022B4DD16378012BD5
:100B400002D0032B09D047E0E388002B44D163880F
:100B5000002B41D120791D4B0AE0E388002B3BD1CB
:100B60006388002B38D12079194B98472079194B8D
:100B70009847051C002D2FD0012077E07009002038
:100B800072060020A4000020F518000037000020A5
:100B90009400002028000020580000207506002046
:100BA0006C060020110700007406002009160000E2
:100BB00070060020F9060000E51800005908000042
:100BC000FFFFFF1F9D070000F50700001917000039
:100BD000891400001D16000022781F231340012BEA
:100BE0001ED1234B1B78002B1AD0224B25791E686F
:100BF00032681379AB4213D9281C00211E4FB84725
:100C000000280DD07368AA00D658F3689847011CD5
:100C1000281CB847002803D0B36898470028ABD1F8
:100C200022781F231340022B1FD1114B00241B7865
:100C3000002B1AD00F4B1B6819680A79A24214D9ED
:100C40005B68A200D558E96888470B4B011C201C43
:100C50009847002809D0AB68984700288CD1013408
:100C6000E4B2E7E70421054AA7E60020F8BDC04644
:100C7000750600206C0600201107000026320000D7
:100C80000368987AC009704770B50C4B0822056854
:100C9000041CDA67201C0A4EB0470028FAD12B88C2
:100CA000022293432B8020756075201CB0470028DA
:100CB000FBD12B88012213432B8070BD04E100E09F
:100CC000810C0000F8B50668071C0D1C141C381CAC
:100CD0000F4B98470028FAD13A79002A0AD01A23F4
:100CE000012A12D11723012C0FD80634A400A551D4
:100CF000031C0AE01723022C07D806498D4204D8AA
:100D00000C34ADB26400A553131C181CF8BDC046CA
:100D1000810C0000FFFF0000F7B52D4B0160151C92
:100D20009A6920210A439A6101A90223041C0B70CD
:100D30000420284B98470420274B9847274B201C1A
:100D40009847AB7823712B796371254B1C602B88F6
:100D500026683380AB78002B16D01720012B36D1B4
:100D600033889BB23380EB78002B03D0338880220A
:100D700013433380201C1B4B9847021EFAD1201CC2
:100D8000A968194B984719E033880422134333802C
:100D9000EB781720002B1AD1201C124FB847021EE7
:100DA000FAD1201CA968104FB847201C0D4B98475A
:100DB0000028FAD1201CE9680122B8472B790020CD
:100DC000834204D072888023DB0113437380FEBD0D
:100DD000000400400128000079270000890C000071
:100DE00044070020810C0000C50C000070B5037999
:100DF000041C05680E1C1520002B05D1201C034B7C
:100E000098470028FAD1AE8270BDC046810C000020
:100E1000031C022A0CD00079002805D0012805D136
:100E20001720012A0FD803E0022A01D917200AE06F
:100E3000901C8000C1500120197D9040021C0A4383
:100E4000D2B21A750020704710B5036880220229BB
:100E500003D001228A4003242240DA710122437D1B
:100E60008A40111C1943C9B2417510BD38B5114BE8
:100E70001B68597D1C681A7D207A0A40E17901407F
:100E8000C80906D0510701D51B69984780232372F2
:100E90000EE00125294203D02A4208D09B6805E0D4
:100EA0000225294204D02A4201D0DB6898472572E6
:100EB00038BDC04644070020EFF3108072B6BFF380
:100EC0005F8F034B00221A70434258417047C0465F
:100ED000180100200F2303405B00C00918180238D6
:100EE00014235843014B18187047C0468006002051
:100EF000F0B58E7985B072B20D1C544B301C002AAF
:100F000046DA98470F2737400197028AC368029252
:100F10006D88041CED188368C560877C9D4221D0D4
:100F20005E1B4B4AB6B2964206D94A4B101C029938
:100F30009847474B5E1AB6B20023BA0706D5464B10
:100F4000301C029998478BB25A4253415A00A37CF5
:100F500002218B4313436268A37452193F480199DD
:100F6000331C0AE0B807C00F0AD0022362689F430F
:100F70003A480199A77452190023394CA04763E0FD
:100F800001239F432368A774002B5DD0291C59E0DF
:100F900098470F2333400293038A041C0193837CF8
:100FA0002F885A0710D5C268436801999B1803938C
:100FB0008068294B98470A1C02992A4B01398901FC
:100FC000C9180398284B9847E368FA18A368E260A9
:100FD0009A4200D9E360AA88BA422AD1E5689D42C4
:100FE00027D05E1B1A4FB6B2BE4206D9381C194B29
:100FF000019998477F1ABBB205E0301C164B019946
:101000009847761AB3B2019A1448184E93420BD2FD
:10101000A37C04221343029AA374013A114B920158
:10102000D2180299019B02E0626802995219B047F6
:101030000AE0A37C01229343A3742368002B03D00E
:10104000E1680020321C984705B0F0BDD50E0000C5
:10105000FF1F0000A1310000E1300000080800205F
:101060006D1E00004807002005320000B91E000078
:1010700010B5064B064C05221A70201C8021054B2A
:101080009847201C0021044B984710BDFB06002008
:1010900008080020F31D00000D1E000037B51E4B90
:1010A000041C9847226801AD80239372281C1B4BB7
:1010B000984703236B70291C201C194B9847201C50
:1010C0001849194B9847194D201C00210222184B32
:1010D000A84700210A1C201C164BA847164B201CB1
:1010E00000210122A847154D201C00210222A847FB
:1010F00000210A1C201CA847201C00210122A8470F
:1011000023680F4A19890A408021C9000A431A81BD
:101110000C4B00221A7037BD59080000111C00004A
:10112000211C000088090020011F0000A91A0000EE
:10113000951200004916000085110000F91A000000
:10114000FFF3FFFFFB06002010B5084B084C0322FD
:101150001A70201C0749084B9847084B00219A68D1
:10116000201C0B1C064CA04710BDC046FB060020EF
:101170000808002088090020011F000070090020D5
:101180006D1E000008B589790C4B4AB2002A08DAB6
:101190001B78012B02D10A4B98470DE0042B0BD191
:1011A00007E01A78022A02D104221A7004E0032A06
:1011B00002D10448044B984708BDC046FB060020F6
:1011C0004911000008080020F31D0000F8B51D4D6E
:1011D0001D4E2B88B4891D4FE41AA4B2002C1BD1DC
:1011E0001B4A11885B189BB21380F2889A4203D085
:1011F000184B1B78002B07D0174B04221A70381C91
:101200001649174B98471CE07369002B0BD0984781
:10121000002808D02C80B4893F2C04D90D4B002223
:101220001A70402402E00B4B01221A702B88B2681E
:10123000381CD2180021231C0A4EB0472B88E41812
:101240002C80F8BDF8060020700900200808002056
:101250007C060020FC060020FB06002088090020F8
:10126000011F00006D1E000008B5014B984708BD26
:10127000B1080000064B9A8C910605D4D968D0229B
:101280000A40D02AFAD102E0DA68D106FCD57047CC
:101290000008004070B5274E0C1C3378002B06D098
:1012A000254B1B69002B00D09847002333702388FF
:1012B000082B01D0214B2DE0214C1F4D23782B70A2
:1012C00063786B70E378A2781B02D3186B80637924
:1012D00022791B02D318AB80E379A2791B02D318C1
:1012E000EB80184B98470028E4D02B787F2B0DD942
:1012F000154B00211980154B221C198002233370D5
:1013000013484023134CA047134B03E0EB88002BFA
:1013100002D1124B98470BE00B4B002119800B4B6D
:10132000221C19800123337009484023094CA0472F
:1013300070BDC046FB06002070090020711000003F
:1013400088090020E90800007C060020F80600203B
:1013500008080020B91E0000CD110000491100004E
:10136000002805D0034B01221A70BFF35F8F62B6CD
:101370007047C04618010020F7B501AE114B041CA0
:101380001149301C04229847104B1D78A54217D0F4
:10139000002C08D00E4B375D98470E4BDA5D0132BA
:1013A000DA550D4B9847002D08D0094B755D9847CD
:1013B000084B5A5D013A5A55074B9847034B1C702E
:1013C000F7BDC046053200002B320000FA060020AF
:1013D000B90E00003C0700206113000038B5084C2E
:1013E000084D201C0621A847201C0421A8470221E3
:1013F000201C054B98470220044B984738BDC04637
:10140000080800208D1A00006D1A000079130000F2
:1014100038B50B4B98470B4C0B4B201C02219847BF
:101420000A4D201C0421A847094A0A4B201C06210A
:1014300098470621201CA8470320074B984738BD32
:1014400075120000080800208D1A00006D1A0000B7
:10145000DD1300004D1A00007913000010B5064C92
:101460000421201C054B98470221201C044B98475F
:101470000120044B984710BD080800208D1A000079
:101480006D1A00007913000038B5041C211C0A48AD
:101490000A4B98470A4B201C9847827C031CD107B3
:1014A00008D501201D6882439A74002D02D0D968A6
:1014B000221CA84738BDC04608080020A91D00000E
:1014C000D50E000000207047024B1B68188A80046C
:1014D000400D704708080020024B1B68188A80B234
:1014E0007047C04608080020F7B501AD041C0D4B3D
:1014F000281C9847201C0C4B98470C4F0026291C91
:10150000381C0B4BEE702C7098470F21321C214079
:10151000381C084B9847381C321C211C064B984736
:10152000F7BDC046111C0000891400000808002007
:10153000211C0000D11A0000851B0000F7B501AC8A
:10154000061C294B201C0F1C151C984726700023D5
:10155000082D1DD90123102D1AD90223202D17D9AA
:101560000323402D14D90423802D11D980235B003F
:101570009D4201D805230BE080239B009D4201D8AA
:10158000062305E0194B9D4201D900202AE00723DC
:101590006370301C164B98470323391C0582194091
:1015A000012901D1022304E0022902D00329ECD150
:1015B0000423104DE370211C281C0F4B9847041E78
:1015C000E3D10F21221C0D4B3140281C0C4FB84792
:1015D000221C311C0B4C281CA047281C311C01224A
:1015E000A0470120FEBDC046111C0000FF03000003
:1015F000D50E000008080020211C0000F10E00009C
:10160000A91A0000F91A000008B5011C014B024894
:10161000984708BDD51D0000080800200F2310B50D
:101620000340041C0020032B07D80448211C044B52
:101630009847201C034B9847012010BD0808002044
:10164000F31D000089140000F8B5284E3378012BF3
:101650003FD1274A274C0D881788A3897A199342CE
:1016600001DADD1BADB2A3682349D8192A1C234B2C
:10167000EF199847BBB21E4F3B80402D05D1204D3E
:10168000E1882A88D218914208DCA3816369002B83
:1016900002D0984700280AD01A4B1DE0A2899A422E
:1016A00010D16069002802D08047002804D10523AA
:1016B0003370154B984718E03A882B88D3182B8045
:1016C00000233B8000210C4A4023104C1048A047C7
:1016D0000BE0022B02D10F4B984706E0054B1B692C
:1016E000002B00D0984700233370F8BDFB06002084
:1016F000F80600207009002088090020053200004B
:101700007C060020491100001D160000B91E0000D3
:1017100008080020CD1100000F2370B50340061CFF
:101720000024032B0ED8084B9847084B051C311C8E
:1017300007489847AB7C0124DA0703D5A343AB7471
:101740002B689847201C70BDD50E00000D1E0000B0
:1017500008080020F0B51E1C0F2385B00340071CAD
:10176000029103920193032B01D9002596E04D4B82
:101770009847051EF9D14C4B381C98474B4B041C1D
:101780009847A27CD10702D5494B984786E00123B0
:101790001A43A274002804D0464A1370BFF35F8F27
:1017A00062B60023E3600A9B039A0298A17C23603F
:1017B00001236260184002229840914301430420B3
:1017C0008143A17479B2A660002930DA002E1AD0C4
:1017D000394DB6B2AE4205D9218A281C374B9847FD
:1017E0006E1AB6B202990023994206D0344B218A70
:1017F000301C98478BB25A4253415A00A37C0221B5
:101800008B43134304E00299002909D0A37C93433E
:10181000A3740199039A331C2A4C2B48A0473AE041
:10182000A27C9A43A2740A9A002A08D10CE0002EE6
:101830000CD1A27C0A999A43A274002904D00020FA
:10184000011C3A1C0A9B9847012527E01A4FB6B2A3
:10185000258ABE4206D9381C184B291C98477F1A86
:10186000BBB205E0301C164B291C9847761AB3B260
:101870001548164EAB420BD2A37C04221343019AA7
:10188000A374013A124B9201D21801992B1C01E06A
:101890000199039AB04745424541EDB2281C05B075
:1018A000F0BDC04609160000D50E0000B90E0000BC
:1018B0006113000018010020FF1F0000A13100008B
:1018C000E13000006D1E000008080020B91E000075
:1018D00048070020024B80221B6810439872704713
:1018E00008080020024B1B68987A7F231840704735
:1018F00008080020014B986099817047700900200A
:1019000008B5044B01201B681A8902431A81024B57
:10191000984708BD0808002079130000F8B5032097
:10192000164B9847164C01272368164E1A89201C1F
:10193000BA431A810421144AB047201C0021134ADB
:10194000B047391C201C124AB047124A201C022101
:10195000B047114D201C0421A847201C0021A84796
:10196000391C201CA847201C0221A8470B4A201C18
:101970000621B047201C0621A847F8BD79130000B6
:10198000080800204D1A00005D14000069120000D4
:101990009D100000111400006D1A0000DD130000FE
:1019A00073B50E4B984701AC061C0D4B201C984795
:1019B0000C4D00230C49221CA370281C0B4B98478C
:1019C000281C0B4B98470B4B984701200A4B984714
:1019D0000A4B9847301C0A4B984773BDB90E00005C
:1019E000552100000808002000500041652100003A
:1019F000311F000075120000791300001D1900004E
:101A00006113000010B5074B98470020064B98471C
:101A1000064B9847064B041C9847201C054B9847DB
:101A200010BDC0460119000079130000B90E000076
:101A3000391A000061130000034B1A78002A01D004
:101A400000221A707047C046FD0600200B1C2E3382
:101A50009B001A50044AAA235B004900895AC25AC3
:101A60000A43C2520020704730320000064B490042
:101A70000268CB5A9383AB225200815A1943815298
:101A8000026800201383704730320000054BAB2200
:101A900052004900CB5A815A994381520268002072
:101AA000938270473032000010B58C00A418343493
:101AB000A4000419411863605931044BFF310878C0
:101AC0009B5C03430B70002010BDC0463E320000FB
:101AD00010B58C00A418031C34345B18A40004193E
:101AE0000449002059336060FF33895C1A788A43C7
:101AF0001A7010BD3E32000070B50F230B40C418A1
:101B000061341F4DFF342678AD5C35432570002AC3
:101B10000ED10268002B02D1FF3203230FE05B01DC
:101B2000D31849B2FF330222002926DB012224E028
:101B3000012A0FD10268002B03D1FF320C239372CC
:101B40001CE05B01D31849B2FF330822002914DBE3
:101B5000042212E0022A05D102685B01D318FF3388
:101B600010220AE0032A09D102685B01D31849B2A6
:101B7000FF334022002900DB20229A72002070BD32
:101B80003E32000070B50F230B40C4181F4D613466
:101B9000FF34AE5C2578B5432570002A0ED102686B
:101BA000002B02D1FF3203230FE05B01D31849B2AF
:101BB000FF330222002926DB012224E0012A0FD173
:101BC0000268002B03D1FF320C2353721CE05B012F
:101BD000D31849B2FF330822002914DB042212E093
:101BE000022A05D102685B01D318FF3310220AE0F4
:101BF000032A09D102685B01D31849B2FF3340229E
:101C0000002900DB20225A72002070BD3E32000005
:101C100000230370437083700123C370704700007A
:101C2000F0B5021C0D78C8780F232B40ED0904286D
:101C300000D998E0146801F0FBF90308495D7A00C7
:101C400008335B010020E054A9E05D016419FF3412
:101C500066781C20770700D0A1E0677870263742AD
:101C600000D09CE011206070146808335B01E0181C
:101C7000402444711268D31880221A718A78484B24
:101C8000002A08D05A195468802000060443546082
:101C90005469204307E05A195068400040085060DA
:101CA00050694000400850615D194C78686807220F
:101CB0003C4B1440184024072043686049780A4090
:101CC000696912070B4013436B6162E058012418E5
:101CD000FF34002D07D0677870261C2037425ED174
:101CE0006078202612E066781C20770757D160784C
:101CF00002262FE058012418FF34002D10D06778F9
:101D000070261C2037424AD16078302630436070FC
:101D100010681A1C0832520182188020107122E0CB
:101D200066781C2077073AD16078032612E05801C4
:101D30002418FF34002D07D0677870261C20374206
:101D40002DD160784026E1E766781C20770726D100
:101D5000607804263043607010681A1C0832520103
:101D60008218402050715B005D190D4B48782D01A1
:101D70005B19072210405C680A4A000722400243B0
:101D80005A608878002806D05968802212060A43D3
:101D90005A60002003E05A68520052085A60F0BDB1
:101DA000C8090020FFFFFF8F0F230B400268083394
:101DB0005B0149B2D218002905DA8021117102684D
:101DC000D318022204E0402151710268D318012285
:101DD000DA7170470F220A400368083252019B18DB
:101DE00049B29879002901DA800600E0C006C00FE8
:101DF00070470F220A4003680832520149B29B180B
:101E00002022002900DB10225A71704730B50F22C2
:101E10000A404CB201685301C918FF31CD79002C3A
:101E200011DA2024254220D04C710168CB18FF33F1
:101E30001C7A40210C4218D01972036808325201F2
:101E40009A18022310E0102425420ED04C7101682C
:101E5000CB18FF331C7A20210C4206D0197203687C
:101E6000083252019A180123137130BD70B50D1C50
:101E7000046808356D012E5D1C247606760F14D09B
:101E80000B4C490161180A610C1C0A4A49690A4055
:101E900062619A046369920C9B0B9B031343636119
:101EA000036800245D1980236B71201C70BDC0463F
:101EB000C8090020FF3F00F0F0B50D1C046808358C
:101EC0006D012E5D1C24770713D00B4C49010A517C
:101ED00061184C689A04094B1209234013434B6064
:101EE0004B6800249B0B9B034B6003685D194023E8
:101EF0002B71201CF0BDC046C8090020FF3F00F038
:101F0000094B0A4A196059680A40802189020A432C
:101F10005A605A68920B92035A6003684022FF335A
:101F200000205A717047C046C8090020FF3F00F0EA
:101F3000036802211A780A431A7002689378022B08
:101F4000FCD07047F0B57E4C85B0206802681378ED
:101F5000DB0900D0F2E0118C8FB2002F4CD1AB2303
:101F60005B00C65A958BAA235B00ADB2C35A2E40C4
:101F70001E40744B7A00D35A1D4202D02268126868
:101F800093831E420FD07049062F06D16F4B1A89DA
:101F9000802312095B0013400B603B1C20682E332A
:101FA0009B001B5898470137072FE2D1C6E01E1C43
:101FB0000836B025009674016D00C618751959369B
:101FC0001419FF36B4460294E4792E7803956546D9
:101FD0002D78E4B22E40351C60262540344212D1C3
:101FE000102634422AD10C2634423AD1A60776D1A3
:101FF0000133082B00D1A1E03C1C1C410125D9B2C2
:102000002C42F5D0D3E75C011219FF32167A402436
:10201000264204D0147280225242114304E0167A00
:102020002024264202D01472494A9171602215423E
:1020300000D183E01B01C318DC337CE0029F0399CD
:10204000FE710A78324279D040495A018A185268A2
:102050001B0192043E49C318920CD8330A805B6876
:102060006BE05C011219FF32177A082637421DD047
:102070001672364A1419A67E02221834164202D06D
:10208000A6789643A670802252421143304A91713D
:10209000009902684F01D719FA7994074ED40C229F
:1020A00015424BD01B01C318D43344E0167A0427E1
:1020B0003E42F4D01772254A1219967A0224083249
:1020C000264202D09678A6439670214A91710099D3
:1020D00002684F01D719FA79D407E0D52EE05C01E8
:1020E0001219FF32177ABC46664602273E420CD0D0
:1020F000802617727642164A3143917113490C19A2
:1021000061698904890C518010E0177A01263742F1
:102110000CD016720E4A91710C490C196168890431
:10212000890C118061680901890C9180AF0705D085
:102130000D331B01C3185B680549984705B0F0BD16
:10214000100700203032000000070020C8090020DE
:102150000807002000220123027043708270C370C0
:1021600070470000F7B5171C634A00231360634AE9
:10217000051C1060624A29600C1CD169202001AE48
:1021800001430120D16106227370B070F3701820F2
:102190005C4B311C3270984706205A4A3070311C13
:1021A00019209047BB786846037069460620564B55
:1021B0009847564B062098472378012213432370F3
:1021C000A378D807FCD452490B685A0B1F231A4036
:1021D0009A4200D105221A409001268D4D4A324084
:1021E000024322850868820C13401F2B00D11D2357
:1021F000208D1F2213409043034323850B68072241
:10220000DB0D1340934200D103231340218D1A03A9
:10221000414B42480B401343238521783A787F2372
:10222000D2010B401343237079780123194023789E
:102230000422890093430B4323706062FB78012BD7
:1022400004D12B680C211A898A4306E0002B05D1A2
:102250002B680C241989A1430A431A818022304B30
:102260000021520098470023E918002204334A60F5
:10227000202BF9D1A918002310324B628B62CB625C
:102280000B63802AF6D12A1CA43213705370E9180C
:10229000081C0022A630AE31013302700A70082BF0
:1022A000F5D1131CE918B831002204330A601C2B45
:1022B000F8D1A918081C0023D430E0311032036093
:1022C000436083600B60802AF3D1AA225200AB5294
:1022D000AB225200AB52AC20EA1840001118613218
:1022E0000020FF32013308701070082BF3D10D4B22
:1022F00080221A60FEBDC04604070020100700209F
:10230000000400409D2800000128000079270000FB
:10231000246080003FF8FFFFFF8FFFFFC809002007
:102320001732000000E100E0094B196800290BD1C9
:10233000EFF31080074A002805D172B6BFF35F8F14
:1023400005490870012111701A6801321A6070473E
:10235000140700201807002018010020084B1A68F5
:10236000013A1A601B68002B09D1064B1B78002B21
:1023700005D0054B01221A70BFF35F8F62B670471C
:10238000140700201807002018010020F7B50023CB
:1023900001AC144E80270125A370211CBF0211201F
:1023A000114B657025709847B761211C11200E4BA9
:1023B00025709847B761211C9836082723200A4BBF
:1023C000257098473760211C1B20074B25709847C4
:1023D000002337600F202370211C034B6570984742
:1023E000F7BDC04600440041ED23000007B5802240
:1023F00001AB1A700A785A704A789A708A78191C58
:10240000DA70014B984707BD9D28000010B50C4BB2
:1024100002211A680A431A60196880229143094A06
:1024200089B29184101CC168064ACC06FBD5996814
:102430000020D162596891621B689BB2938410BDE1
:102440001C0700200008004070B50D4B45781E6A3F
:10245000817804780122402086431540AD01301C6C
:102460000A402843D10180229043021C0A430548B8
:1024700003212140090202400A431A6270BDC0468E
:1024800000080040FFFCFFFF30B5027A4389920646
:102490009B059B0D120C1A43124B5A60428881888F
:1024A000C4791143827922430A434178C9010A431E
:1024B0001A600278042A0BD1047BC189058A0A4874
:1024C000A40609042C43014021439960196806E0E1
:1024D000202A06D1028A9A6019688422D2000A430F
:1024E0001A6030BD1C0700200000FF0308B5082853
:1024F00028D800F09DFD122727100B18051E21007B
:10250000114B02211A6A0A431A6204E00E4B02219F
:102510009A690A439A61002015E00B4B02211A8A3E
:102520000A431A82F7E7084B02219A8A0A439A82E1
:10253000F1E7064B984706E0054B02211A780A435B
:102540001A70E8E7172008BD000800400D240000BD
:1025500044080040F0B5C223344EDB00B360344B76
:102560001E215A688BB08A4304210A435A6005A889
:102570000023438083714370072303733F2320228A
:10258000C3812C4B02701A68920E3F2A00D11F2281
:10259000294B2A491B689B059B0D8B4200D1284B78
:1025A00043810823C37180235B008380254B027223
:1025B0000382254B984701A8012300258370234BF4
:1025C000457005709847224B06209847214B984745
:1025D00002AC0323211C65702572657223700220F2
:1025E00020231D4D6360A84702201C4FB8471C4B99
:1025F00098472A1CF1680D4BC806FBD5998C8020A2
:1026000001439984174B002507211D72281C5D7218
:102610009D7201232170211C6360237265706572B5
:102620009047281CB8470BB0F0BDC04600080040DA
:10263000004000412460800028608000FF0300000B
:10264000FF01000080BBFFFF892400004924000037
:10265000ED240000752600009526000039270000B3
:102660000D24000000040040014B5878C009704759
:10267000000C0040054B08219A690A439A61044BFB
:1026800001221A701A78D107FCD470470004004068
:10269000000C0040F8B50C784B782402051C061C91
:1026A0000443002B02D08023DB021C434B7A002B17
:1026B00002D080231B031C434B68012B13D95E1EE1
:1026C0001E400222002E09D19A4202D20136520047
:1026D000FAE7360280232E435B0303E01E028023C9
:1026E0002E439B021C430B7A002B02D080239B03BA
:1026F0001C430C4FB8470028FBD10B4B98470B4BA2
:102700001D70B8470028FCD1094DAE60B8470028BD
:10271000FCD16A6880235B0213401C436C60054B4C
:102720009847F8BD6926000029230000080C0040E6
:10273000000C00405D23000038B5051C094CA04783
:102740000028FBD1084B9847084B1D70A047002874
:10275000FCD1074B8022596852020A435A60054B4C
:10276000984738BD6926000029230000040C00406A
:10277000000C00405D23000010B5074B041C984777
:10278000064B80221C70064BD20159880A435A809E
:10279000044B984710BDC04629230000020C00409E
:1027A000000C00405D23000038B50F4B041C984717
:1027B0000E4B0F4A1C700F4B598858880905104062
:1027C00058805C880C48090F20405880101C5C8899
:1027D000084A6504FBD45388090203400B43538025
:1027E000064B984738BDC04629230000020C004024
:1027F000FFF0FFFF000C0040FFBFFFFF5D23000064
:1028000010B50C78034B240204439847024BA4B242
:102810005C8010BDA9270000000C004030B5D478C2
:1028200000239C421AD11478802C03D080232406E4
:102830005B02234354780225AC4309D19478002CE1
:1028400002D18024A40201E0C024E40223434160B9
:102850005478013C012C01D80F4C2340A0248DB2A8
:10286000E4052C431C438462D0240D0C24062C4325
:102870001C438462D478002C0CD15C0305D593787A
:10288000012B01D1816100E041615378013B012BB3
:1028900000D8816030BDC046FFFFFBFF08B5031CB8
:1028A0000A1C4009D90903D10549C001401800E0BC
:1028B00000201F210B4001219940024B984708BD81
:1028C000004400411D2800007047000008B5044B7B
:1028D0009847044B9847044B9847044B984708BDCA
:1028E000552500008D230000C9280000C9280000DC
:1028F000FEE700001148124910B5884201D00023BC
:1029000001E0104B07E0104CCA18A242F9D2C4589B
:1029100004331460F7E70D4A191D043B934203D2B8
:1029200000221A600B1CF6E7094A0A4B7F218A43F2
:102930009A60094B9847094B9847FEE764320000BC
:10294000000000202401002020010020000C0020B5
:102950000000000000ED00E0B9310000652F00002C
:1029600008B51D4B1A6802321A601968FA22520122
:10297000914209D9194A1A4908201368C867997AF7
:1029800049B200290BDAFAE718683221154B98474B
:10299000002920D18022144B9202DA611BE01988B1
:1029A000022081431980136880221A720F4AC023C3
:1029B00008215B00D1500E4B984772B6BFF35F8F72
:1029C0000C4B00221A70BFF34F8F0B4A0B4BDA608F
:1029D000BFF34F8FFEE708BD38070020C80A00206C
:1029E00004E100E0E13000000044004100E100E0CB
:1029F0009D080000180100200400FA0500ED00E029
:102A000008B5074B08221A60064B98470028FBD0F0
:102A1000054B08221A600020044B9847C0B208BD3D
:102A200098440041510500009444004161050000B4
:102A3000084A80231B0570B5041C9361151C1E1CDD
:102A4000054B98470028FBD06E61201C034B98472C
:102A500070BDC0460044004161060000E906000068
:102A60000B4B0C4A1968914211D91A68D2B2002A4C
:102A700009D01A68012152085200494211801A688F
:102A800002321A60F1E7044B1B7DDA07FBD5704771
:102A90001C010020FF3F00000040004110B50B1C4E
:102AA00000225C1AA4B2844203D21C780133624033
:102AB000F7E7101C10BD0000F0B5944BC9B0587971
:102AC0006946087001381C2800D9F8E000F0B0FA17
:102AD0000F5A32F7F75DF7F7F7F7F7F7F7F7F7ADB4
:102AE00053869EC2F7F7F7F7F7F725F76B00002339
:102AF0004B7008238B704123CB7056230B715223EC
:102B00004B7149238B715323CB7150230B725F237D
:102B10004B7232238B720B24D2E05A7A00234B7013
:102B200002218A1A7A49D2006E461141B170F370BF
:102B30000424C5E09B7900224A70902B10D006D85F
:102B4000802B0BD0812B11D102238B7011E0912BA4
:102B500009D0922B0AD105238B700AE0012306E0ED
:102B600003248C70ACE004238B7002E000236946E0
:102B70008B700324A4E000234B70664A664B1A60F6
:102B800002249DE000234B70FAE79979DA7909066F
:102B900012040A43597A1B7A0A431B021A435F4BF9
:102BA00052001A602EE0597A002230290DD16E466B
:102BB000DB7AF1700221CB1A5549DB0019417270A2
:102BC000B27032717171B27106E068464270827003
:102BD000C170027142718271072471E08022D201BA
:102BE0004F4B197D188B2021FF3101431983910828
:102BF0004900D9614B4901321980FF328023DB0241
:102C00009A42EDD1002369464B70B9E79879DA7999
:102C10004249000210180C68434A80B2944208D816
:102C20000B68C018414B0860984700236A465370F0
:102C3000A6E70F3300228242F2D25D780C681E783C
:102C400014192D02640875196400ADB22580023292
:102C50000233F0E79879DB790002304A18186E46A3
:102C6000002381B27370304D1668CC1CA4B2AE4202
:102C70001DD98B4212D21568981C5D196D086D0024
:102C80002D886E463554156800AE5B195B085B00F5
:102C90001D8833182D0A5D70031CEAE7136800A82D
:102CA000C91803191160013B00221A7008E0834221
:102CB000F4D000AEF518FF26AE700133F7E700241C
:102CC0001B4D1B20A8471B4B260A1F78381CA84702
:102CD000F0B2A8471B235F4067407E40E0B2F7B2E6
:102CE000A8470E204740A8470026B3B2A34204D20B
:102CF0006946885DA8470136F7E769460E4B201CF8
:102D000098474740F8B2A84749B0F0BDE00A002014
:102D100001981E004C1D0000380700201C010020F7
:102D20000040004102A5FFFFFF3F0000612A0000B4
:102D3000312A0000360700209D2A0000F8B5002740
:102D40003D1C3C1C1F4B98471F49061C485501352C
:102D5000062CF7D8201C00F06BF904080C11171C86
:102D600023001B2E28D00025ECE7184B02241E70F0
:102D7000E8E7174B36021E800324E3E7144B0424D4
:102D80001A8816431E80DDE70E2E17D10027052472
:102D9000D8E70F4B01371B889F42D3D10624D1E7D8
:102DA000013DA8B20B4B98470025B04207D10A4B12
:102DB0001D600A4B9847F8BD0124C3E700252C1C71
:102DC000C0E7C046012A0000E00A002036070020C4
:102DD000340700209D2A000038070020B92A00008F
:102DE000094B0421DA690A43DA61084B2022198B66
:102DF000FF320A431A831A7DD10703D559681E2270
:102E00000A405A607047C04600040040004000413C
:102E10007FB500236A46164CD370138093700293DB
:102E20000393012313711349134B201C134E98472E
:102E300008222368326021688A7A52B2002AFBDBBA
:102E40001A8802252A431A80201C2A1C0C490D4B83
:102E50009847291C201C0C4B9847201C01210B4B28
:102E60009847C023AB40F2581202120AF2507FBDBD
:102E7000C80A002000140040190D000000E100E025
:102E800061290000110E0000490E0000ED0D000048
:102E9000F0B5294B85B09847284B1A7DD007FBD554
:102EA000274F69463A88274E0A81274A11886A4681
:102EB0005181318803AA1180244A11886A46D18140
:102EC000029907220A40012A31D01A8BD00530D44A
:102ED00059688022D2020A4301915A601A8B202538
:102EE000FF352A431A831A4C1A4ADC611A80197D6D
:102EF000124AC807FBD5108B284310831648D461AB
:102F00001080197D01200D4A0142FAD0138B1D4318
:102F10001583D461029B0724634018430290029BEF
:102F20003B6003980D4B30601380019951600C4B4E
:102F3000984705B0F0BDC04629230000004000417D
:102F40000040800004408000024080000640800075
:102F50000020400005A5FFFF44A5FFFF06A5FFFFD9
:102F60005D23000008B58022214B92029A618022E5
:102F700012059A611F4B08221A601F4B1A7852B231
:102F8000002A03DB1A7802218A431A701B4B1A7835
:102F9000D10611D41B789A060ED48023DB01188841
:102FA00017491A1C884207D01B6883F30888154B01
:102FB0009A60154B1B689847144B01221A70BFF397
:102FC0005F8F62B6124B9847124B9847124B984747
:102FD000124B9847124AC1239B00D058802100020F
:102FE000000AC9050143D1500E4B98470E4BFCE730
:102FF0000044004198440041001000403804004063
:10300000FFFF000000ED00E0044000001801002078
:10301000CD280000112E0000E12D00004D08000019
:1030200000E100E0912E00003D2D000070470000FF
:1030300002B4714649084900095C49008E4402BC4B
:103040007047C04603B47146490840004900095A18
:1030500049008E4403BC7047002934D0012300226C
:1030600010B488422CD301242407A14204D2814207
:1030700002D209011B01F8E7E400A14204D2814217
:1030800002D249005B00F8E7884201D3401A1A4394
:103090004C08A04202D3001B5C0822438C08A042CB
:1030A00002D3001B9C082243CC08A04202D3001B81
:1030B000DC082243002803D01B0901D00909E3E7FB
:1030C000101C10BC7047002801D00020C04307B47A
:1030D000024802A14018029003BDC046D90000007A
:1030E0000029F0D003B5FFF7B9FF0EBC4243891A9F
:1030F0001847C046002941D010B4041C4C40A446D7
:1031000001230022002900D54942002800D5404271
:1031100088422CD301242407A14204D2814202D246
:1031200009011B01F8E7E400A14204D2814202D266
:1031300049005B00F8E7884201D3401A1A434C0863
:10314000A04202D3001B5C0822438C08A04202D399
:10315000001B9C082243CC08A04202D3001BDC08C1
:103160002243002803D01B0901D00909E3E7101C02
:103170006446002C00D5404210BC7047002806D0A1
:1031800003DB0020C043400801E08020000607B4B4
:10319000024802A14018029003BDC0461900000079
:1031A0000029EBD003B5FFF7A7FF0EBC4243891AF5
:1031B0001847C0467047C04670B50E4B0E4D0024F0
:1031C000ED1AAD101E1CAC4204D0A300F358984772
:1031D0000134F8E700F036F8084B094D0024ED1AE9
:1031E000AD101E1CAC4204D0A300F3589847013424
:1031F000F8E770BD5032000050320000503200003D
:103200005432000010B50023934203D0CC5CC45468
:103210000133F9E710BD031C8218934202D01970E4
:103220000133FAE7704730303446000003020100F2
:103230000400080070008000010000010002030C7F
:1032400010600000F8B5C046F8BC08BC9E46704748
:10325000D9000000F8B5C046F8BC08BC9E467047CF
:10326000B10000006D0400003D01000059010000A4
:103270005D01000051030000610100002D0100000C
:10328000E10100005D010000000000004172647572
:10329000696E6F204D302050524F00417264756945
:1032A0006E6F2073726C20287777772E4172647569
:1032B000696E6F2E6F726729000000000003000026
:1032C00000000000000000000000000000000000FE
:1032D00000000000000000000000000000000000EE
:1032E00000000000000000000000000000000000DE
:1032F000000000000000000004030904050F0C009A
:103300000107100202000000C0000020B8000020E9
:10331000980000201400002000000020D4000020AD
:10332000B00000201201010202000040032A4F00F9
:10333000000101020301000009024300020100C074
:1033400032090400000102020100052400100104FA
:103350002402020524060001052401030107058358
:103360000340001009040100020A00000007058163
:1033700002400000070502024000000001000000BA
:1033800000400000FFFFFFFFFFFFFFFFFFFFFFFF09
:10339000FFFFFFFFFFFFFFFFFFFFFFFFFFFFFFFF3D
:1033A000FFFFFFFFFFFFFFFFFFFFFFFFFFFFFFFF2D
:1033B000FFFFFFFFFFFFFFFFFFFFFFFFFFFFFFFF1D
:1033C000FFFFFFFFFFFFFFFFFFFFFFFFFFFFFFFF0D
:104000000080002071480000594800005948000015
:1040100000000000000000000000000000000000A0
:1040200000000000000000000000000059480000EF
:10403000000000000000000059480000C5480000D2
:1040400059480000594800005948000059480000EC
:104050005948000059480000594800005D480000D8
:10406000594800002D4100005948000059480000FF
:1040700059480000594800003D41000059480000DF
:1040800059480000594800005948000059480000AC
:10409000000000005948000059480000594800003D
:1040A000594800005948000059480000594800008C
:1040B0000000000010B5064C2378002B07D1054BFB
:1040C000002B02D0044800E000BF0123237010BD84
:1040D0009000002000000000D86C0000044B10B5D8
:1040E000002B03D00349044800E000BF10BDC046C8
:1040F0000000000094000020D86C000010B50121E1
:104100000D2000F0BFFD10BD10B5FA240121A40060
:104110000D2000F003FE200000F012FC00210D2015
:1041200000F0FCFD200000F00BFC10BD10B50248B3
:1041300000F0ABFA10BDC046E802002010B50248FE
:1041400000F0A3FA10BDC046AC000020F7B5012472
:104150000326154F1549380000F042F81449154858
:1041600000F03EF81449154800F03AF81449154893
:1041700000F036F81449154800F032F8144D15498E
:10418000280000F02DF83900009623000194002249
:10419000114800F00FFA00962900019423232422ED
:1041A0000E4800F007FAF7BD240500200008004281
:1041B000000C004228050020001000422C050020C1
:1041C0000014004230050020001800423405002091
:1041D00038050020001C0042E8020020AC0000204E
:1041E000016070479446F0B59E1E721E964162466D
:1041F000056892072F6836063A4332432A6007253E
:1042000005AC24780068A4012940214342680024B9
:10421000022B00D05C03114321434160F0BD30B557
:10422000C0250368AD031C6812052A402243C02440
:104230000904A40221401143196003685A68144319
:104240005C6030BD0123026811680B431360036892
:104250001A68D207FCD4DA69D207F9D4704702236E
:10426000026811680B4313600268D3699B07FCD492
:10427000704703681A7ED20702D41A7E9207FCD5D3
:104280007047002203685A8370470368187E40070E
:10429000C00F70470368187EC0097047802302680A
:1042A0005B42117E0B43137670470368588B80077F
:1042B000C00F704702230268518B0B435383704732
:1042C0000368187EC007C00F70470368188DC0B21E
:1042D000704703681A7ED207FCD589B20120198580
:1042E0007047012203689A757047012203681A75A6
:1042F000704700000368214A30B593422FD0204A0E
:1043000093422FD01F4A93422FD01F4A93422FD05F
:104310001E4A93422FD01E4A93421FD10E231922C8
:104320000121032599401B48C024016099082B40B6
:10433000AB40FC359D4089000918A4000859A843EA
:10434000C0259D402B0003430B518023DB011A4302
:10435000114B5A805A7852B2002AFBDB30BD092338
:104360001422DDE70A231522DAE70B231622D7E70A
:104370000C231722D4E70D231822D1E700080042AE
:10438000000C0042001000420014004200180042DD
:10439000001C004200E100E0000C0040F8B5040001
:1043A0000F0016001D00FFF7A5FF2000FFF74AFFD2
:1043B0001C21BB000B4071072268090C0B431360E2
:1043C000842322689375012F1AD11021012E00D069
:1043D00008390C4B69431868C00002F019F807222D
:1043E000216802408B895203DB04DB0C13438B8171
:1043F000226803049089DB0C400B40031843908132
:10440000F8BDC046000000200120704710B50368C9
:10441000014A1B6A984710BD130400000300FC33D7
:10442000D9699A69914203D0DB69C018007D704751
:1044300001204042FBE710B504000069FFF702FFCE
:1044400022000023FC329361D36186229200A418DB
:104450006360A36010BDF0200140303948424841FC
:104460007047F0231B011940802306209B009942CE
:104470000AD00133FF330130994205D0802302383E
:104480005B00994200D0002070470F2001400020BF
:10449000012903D00239481E8141481C70470000A1
:1044A0008923F0B5182685B002919B000400C05CFA
:1044B000330008214343324D1700EB18595600F0E2
:1044C00059FC304B0821E05C33004343EB1859564C
:1044D00000F050FC2C4BE25C0393022A09D111330B
:1044E000E05CFF2805D008214643AE19715600F064
:1044F00041FC8A26B600A05DFF2819D0012100F0FA
:10450000C1FB1822A35D21495A43AB56AD18DB010C
:1045100058188B21890060501D4901225B188C219D
:104520008900635069688A408D21890062501A6051
:104530000122029B11002069FFF730FF39002000A3
:10454000FFF78FFF390005002000FFF79EFF3900BD
:1045500006002000FFF77FFF33000090290020694C
:104560000122FFF73FFE0B4B2069E25C039BE15CFD
:10457000FFF755FE2069FFF772FE05B0F0BDC0469B
:10458000786700002502000027020000184400415F
:104590001444004126020000802210B5040052009D
:1045A000002102F002F823000022FC335A602000B0
:1045B0009A6010BDF7B51D0008AB1B78040000938E
:1045C00009AB1B781600019300234360FA239B007C
:1045D0008360114B0F00083303601430FFF7DCFFDA
:1045E00020001D30FF30FFF7D7FF89236A469B006C
:1045F0002761E654094B1278E554094B2000E25438
:104600006A46084B1279E2548A22293BFF3B92000A
:10461000A3541032A354FEBDF86B00002502000025
:1046200026020000270200000300FC3358689B6844
:10463000C01A01D50130FF30704710B504002000CA
:104640001D30FF30FFF7F0FF0028F8D12069FFF799
:1046500010FE10BD10B51430FFF7E6FF10BD0300CB
:10466000FC3359689A68914204DB5A689868801A4A
:10467000FF30704798685B68C01A0138F9E710B5D9
:104680001D30FF30FFF7EBFF10BD10B504000069CF
:10469000FFF70BFE002805D02069FFF716FE206902
:1046A000FFF708FE2069FFF7F0FD002820D0206901
:1046B000FFF70BFE2200FC329369D1690133DBB2B4
:1046C0008B4203D091696118087593618A239B001E
:1046D000E35CFF2B0CD020001430FFF7C0FF09284B
:1046E00006DC8B238D229B009200E358A2581A60AF
:1046F0002069FFF7E5FD00281AD020001D30FF30AB
:10470000FFF792FF002822D086239B00E3189968C8
:104710005A68914218D08E219A684900A218515CBB
:104720009A680132D2B29A60C9B22069FFF7D1FD0E
:104730002069FFF7AFFD002805D02069FFF7AEFD27
:104740002069FFF79EFD10BD01214942ECE7206979
:10475000FFF7CBFDECE7000070B5040000690D0029
:10476000FFF7AEFD00283ED1FF2686239B00E3180D
:104770005A689968013232408A4223D1EFF310839C
:10478000DB0710D41E4B5B68DB05DB0DEDD0103B67
:104790005BB2002B10DA0F221340083B9B08194A2A
:1047A0009B009B181B682069FFF78AFD0028DCD05E
:1047B0002000FFF76AFFD8E79B08C033124A9B002E
:1047C0009B58F0E75A68013216409A68964205D025
:1047D0008E215A684900A21855545E602069FFF77F
:1047E00080FD012070BD20001D30FF30FFF71CFF51
:1047F0000028B9D129002069FFF76BFDF1E7C04619
:1048000000ED00E01CED00E000E100E0030070B509
:10481000FC33D9699A69040091421AD0DA69821886
:10482000157DDA690132D2B2DA618A239B00E35C3A
:10483000FF2B0CD020001430FFF711FF0A2806DDF3
:104840008C238D229B009200E358A2581A60280006
:1048500070BD01256D42E8E7FEE70000034B10B58F
:104860001B68002B00D0984710BDC0463C050020B7
:1048700070B50F490F4CA14204D100F0A9F800F027
:1048800087F8FEE70C4D00238D42F6D0CA18E818D1
:10489000A24205D3094B8242EFD00949002204E02D
:1048A000006804331060F1E704C38B42FCD3E4E7F3
:1048B0000000002090000020DC6C00009000002030
:1048C000780B002010B500F060F8002801D100F04E
:1048D00051F810BD014B18607047C0463C050020E0
:1048E000F7B51348012284461249134C8E68636859
:1048F00005689B0E1340019288686268019F920EC2
:104900003A4067463F6893420ED1BD420CD1864281
:104910000AD35B19FA254868AD00861B07486B432C
:104920007043000DC018FEBD3D0013000600E3E714
:104930004005002010E000E000ED00E055550000CB
:1049400070B5041E10D0FFF7CBFF050000F01CF877
:10495000FFF7C6FF054B401B9842F7D9FA23013CED
:104960009B00ED18002CF3D170BDC046E70300009A
:104970007047000010B5034A13680133136000F05C
:104980007FFA10BD40050020704700207047704737
:1049900010B500F0CDF801F0C7FDFFF7F8FF0120DA
:1049A000FFF7CEFF084C200000F022FD200000F0B1
:1049B000D9FDFFF7A3FBFFF7A7FB044B002BFAD0B1
:1049C00000E000BFF7E7C0466C05002000000000D3
:1049D0001E2270B546484749436893431C3A134327
:1049E000436008238C6923438B61434C434B9C8277
:1049F0009C8A14439C82DC681442FCD00124404A07
:104A000014701578254203D055786DB2002DF8DB6F
:104A100001249460547864B2002CFBDB394C546060
:104A2000547864B2002CFBDB8224E4015480547877
:104A300064B2002CFBDB02249C840E34DD6825422A
:104A4000FCD0314CDC621024DD682542FCD09D8C0A
:104A50002E4C2C439C841024DD682542FCD002247B
:104A60009D8C80262C439C844024DD683542FCD0FC
:104A7000DD682542F9D01024DD682542FCD00024F1
:104A80009460547864B2002CFBDB214C5460547861
:104A900064B2002CFBDB1C6A1E4D2C4080251C627E
:104AA0001C6AAC431C62032393601B4B5360537816
:104AB0005BB2002BFBDB0023FF240B72174A4B7207
:104AC0008B72CB72164B1A60164B174A1B68116813
:104AD0009A065B01C90E2340520F12020B43134387
:104AE000124A1385802342681343436070BDC04659
:104AF00000400041000400400C0600000008004097
:104B0000000C004001050100B905FF7D040A00000A
:104B100000070300FFFCFFFF03060100006CDC023E
:104B200000000020246080002060800000400042DF
:104B3000FA21314B10B51868890001F069FC2F4B40
:104B40000138984256D82E492E4A4860C020136A30
:104B500000061B021B0A03431362002407238C6018
:104B60000B608021136A09061B021B0A0B431362A8
:104B7000FC22254B196A0A431A62FC22196A920127
:104B80000A431A62A022196AD2020A431A6220005A
:104B90000021013400F076F8132CF8D11B4B1C00D7
:104BA0005A7852B2002AFBDB194A5A80194B1A0074
:104BB000597EC9090129FBD0E421C90099803F2110
:104BC000D970537EDB09012BFBD0C02300205B0191
:104BD0001361907000F024F863785BB2002BFBDB6C
:104BE0000D4B0E4A6380D379DB09012BFBD04123A7
:104BF000537010BDFEE7C04600000020FFFFFF001D
:104C000010E000E000ED00E000040040000C004077
:104C10001E400000004000422140000000480042C9
:104C2000164A00B51300517EC9090129FBD001388D
:104C3000042816D81969124A0A400F211A615A78B5
:104C40008A4301F0DBFB0308060B0300110001227D
:104C50000A435A7000BD11000322F9E71100022235
:104C6000F6E7F02311691B050B430F2113615378FD
:104C70008B43190002230B435370EBE700400042C3
:104C8000FFFFFFF0182330B51D0004004543082046
:104C9000204A55192856013014D0032912D808008B
:104CA0006343D156D31801F0A9FB02280E1B5868A4
:104CB000CB010221184A9B181A18403211700122A8
:104CC00082405A6030BD5868CB010621124A9B18B9
:104CD0001A1840321170012282405A609A61F1E73D
:104CE0005868CB0106210C4A9B181A1840321170E3
:104CF000012282405A605A61E4E75868CB010221E0
:104D0000054A9B181A1840321170012282409A609D
:104D1000D8E7C04678670000004400411823F0B58A
:104D200008245843114A13181C5701341BD001267C
:104D300035005F688356BD400D4ADB019A189068C4
:104D400005420BD10C00601E8441D219403210780C
:104D500034400336A400B04320431070044A9B182B
:104D6000002901D15D61F0BD9D61FCE7786700001D
:104D70000044004118224243F8B52C4E0300B218FB
:104D8000127A52B2140001320ED0481C00240C28B2
:104D90000AD801F033FB071F1F1F1F1F1F1F1F0B08
:104DA0000B0B0B00012464422000F8BD092905D13A
:104DB00000211800FFF766FF0024F5E70A2901D15A
:104DC0000839F6E700240B29EED10A391800FFF75D
:104DD00059FFE9E718225343F218556801202C00C7
:104DE000F356134ADB016E089B18C9B204409E19A2
:104DF000002C0DD00F2430363278090122401143A7
:104E0000C9B25B19317040331A7810431870D3E778
:104E100032000F27303216785B19BE4331431170D0
:104E200040331A7810431870BEE7C0467867000018
:104E300000440041F7B506000D000C008B180193EB
:104E4000019B671B9C4207D0336821781B683000A8
:104E5000984701340028F3D13800FEBD10B5040096
:104E6000FFF786FD014B1C6010BDC046040000200A
:104E70000122024B52421A607047C04604000020D3
:104E8000164A10B51368591C26D0013B1360002B3D
:104E900022D172B6124B134A0433934213D9124AE9
:104EA00001211000147D0C42FCD02021148BFF3115
:104EB0009B085B0021431183D3610C4B13800123BA
:104EC000027D1A42FCD0BFF34F8F094B094ADA60CA
:104ED000BFF34F8FC046FDE710BDC0460400002061
:104EE00000400000030200000040004102A5FFFF57
:104EF00000ED00E00400FA05704710B5040001F071
:104F000023F8200010BD0000F0B5822919D1C3B2EA
:104F10002C4D5A01AA1891692B4C80010C40C021DC
:104F20008905214391612949083340187021506156
:104F300028685B011A5C8A43110030220A431A5424
:104F4000F0BD0029FCD1C024C3B21E4F5D017A1907
:104F500091681D4EA40531402143072491601C49EE
:104F6000800141185160083339685B015F5CA743D9
:104F7000BC460127644627435F5494692640C024F9
:104F8000A40534439461114C124E001970245061F1
:104F9000585CA043603C20435854906806408020F1
:104FA0004003304390609068800B80039060CA1883
:104FB00040231079034313714B19FF339A7A14433A
:104FC0009C72BDE7240A0020FFFFFF8F9805002098
:104FD00058070020FF3F00F0EFF310830360012328
:104FE000436072B670470368002B02D162B6BFF30C
:104FF0006F8F7047F7B50600FC36B3690400002BCD
:1050000018D1B2277F00C55D6846FFF7E5FF019B19
:10501000EDB2013B02D3E55DEDB2FAE768460193DC
:10502000FFF7E1FF002D01D10020FEBD706E336E51
:10503000C01AFAE76846FFF7CFFFD8220025019B88
:105040005200013B02D3A55CEDB2FAE7684601933A
:10505000FFF7C9FF002DE7D0D6235B00E058043BE3
:10506000E358E5E710B54468FC3043690B48DBB210
:105070005A01A2189168083308408021490301436E
:10508000916091685B01890B890391602268D31854
:10509000402219790A431A7110BDC046FF3F00F043
:1050A000F7B50500FC356B694268DBB219000400F6
:1050B0000831106849014118C979C90711D55B0148
:1050C000D21893689B049B0C0CD12000FFF7CAFFF9
:1050D00063681A686B69DBB208335B01D3187F22FF
:1050E000DA71F7BDE969002923D16B662300012637
:1050F0006933FF33EE6168465360B227FFF76CFFF8
:105100007F00B221019BFF31013B5A1C38D0D822CD
:10511000E6555200A25C581ED2B26254625C8446CC
:10512000002A04D120000193FFF79CFFE9E76346C2
:10513000EBE7D621490063500023EB6123001D33C8
:10514000FF3353606846D826FFF746FF01277600F5
:10515000B221019BFF31013B5A1C11D0B222A7554D
:105160005200A25C581ED2B26254625C8446002A8D
:1051700004D120000193FFF775FFE9E76346EBE7F1
:1051800068460193FFF72FFFA2E7F7B506006846D0
:105190003400FFF721FF0027FF22019BFC34013B75
:1051A0000DD3E0682169884204DBE7682069D71BDA
:1051B0003F18F4E72769E1687F1A013FEFE7684687
:1051C0000193FFF710FFA3696846002B52D1FFF748
:1051D00003FFB221019B4900013B5A1C0CD0755CB6
:1051E0005A1EEDB2002D05D168460193FFF7FBFE74
:1051F0002800FEBD1300F0E7684601930025FFF785
:10520000F2FEFF22236EBD4214D0616E994211D985
:10521000591CF3182166FF33587FE3682169013375
:10522000C0B213408B4203D0E16871180872E3608A
:105230000135E7E7626E9A42DAD100232366013333
:10524000A3616846B224FFF7C7FE6400B2220021C2
:10525000019BFF32013B581CC6D03155B05C5F1E2C
:10526000002805D0B15430000193FFF7FBFEEDE7B5
:105270003B00F0E7FFF7B0FED821019B4900013B5E
:105280005A1C06D0755C5A1EEDB2002DACD013002E
:10529000F6E768460193FFF7A6FED623D4225B000B
:1052A00000259C465200B358BD4203D06146715858
:1052B000994220D86246B2589A4299D1D42200230A
:1052C0005200B3506846A361D824FFF785FE6400FE
:1052D000B2220021019BFF32013B581C00D183E721
:1052E0003155B05C5F1E002819D0B15430000193D5
:1052F000FFF7B8FEECE7591CB150FF21F3186933F2
:10530000FF331878E368C0B201330B4021698B4248
:1053100003D0E16871180872E3600135C3E73B0010
:10532000DBE710B50400FFF730FF2300FC331969F9
:10533000DA68914203D01B69E418207A10BD01207D
:105340004042FBE710B50400FC34FFF71EFFE068A5
:105350002369C01A01D50130FF3010BDF0B585B00A
:10536000019200910500FFF710FF02A8FFF734FE3D
:1053700001200024FF26039B40425A1E531C1FD0CD
:105380002B00FC3301998C4218D2D9681F69C91BC4
:1053900001D50131FF31002910D01969DF688C4631
:1053A0000100BC4506D019691F69691801373740EB
:1053B000097A1F61009F39550134E3E7013ADDE7BF
:1053C00002A80392FFF70FFE200005B0F0BD37B52D
:1053D0006B46DC1D00230D00237000F0FDFF210053
:1053E00000F07AFF2B681818286020783EBD000076
:1053F000F7B500244B4B012105001F201C70FFF75F
:1054000041FC01211F20FFF789FC474B01211E2091
:105410001C70FFF737FC01211E20FFF77FFC2023C3
:10542000424A0F20D1690B43D361012240490B78D6
:1054300013430B703F4B19788143197006211C7878
:10544000214319703C490C7822430A701A780240B3
:105450001A70602219780A431A70384B384A5A80F9
:105460005F78FF09FCD13748FFF734FA0123364C47
:10547000364E2268300011780B43137080223900B9
:10548000520001F092F822689378DB07FCD4566250
:105490001F262F4B1B68590B980C9B013140304045
:1054A0005B0FB14200D105211F2800D10238072B24
:1054B00000D1043B31408901178D019125493040CD
:1054C0000F40019939431185118D0700B143080040
:1054D00038431085118D18031F4B0B407F21034368
:1054E00013851378C1200B401370042322688000B9
:1054F00011780B430C211370226813898B431749D1
:1055000013810B581B021B0A0B5080230B60117870
:105510007E3B0B431370012300212B70104800F0D9
:10552000CFFEF7BD8D0500208C0500200004004053
:10553000584400413C44004159440041000C0040A3
:1055400006400000215F0000240A0020280A0020F5
:10555000246080003FF8FFFFFF8FFFFF00E100E0C5
:10556000280B00200078002810D00121084B1B6870
:105570001A898A431A810822198B0A431A83042242
:10558000198B0A431A830022024B1A607047C046E7
:10559000240A00201C0A002010B50F4A93699B0BB7
:1055A0009B03936113680222FF331A729879823A3F
:1055B00002439A711A7A9207FCD57F24074A214048
:1055C000937A0800A3431900802301439172917AD2
:1055D0005B420B43937210BD240A0020005000412F
:1055E00010B50C0000F0F8FE210000F0ACFE002821
:1055F00004D1034A93699B0B9B03936110BDC04682
:10560000240A0020F7B50D00832A1FD1CAB24349EE
:10561000540108198369424EAD011E40C0239B0509
:10562000334383613F4B0832ED18456170200B68AE
:105630005201D15C8143080040210143D154022230
:105640001B19FF33997A0A439A72F7BD022A5FD178
:10565000354B8A00D058002802D003685B69984710
:10566000DA20400000F06CFC802204002B4E2F4B0F
:105670004660036052000021083000F096FF2200CF
:10568000B2210023FC324900D360556113611366D7
:105690009361D36153666354443163500431635062
:1056A00004316354B221FF316354FF202B000340C7
:1056B0005901019371188F68194BAD003B40C02709
:1056C000BF051F438F600727019B366808335B01C6
:1056D000995DB9430F00032139439955230051695E
:1056E000666801401D334901FF3371184B606368E0
:1056F00052691B68024052019B1801221B18997ABB
:1057000020000A439A72FFF7ADFC074BEC509CE770
:1057100011002800FFF7F8FB97E7C046240A002095
:10572000FFFFFF8F9805002070050020346C0000FB
:1057300070B505000124064BA200D258002A05D0FE
:1057400021002800FFF75EFF0134F4E770BDC0467A
:10575000440500200B4BCAB20B488901C9185301FC
:10576000C318596199690832890B890399610368E3
:1057700052019A180223D3715179823B0B43537122
:105780007047C04698050020240A0020084B8A0074
:10579000D05810B5002803D003689B68984710BD07
:1057A000C9B2044B4901591888688004800CF6E797
:1057B00070050020240A002010B50C00FFF7E6FF5A
:1057C00000280CD0064BE4B21B68083464011C1995
:1057D000802362795B42134363710223E37110BD3E
:1057E000240A0020F0B51C00304B85B01B68070070
:1057F0000D000292002B55D02D4E3178C9B20029F0
:1058000002D11E20FFF78AFA64233370294BAA00C5
:10581000D058002808D0036822005B680299984796
:105820000400200005B0F0BD29003800FFF7AEFFEE
:10583000844204D929003800FFF7A8FF04000121A1
:10584000EBB21D4E03935B010193F21893689B0B1F
:105850009B039360019A336802989B18FF335A7A2E
:105860000A435A72154BA901C918220000F094FE90
:10587000002CD6D029003800FFF788FF0028D0D1AF
:105880004021039B326808335B01D3181879014328
:1058900019710121D971019BD318FF339A7A0A43F8
:1058A0009A72BEE701246442BBE7C0461C0A00208E
:1058B0008C05002070050020240A002058070020D5
:1058C00013B56B46DC1D22000123FFF78BFF012877
:1058D00001D1207816BD01204042FBE770B5CBB264
:1058E000124A13485C0189018918021951609168B4
:1058F000104D08330D408021490329434025916014
:105900009168890B8903916001685A018A18167998
:105910003543157195796D06FCD55B01C918CB79B6
:10592000DB07FCD500198068C0B270BD58070020A5
:10593000240A0020FF3F00F070B50D000021140084
:10594000FFF7CCFFA04200D9200000230349A34267
:1059500003D0CA5CEA540133F9E770BD5807002050
:10596000F0B51E003F4B85B01B680F000192002B65
:105970003FD08023DB019E423BD83B4C2178C9B20B
:10598000002902D11F20FFF7C9F9642300252370E5
:10599000364BBA01D3180293002E2CD0344B1B681F
:1059A0000393FF233B401C0000930834039B6401D6
:1059B0001C19A379DB0921D02E4B2F49186800F060
:1059C00027FD2E4B1721584300F022FD2C4BE27986
:1059D000920713D4DA5D002A01D10138F7D20122EF
:1059E000DA55009B5A01224B9B189A69920B92033D
:1059F0009A6101256D42280005B0F0BD0022204BC0
:105A00003400DA553F2E09D9009B40245A01184B27
:105A10009B188022996912060A439A612200019913
:105A2000029800F0B9FD009BA1045A01104B890CAB
:105A30009B18029A2D195A619A69361B920B920390
:105A40000A439A61009B039A08335B01D318022230
:105A5000DA715979823A0A435A71019B1B190193F1
:105A60009AE7C0461C0A00208D05002098050020FA
:105A7000240A00200000002040420F0070110100A5
:105A80008F05002070B50D001C000D4BAE01F618FF
:105A900011003000220000F07FFDEDB209496D01D8
:105AA0004D196E61AB69084A20001340AB61AB69C8
:105AB000A2049B0B920C9B031343AB6170BDC046C9
:105AC00098050020240A0020FF3F00F0F7B5104B96
:105AD00001901B780F001500002B0CD10D4B160008
:105AE0001C78002C09D00C4E0C48348820186419FE
:105AF00000F052FD34802800FEBD002EFBD03A1984
:105B0000330000210198FFF7BDFF2418361AF4E78F
:105B100018090020190A00201A0A0020190900207B
:105B2000F8B50F0016000024012A26D9100000F055
:105B30001FFD0500380000F0FBFD032302220130A9
:105B4000400028706B7096420DD9397800290AD030
:105B5000531CDBB20137A9549E4203D00232EC54ED
:105B6000D2B2F0E7320029000548FFF7AFFF441E2C
:105B7000A041C4B2280000F005FD2000F8BDC046D9
:105B80006C050020F0B50024012685B0184B0F00ED
:105B900069461E7005000094FFF719FC154B01A91A
:105BA0000B806A3BFF3BCB715A330B72009B8C71AD
:105BB00009334B800E4B4E7108711C703A00092F4F
:105BC0000FD00D4F09223E700C4E280000943480F7
:105BD000FFF77CFF69462800FFF7F9FB3288084988
:105BE0003C702800FFF772FF012005B0F0BDC046F1
:105BF0001809002009020000190A00201A0A0020D2
:105C00001909002070B5CE7892B005000C00022E64
:105C10000BD18B79C9792E4809021943FFF7B2FFDE
:105C2000411E8841C0B212B070BD00F0D5FB21000A
:105C300000F066FB002803D0C117081AC00FF2E776
:105C4000012E0ED1E279A37912021A432149112AB9
:105C50003CD8D2B2002A39D02800FFF737FF012004
:105C6000E1E7032EDFD1A378002B28D0022B08D147
:105C7000E279A379120218491A432800FFF750FF6E
:105C8000D1E7012B05D1E279A37912021A43134916
:105C9000F3E7032BC7D10100412201A800F085FCE6
:105CA00000F09AFB01A900F03BFB002805D0E27947
:105CB000A37912021A4301A9DFE70378FFDEE27934
:105CC000A37912021A430649032AC2D90A78C3E704
:105CD0006C0500206C6C0000506C0000646C0000CF
:105CE000606C0000CBB204495B01C9188B699B0B47
:105CF0009B038B617047C046240A002037B505001E
:105D000048780C000B2810D800F078FB061B0F2BEE
:105D10000F40455D494C575A097801AA002906D120
:105D2000022311802800FFF7ADFE01203EBD0023B5
:105D30001380264B1B78012B00D113700223002106
:105D4000F0E78A780023012A03D101AA1380204BAF
:105D5000F0E71E4A13701F4A93699B0B9B039361E4
:105D6000E3E78C78012C06D10021194B01AA1C70A5
:105D700011702300D6E70120002CD7D1134B154A10
:105D8000187093699B0B9B039361CFE78978280078
:105D9000FFF702FCC9E72800FFF734FFC6E701233D
:105DA0000D4ACCE70B780020DB06BFD12800FFF7B7
:105DB000BFFCA278084B1A60CDE70123074ABEE773
:105DC0008A78064BF7E70020B0E7C0468E05002032
:105DD00096050020240A00201C0A0020200A00202A
:105DE000474BF7B51E780500002E78D1454C236847
:105DF0009A8B120707D5082231009A833000FFF7EB
:105E000083F8414B1E6023689A8B52071FD50422EA
:105E10009A833E4A1378002B0AD01378013BDBB2F9
:105E200013701378002B03D101211F20FEF776FF9A
:105E3000374A1378002B0AD01378013BDBB213707A
:105E40001378002B03D101211E20FEF767FF236882
:105E5000FF331A7A920603D52022597A0A435A72DE
:105E60001A7AD20623D5694608002A4AC0CAC0C099
:105E7000A268920B9203A2604022587902435A71A1
:105E800060230A7828001A422AD1FFF737FF2368D7
:105E9000FF33002827D08022997952420A439A7111
:105EA0001A7A520603D54022597A0A435A727F263B
:105EB00001252368FF331E722F00236808377F01F6
:105EC000DB19DB79002B07D0134BAA00D058002830
:105ED0000DD003681B6898470135082DECD1F7BD3C
:105EE000FFF77EFBD3E720210C4A9171D8E700F041
:105EF00073FA290000F037FA2368DF19FE71EBE727
:105F0000190A0020240A00201C0A00208D05002008
:105F10008C0500205807002070050020FF5000412C
:105F200010B50248FFF75CFF10BDC0466C050020AD
:105F3000014B024A1A607047240A002000500041B9
:105F400010B500F015FB10BD10B500F01BFB10BD27
:105F50000020704770B50F26CB1D0139020032407A
:105F6000D5B22C0000093034092A00DD07341C703A
:105F7000013B8B42F2D170BD10B50C000B4B186881
:105F8000FFF7E8FF21000A4B08311868FFF7E2FF2E
:105F90002100084B10311868FFF7DCFF2100064B89
:105FA00018311868FFF7D6FF202010BD0CA0800024
:105FB00040A0800044A0800048A0800008B4024BAC
:105FC0009C46103808BC6047795F000070473F204E
:105FD000704713B56B460268D971073354681900CE
:105FE0000122A04716BD000070B50A260B7892B0BA
:105FF0006E44023305000B703C220021300000F09B
:10600000D4FA394801AC069038482421079006207C
:1060100020776846364AA1742281364A364BA281DF
:10602000FD3AFF3A8018C177684623390630C177B8
:1060300068460730C17702A8C1770720F2770326A8
:1060400008316944C87703A9CE7710212B366E44F6
:106050003170092621851F3169440E700CA9053E57
:106060000E7033212380022369440B7006360DA97C
:106070000E7022493536A1863B216E44307010A83F
:106080006274E27702703D3269446A440B701370A7
:1060900040210022E37023716371A37341336B4489
:1060A000218719705A702B7DC039A370A372637752
:1060B0000133DBB2A3776A7D0B200D0068441543E2
:1060C000C5773120684403703A23501C6B44187024
:1060D000412302320A436B441A70210042220848CD
:1060E000FFF7F4FC12B070BD100104240206052471
:1060F0000904000001020000080B00000705000071
:106100006C05002008B4024B9C46103808BC604760
:10611000E95F000070B5027D0B790C0000259A4202
:106120000BD10B784E78A12B09D1212E05D1072256
:106130001F492048FFF7CAFC0135280070BD212BFC
:10614000FBD1202E2BD1072219491A48FFF7F4FB67
:10615000174B1A785978090211439A78120411439F
:10616000DA7812060A439621C9008A421DD1DB79EA
:10617000DB071AD4FA20FEF771FE00210D48FFF765
:10618000B1FD0125232ED8D1E378A2781B02134359
:10619000094A002107481360FFF7A4FDCDE7222E2E
:1061A000EFD18A78024BDA71D2E7FEF761FEE4E7BD
:1061B0000C0000206C0500200800002008B4024BF1
:1061C0009C46103808BC60471561000010B5417D41
:1061D000006A0131FFF7DAFA034B1B6801335A1EDC
:1061E0009341181810BDC0461400002010B5417D21
:1061F000006A0231FFF7E0FA10BD10B5417D006A78
:106200000231FFF7A7FA10BD70B50D00417D040003
:10621000130002312A00006AFFF7A2FB002801D117
:106220000123636070BD000010B5054C23685A1C43
:1062300004D103685B69984703002060180010BD13
:1062400014000020074A0300106810B5411C03D059
:1062500001235B42136010BD597D186A0131FFF7BD
:106260002FFBF8E714000020704700207047000063
:10627000FA239B0010B583600F4B0022C3820300FA
:10628000283383610D4B04004260C261180044331F
:1062900023610830631D21622060DA778323A362C3
:1062A000813BE3628033236300F096F821001031D4
:1062B00000F066F8200010BD03020000806C0000B2
:1062C0007047000010B502490248FFF7D1FF10BD2A
:1062D0006C050020280B002070B50E0000254468D6
:1062E000002C0BD0236831005B6820009847002801
:1062F00002DB2D18E468F3E701256D42280070BD2C
:1063000070B50D004468002C08D0236829009B68F4
:1063100020009847002802D1E468F4E7200070BD0F
:1063200070B50D0000264468002C09D023682900B0
:1063300020001B69984736182D18F6B2E468F3E779
:1063400030002C7070BD70B50D004468002C08D072
:10635000236829001B6820009847002802D1E468C0
:10636000F4E7200070BD70B50D004468002C06D025
:1063700023682000DB6829009847E468F6E770BDD1
:10638000F0B58C79457803002A190020072A1FDC14
:106390005A68824216D159601A78C8790A7112185F
:1063A0004D711A7000220B4DD0B284420FD98F6804
:1063B00058789600F75986000130775101325870AD
:1063C000F2E70200D0680028FBD1D160E4E70120A9
:1063D000F0BDC046440500200121064A10B51368EF
:1063E00005480B4004D180246400048043601160A0
:1063F00010BDC0465C0B0020600B002002B471464B
:1064000049084900095C49008E4402BC7047C046F7
:10641000002243088B4274D303098B425FD3030AE3
:106420008B4244D3030B8B4228D3030C8B420DD3F6
:10643000FF22090212BA030C8B4202D31212090284
:1064400065D0030B8B4219D300E0090AC30B8B42C2
:1064500001D3CB03C01A5241830B8B4201D38B0370
:10646000C01A5241430B8B4201D34B03C01A524115
:10647000030B8B4201D30B03C01A5241C30A8B4258
:1064800001D3CB02C01A5241830A8B4201D38B0243
:10649000C01A5241430A8B4201D34B02C01A5241E7
:1064A000030A8B4201D30B02C01A5241CDD2C30959
:1064B0008B4201D3CB01C01A524183098B4201D3D5
:1064C0008B01C01A524143098B4201D34B01C01AC0
:1064D000524103098B4201D30B01C01A5241C30838
:1064E0008B4201D3CB00C01A524183088B4201D3A7
:1064F0008B00C01A524143088B4201D34B00C01A93
:106500005241411A00D20146524110467047FFE7FE
:1065100001B5002000F006F802BDC0460029F7D002
:1065200076E770477047C04670B500260C4D0D4C9D
:10653000641BA410A64209D1002600F011F90A4DEF
:106540000A4C641BA410A64205D170BDB300EB58E1
:1065500098470136EEE7B300EB5898470136F2E76B
:106560007C0000207C0000207C0000208C000020AB
:1065700010B5034B0100186800F06AF810BDC04662
:106580001800002010B5034B0100186800F016F841
:1065900010BDC04618000020002310B59A4200D15B
:1065A00010BDCC5CC4540133F8E7030012189342C9
:1065B00000D1704719700133F9E7000070B505008C
:1065C000002910D00C1F2368002B00DAE4182800E3
:1065D00000F0B5F81D4A1368002B05D16360146004
:1065E000280000F0ADF870BDA34209D921686018F9
:1065F0008342F3D118685B6841182160EEE713000D
:106600005A68002A01D0A242F9D919685818A04244
:106610000BD120680918581819608242E0D110681F
:106620005268411819605A60DAE7A04202D90C2377
:106630002B60D5E721686018824203D11068526848
:106640004118216062605C60CAE7C046680B0020A8
:10665000032370B5CD1C9D43083506000C2D1ED2BA
:106660000C25A9421DD8300000F069F8254A1468AD
:106670002100002919D1244C2368002B03D13000BC
:1066800000F044F820602900300000F03FF8431C7F
:106690002BD10C233000336000F052F803E0002DC2
:1066A000DFDA0C233360002070BD0B685B1B19D44C
:1066B0000B2B03D90B60CC18256003E04B688C4290
:1066C0000DD11360300000F03BF8200007220B30A2
:1066D000231D9043C31AE7D05A42E250E4E76360B7
:1066E0000C00EFE70C004968C3E70323C41C9C437C
:1066F000A042E1D0211A300000F008F8431CDBD1A1
:10670000C7E7C046680B00206C0B0020002370B563
