:1040000000800020E1610000C9610000C96100007A
:1040100000000000000000000000000000000000A0
:10402000000000000000000000000000C961000066
:104030000000000000000000C961000035620000BF
:10404000C9610000C9610000C9610000C9610000C8
:10405000C9610000C9610000C9610000CD610000B4
:10406000C961000029580000C9610000C961000051
:10407000C9610000C961000039580000F55700000F
:10408000C9610000C9610000D1570000C96100008A
:1040900000000000C9610000C9610000C9610000A2
:1040A000C9610000C9610000C9610000C961000068
:1040B0000000000010B5064C2378002B07D1054BFB
:1040C000002B02D0044800E000BF0123237010BD84
:1040D0002802002000000000D8EC0000044B10B5BE
:1040E000002B03D00349044800E000BF10BDC046C8
:1040F000000000002C020020D8EC000000207047D7
:1041000070470000024A537EDB09FCD17047C0466D
:104110000040004213B56B460268D97107335468FA
:1041200019000122A04716BD70B51F240500806844
:10413000241A944200D91400002C07D00C302818FF
:10414000220007F085FCAB681B19AB60200070BD36
:1041500013B50A684B6804008968009102F02EF8D4
:10416000200016BD70B505000E0000240023F35694
:10417000A34206DD71782800013401F0FDFE64B22F
:10418000F4E7280070BD0000F0B50E684F680C0021
:104190008B68002191B003930F4B0500202208A8E3
:1041A00006910791059307F05CFC039B3200009396
:1041B00005A83B0002F002F8237C04A9181A637CCE
:1041C000087028004B70FFF7CDFF040008A901F02C
:1041D000CFFE200011B0F0BD70DF000010B507F079
:1041E000EDFB02000B0000200F4906F0F5F803F08C
:1041F000D1FE05F0FBFB80B2142800DA1420FA226D
:10420000031C9200904200D9131C084A98B21380F4
:1042100007F0F8FA0B0002000349002006F0DCF872
:10422000034B1860596010BD0088C340140A002079
:10423000401A002070B507F0C1FB002200230400E3
:104240000D0005F0ABFB00280BD1094A094B2000FB
:10425000290005F0A3FB002806D0074B1C605D6019
:1042600070BD00240025F8E7014C024DF5E7C0467B
:104270006666666666660A40481A002070B507F0F2
:104280009DFB0022002304000D0005F087FB0028A1
:104290000BD1094A094B2000290005F07FFB0028BB
:1042A00006D0074B1C605D6070BD00240025F8E758
:1042B000014C024DF5E7C0466666666666660A40D2
:1042C000381A0020F0B5654989B00590644A654BFD
:1042D0000868496806F080F8029003916249614BD2
:1042E0005F4A0868496806F077F80023009001915A
:1042F0005E4D04932E88049BB34200DBA9E01800B6
:10430000310005F02FFB080005F0C0FC584B041CE1
:104310001B78012B59D0022B00D180E007F0DEFA88
:10432000544A554B06F062FC040030000D0007F0C3
:1043300069FA02000B002000290006F04DF803F096
:10434000E3FD00224D4B05F02BFD00224C4B06F007
:104350004DFC009A019B04000D001000190005F0AF
:104360001FFD22002B0006F041FC009A019B040077
:104370000D000298039906F0ABFE02000B0020002E
:10438000290005F00DFD0022002304000D0005F0BA
:1043900005FB002857D10022384B2000290005F0EA
:1043A000FDFA002852D00022364B2000290006F0EA
:1043B0001DFC03F0EFFD049B5C0005F017FB059B63
:1043C000E052049B01331BB292E7300007F054FA2D
:1043D00006900791300007F015FA00222A4B06F0EC
:1043E00005FC0600201C0F0007F078FA02000B0005
:1043F0003000390006F06CFE069A079B03F022FE9F
:10440000060028880F00013807F0FCF902000B00B5
:104410003000390005F0E0FF03F0BCFD99E7300003
:1044200005F034FC011C201C05F0FEFA07F056FADA
:104430000022134B06F04CFE4900490802000B0015
:1044400005F0AEFC85E700240025ACE700240B4D09
:10445000A9E700220D4B1A7009B0F0BD481A0020E0
:104460006666666666660A40381A0020140A0020EE
:10447000501A0020182D4454FB2119400000F03F31
:104480000000E03F00F88F400000FC3F121A0020BF
:1044900030B5174B89B01B6804A90493154B050070
:1044A0001B684B60144B1B688B60144B1B68CB6004
:1044B00000236C46CA58100E18551800140C684496
:1044C00044700433140A8470C270102BF1D100249C
:1044D0006B4660001A5D28180949013407F084FB17
:1044E000102CF5D100230135EB7709B030BDC04663
:1044F0000CA0800040A0800044A0800048A0800064
:1045000080DF0000F7B5012501910400104E01F095
:104510009FFE10498F6873689B0E2B408A689446F3
:104520007268920E2A4093420CD167450AD3002B41
:104530000BD120604B68DB1B074F5F43019B3F0D96
:104540001F80F7BD13006746E8E70130F1E7C0467A
:1045500000ED00E010E000E055550000F7B56B46B7
:104560009D1C04000E0001A82900FFF7CBFF234B80
:1045700023481978019A002905D00021197029884B
:10458000204B0260198020490B6801330B600368DF
:104590001C48D21A00882B880192834226D31B1A0A
:1045A0002B800B68DBB2A3720B681B0ADBB2E372D1
:1045B0000B681B0CDBB223730B681B0E6373019B30
:1045C000DAB2A2731A0AD2B2E2731A0CD2B21B0E7A
:1045D000227463742B88DAB21B0AA274E3743388E2
:1045E000DBB2237533881B0A6375F7BDFA27BF005A
:1045F000DB191B1A013A2B800192D2E7801A0020A6
:10460000041A0020001A0020180A0020F7B5012122
:10461000484A494C1068494B084202D12078116041
:1046200018702278197891420CD0227821781A706B
:10463000C9B2002924D000220121414B1A700D205B
:1046400002F024F92378002B19D03D4E3D4D3478EB
:10465000002C18D101223C4B1C703C4B1C703C4B75
:104660002C801A703B4B1C8023002A883A49520048
:10467000515A3A4A1181032C12D801343470F7BDD3
:10468000364B1981DBE70023032CEED9344F02337C
:104690003A7B13433B73FFF735FD7B8B9BB2E4E71B
:1046A000042C0AD1052329002E483370FFF756FF4A
:1046B0002B8801339BB22B80E1E7264C244E2288C5
:1046C000D8B251000F00844630781B0A16371731D4
:1046D0000193002827D023486346C3556B461B79B6
:1046E0000132435493B2FA222380920093420FD1B5
:1046F00032780123002A18D02900134A1A4813706F
:10470000FFF72CFF012332785340337000232380BE
:104710002B88164A01339BB22B802B8812889A4231
:10472000ADD10023C7E71048D6E7084A2900137027
:104730000C48E5E71C0A0020131A00200C1A002080
:104740000D1A00200E1A0020811A0020821A002063
:1047500000000020101A00204402002000480042FF
:1047600000400042200A002010120020140A0020FD
:1047700037B50C000500086807F060FA237901A935
:10478000181A6379087028004B70FFF7EBFC21685A
:1047900001F0EEFB28003EBD10B504000B884A680E
:1047A0009BB2190001F039FC200010BD10B5024980
:1047B000024800F099FE10BD8C1A0020541A002007
:1047C00070B55349534801F09BF95348FFF760FE19
:1047D00001210D2002F00EF800210D2002F056F804
:1047E00072B600234D484E4A4E49595CC154D154CB
:1047F00001330A2BF8D1FE244B4B4C4DE4004C49BD
:104800005918695CC154D1540133A342F7D162B63F
:104810000A2001F0CDFE0021182001F001FF002345
:10482000444C0F262370FFF76DFCFF20424B434A98
:104830001B6811689A065B010340C90E520F0B43B7
:10484000120213432385A3883D4A02251A40C02340
:104850009B001343A380FFF755FC3022A3889343AA
:104860001A0010231343A380FFF74CFC7022A37897
:10487000B3432B43A370A37893431A00202313431D
:104880003F22A370E37893433343E370A3883E3A17
:104890009343A380FFF736FC9A231F21294A9B00EC
:1048A000D25C23690A408B4313432361FFF72AFC40
:1048B0002369254A1A40C0235B0113432361FFF794
:1048C00021FC7F226378B3432B43637063781340EA
:1048D0006370F02322691B0513432361FFF712FC69
:1048E00023781D432570FFF70DFC1848FFF776FC71
:1048F0001748FFF79FFC1748FFF7C0FC1648FFF763
:10490000E1FC164A6421164800F02EFF70BDC04637
:1049100040420F008C1A0020141A0020200A0020A8
:1049200010120020A2DF0000E607000098DF000060
:104930001AF8FFFF004000422460800020608000E1
:10494000FFF8FFFFE0E10000FFE0FFFFA3E1000050
:10495000A9E10000ADE10000440200200D46000086
:10496000831A0020F0B5E1B001F072FC3A4A1368F6
:10497000C31A132B21D9394C1060200000F0C0FD60
:1049800000281AD0364E3378002B32D072B600236E
:10499000344A33701370344A137062B6334D2800B2
:1049A00001F0C7F83249280001F0AAF8314928007F
:1049B00001F0DEFA200000F0DCFD294B1B78002B13
:1049C00015D0284A1378002B03D1274B1B78002BD6
:1049D0000DD013782548DBB2002B01D100F04CFD3F
:1049E00000231370FE222449D20001F098FA61B02E
:1049F000F0BD200000F0BDFD2049050007F014F9CE
:104A0000002805D1194C1E49200001F0B1FA8BE3B2
:104A10001C49280007F008F900283DD1134C1A4919
:104A2000200001F0A5FA0921200001F0A5FA17499C
:104A3000200001F09DFA0921200001F09DFA144B9D
:104A40000A221968200001F0ECFA0921200001F087
:104A500093FA1049D8E7C046081A0020541A0020DB
:104A6000131A0020811A0020821A00208C1A0020BC
:104A700040420F0074E10000200A0020ACDF00007B
:104A8000B0DF0000BEDF0000C3DF0000D6DF0000A3
:104A90001C000020141A0020F649280007F0C4F872
:104AA000002800D028E2F44B02A90B80F348FFF75E
:104AB00059FB040001F066FAF1492000F14D01F0C4
:104AC00057FA200001F05EFAEF4B04A98D80200018
:104AD0000493FFF74DFE0600EC4CED4901F048FA57
:104AE000237806AA9B07DB0F1370117830000A2287
:104AF000C9B201F0A2FA300001F044FAE5493000F1
:104B000001F036FA300001F03DFAE34B08A98D8040
:104B100030000893FFF72CFE0700E04E310001F053
:104B200027FA23691022DB06DB0E0A930A99380064
:104B300001F077FA380001F025FAD94B0CA98D80E5
:104B400038000C93FFF714FE0700310001F010FA53
:104B500023691022DB04DB0E0E930E99380001F05E
:104B600060FA380001F00EFACE4B10A98D803800A3
:104B70001093FFF7FDFD0700310001F0F9F92369FB
:104B800010221B011B0F12931299380001F049FAF1
:104B9000380001F0F7F9C449380001F0E9F93800AC
:104BA00001F0F0F9C14B14A98D8038001493FFF780
:104BB000DFFD0700B64901F0DBF9637816AADB09CF
:104BC0001370117838000A22C9B201F036FA3800A1
:104BD00001F0D8F9B64B18A98D8038001893FFF76B
:104BE000C7FD0700310001F0C3F963781AAA1B075B
:104BF0001B0F1370117838001022C9B201F01DFA92
:104C0000380001F0BFF9AB49380001F0B1F93800C4
:104C100001F0B8F9A84B1CA98D8038001C93FFF750
:104C2000A7FD0700310001F0A3F9A3781EAA5B06D7
:104C30005B0F1370117838001022C9B201F0FDF932
:104C4000380001F09FF99D4B20A98D8038002093FA
:104C5000FFF78EFD0700310001F08AF9A37822AA40
:104C60001B071B0F1370117838001022C9B201F016
:104C7000E4F9380001F086F99149380001F078F93B
:104C8000380001F07FF98F4B24A98D8038002493E0
:104C9000FFF76EFD07008C4901F06AF9E37826AA58
:104CA0009B069B0E1370117838000A22C9B201F0DE
:104CB000C4F9380001F066F98449380001F058F968
:104CC000380001F05FF9824B28A98D8038002893C5
:104CD000FFF74EFD3100070001F04AF91022A388CA
:104CE0002AA99B069B0F38004A600B80FFF754FDF2
:104CF000070001F047F9774B2CA92C9338008D80E1
:104D0000FFF736FD6249070001F032F9A3882EA9AA
:104D10001B07DB0F0B800A2338004B60FFF73CFDBD
:104D2000070001F02FF96C4B30A9309338008D80CB
:104D3000FFF71EFD5649070001F01AF9A38832A9B2
:104D40009B07DB0F0B800A2338004B60FFF724FD25
:104D5000070001F017F9614B34A9349338008D80B6
:104D6000FFF706FD4A49070001F002F9A38836A9BA
:104D7000DB07DB0F0B800A2338004B60FFF70CFDCD
:104D8000070001F0FFF8564B38A9389338008D80A2
:104D9000FFF7EEFC3100070001F0EAF81022A388CB
:104DA0003AA95B055B0F38004A600B80FFF7F4FC03
:104DB000060001F0E7F84B49300001F0D9F8300067
:104DC00001F0E0F8484B3CA93C9330008D80FFF7A0
:104DD000CFFC06000A273C4901F0CAF8238D42A9FE
:104DE000DBB230000B804F60FFF7D6FC060001F00D
:104DF000C9F83E4B48A9489330008D80FFF7B8FCB6
:104E00000500314901F0B4F8238D4EA95B055B0F15
:104E100028000B804F60FFF7BFFC050001F0B2F8DF
:104E20003349280001F0A4F8E38C54A91B051B0D9D
:104E300028000B804F60FFF7AFFC050001F0A2F8DF
:104E40002C49280001F094F8A38C5AA91B051B0DCE
:104E500028000B804F60FFF79FFC040001F092F8E0
:104E600003A9054B20000B80FFF77CF901F08AF8BD
:104E7000A3E5C046E1DF0000282D00008C1A0020C9
:104E8000E6DF00000F200000ECDF000000400042E1
:104E9000F4DF0000F8DF000002E000000AE000009C
:104EA0000FE0000017E000001DE0000025E000001A
:104EB0002EE0000036E000003EE0000046E000008A
:104EC00051E000005AE00000D7E0000063E000007D
:104ED00069E0000071E0000079E0000082E000007D
:104EE0008CE0000097E000009DE00000ACE00000D6
:104EF000B6E00000C8E00000DB49280006F094FEA0
:104F0000041E00D0B7E0D94B2CA90B80D848FFF77E
:104F100029F90500D74E01F035F8D74B30A9309369
:104F200028008E80FFF724FCD44D0700290001F0F3
:104F30001FF80022D24B3CA93C923D93D14B3E94AA
:104F400038000B82FFF720F90700CF4901F010F875
:104F5000380001F017F8CD4B32A9329338008E801B
:104F6000FFF706FC2900070001F002F80022C84BF9
:104F700042A942924393C34B449438000B82FFF7FB
:104F800003F90700C34900F0F3FF380000F0FAFF0F
:104F9000C14A34A9349238008E80FFF7E9FB29001A
:104FA000070000F0E5FF0022BC4B48A94892499356
:104FB000B44B4A9438000B82FFF7E6F80700B84973
:104FC00000F0D6FF380000F0DDFFB34A36A9369274
:104FD00038008E80FFF7CCFB2900070000F0C8FFE7
:104FE0000022B04B4EA94E924F93A64B50943800DE
:104FF0000B82FFF7C9F80700AB4900F0B9FF380092
:1050000000F0C0FFA94B38A9389338008E80FFF715
:10501000AFFB2900070000F0ABFF0022A44B54A90E
:105020005492559302235693964B38000B82FFF708
:10503000ABF807009F4900F09BFF380000F0A2FF8B
:105040009D4B3AA93A9338008E80FFF791FB2900D7
:10505000060000F08DFF0022984B5AA95A925B93EC
:10506000884B5C9430000B82FFF78EF8040000F050
:1050700089FF2EA9F5E69249280006F0D5FD071E06
:1050800054D17B4C0A226421200000F0C6FF092184
:10509000200000F071FFFA210A228900200000F0B0
:1050A000BCFF0921200000F067FFFE210A22C90091
:1050B000200000F0C6FF0921200000F05DFF0A2259
:1050C0002000110000F0A9FF0921200000F054FF8A
:1050D0000A220C21200000F0A0FF0921200000F08E
:1050E0004BFF0A223900200000F097FF0921200021
:1050F00000F042FF0223734A00932000724B01F03C
:105100005DF80921200000F037FF0A221421200059
:1051100000F083FF0921200000F02EFFFA210A226F
:105120008900200000F079FF20009FE667492800F1
:1051300006F07AFD002805D06549280006F074FDC8
:1051400000283AD1634B4EA95C681B684E934F947C
:10515000032447485094FEF7FBFF0500092100F0A7
:105160000BFF5D4B54A928001A685B685694549253
:105170005593FEF7EDFF0500092100F0FDFE574BAA
:105180005AA928001A685B685C945A925B93FEF7F0
:10519000DFFF0400092100F0EFFE514B514A1B785C
:1051A00020009B00995800F0E3FE0921200000F048
:1051B000E3FE4D4B19880A22B3E74C49280006F05C
:1051C00033FD002805D04A49280006F02DFD0028AF
:1051D00013D1274C444D02222900200000F09FFEED
:1051E00001224449200000F09AFE2A8842495200D8
:1051F000200000F094FEFFF7E0FB4049280006F095
:1052000013FD002805D03E49280006F00DFD0028BA
:1052100078D1174C344E0A223188200000F0FDFE70
:105220000921200000F0A8FE324B0A221978200044
:1052300000F0F3FE200000F0A5FE002533882E4A82
:10524000013B9D420CDA6B00D15A20000A2200F08B
:10525000E4FE01350921200000F08EFEADB2EDE73D
:105260005B00D15AA7E7C046DAE00000282D000015
:105270008C1A00200F200000E1E00000EAE00000AE
:105280000088C34006200000EEE00000F3E00000CC
:1052900000005940FDE0000004E1000000408F40A4
:1052A0000FE1000000C09F4019E1000021E1000073
:1052B000000024402FE100003AE1000000CE084148
:1052C00043E100006666666666660A404AE10000E1
:1052D00064E10000401A0020481A0020381A00201B
:1052E000501A002088DF0000140A00204FE100005F
:1052F00054E10000121A00204402002057E100008F
:1053000062E100006049280006F08EFC041E29D1ED
:1053100054AE31005AA8FFF7F5F85C4D0A225A99AD
:10532000280000F07EFE5A49280000F021FE368851
:105330000A273000390004F02FFA01340300E4B2E8
:1053400080B2002BF6D103334EA91C1B28002D334D
:105350004B700C70FEF706FF0A22310000F05DFE74
:10536000280083E54B49280006F05EFC002805D1A3
:105370004949464800F0FCFDFFF71FFB474928005C
:1053800006F052FC002805D172B60123337062B6D4
:10539000FFF713FB4249280006F046FC002804D121
:1053A00072B601233F4A1370F0E705223E492800F8
:1053B00006F04BFC002811D101223C4B681D1A70ED
:1053C000FEF70CFF3A4B5C681B685A935B9403230F
:1053D0005AA92E485C93FEF7BBFE47E505223549E6
:1053E000280006F032FC002807D101222F4B681D4F
:1053F0001A70FEF71FFF304BE5E705222F49280002
:1054000006F023FC002807D10122284B681D1A70E2
:10541000FEF734FF2A4BD6E705222A49280006F07A
:1054200014FC002813D10122204B681D1A7006F0CD
:10543000CAFA021CC0B2022800D902222249D3B201
:105440000A70224A9B00114C9958FFF7DDFA204957
:10545000280006F0E9FB002807D01E49280006F0C6
:10546000E3FB002801D0FFF7A8FA1B48FEF72AFF4C
:10547000064C1A49FFF7C8FA194A1A491370FE2256
:10548000D200FFF7B2FAC04647E100008C1A0020B4
:1054900066E1000068E100006CE100007AE10000D4
:1054A00079E10000801A00207DE10000121A00203E
:1054B000401A002083E10000481A002089E1000022
:1054C000381A00208FE10000501A002088DF000009
:1054D00095E1000002E1000044020020A1E100008B
:1054E000821A002010120020044B421D8362002308
:1054F00001600371D377821DD3777047DCE1000030
:10550000F8B504000068661D03681B699847002809
:1055100020D00023F377206803681B699847002890
:1055200018D0206803689B699847C5B20D2D04D137
:10553000206803685B699847EDE7A71D0A2D0BD12A
:10554000206803685B699847FB7FE4180023237198
:105550000133F377F07FF8BDFB7F1E2BF5D8206871
:1055600003685B699847FB7FE21801331571FB778D
:10557000D1E7421DD37F002B05D00023D377821DB6
:10558000D37704307047806AFCE70000F7B5022249
:105590000D005F4C238893432380E37BDB09FCD120
:1055A00023885C4A13402380E37BDB09FCD12388FA
:1055B000594A13402380E37BDB09FCD12388574AF7
:1055C00013402380E37BDB09FCD12388544A13403A
:1055D0002380E37BDB09FCD12388524A13402380DC
:1055E000E37BDB09FCD123884F4A13402380E37B14
:1055F000DB09FCD123889BB22380E37BDB09FCD150
:105600004A4B9D4235D9E02380202288DB0013439A
:105610002380C000E67BF609FCD104F037FB071CB1
:10562000280004F07DFB424904F0FEF9011C381CFF
:1056300004F0FAF9011C3F4804F0F6F904F006FB07
:10564000451E208A228B80B2009592B23300310031
:1056500000F05AFCADB280B220822583E37BDB09E7
:10566000FCD12288023313432380E37BDB09FCD186
:10567000F7BD314B314AEB18934207D8C023802045
:105680002288DB00134323804000C3E72C4B2D4AC4
:10569000EB18934206D8A0232288DB001343238013
:1056A0004020B7E7284B294AEB18934206D88023BD
:1056B0002288DB00134323801020ABE7244B254ACC
:1056C000EB18934206D8C02322889B001343238003
:1056D00008209FE7204B214AEB18934206D88023ED
:1056E00022889B0013432380042093E71C4B1D4A10
:1056F000EB18934206D8802322885B001343238053
:10570000022087E7238801209BB2238082E7C046DE
:10571000002C0042FFF8FFFFFFF9FFFFFFFAFFFF39
:10572000FFFBFFFFFFFDFFFFFFFEFFFFE093040015
:1057300000247449001B374C7FC7FEFF5F5B0300EA
:10574000DFB1FFFF5FEA0000EFD8FFFF0F27000087
:1057500077ECFFFF871300003BF6FFFFC309000053
:1057600017FCFFFFDB05000070B5134B134C1C80CA
:10577000134C6378DB09FCD10225124B1C88AC4327
:105780001C801C88A4B21C80DC7BE409FCD11D8831
:1057900020342C431C80DC7BE409FCD15C735D7BF2
:1057A00010342C435C738024074BE4021C60074BCD
:1057B0001A60FFF7EBFE70BD020C00401B400000BA
:1057C000000C0040002C004200E100E0841A0020A0
:1057D00010B5064B9A7BD20606D51022997B0A4358
:1057E0009A73034B1B68984710BDC046002C0042BB
:1057F000841A002010B50A4CE36ADB0304D5802329
:10580000E26A5B021343E362E36ADB0706D5054BFA
:105810001B6898470123E26A1343E36210BDC04648
:1058200000200042881A002010B5024800F0BEFA9D
:1058300010BDC046501B002010B5024800F0B6FA5B
:1058400010BDC0468C1A0020F7B501240326154F61
:105850001549380000F042F81449154800F03EF8A8
:105860001449154800F03AF81449154800F036F884
:105870001449154800F032F8144D1549280000F07D
:105880002DF839000096230001940022114800F001
:1058900019FA009629000194232324220E4800F0CF
:1058A00011FAF7BD141C002000080042000C004251
:1058B000181C0020001000421C1C00200014004294
:1058C000201C002000180042241C0020281C00205E
:1058D000001C0042501B00208C1A00200160704701
:1058E0009446F0B59E1E721E964162460568920768
:1058F0002F6836063A4332432A60072505AC2478E0
:105900000068A4012940214342680024022B00D0F2
:105910005C03114321434160F0BD30B5C0250368ED
:10592000AD031C6812052A402243C0240904A402C6
:1059300021401143196003685A6814435C6030BD0C
:105940000123026811680B43136003681A68D207C9
:10595000FCD4DA69D207F9D47047022302681168CF
:105960000B4313600268D3699B07FCD4704702683D
:10597000137E9B07FCD57047002203685A8370474B
:105980000368187E4007C00F70470368187EC0097F
:105990007047802302685B42117E0B431376704789
:1059A0000368588B8007C00F704702230268518B31
:1059B0000B43538370470368187EC007C00F7047BE
:1059C0000368188DC0B2704703681A7ED207FCD5F1
:1059D00089B2012019857047012203689A757047C2
:1059E000012203681A7570470368214A30B5934253
:1059F0002FD0204A93422FD01F4A93422FD01F4AC4
:105A000093422FD01E4A93422FD01E4A93421FD159
:105A10000E2319220121032599401B48C02401604F
:105A200099082B40AB40FC359D4089000918A40023
:105A30000859A843C0259D402B0003430B518023E8
:105A4000DB011A43114B5A805A7852B2002AFBDB11
:105A500030BD09231422DDE70A231522DAE70B23E0
:105A60001622D7E70C231722D4E70D231822D1E7FB
:105A700000080042000C00420010004200140042E6
:105A800000180042001C004200E100E0000C004051
:105A9000F8B504000F0016001D00FFF7A5FF200059
:105AA000FFF74EFF1C21BB000B4071072268090C59
:105AB0000B431360842322689375012F1AD11021A0
:105AC000012E00D008390C4B69431868C00003F060
:105AD000D9FD0722216802408B895203DB04DB0CCD
:105AE00013438B81226803049089DB0C400B400335
:105AF00018439081F8BDC0461C000020012070476B
:105B000010B50368014A1B6A984710BD13040000D2
:105B1000C06D7047A83003684020C01A7047C36D3D
:105B2000002B03D0836DC018007D704701204042D8
:105B3000FBE710B504000069FFF702FF0023220015
:105B40006365A032A365E365A834136053602360E6
:105B500010BD020010B5A8321368002BFCD10069FB
:105B6000FFF705FF10BD0368002B02D162B6BFF33B
:105B70006F8F7047F02001403039484248417047EC
:105B8000F0231B011940802306209B0099420AD074
:105B90000133FF330130994205D0802302385B0086
:105BA000994200D0002070470F20014000200129B9
:105BB00003D00239481E8141481C70470300F0B5EC
:105BC000182685B00391AC330400187833000821FF
:105BD0004343334D1700EB18595600F083FE230062
:105BE000AD331878330008214343EB18595600F0C1
:105BF00079FE2300AF331B78022B0AD12300C03378
:105C00001878FF2805D008214643AE19715600F0D8
:105C100069FE2600B0363078FF2819D0012100F047
:105C2000E9FD1822210033781E485A43AB56B4319F
:105C3000DB01181808601C49AD185B18210001220F
:105C4000B8310B6069688A402100BC310A601A6073
:105C50000122039B11002069FFF71AFF3900200081
:105C6000FFF78EFF390005002000FFF79DFF390088
:105C700006002000FFF77EFF330000902900206916
:105C80000122FFF72DFE2300AE331A7859782069E0
:105C9000FFF743FE2069FFF760FE05B0F0BDC04688
:105CA000E0E10000184400411444004110B54022D6
:105CB0000021040005F0D5FE002320002364636466
:105CC000A36410BDF7B51D0008AB1B78040000935A
:105CD00009AB1B781600019300234360FA239B0055
:105CE00083600E4B0F00083303601430FFF7DEFFB4
:105CF00020006030FFF7DAFF6A4623001278AC33E9
:105D000027619A706A4612791E70DA7022005D70FF
:105D1000FF23B032200013701374FEBD60E6000054
:105D200037B5EFF3108300930123019372B63F243C
:105D3000019B013B5A1C0FD0826C5D1E402A09D08A
:105D4000026C8154026C013222400264826C013286
:105D50008264EEE72B00EDE768460193FFF703FF4F
:105D600037BD13B5EFF3108300930123019372B68F
:105D7000019B5A1E0192002B14D0836C002B0ED075
:105D80003F22436CC45C436C013313404364836C17
:105D9000013B83646846FFF7E6FE200016BD012440
:105DA0006442F7E76846FFF7DEFEF6E710B5040049
:105DB0000069FFF7F5FD002805D02069FFF700FE18
:105DC0002069FFF7F2FD2069FFF7DAFD002818D0FF
:105DD0002069FFF7F5FD010020001430FFF7A0FF58
:105DE0002300B0331B78FF2B0BD04023E26D9B1AAE
:105DF000092B06DC23002200B433BC321B68126876
:105E00001A602069FFF7D7FD00280CD02300A833C3
:105E10001B68002B13D020006030FFF7A2FFC1B237
:105E20002069FFF7D1FD2069FFF7AFFD002805D0FD
:105E30002069FFF7AEFD2069FFF79EFD10BD2069C8
:105E4000FFF7CEFDEFE70000F8B5040000690D0094
:105E50002600FFF7B0FDA836002802D03368002BDB
:105E600031D00F273368402B23D1EFF31083012269
:105E700013420FD1164B5B68DB05DB0DF2D0103BF4
:105E80005BB2002B0FDA3B40083B9B08114A9B009A
:105E90009B181B682069FFF78EFD0028E2D02000C8
:105EA000FFF784FFDEE79B08C0330B4A9B009B583B
:105EB000F0E7200029006030FFF732FF2069FFF78C
:105EC0008BFD0120F8BD29002069FFF77DFDF8E773
:105ED00000ED00E01CED00E000E100E010B5040082
:105EE0001430FFF73EFF2300B0331B78FF2B0AD09E
:105EF0004023E26D9B1A0A2B05DD2300BC34B83326
:105F00001B6822681A6010BD10B51C00431A029865
:105F1000511A001B584303F03FFC001910BDF7B5A0
:105F200006000D000C008B180193019B671B9C421F
:105F300007D0336821781B68300098470134002867
:105F4000F3D13800FEBD70B5040008000D0005F067
:105F500075FE2368020029005B682000984770BD29
:105F600010B50B1E02D0FFF7EEFF0300180010BDA6
:105F700010B5FFF7F5FF10BD10B503681B68984713
:105F800010BD000010B50249FFF7DDFF10BDC0468F
:105F9000A0E60000F0B58BB06B461500002205337B
:105FA0000600DA770800012D00D80A2509AC29007F
:105FB00003F0EEFBCAB2130037330700DBB2092946
:105FC00002D813003033DBB2013C2370002FEED136
:105FD00021003000FFF7C4FF0BB0F0BDF8B506009C
:105FE0000C00151E04D10368C9B21B689847F8BDA0
:105FF0000A2A0CD100290BDA2D21FFF7BDFF6142DF
:1060000007002A003000FFF7C5FF3818EFE7D2B2CB
:1060100021003000FFF7BEFFE9E710B5FFF7DEFF14
:1060200010BD10B5002A04D10368C9B21B68984797
:1060300010BDD2B2FFF7AEFFFAE710B5FFF7F1FFE0
:1060400010BD10B5FFF7EDFF10BD0000F7B51E0045
:10605000089B05001700002B01DA0223089331008A
:106060003A003300380005F07BFB4B49002814D17F
:106070000122740064085242484B3800210005F0A8
:106080006FFB00280FD10122444B524238002100FF
:1060900003F08EFC002806D141492800FFF753FF8A
:1060A00004002000FEBDE0223E4B12063800310005
:1060B00003F088FC002801D03B49EEE7E0223B4B8F
:1060C00012063800310003F069FC0028F4D10022E8
:1060D00000233800310003F061FC002814D02D218A
:1060E0002800FFF749FF80231B060090F6180024C4
:1060F00000202F49089B9C4208DA00222D4B0134D6
:1061000004F06AF9E4B2F5E70090F0E70B00020052
:106110003100380003F044FE0F00060003F066FC77
:106120000A22019001002800FFF734FF009B1C1891
:10613000089B002BB5D0019805F09EFB02000B00D8
:106140003000390004F0C4FF06000F0028001A498F
:10615000FFF7F9FE2418089B5A1E0892A1D3154B8D
:1061600000223000390004F041FD0F00060003F06A
:106170003DFC0A22010000902800FFF70BFF2418C5
:10618000009805F079FB02000B003000390004F0A4
:106190009FFF06000F00DEE794E60000FFFFEF7FA1
:1061A00098E60000FFFFEF419CE60000FFFFEFC113
:1061B0000000E03F0000244066E1000007B50499BC
:1061C0000091FFF743FF0EBDFEE70000034B10B543
:1061D0001B68002B00D0984710BDC0462C1C002027
:1061E00070B50F490F4CA14204D100F0AFF800F098
:1061F0008DF8FEE70C4D00238D42F6D0CA18E81842
:10620000A24205D3094B8242EFD00949002204E0A3
:10621000006804331060F1E704C38B42FCD3E4E769
:106220000000002024020020DCEC000028020020F6
:106230007422002010B500F066F8002801D100F0AB
:1062400057F810BD014B18607047C0462C1C002049
:10625000014B18687047C046301C0020F7B5134842
:10626000012284461249134C8E68636805689B0EB0
:106270001340019288686268019F920E3A40674617
:106280003F6893420ED1BD420CD186420AD35B19BE
:10629000FA254868AD00861B07486B437043000D24
:1062A000C018FEBD3D0013000600E3E7301C0020CF
:1062B00010E000E000ED00E05555000070B5041E50
:1062C00010D0FFF7CBFF050000F01CF8FFF7C6FF6A
:1062D000054B401B9842F7D9FA23013C9B00ED186F
:1062E000002CF3D170BDC046E703000070470000EA
:1062F00010B5034A13680133136000F065FB10BD4D
:10630000301C0020704700207047704710B500F027
:10631000CDF805F065FBFFF7F8FF0120FFF7CEFF92
:10632000084C200000F0D4FC200000F097FDFEF7A0
:1063300047FAFEF717FB044B002BFAD000E000BF32
:10634000F7E7C046641C0020000000001E2270B564
:1063500046484749436893431C3A13434360082324
:106360008C6923438B61434C434B9C829C8A14432E
:106370009C82DC681442FCD00124404A14701578D9
:10638000254203D055786DB2002DF8DB01249460CE
:10639000547864B2002CFBDB394C5460547864B2FE
:1063A000002CFBDB8224E4015480547864B2002C7E
:1063B000FBDB02249C840E34DD682542FCD0314C8A
:1063C000DC621024DD682542FCD09D8C2E4C2C43D1
:1063D0009C841024DD682542FCD002249D8C8026FC
:1063E0002C439C844024DD683542FCD0DD68254286
:1063F000F9D01024DD682542FCD000249460547844
:1064000064B2002CFBDB214C5460547864B2002C45
:10641000FBDB1C6A1E4D2C4080251C621C6AAC43B1
:106420001C62032393601B4B536053785BB2002BB9
:10643000FBDB0023FF240B72174A4B728B72CB726B
:10644000164B1A60164B174A1B6811689A065B01B7
:10645000C90E2340520F12020B431343124A1385F5
:10646000802342681343436070BDC0460040004132
:10647000000400400C06000000080040000C004032
:1064800001050100B905FF7D040A000000070300B3
:10649000FFFCFFFF03060100006CDC021C00002073
:1064A000246080002060800000400042FA21314BCF
:1064B00010B51868890003F0E5F82F4B01389842B1
:1064C00056D82E492E4A4860C020136A00061B0287
:1064D0001B0A03431362002407238C600B60802196
:1064E000136A09061B021B0A0B431362FC22254B8D
:1064F000196A0A431A62FC22196A92010A431A6253
:10650000A022196AD2020A431A62E0B200210134C1
:1065100000F070F9132CF8D11B4B1C005A7852B2C2
:10652000002AFBDB194A5A80194B1A00597EC90907
:106530000129FBD0E421C90099803F21D970537E05
:10654000DB09012BFBD0C02300205B01136190709D
:1065500000F034F863785BB2002BFBDB0D4B0E4A86
:106560006380D379DB09012BFBD04123537010BD2D
:10657000FEE7C0461C000020FFFFFF0010E000E027
:1065800000ED00E000040040000C00401E40000050
:10659000004000422140000000480042914202D0E9
:1065A00002D98A1AD0407047521A9040FBE7000087
:1065B000014B18607047C04620000020164A00B505
:1065C0001300517EC9090129FBD00138042816D8CF
:1065D0001969124A0A400F211A615A788A4303F056
:1065E00047F80308060B0300110001220A435A7002
:1065F00000BD11000322F9E711000222F6E7F023A3
:1066000011691B050B430F21136153788B4319004C
:1066100002230B435370EBE700400042FFFFFFF003
:1066200018234343F0B56A4A87B09B18DA6806001E
:106630000C000092920722D51B7C5BB2002B01D08C
:10664000142B1AD1634B0A2219682000FFF7A6FF0A
:10665000614A1300D179C9090129FBD08005800D59
:106660001081DA79D209012AFBD0022219780A4373
:106670001A70DA79D209012AFBD007B0F0BD0827D9
:10668000009A544D3A40019200D191E012229B5E53
:106690002968200010220193FFF780FF019B05006D
:1066A0001F126B461C79009B0421DB0600D40521D8
:1066B000300000F017F9494BBA00D658484BDA5D64
:1066C000002A54D10132DA5546490F3202A805F0AA
:1066D000BFF902AA7B009B5A8022D2011A43424B87
:1066E0005A805A78D209012AFBD0022297421BD93C
:1066F000338893433380F37BDB09FCD1328840330A
:1067000013433380F37BDB09FCD10C34ADB264005E
:10671000A553F37BDB09FCD132880233134333806A
:10672000F37BDB09FCD1A8E7336893432F4A33603E
:106730001300B1681142FCD10222F16B0A43F263EB
:10674000B2681A42FCD11034A40034196560B268F2
:106750001A42FCD1264A3264B2681A42FCD10222A3
:1067600031680A433260B2681A42FCD185E7022FD1
:1067700007D90C34ADB26400A553F37BDB09FCD11F
:106780007BE70223727913437371184B1A00B168C7
:106790001942FCD11C34A400A551B3681342FCD1AA
:1067A000022331790B433371B3681342FCD164E7A0
:1067B000012100F01FF829683A002000FFF7EEFEE3
:1067C00001997F2800DD0121300000F05FF854E7D7
:1067D000E0E100002000002000480042040000200A
:1067E000341C0020A4E60000000C0040FF0F7F00D6
:1067F000FFFF0000182330B51D00040045430820AA
:10680000204A55192856013014D0032912D80800FF
:106810006343D156D31802F02BFF02280E1B586891
:10682000CB010221184A9B181A184032117001221C
:1068300082405A6030BD5868CB010621124A9B182D
:106840001A1840321170012282405A609A61F1E7B1
:106850005868CB0106210C4A9B181A184032117057
:10686000012282405A605A61E4E75868CB01022154
:10687000054A9B181A1840321170012282409A6012
:10688000D8E7C046E0E10000004400411823F0B51D
:1068900008245843114A13181C5701341BD00126F1
:1068A00035005F688356BD400D4ADB019A18906839
:1068B00005420BD10C00601E8441D2194032107881
:1068C00034400336A400B04320431070044A9B18A0
:1068D000002901D15D61F0BD9D61FCE7E0E10000B0
:1068E0000044004118224243F8B52C4E0300B21870
:1068F000127A52B2140001320ED0481C00240C2827
:106900000AD802F0B5FE0720202020202020200BEE
:106910000B0B0B00012464422000F8BD092905D1AE
:106920000021D8B2FFF766FF0024F5E70A2902D15B
:10693000D8B20839F6E700240B29EDD1D8B20A39CC
:10694000FFF758FFE8E718204343F2185568F3565D
:106950002C00134ADB016E0817389B18C9B204409B
:106960009E19002C0DD00F243036327809012240B8
:106970001143C9B25B19317040331A781043187053
:10698000D2E732000F27303216785B19BE4331430D
:10699000117040331A7810431870BDE7E0E1000031
:1069A0000044004110B50400FFF7A0FC014B1C603F
:1069B00010BDC046240000200122024B52421A6042
:1069C0007047C04624000020164A10B51368591CB1
:1069D00026D0013B1360002B22D172B6124B134A12
:1069E0000433934213D9124A01211000147D0C4242
:1069F000FCD02021148BFF319B085B0021431183C5
:106A0000D3610C4B13800123027D1A42FCD0BFF3EB
:106A10004F8F094B094ADA60BFF34F8FC046FDE73D
:106A200010BDC0462400002000400000030200000A
:106A30000040004102A5FFFF00ED00E00400FA0560
:106A4000704710B5040001F089F8200010BD000067
:106A5000F0B5822919D1C3B2294D5A01AA189169FA
:106A6000284C80010C40C0218905214391612649B1
:106A7000083340187021506128685B011A5C8A4312
:106A8000110030220A431A54F0BD0029FCD1C0265F
:106A9000C1B21B4C4B01E3189A681A4DB6052A4047
:106AA00032439A60194A800182185A600A00072707
:106AB000246808325201115DB9430F0001213943A6
:106AC00011559F6910493D4040182E439E61586101
:106AD0007020115D81430800102101431155996810
:106AE0000B48A21808408021490301439960996826
:106AF000890B89039960402311790B431371C3E714
:106B00001C210020FFFFFF8F901C0020501E002042
:106B1000FF3F00F0EFF3108303600123436072B680
:106B2000704773B5836D0400002B1BD10600A83697
:106B300035786846FFF7EEFF019BEDB2013B02D3CB
:106B40003578EDB2FAE768460193FFF70CF8002DAF
:106B500001D1002076BD2300A4331868A034236837
:106B6000C01AF7E76846FFF7D5FF22000025019B12
:106B7000F432013B02D31578EDB2FAE7684601938F
:106B8000FEF7F1FF002DE4D02300F0331868EC3459
:106B9000E5E7000010B5436D4468DBB25A01A21866
:106BA00091680948083308408021490301439160F6
:106BB00091685B01890B890391602268D318402298
:106BC00019790A431A7110BDFF3F00F0F7B5436D04
:106BD0004268DBB21900040008311068490141180D
:106BE000C979C90711D55B01D21893689B049B0C26
:106BF0000CD12000FFF7CEFF63681A68636DDBB22B
:106C000008335B01D3187F22DA71F7BDE16D0029EB
:106C100023D12100A4310B6023000125AC33E565AD
:106C200068465360FFF776FF260020002100019B95
:106C3000A836013BF430F5315A1C33D03570027858
:106C40005F1ED2B20A700A78002A04D12000019394
:106C5000FFF7A0FFE8E73B00EEE72100F0310B6013
:106C60000023E3652300603353606846FFF752FF5B
:106C70000125260020002100019BF436013BA830AD
:106C8000F5315A1C0ED0357002785F1ED2B20A70F0
:106C90000A78002A04D120000193FFF77BFFE8E780
:106CA0003B00EEE768460193FEF75DFFA4E737B5CA
:106CB0006B46DC1D00230D00237000F039FF21001E
:106CC00000F0C4FE2B681818286020783EBD000034
:106CD000F7B50024514B012105001F201C70FFF760
:106CE00089FD01211F20FFF7D1FD4D4B01211E2001
:106CF0001C70FFF77FFD01211E20FFF7C7FD202339
:106D0000484A0F20D1690B43D361012246490B78D1
:106D100013430B70454B19788143197006211C7879
:106D20002143197042490C7822430A701A780240B4
:106D30001A70602219780A431A703E4B3E4A5A80F4
:106D40005F78FF09FCD13D48FFF77CFA01233C4CFA
:106D50003C4E2268300011780B43137080223900BA
:106D6000520004F07EFE22689378DB07FCD4566262
:106D70001F26354B1B68590B980C9B013140304046
:106D80005B0FB14200D105211F2800D10238072B2B
:106D900000D1043B31408901178D01912B493040CE
:106DA0000F40019939431185118D0700B143080047
:106DB00038431085118D1803254B7F260B40034364
:106DC0000C2013850823D17881430B430321D37012
:106DD0002268D3788B4301390B43D3702268137830
:106DE00033401370042322681678334313702268EB
:106DF000C1241389A40083431648138103591B023D
:106E00001B0A03518023036013781348194301239D
:106E100011702B70002101F06BF8F7BD851C00206C
:106E2000841C002000040040584400413C440041C0
:106E300059440041000C0040064000000D7800005D
:106E40001C21002020210020246080003FF8FFFF4B
:106E5000FF8FFFFF00E100E03022002000780028D3
:106E600010D00121084B1B681A898A431A81082215
:106E7000198B0A431A830422198B0A431A830022AE
:106E8000024B1A607047C0461C21002014210020CC
:106E900010B50F4A93699B0B9B0393611368022201
:106EA000FF331A729879823A02439A711A7A9207DA
:106EB000FCD57F24074A2140937A0800A343190098
:106EC000802301439172917A5B420B43937210BD10
:106ED0001C2100200050004110B50C0000F028FEDD
:106EE000210000F0E6FD002804D1034A93699B0BC2
:106EF0009B03936110BDC0461C210020F8B50D0016
:106F0000832A19D1CBB23B4C5A01A21891693A4855
:106F1000AD010840C02189050143916137492068CE
:106F20006D187021083355615B011A5C8A431100AA
:106F300040220A431A54F8BD022A55D1304A8B0028
:106F40009858002802D003685B699847F82000F041
:106F500001FE0400274E2B4B4660036040220021B7
:106F6000083004F07EFD22000023A032A364656592
:106F7000E3642365A365E3655360D3641372136010
:106F800013654C3213725372FF222B0013405901C8
:106F900071188868184F08330740C02080053843AF
:106FA0008860306807265B01195CAD00B1430E00B4
:106FB0000321314319542300616D60681140490178
:106FC000411860334B60616D63680A401B68520171
:106FD0009B180122FF33997A20000A439A72FFF727
:106FE000D9FD074B5C51A6E711002800FFF730FDE3
:106FF000A1E7C0461C210020FFFFFF8F901C00204E
:10700000681C0020BCE6000070B505000124064B9A
:10701000A200D258002A06D0210028000134FFF730
:107020006DFF0A2CF3D170BD3C1C00200B4BCAB283
:107030000B488901C9185301C3185961996908326D
:10704000890B89039961036852019A180223D3714D
:107050005179823B0B4353717047C046901C00200E
:107060001C210020084B8A00D05810B5002803D0FE
:1070700003689B68984710BDC9B2044B4901591871
:1070800088688004800CF6E7681C00201C21002022
:1070900010B50C00FFF7E6FF00280CD0064BE4B259
:1070A0001B68083464011C19802362795B42134316
:1070B00063710223E37110BD1C210020F0B51C0098
:1070C000304B85B01B6807000D000292002B55D095
:1070D0002D4E3178C9B2002902D11E20FFF7D6FB10
:1070E00064233370294BAA00D058002808D00368C5
:1070F00022005B68029998470400200005B0F0BDAB
:1071000029003800FFF7AEFF844204D92900380077
:10711000FFF7A8FF04000121EBB21D4E03935B01B2
:107120000193F21893689B0B9B039360019A336859
:1071300002989B18FF335A7A0A435A72154BA901D9
:10714000C918220004F084FC002CD6D02900380095
:10715000FFF788FF0028D0D14021039B3268083315
:107160005B01D3181879014319710121D971019B71
:10717000D318FF339A7A0A439A72BEE70124644215
:10718000BBE7C04614210020841C0020681C00209E
:107190001C210020501E002013B56B46DC1D220070
:1071A0000123FFF78BFF012801D1207816BD0120B4
:1071B0004042FBE770B5CBB2124A13485C0189012B
:1071C0008918021951609168104D08330D408021D3
:1071D00049032943402591609168890B8903916097
:1071E00001685A018A1816793543157195796D062B
:1071F000FCD55B01C918CB79DB07FCD50019806889
:10720000C0B270BD501E00201C210020FF3F00F0C6
:1072100070B50D0000211400FFF7CCFFA04200D98B
:10722000200000230349A34203D0CA5CEA5401337F
:10723000F9E770BD501E0020F0B51E003F4B85B031
:107240001B680F000192002B3FD08023DB019E4280
:107250003BD83B4C2178C9B2002902D11F20FFF74F
:1072600015FB642300252370364BBA01D318029313
:10727000002E2CD0344B1B680393FF233B401C0093
:1072800000930834039B64011C19A379DB0921D006
:107290002E4B2F49186802F0F5F92E4B1721584351
:1072A00002F0F0F92C4BE279920713D4DA5D002A50
:1072B00001D10138F7D20122DA55009B5A01224B45
:1072C0009B189A69920B92039A6101256D422800DE
:1072D00005B0F0BD0022204B3400DA553F2E09D90D
:1072E000009B40245A01184B9B1880229969120672
:1072F0000A439A6122000199029804F0A9FB009BBD
:10730000A1045A01104B890C9B18029A2D195A613D
:107310009A69361B920B92030A439A61009B039A67
:1073200008335B01D3180222DA715979823A0A4391
:107330005A71019B1B1901939AE7C0461421002042
:10734000851C0020901C00201C2100201C00002017
:1073500040420F0070110100871C002070B50D0025
:107360001C000D4BAE01F61811003000220004F095
:107370006FFBEDB209496D014D196E61AB69084AA9
:1073800020001340AB61AB69A2049B0B920C9B03E2
:107390001343AB6170BDC046901C00201C2100202F
:1073A000FF3F00F0F7B5104B01901B780F00150060
:1073B000002B0CD10D4B16001C78002C09D00C4E64
:1073C0000C4834882018641904F042FB34802800EB
:1073D000FEBD002EFBD03A19330000210198FFF7C3
:1073E000BDFF2418361AF4E71020002011210020D8
:1073F0001221002011200020F8B50F0016000024F3
:10740000012A26D9100004F00FFB0500380004F013
:1074100015FC032302220130400028706B70964255
:107420000DD9397800290AD0531CDBB20137A95491
:107430009E4203D00232EC54D2B2F0E7320029006F
:107440000548FFF7AFFF441EA041C4B2280004F076
:10745000F5FA2000F8BDC046641C0020F0B50024F9
:10746000012685B0184B0F0069461E700500009478
:10747000FFF71DFC154B01A90B806A3BFF3BCB714D
:107480005A330B72009B8C7109334B800E4B4E713B
:1074900008711C703A00092F0FD00D4F09223E7061
:1074A0000C4E280000943480FFF77CFF69462800CA
:1074B000FFF7FDFB328808493C702800FFF772FF98
:1074C000012005B0F0BDC0461020002009020000D8
:1074D00011210020122100201120002070B5CE784B
:1074E00092B005000C00022E0BD18B79C9792C4883
:1074F00009021943FFF7B2FF411E8841C0B212B022
:1075000070BD00F015FB210000F0B4FA002803D094
:10751000C117081AC00FF2E7012E0ED1E279A37944
:1075200012021A431F49112A13D8D2B2002A10D0CE
:107530002800FFF737FF0120E1E7032EDFD1A37812
:10754000002B08D1E279A37912021A431649032AC3
:10755000EBD90A78ECE7022B08D1E279A379120281
:1075600012491A432800FFF747FFC8E7012B05D14E
:10757000E279A37912021A430D49F3E7032BBED136
:107580004122010001A804F06CFA00F0D1FA01A92F
:1075900000F080FAE279A37912021A4301A9E1E727
:1075A000641C0020F4E60000E8E60000D8E60000D5
:1075B000ECE60000CBB204495B01C9188B699B0B58
:1075C0009B038B617047C0461C21002037B5050026
:1075D00048780C000B2810D802F04AF8061B0F2B35
:1075E0000F404561494C5A5D097801AA002906D12E
:1075F000022311802800FFF7B1FE01203EBD0023C9
:107600001380284B1B78012B00D11370022300211B
:10761000F0E78A780023012A03D101AA1380224BC4
:10762000F0E7204A1370214A93699B0B9B039361F7
:10763000E3E78C78012C06D100211B4B01AA1C70BA
:1076400011702300D6E70120002CD7D1154B174A23
:10765000187093699B0B9B039361CFE7897828008F
:10766000FFF716FCC9E72800FFF738FFC6E701233C
:107670000F4ACCE70B780020DB06BFD12800FFF7CC
:10768000C3FCA2780A4B0B481A6000F019FCCAE749
:107690000123094ABBE78A78074B1A60C3E7002039
:1076A000ACE7C046861C00208E1C00201C21002058
:1076B0001421002030220020182100204A4BF7B569
:1076C0001E780500002E00D07EE0484C23689A8B7F
:1076D00012070DD5082231009A833000FFF7B8F960
:1076E00010222368FF33997A0A439A72404B1E6036
:1076F00023689A8B52071FD504229A833D4A137838
:10770000002B0AD01378013BDBB213701378002BE7
:1077100003D101211F20FFF7B9F8374A1378002B56
:107720000AD01378013BDBB213701378002B03D11E
:1077300001211E20FFF7AAF82368FF331A7A920668
:1077400003D52022597A0A435A721A7AD20623D5CF
:1077500069460800294AC0CAC0C0A268920B9203B9
:10776000A2604022587902435A7160230A782800A7
:107770001A422AD1FFF72AFF2368FF33002827D0B7
:107780008022997952420A439A711A7A520603D595
:107790004022597A0A435A727F2601252368FF3313
:1077A0001E722F00236808377F01DB19DB79002B5D
:1077B00007D0134BAA00D05800280DD003681B68CF
:1077C00098470135082DECD1F7BDFFF785FBD3E7CE
:1077D00020210C4A9171D8E729000B4800F046FBA4
:1077E0002368DF19FE71ECE7112100201C21002025
:1077F00014210020851C0020841C0020501E002025
:10780000681C0020FF5000413022002010B50248C3
:10781000FFF754FF10BDC046641C002080235B00AE
:1078200003800023436007330372704783000148DD
:10783000C01870473C1C0020836C402B09D03F22AD
:10784000036CC154036C013313400364836C013334
:1078500083647047F7B505006846FFF75BF90026BB
:107860004022019B013B02D32E6D961BFAE768462E
:107870000193FEF778F9AB6D6846002B4FD1FFF707
:1078800049F92900019BA831013B5A1C0CD00C7806
:107890005A1EE4B2002C05D168460193FEF763F945
:1078A0002000FEBD1300F0E7684601930024FEF7B8
:1078B0005AF92A002900A0321368A431B4420ED02C
:1078C000086898420BD92800591CEB1811606033E6
:1078D00019780830C9B2FFF7AFFF0134E9E709684A
:1078E0009942DDD1002313600133AB656846FFF791
:1078F00011F92F002A000021019BA837013BF53226
:10790000581CC9D0397010785E1E002805D011703F
:1079100028000193FFF73EF9EBE73300F0E7FFF7AC
:10792000F9F82900019BF431013B5A1C06D00C7870
:107930005A1EE4B2002CAFD01300F6E7684601935C
:107940000024FEF710F92A002900EC321368F03108
:10795000B44202D0086898421DD8096899429FD164
:10796000002368461360AB65FFF7D4F82F002A00A8
:107970000021019BF437013BF532581C00D18BE705
:10798000397010785E1E002811D011702800019304
:10799000FFF700F9EAE72800591CEB181160AC3337
:1079A00019780830C9B2FFF747FF0134CBE733003D
:1079B000E3E710B50400FFF74DFF206D10BD10B5D3
:1079C0000400FFF747FF236D002B03D0E36CE4189E
:1079D000207A10BD01204042FBE7F7B517000E00EA
:1079E0000400FFF737FF6846FFF794F83F220025B1
:1079F0009446019B013B5A1C19D0BD4215D2226D01
:107A0000002A12D00121226D4942002A0AD0604684
:107A1000E26CA218117AE26C01320240E264226D3B
:107A2000013A226571550135E7E7013BE3E7684616
:107A30000193FEF798F82800FEBD0000014B024AB2
:107A40001A6070471C2100200050004170B50E00E4
:107A500000254468002C0BD0236831005B682000AF
:107A60009847002802DB2D18E468F3E701256D42F2
:107A7000280070BD70B50D004468002C08D0236844
:107A800029009B6820009847002802D1E468F4E7A9
:107A9000200070BD70B50D004468002C07D023682D
:107AA00029002000DB689847E4682D18F5E72C7062
:107AB00070BD70B50D004468002C08D02368290003
:107AC0001B6820009847002802D1E468F4E72000F2
:107AD00070BDF8B542788B790D00017A9B180400CF
:107AE00000208B4222DC6368834219D16560002646
:107AF00023786A71EA792B719B182370AB79B342B2
:107B000013D9AB68B7006078DF19FFF78FFE3B68C9
:107B1000013603606378F6B201336370EEE70B0061
:107B2000D9680029FBD1DD60E1E70120F8BD000044
:107B300070B50126054D064C2B68334203D1200059
:107B4000FFF76CFE2E60200070BDC0462022002092
:107B50002422002010B503F067FF10BD10B503F01C
:107B60006DFF10BD0020704770B50F26CB1D013989
:107B700002003240D5B22C0000093034092A00DD61
:107B800007341C70013B8B42F2D170BD10B50C0064
:107B90000B4B1868FFF7E8FF21000A4B0831186803
:107BA000FFF7E2FF2100084B10311868FFF7DCFFF8
:107BB0002100064B18311868FFF7D6FF202010BDB2
:107BC0000CA0800040A0800044A0800048A080005D
:107BD00008B4024B9C46103808BC60478D7B0000FF
:107BE0003F20704713B56B460268D971073354685C
:107BF00019000122A04716BD70B50A260B7892B075
:107C00006E44023305000B703C220021300003F06B
:107C100028FF394801AC06903848242107900620F7
:107C200020776846364AA1742281364A364BA281B3
:107C3000FD3AFF3A8018C177684623390630C1778C
:107C400068460730C17702A8C1770720F27703267C
:107C500008316944C87703A9CE7710212B366E44CA
:107C60003170092621851F3169440E700CA9053E2B
:107C70000E7033212380022369440B7006360DA950
:107C80000E7022493536A1863B216E44307010A813
:107C90006274E27702703D3269446A440B7013707B
:107CA00040210022E37023716371A37341336B445D
:107CB000218719705A702B7DC039A370A372637726
:107CC0000133DBB2A3776A7D0B200D0068441543B6
:107CD000C5773120684403703A23501C6B441870F8
:107CE000412302320A436B441A70210042220848A1
:107CF000FFF758FB12B070BD1001042402060524E2
:107D00000904000001020000080B00000705000044
:107D1000641C002008B4024B9C46103808BC604725
:107D2000F97B000070B5027D0B790C0000259A42AA
:107D30000BD10B784E78A12B09D1212E05D107222A
:107D40001B491C48FFF72EFB0135280070BD212B75
:107D5000FBD1202E22D1072215491648FFF758FAE9
:107D60009622134BD200196891421DD1DB79DB07B3
:107D70001AD4FA20FEF716FE00210E48FFF71AFC6F
:107D80000125232EE1D1E378A2781B0213430A4A8E
:107D9000002108481360FFF70DFCD6E7222EEFD133
:107DA0008A78034BDA71DBE7FEF706FEE4E7C046AC
:107DB0002C000020641C00202800002008B4024B86
:107DC0009C46103808BC6047257D000010B5417DF9
:107DD000006A0131FFF746F9034B1B6801335A1E55
:107DE0009341181810BDC0463400002010B5417DE5
:107DF000006A0231FFF74CF910BD10B5417D006AF1
:107E00000231FFF713F910BD70B50D00417D04007C
:107E1000130002312A00006AFFF70EFA002801D190
:107E20000123636070BD000010B5054C23685A1C27
:107E300004D103685B69984703002060180010BDF7
:107E400034000020074A0300106810B5411C03D01D
:107E500001235B42136010BD597D186A0131FFF7A1
:107E60009BF9F8E7340000200020704770470000BD
:107E7000FA239B0010B583600F4B0022C3820300DE
:107E8000283383610D4B04004260C2611800403307
:107E900023610830631D21622060DA778323A362A7
:107EA000813BE36280332363FFF742FE2100103100
:107EB000FFF70FFE200010BD0302000008E70000DE
:107EC000022110B5094B1A68437D5B01D318FF33BB
:107ED0009C7A21439972437D0133DBB25B01D31855
:107EE0000122FF33997A0A439A7210BD1C210020A7
:107EF0007047000010B502490248FFF7B9FF10BDF6
:107F0000641C00203022002030B5204A4B0087B08E
:107F10005B0893421CDD1E4A934205DD02000B0004
:107F200003F0D6F807B030BD02AA00F053FA0323DD
:107F30001840049A059B01280FD002281CD0002865
:107F400015D0029803990124009401F0CDF9E9E7D6
:107F50000022002300F04EFCE4E700900298039911
:107F600001F0C2F980231B069C466144DAE70298BF
:107F7000039900F03FFCD5E70298039900F03AFC22
:107F800080231B069C466144CCE7C046FB21E93FA9
:107F9000FFFFEF7FF8B5274A4B005B0D9A180C00E6
:107FA0000700132A10DC002A36DB234B13410B4257
:107FB0003AD0802424031441002064189C43060016
:107FC000250030002900F8BD332A0EDD802306008D
:107FD000DB000D009A42F4D102000B0038002100B2
:107FE00001F0DEFE06000D00EBE7144D0600AC4686
:107FF000012563446D42DD40AC4663460D000342FB
:10800000DFD033239A1A323B93401818874200D9A5
:108010004C1C63469843D2E7C90FCC070020531C81
:10802000CDD1074B1C43CAE706000D000028C0D184
:10803000C7E7C04601FCFFFFFFFF0F00EDFBFFFF9E
:108040000000F03FF0B54746CE4680B58DB01D002C
:1080500006000F00140000F061F82E4B0090019113
:108060001B785BB2984601333CD022002B002000E5
:10807000290003F075FB002834D132003B003000AA
:10808000390003F06DFB814600282BD1002200232C
:108090002000290001F07CFC002823D0012302935A
:1080A0001D4B0496059703934B460A93434606944B
:1080B0000795002B1DD0002300221900100002F0AC
:1080C0008BF9434608900991022B14D103F082FCEE
:1080D000212303600A9B0093002B15D1089B099C68
:1080E00000930194009801990DB00CBC90469946FC
:1080F000F0BD0896099702A801F048FA0028E5D0DB
:108100000A9B0093002BE9D003F064FC0A9B0093C8
:108110000360E3E73800002058E70000F0B5574659
:108120004546DE464E465C006408E0B5250083B057
:1081300092469446154322D09B4E4D006D08B542A1
:108140001DDC56421643994FF60F2643BE4216D801
:10815000CE0FF60783460700B146A54220DC060095
:108160008846A54213DB904211D319D14B46DA0F52
:108170008F4BD2009B181E685B68984607E002F0A0
:1081800035FD02000B0002F027F90600884630009A
:10819000414603B03CBC90469946A246AB46F0BD72
:1081A000844EB54245DD2E15B346834EB0465E463D
:1081B000464401967F4EB44200DDA5E0002C00D07D
:1081C000BDE05646002E00DCE7E07C4EB0460126BE
:1081D0007642B34656467600D844B246002EF6DCC8
:1081E000774EB246019E564500DA7EE080250903AF
:1081F000090B6D030D437249884568DB80241B031E
:108200001B0B64032343424601998E1A6246E91A06
:10821000B81A002E2DD0674592415242891A19D4BE
:108220000A0002431CD04900C50F4D194700013E0A
:10823000ECE7002D76D15E46002E00DCB0E05F4E0C
:108240000196019E013E01965E467600B346002EE1
:10825000F7DCAFE7FA0F6D00AD187F00013ED5E700
:108260004B46D90F524BC9005B181E685B68984695
:108270008DE767459B415B42C91A01D5380029004B
:108280000B000343ECD04B4B1A00994209DCC30F9F
:108290004900C91801235B429C464000E0449142DA
:1082A000F5DD474B98455FDA42469B1A142B67DC95
:1082B00002000C004348DA404044194184404B46D8
:1082C00020000B43994610430600C8465FE743462B
:1082D000C91A1F291EDC10003A4B8C404344D84079
:1082E0008A400300944623438DE75146019E8F1B2D
:1082F0001F2F32DCB24606003249BD405144CE4009
:10830000B8403543070076E72615B0462A4EB246F8
:10831000D04465E741462C4B5B1A9A40130000227B
:10832000944670E7EE02B046254E0196019E013E4E
:10833000019646467600B046002EF7DC3AE7E602A4
:10834000B2461F4EB04601267642B34656467600E8
:10835000D844B246002EF6DC42E7019D1A490027B8
:10836000491B8840050046E7184B194C9C464B4674
:1083700044446144240519430C430600A04606E723
:108380001F2B05DCD8400F4B4344994008439BE723
:108390000D4B9B1A1941080096E7084EB0461FE79F
:1083A000064E019606E7C046FFFFEF7F0000F07F14
:1083B00060E70000FFFF0F0001FCFFFFEDFBFFFF88
:1083C00002FCFFFF1E040000E2FBFFFF0000F0FFC5
:1083D000FF030000F0B54E464546DE465746E0B581
:1083E000E14B4C008FB09046894664089C4200DC0B
:1083F00087E0DE4B9C4222DCDD4A002900DC92E073
:10840000DC4B02F065FEDB4B06000F009C4200D106
:108410007EE1D94AD94B02F05BFE02000B004146D7
:1084200030000A604B60390002F052FED34BD24A52
:1084300002F04EFE434601259860D9606BE0D04BB8
:108440009C4200DC8FE0CF4B9C4200DD55E1CE4AE0
:10845000231592469A4451460905631A19001D00D6
:10846000040003F099F903F0CDF902000B0020009D
:1084700029000892099302F02BFE0022C34B02F060
:10848000B5FB0F00060003F087F903F0BBF9040009
:108490000D0002000B00300039000A940B9502F029
:1084A00017FE0022B94B02F0A1FB002200230C9022
:1084B0000D9101F06DFA002800D192E10023002215
:1084C0002000290001F064FA434243410133B04ADD
:1084D00041460192022208A80092524600F0A4FAF6
:1084E0004B460500002B16DA8022434612069446BE
:1084F00042465B68454263445360D3686344D3603B
:1085000009E00B00020041460A604B600022002394
:1085100000258A60CB6028000FB03CBC904699468D
:10852000A246AB46F0BD934B01F03AFC914B0600DE
:108530000F009C4200D13DE18F4A904B01F030FC8E
:1085400002000B00414630000A604B60390002F027
:10855000BFFD894A894B01F023FC012543466D424A
:108560009860D960D7E700F071FF8A4A8A4B06000D
:108570000F0002F03BFB0022884B01F011FC03F0DE
:108580000BF9050003F03EF9794A7A4B0490059106
:1085900002F02CFB02000B003000390002F098FDC5
:1085A000754A06000F0004980599744B02F01EFBF3
:1085B000029003911F2D00DCC7E0029A039B30005C
:1085C000390002F085FD83468A4653465B00241538
:1085D0005B0DE31A102B6CDD04980599D322674BD1
:1085E000520502F003FB02000B003000390002923A
:1085F000039302F06DFD0A0001001300069107923B
:1086000002003900300002F063FD029A039B02F081
:108610005FFD06000F0004980599614A614B02F066
:10862000E5FA32003B0002F053FD069E079F0B0067
:108630000200390030000292039302F049FD4B0022
:108640005B0D83468A46E41A312C32DD0498059985
:10865000B822544B920502F0C9FA03000C00020044
:10866000029303940B000698079902F031FD020073
:108670000B0006000F000698079902F029FD029AE8
:10868000039B02F025FD484A029003910498059946
:10869000464B02F0ABFA029A039B02F019FD02006E
:1086A0000B00300039000292039302F011FD834663
:1086B0008A465A465346414630000A604B603900AC
:1086C00002F006FD029A039B02F002FD44460B00F5
:1086D0000200A260E3604B46002B00DB1BE75B4619
:1086E000236080231B065344636080231B069C4643
:1086F0006144A060E1606D420DE70B00020002F0F2
:10870000E7FC434600259860D9601860596002E78D
:10871000D3221A4B520502F0DBFC214A214B0D00FB
:10872000040002F0D5FC02000B00414620000A6064
:108730004B60290002F0CCFC1A4B194A02F0C8FC2D
:10874000434601259860D960E5E602000B00300041
:10875000390002F0BDFC6B1E154A9B009B588346F6
:108760008A46A342A5D130E7FB21E93F7BD90240ED
:1087700000004054FB21F93F3163621A61B4D03DDF
:10878000FB213941FFFFEF7FEAFBFFFF0000704153
:10879000F0E7000083C8C96D305FE43F0000E03FB0
:1087A0007370032E8A19A33BC14920259A837B3914
:1087B00070E70000D3220C4B520501F0F1FA0B4A8E
:1087C0000B4B04000D0001F0EBFA02000B004146D8
:1087D00020000A604B60290002F07AFC034A044B37
:1087E000B9E6032373E6C04661B4D03D7370032E2F
:1087F0008A19A33BF0B54746CE4680B587B00092B4
:108800000193754B4F00814688467F089F4263DC89
:1088100002F0C2FF002800D1D4E04A464346484651
:10882000414602F0E3F904000D006C4A6C4B02F083
:10883000DDF96C4A6C4B01F0B3FA22002B0002F018
:10884000D5F96A4A6A4B02F043FC22002B0002F081
:10885000CDF9684A684B01F0A3FA22002B0002F020
:10886000C5F9664A664B02F033FC22002B0002F089
:10887000BDF9644A644B01F093FA22002B0002F028
:10888000B5F9029003910022604B2000290002F00C
:10889000ADF9029A039B06000F002000290002F0A8
:1088A000A5F9009A019B04000D004846414602F0DC
:1088B0009DF902000B002000290002F009FC0200D3
:1088C0000B003000390002F003FC02000B00002016
:1088D0004F4902F0FDFB70E002000B0002F086F948
:1088E00004000D003D4A3E4B02F080F93D4A3E4BEC
:1088F00001F056FA22002B0002F078F93B4A3C4B7B
:1089000002F0E6FB22002B0002F070F9394A3A4BE4
:1089100001F046FA22002B0002F068F9374A384B82
:1089200002F0D6FB22002B0002F060F9354A364BEC
:1089300001F036FA2B00220002F058F9354B029074
:1089400003919F429FDD344B00229F423DDC33491F
:1089500000207B182E4916001F0002F0B9FB04907E
:1089600005910022294B2000290002F03FF9320036
:108970003B0002F0ADFB029A039B06000F002000B3
:10898000290002F033F9009A019B04000D004846CB
:10899000414602F02BF902000B002000290002F0F2
:1089A00097FB02000B003000390002F091FB02003F
:1089B0000B000498059902F08BFB07B00CBC9046A5
:1089C0009946F0BD00201249F7E7154B00260492A6
:1089D0000593144FC5E7C046FFFF3F3ED43888BE1D
:1089E000E9FAA8BDC4B1B4BD9EEE213EAD529C8053
:1089F0004F7E923E9015CB19A001FA3E7751C116D9
:108A00006CC1563F4C5555555555A53F0000E03FAC
:108A10000000F03F3233D33F0000E93F0000E0FFA9
:108A20000000E73F0000D23FF0B5DE464E46454627
:108A30005746E0B5DC4CA5440D9114001900A49AEA
:108A40000993DA4B9200D6584D1E03901821E01E70
:108A50000696029500F0A0FEC3430100DB17194003
:108A60004B1C9A009B1ADB001B190B9105934C1BA6
:108A7000771918D4A59BA5009C463F1922AE6544E2
:108A8000013707E0286802F0BDFE013403C6043553
:108A9000BC4208D0002CF5DA00200021013403C6C6
:108AA0000435BC42F6D1069B002B01DA00F0FDFB39
:108AB000069B03990133DB009A46099BDA00944632
:108AC00000920022914672AA0492B94A61449346E8
:108AD00088469AAB63449B44029B002B00DABCE1BE
:108AE0005D4600260027039C4D442A686B6803CC32
:108AF00002F07CF802000B003000390001F050F960
:108B0000083D06000F004445EFD1049B4B441E6016
:108B10005F6008239C46E144D145DDD10EA80421C5
:108B20008446494261448C46069A93009C446146BF
:108B300084460A910399083B63448C460C93009B3E
:108B4000009263449B46009A0498D10003008C462F
:108B5000634408911E685F68002A33DD95498046AA
:108B60008C466244D300984470AB9A460EAB99464B
:108B70000022914B3000390002F038F802F00CFE70
:108B800002F040FE00228D4B04000D0002F02EF892
:108B900002000B003000390002F09AFA02F0FCFDEE
:108BA0004B4601C39946434620001A685B6829007A
:108BB00001F0F6F808235B429C46E04406000F00F3
:108BC000D045D5D1059B30001A003900984600F0F9
:108BD000DFFCFF2300229B0504000D0002F006F8D5
:108BE00000F038FC0022764B02F000F802000B0087
:108BF0002000290002F06CFA0D00040002F0CCFD08
:108C0000814602F0FFFD02000B002000290002F067
:108C10005FFA060040460F00002800DCEEE0009BF3
:108C200018215A1E92000EAB9B58091A1D000D41C7
:108C3000A9448D405D1B0EAB9D5017231B1A1D418F
:108C4000002D2DDD01239C46009BE144002B00DC20
:108C50001CE20E9C0123002C00D0B5E0009A012AF2
:108C600009D099000EAA54580133002C00D0ACE072
:108C7000009A9A42F5D1059B002B0EDD012B00D105
:108C8000A8E1022B09D1009B0EA95A1E92000EAB3F
:108C90009B5807939B029B0A8B50022D00D1C1E089
:108CA000002300223000390000F072FE009B0028F3
:108CB00000D194E2069A591E8A4210DC414A0A9871
:108CC00094460EAA6344944600229B0063441C68A9
:108CD000043B22438342FAD1002A00D0C0E0069B25
:108CE0000EAA013B9B00D358002B00D0B3E0012219
:108CF0000C9B043B596801320029FAD0009B9C462A
:108D00006244110007921A0001338B4246DC0B9833
:108D100063468046A59C4344A046099C9B00A1460F
:108D20004A449844D30022AA9146049A994494460E
:108D3000089BA59A63448446614494469A468B00F6
:108D4000634400934346586802F05CFD4B4618604C
:108D50005960029B002B24DB4D46039C0026002714
:108D600001E0286869680CCC01F040FF02000B00AC
:108D70003000390001F014F8083D06000F005C4592
:108D8000EFD153469E60DF6004239C460433E044E9
:108D90009C46009BE144E2449845D3D1079B009355
:108DA000D1E600260027ECE794FDFFFF38E900003C
:108DB00018FEFFFFFFFFFF1F0000703E0000704124
:108DC00000002040FFFFFF3F002180225204141BBF
:108DD0000EAA5450009999420EDD0EA884469B00BD
:108DE0000EAA8900D25861446344CF4800E01A6853
:108DF000821A04C38B42FAD101243CE7059B002B65
:108E000006D1009B0EAA013B9B00D558ED1517E734
:108E10000022C64B300000F0DFFD002800D024E126
:108E200000253DE732003B000020C14902F050F927
:108E300006000F00002C00D132E7059A0020BC4943
:108E400000F0A6FB02000B003000390002F040F9F0
:108E500006000F0024E7012250E70026002754E611
:108E60004B46059A079388468B000EA9CB58183AB3
:108E700008950592002B0DD18C464146AD4B4344DD
:108E80009B006344043B58680139183A0028F9D024
:108E900088460592059A0020A54900F079FB4346D3
:108EA00004000D00002B00DA05E29E000EAB9C468C
:108EB0004346DB0066449C46059370AB9946049F8D
:108EC00067440097306802F09DFC22002B0001F0FF
:108ED0008DFE002238607960974B2000290001F058
:108EE00085FE083F04000D00043EB945EAD14AABB7
:108EF00003939B4600239A46069B42469946434667
:108F00000132029204934B46002B00DAAAE0802043
:108F10008A4B009D9846C0058949002600270024F9
:108F200008E008239C460835E044544511DC4346DC
:108F3000186859682A686B6801F058FE02000B0037
:108F40003000390000F02CFF013406000F00A1456D
:108F5000E7DA5B46C0C39B4601239C46009BE24484
:108F6000083B0093029B9A45CDD1049B9846A49B55
:108F7000022B00DD8EE0002B37DC1FD1059B002784
:108F80001D00039B00249C461E006544083E2A6881
:108F90006B683800210000F003FF083D07000C005B
:108FA000AE42F4D1089B002B03D080231B069C46C5
:108FB00064443A0023000D990A604B600720079B28
:108FC00018409B239B009D443CBC90469946A2467A
:108FD000AB46F0BD009B0EA95A1E92000EAB9B58EB
:108FE00007935B025B0A8B5057E64346002B00DA7F
:108FF00070E100200021DB004AAAD61848AF326891
:109000007368083E00F0CCFEB742F8D1089B002BF5
:1090100000D025E10B0002004A984B990D9C22607C
:10902000636002F055F8434607000C00002B13DD87
:1090300001254CAEB14638002E0021004C460136C9
:109040000CCC00F0ADFEA146B045F7DA089B070056
:109050000C00002B00D015E13A0023000D998A6026
:10906000CB60ABE70026002773E701239C46009BFB
:10907000E1440225002B00DDEBE532003B0000203F
:109080002B4902F025F806000F0009E60024F2E55E
:109090004AAB0393A49B032B00D08FE74346002BDE
:1090A00000DC14E1039ADB009B46130091465B440D
:1090B0001E685F68234B43440293DB00994448AB2E
:1090C0009A464B465C681B681800210032003B0042
:1090D0000090019100F064FE04000D0002000B00FE
:1090E0000098019901F0F4FF3B00320000F058FEB7
:1090F0004B469860D9601C605D6008235B429C46CB
:10910000E14426002F00CA45DBD14346012B00DC99
:10911000E3E0039A13005B441E685F68029BDB0078
:1091200099464A44904610E0FFFFFF000000E03FF0
:109130000000F03FFFFFFF3F0000703EF8E8000036
:10914000FB21F93FFFFFFF1F984643465C681B6801
:109150001800210032003B000090019100F020FE39
:1091600004000D0002000B000098019901F0B0FF0F
:1091700032003B0000F014FE4346039A9860D96029
:109180001C605D60083B26002F009A42DCD14D46F2
:109190009446002600244746083565442A686B68D3
:1091A0003000210000F0FCFD083D06000C00AF423D
:1091B000F4D1039B4A9F5D689968D868089B002B8F
:1091C00065D08022120694460D9B65446044644439
:1091D0001F605D609960D8601E615C61EEE69A4632
:1091E0004B460793059B30005A423900089500F022
:1091F000CFF900223A4B06000F0000F0EDFB0028EB
:1092000024D0384B00223000390001F0EFFC02F08E
:10921000C3FA52460400950002F0F4FA0022304BE3
:1092200001F0E4FC02000B003000390001F050FFB7
:1092300002F0B2FA0EAA50510122059B5244183393
:109240009046059393000EAAD45023E6534630006F
:1092500039009C0002F0A0FA0EAB1851D04619E676
:1092600080230D9A1B06CB18106053600B00020080
:109270004A984B9901F02CFF434607000C00002B45
:1092800000DDD5E680231B069C466444E4E62B0003
:109290003A000D9D2A606B600A000300AA60EB6033
:1092A000320023002A616B6188E6099BDB00009392
:1092B00072AB049332E4A49B022B00DDE8E6002BA2
:1092C00000DD92E600D079E6002700246AE6002659
:1092D00000246EE70020002198E60026340068E7AD
:1092E000000070410000703EF0B5CE46474680B5A4
:1092F00087B000920193474A4B00814688465B083D
:10930000934207DC4146484602F046FA4146031EB6
:10931000484666D04A4643464846414601F066FC08
:1093200004000D0002000B004846414601F05EFCBF
:10933000394A3A4B06000F002000290001F056FC84
:10934000374A384B01F0C4FE22002B0001F04EFCDE
:10935000354A364B00F024FD22002B0001F046FC7C
:10936000334A344B01F0B4FE22002B0001F03EFCE6
:10937000314B324A00F014FD0E9B02900391002BFA
:1093800034D00098019900222D4B01F02FFC029A55
:10939000039B049005913000390001F027FC020086
:1093A0000B000498059901F093FE22002B0001F0B8
:1093B0001DFC009A019B01F08BFE224A04000D0067
:1093C000214B3000390001F011FC02000B0020009D
:1093D000290000F0E5FC02000B004846414601F080
:1093E00077FE07B00CBC90469946F0BD02000B001A
:1093F0002000290001F0FAFB124A134B01F068FE2D
:1094000032003B0001F0F2FB4A46434600F0C8FC44
:10941000E7E7C046FFFF3F3E7CD5CF5A3AD9E53D4E
:10942000EB9C2B8AE6E55A3E7DFEB157E31DC73E15
:10943000D561C119A0012A3F1111813FA6F8101171
:109440000000E03F495555555555C53F49004B086B
:1094500019007047474AF0B54F4691464B005B0DE7
:1094600099444646D6464A46C0B505000C000E0053
:1094700088460700132A27DC002A4BDB3E4B1341AA
:109480009A460B0052461340034318D03B4A3C4BCC
:109490002800210000F084FC0022002300F092FA52
:1094A000002847D0002C04DA80234A465B0313418E
:1094B00098444646534600279E43380031001CBC62
:1094C00090469946A246F0BD332A08DD8023DB0092
:1094D0009945F4D102000B0000F062FCEFE7294A45
:1094E0009446012263445242DA4092460242E6D058
:1094F000224A234B2800210000F052FC00220023C6
:1095000000F060FA002815D0002C1EDB53464646BA
:109510009F430FE0194A1A4B2800210000F040FC3D
:109520000022002300F04EFA002803D0002C04DBB8
:109530000027002638003100C1E764006408254395
:109540000027002DF6D0104EF4E74B46142B0BD01D
:109550003422D21A012393405D19BD4208D201235F
:109560009C462F00E044D1E7133B9C46E044CDE706
:109570002F00CBE701FCFFFFFFFF0F009C75008869
:109580003CE4377EEDFBFFFF0000F0BF002070479A
:109590004B0070B55B0D14000A00002B1AD14B0074
:1095A0005B08034315D0234B002201F01FFB224B25
:1095B0009C422DDB0A004B005B0D363B1F4DE31830
:1095C000AB422ADC002B0DDD1D4C1B0522401A434B
:1095D000110070BD1B4DAB42F0D102000B0000F03A
:1095E000DFFBF6E71D00353519DA174B02009C4208
:1095F00009DD0B001548164900F032F8134A144BE8
:1096000001F0F4FAE5E70B001248134900F028F8DE
:10961000104A114B01F0EAFADBE70200E9E7084CD7
:10962000363322401B051343190000220B4B01F077
:10963000DDFACEE700005043B03CFFFFFE0700001C
:10964000FFFF0F80FF07000050C300009C750088DB
:109650003CE4377E59F3F8C21F6EA5010000903C30
:1096600030B54A00DB0FDB0752081A43110030BD4A
:1096700002B4714649084900095C49008E4402BCA5
:109680007047C046002243088B4274D303098B42C3
:109690005FD3030A8B4244D3030B8B4228D3030CC2
:1096A0008B420DD3FF22090212BA030C8B4202D364
:1096B0001212090265D0030B8B4219D300E0090A8C
:1096C000C30B8B4201D3CB03C01A5241830B8B4295
:1096D00001D38B03C01A5241430B8B4201D34B037E
:1096E000C01A5241030B8B4201D30B03C01A5241E3
:1096F000C30A8B4201D3CB02C01A5241830A8B4268
:1097000001D38B02C01A5241430A8B4201D34B0250
:10971000C01A5241030A8B4201D30B02C01A5241B4
:10972000CDD2C3098B4201D3CB01C01A5241830968
:109730008B4201D38B01C01A524143098B4201D3A2
:109740004B01C01A524103098B4201D30B01C01ACD
:109750005241C3088B4201D3CB00C01A5241830847
:109760008B4201D38B00C01A524143088B4201D374
:109770004B00C01A5241411A00D2014652411046D4
:109780007047FFE701B5002000F0F0F802BDC046C9
:109790000029F7D076E7704703460B437FD40022B9
:1097A00043088B4274D303098B425FD3030A8B4275
:1097B00044D3030B8B4228D3030C8B420DD3FF22DF
:1097C000090212BA030C8B4202D31212090265D0AD
:1097D000030B8B4219D300E0090AC30B8B4201D360
:1097E000CB03C01A5241830B8B4201D38B03C01AA7
:1097F0005241430B8B4201D34B03C01A5241030B1E
:109800008B4201D30B03C01A5241C30A8B4201D3CE
:10981000CB02C01A5241830A8B4201D38B02C01A79
:109820005241430A8B4201D34B02C01A5241030AF0
:109830008B4201D30B02C01A5241CDD2C3098B42D5
:1098400001D3CB01C01A524183098B4201D38B0152
:10985000C01A524143098B4201D34B01C01A5241F5
:1098600003098B4201D30B01C01A5241C3088B423A
:1098700001D3CB00C01A524183088B4201D38B0025
:10988000C01A524143088B4201D34B00C01A5241C7
:10989000411A00D201465241104670475DE0CA0F9E
:1098A00000D04942031000D34042534000229C465E
:1098B00003098B422DD3030A8B4212D3FC22890168
:1098C00012BA030A8B420CD3890192118B4208D33E
:1098D000890192118B4204D389013AD0921100E0A0
:1098E0008909C3098B4201D3CB01C01A52418309B4
:1098F0008B4201D38B01C01A524143098B4201D3E1
:109900004B01C01A524103098B4201D30B01C01A0B
:109910005241C3088B4201D3CB00C01A5241830885
:109920008B4201D38B00C01A5241D9D243088B42DB
:1099300001D34B00C01A5241411A00D2014663467E
:1099400052415B10104601D34042002B00D54942E2
:10995000704763465B1000D3404201B5002000F021
:1099600005F802BD0029F8D016E770477047C046D9
:109970008446101C62468C46191C634600E0C046B3
:109980001FB501F0CBF8002801D40021C8421FBD4B
:1099900010B501F023F84042013010BD10B501F0C0
:1099A000BDF8002801DB002010BD012010BDC0461D
:1099B00010B501F0B3F8002801DD002010BD012032
:1099C00010BDC04610B501F045F8002801DC0020AC
:1099D00010BD012010BDC04610B501F03BF80028B5
:1099E00001DA002010BD012010BDC04670B5002274
:1099F0000C4B04000D00FFF7EFFF002804D12000FE
:109A0000290001F0C9FE70BD064B0022200029008C
:109A100001F05EFB01F0C0FE80231B069C46604403
:109A2000F1E7C0460000E041F8B557464E464546CE
:109A3000DE464402E0B546008846640A360EC70F8B
:109A4000002E63D0FF2E24D08023E400DB041C43CF
:109A5000002399469B467F3E434642465D02D20F15
:109A60005B006D0A1B0E9046924665D0FF2B55D0C9
:109A700080220021ED00D2047F3B1543F61A4346B5
:109A80004A467B400F2A00D98DE06D4892008258EB
:109A90009746002C54D108239946063BFF269B4647
:109AA000DAE70025534602291BD0032900D1BFE085
:109AB000012928D030007F30002820DD6A0704D03B
:109AC0000F222A40042A00D004352A0103D5300091
:109AD0005C4A80301540FE2803DCAC01640AC2B247
